{
  "_format": "hh-sol-artifact-1",
  "contractName": "manufacturerProduct",
  "sourceName": "contracts/manufacturerProduct.sol",
  "abi": [
    {
      "inputs": [
        {
          "internalType": "address",
          "name": "_udAddress",
          "type": "address"
        }
      ],
      "stateMutability": "nonpayable",
      "type": "constructor"
    },
    {
      "anonymous": false,
      "inputs": [
        {
          "indexed": true,
          "internalType": "uint256",
          "name": "_mpId",
          "type": "uint256"
        },
        {
          "indexed": false,
          "internalType": "address[]",
          "name": "_supplierAddress",
          "type": "address[]"
        },
        {
          "indexed": false,
          "internalType": "uint256[]",
          "name": "_smId",
          "type": "uint256[]"
        },
        {
          "indexed": false,
          "internalType": "bytes",
          "name": "_name",
          "type": "bytes"
        },
        {
          "indexed": false,
          "internalType": "bytes",
          "name": "_description",
          "type": "bytes"
        },
        {
          "indexed": false,
          "internalType": "uint128",
          "name": "_unit",
          "type": "uint128"
        },
        {
          "indexed": false,
          "internalType": "uint128",
          "name": "_price",
          "type": "uint128"
        },
        {
          "indexed": false,
          "internalType": "uint32",
          "name": "_date",
          "type": "uint32"
        },
        {
          "indexed": false,
          "internalType": "uint32",
          "name": "_expiryDate",
          "type": "uint32"
        }
      ],
      "name": "eventAddManufacturerProduct",
      "type": "event"
    },
    {
      "anonymous": false,
      "inputs": [
        {
          "indexed": false,
          "internalType": "uint256",
          "name": "_mpId",
          "type": "uint256"
        }
      ],
      "name": "eventDeleteManufacturerProduct",
      "type": "event"
    },
    {
      "anonymous": false,
      "inputs": [
        {
          "indexed": true,
          "internalType": "uint256",
          "name": "_dpId",
          "type": "uint256"
        },
        {
          "indexed": false,
          "internalType": "uint128",
          "name": "_quantity",
          "type": "uint128"
        }
      ],
      "name": "eventUpdateManufacturerProductUints",
      "type": "event"
    },
    {
      "inputs": [
        {
          "internalType": "address[]",
          "name": "_supplierAddress",
          "type": "address[]"
        },
        {
          "internalType": "uint256[]",
          "name": "_smId",
          "type": "uint256[]"
        },
        {
          "internalType": "bytes",
          "name": "_name",
          "type": "bytes"
        },
        {
          "internalType": "bytes",
          "name": "_description",
          "type": "bytes"
        },
        {
          "internalType": "uint128",
          "name": "_unit",
          "type": "uint128"
        },
        {
          "internalType": "uint128",
          "name": "_price",
          "type": "uint128"
        },
        {
          "internalType": "uint32",
          "name": "_date",
          "type": "uint32"
        },
        {
          "internalType": "uint32",
          "name": "_expiryDate",
          "type": "uint32"
        }
      ],
      "name": "addManufacturerProduct",
      "outputs": [],
      "stateMutability": "nonpayable",
      "type": "function"
    },
    {
      "inputs": [
        {
          "internalType": "address",
          "name": "_ownerAddress",
          "type": "address"
        }
      ],
      "name": "changeOwner",
      "outputs": [],
      "stateMutability": "nonpayable",
      "type": "function"
    },
    {
      "inputs": [
        {
          "internalType": "address",
          "name": "_udAddress",
          "type": "address"
        }
      ],
      "name": "changeUdAddress",
      "outputs": [],
      "stateMutability": "nonpayable",
      "type": "function"
    },
    {
      "inputs": [
        {
          "internalType": "uint256",
          "name": "_mpId",
          "type": "uint256"
        }
      ],
      "name": "deleteManufacturerProduct",
      "outputs": [],
      "stateMutability": "nonpayable",
      "type": "function"
    },
    {
      "inputs": [
        {
          "internalType": "address",
          "name": "_manufacturerAddress",
          "type": "address"
        }
      ],
      "name": "getAllProductsOfManufacturer",
      "outputs": [
        {
          "components": [
            {
              "internalType": "address[]",
              "name": "supplierAddress",
              "type": "address[]"
            },
            {
              "internalType": "uint256[]",
              "name": "smId",
              "type": "uint256[]"
            },
            {
              "internalType": "bytes",
              "name": "mp_name",
              "type": "bytes"
            },
            {
              "internalType": "bytes",
              "name": "mp_description",
              "type": "bytes"
            },
            {
              "internalType": "uint128",
              "name": "mp_unit",
              "type": "uint128"
            },
            {
              "internalType": "uint128",
              "name": "mp_price",
              "type": "uint128"
            },
            {
              "internalType": "uint32",
              "name": "mp_date",
              "type": "uint32"
            },
            {
              "internalType": "uint32",
              "name": "mp_expiryDate",
              "type": "uint32"
            },
            {
              "internalType": "bool",
              "name": "mp_status",
              "type": "bool"
            },
            {
              "internalType": "address",
              "name": "distributorAddress",
              "type": "address"
            },
            {
              "internalType": "uint32",
              "name": "dispatchTime",
              "type": "uint32"
            },
            {
              "internalType": "uint32",
              "name": "arrivalTime",
              "type": "uint32"
            }
          ],
          "internalType": "struct IManufacturerProduct.manufacturerProduct[]",
          "name": "",
          "type": "tuple[]"
        }
      ],
      "stateMutability": "view",
      "type": "function"
    },
    {
      "inputs": [],
      "name": "getManufacturerProductIds",
      "outputs": [
        {
          "internalType": "uint256[]",
          "name": "",
          "type": "uint256[]"
        }
      ],
      "stateMutability": "view",
      "type": "function"
    },
    {
      "inputs": [
        {
          "internalType": "address",
          "name": "_address",
          "type": "address"
        }
      ],
      "name": "getMpIdsByAddress",
      "outputs": [
        {
          "internalType": "uint256[]",
          "name": "",
          "type": "uint256[]"
        }
      ],
      "stateMutability": "view",
      "type": "function"
    },
    {
      "inputs": [
        {
          "internalType": "uint256",
          "name": "_mpId",
          "type": "uint256"
        }
      ],
      "name": "getSingleManufacturerProduct",
      "outputs": [
        {
          "components": [
            {
              "internalType": "address[]",
              "name": "supplierAddress",
              "type": "address[]"
            },
            {
              "internalType": "uint256[]",
              "name": "smId",
              "type": "uint256[]"
            },
            {
              "internalType": "bytes",
              "name": "mp_name",
              "type": "bytes"
            },
            {
              "internalType": "bytes",
              "name": "mp_description",
              "type": "bytes"
            },
            {
              "internalType": "uint128",
              "name": "mp_unit",
              "type": "uint128"
            },
            {
              "internalType": "uint128",
              "name": "mp_price",
              "type": "uint128"
            },
            {
              "internalType": "uint32",
              "name": "mp_date",
              "type": "uint32"
            },
            {
              "internalType": "uint32",
              "name": "mp_expiryDate",
              "type": "uint32"
            },
            {
              "internalType": "bool",
              "name": "mp_status",
              "type": "bool"
            },
            {
              "internalType": "address",
              "name": "distributorAddress",
              "type": "address"
            },
            {
              "internalType": "uint32",
              "name": "dispatchTime",
              "type": "uint32"
            },
            {
              "internalType": "uint32",
              "name": "arrivalTime",
              "type": "uint32"
            }
          ],
          "internalType": "struct IManufacturerProduct.manufacturerProduct",
          "name": "",
          "type": "tuple"
        }
      ],
      "stateMutability": "view",
      "type": "function"
    },
    {
      "inputs": [
        {
          "internalType": "address",
          "name": "",
          "type": "address"
        },
        {
          "internalType": "uint256",
          "name": "",
          "type": "uint256"
        }
      ],
      "name": "manufacturerAddressToproductsIdMapping",
      "outputs": [
        {
          "internalType": "uint256",
          "name": "",
          "type": "uint256"
        }
      ],
      "stateMutability": "view",
      "type": "function"
    },
    {
      "inputs": [
        {
          "internalType": "uint256",
          "name": "",
          "type": "uint256"
        }
      ],
      "name": "manufacturerProductsIdToStructMapping",
      "outputs": [
        {
          "internalType": "bytes",
          "name": "mp_name",
          "type": "bytes"
        },
        {
          "internalType": "bytes",
          "name": "mp_description",
          "type": "bytes"
        },
        {
          "internalType": "uint128",
          "name": "mp_unit",
          "type": "uint128"
        },
        {
          "internalType": "uint128",
          "name": "mp_price",
          "type": "uint128"
        },
        {
          "internalType": "uint32",
          "name": "mp_date",
          "type": "uint32"
        },
        {
          "internalType": "uint32",
          "name": "mp_expiryDate",
          "type": "uint32"
        },
        {
          "internalType": "bool",
          "name": "mp_status",
          "type": "bool"
        },
        {
          "internalType": "address",
          "name": "distributorAddress",
          "type": "address"
        },
        {
          "internalType": "uint32",
          "name": "dispatchTime",
          "type": "uint32"
        },
        {
          "internalType": "uint32",
          "name": "arrivalTime",
          "type": "uint32"
        }
      ],
      "stateMutability": "view",
      "type": "function"
    },
    {
      "inputs": [
        {
          "internalType": "uint256",
          "name": "_mpId",
          "type": "uint256"
        }
      ],
      "name": "updateManufactureProductReceived",
      "outputs": [],
      "stateMutability": "nonpayable",
      "type": "function"
    },
    {
      "inputs": [
        {
          "internalType": "uint256",
          "name": "_mpId",
          "type": "uint256"
        },
        {
          "internalType": "address",
          "name": "_distributorAddress",
          "type": "address"
        }
      ],
      "name": "updateManufactureProductTransfer",
      "outputs": [],
      "stateMutability": "nonpayable",
      "type": "function"
    },
    {
      "inputs": [
        {
          "internalType": "uint256",
          "name": "_mpId",
          "type": "uint256"
        },
        {
          "internalType": "uint128",
          "name": "_quantity",
          "type": "uint128"
        }
      ],
      "name": "updateManufacturerProductUints",
      "outputs": [],
      "stateMutability": "nonpayable",
      "type": "function"
    }
  ],
  "bytecode": "0x608060405260016002553480156200001657600080fd5b50604051620032a7380380620032a783398181016040528101906200003c91906200012e565b33600160006101000a81548173ffffffffffffffffffffffffffffffffffffffff021916908373ffffffffffffffffffffffffffffffffffffffff160217905550806000806101000a81548173ffffffffffffffffffffffffffffffffffffffff021916908373ffffffffffffffffffffffffffffffffffffffff1602179055505062000160565b600080fd5b600073ffffffffffffffffffffffffffffffffffffffff82169050919050565b6000620000f682620000c9565b9050919050565b6200010881620000e9565b81146200011457600080fd5b50565b6000815190506200012881620000fd565b92915050565b600060208284031215620001475762000146620000c4565b5b6000620001578482850162000117565b91505092915050565b61313780620001706000396000f3fe608060405234801561001057600080fd5b50600436106100cf5760003560e01c806365603df21161008c578063cbd05c7d11610066578063cbd05c7d14610217578063d37889c614610233578063f6a989f81461024f578063f70ac6a41461027f576100cf565b806365603df2146101a65780639ea61c7e146101df578063a6f9dae1146101fb576100cf565b806302c0ad90146100d45780630f65ae38146100f057806324e5e6aa1461010c578063448952e11461012a578063580f469c146101465780636071597114610176575b600080fd5b6100ee60048036038101906100e99190611b4b565b6102af565b005b61010a60048036038101906101059190611b8b565b61033d565b005b610114610410565b6040516101219190611c76565b60405180910390f35b610144600480360381019061013f9190611f93565b6104a5565b005b610160600480360381019061015b91906120c2565b6109b3565b60405161016d9190612111565b60405180910390f35b610190600480360381019061018b9190611b8b565b6109e4565b60405161019d91906124ec565b60405180910390f35b6101c060048036038101906101bb919061250e565b610ef9565b6040516101d69a999897969594939291906125c1565b60405180910390f35b6101f960048036038101906101f4919061250e565b611102565b005b61021560048036038101906102109190611b8b565b611204565b005b610231600480360381019061022c919061250e565b6112d8565b005b61024d6004803603810190610248919061266b565b611310565b005b6102696004803603810190610264919061250e565b61148e565b60405161027691906127c4565b60405180910390f35b61029960048036038101906102949190611b8b565b611863565b6040516102a69190611c76565b60405180910390f35b806003600084815260200190815260200160002060050160096101000a81548173ffffffffffffffffffffffffffffffffffffffff021916908373ffffffffffffffffffffffffffffffffffffffff160217905550426003600084815260200190815260200160002060060160006101000a81548163ffffffff021916908363ffffffff1602179055505050565b600160009054906101000a900473ffffffffffffffffffffffffffffffffffffffff1673ffffffffffffffffffffffffffffffffffffffff163373ffffffffffffffffffffffffffffffffffffffff16146103cd576040517f08c379a00000000000000000000000000000000000000000000000000000000081526004016103c490612843565b60405180910390fd5b806000806101000a81548173ffffffffffffffffffffffffffffffffffffffff021916908373ffffffffffffffffffffffffffffffffffffffff16021790555050565b6060600460003373ffffffffffffffffffffffffffffffffffffffff1673ffffffffffffffffffffffffffffffffffffffff16815260200190815260200160002080548060200260200160405190810160405280929190818152602001828054801561049b57602002820191906000526020600020905b815481526020019060010190808311610487575b5050505050905090565b60008060009054906101000a900473ffffffffffffffffffffffffffffffffffffffff1673ffffffffffffffffffffffffffffffffffffffff166335852541336040518263ffffffff1660e01b81526004016105019190612863565b600060405180830381865afa15801561051e573d6000803e3d6000fd5b505050506040513d6000823e3d601f19601f820116820180604052508101906105479190612a5f565b905060018160000151600281111561056257610561612aa8565b5b60ff16146105a5576040517f08c379a000000000000000000000000000000000000000000000000000000000815260040161059c90612b49565b60405180910390fd5b6040518061018001604052808c81526020018b81526020018a8a8080601f016020809104026020016040519081016040528093929190818152602001838380828437600081840152601f19601f82011690508083019250505050505050815260200188888080601f016020809104026020016040519081016040528093929190818152602001838380828437600081840152601f19601f820116905080830192505050505050508152602001866fffffffffffffffffffffffffffffffff168152602001856fffffffffffffffffffffffffffffffff1681526020018463ffffffff1681526020018363ffffffff168152602001600115158152602001600073ffffffffffffffffffffffffffffffffffffffff168152602001600063ffffffff168152602001600063ffffffff1681525060036000600254815260200190815260200160002060008201518160000190805190602001906107089291906118fa565b506020820151816001019080519060200190610725929190611984565b50604082015181600201908161073b9190612d75565b5060608201518160030190816107519190612d75565b5060808201518160040160006101000a8154816fffffffffffffffffffffffffffffffff02191690836fffffffffffffffffffffffffffffffff16021790555060a08201518160040160106101000a8154816fffffffffffffffffffffffffffffffff02191690836fffffffffffffffffffffffffffffffff16021790555060c08201518160050160006101000a81548163ffffffff021916908363ffffffff16021790555060e08201518160050160046101000a81548163ffffffff021916908363ffffffff1602179055506101008201518160050160086101000a81548160ff0219169083151502179055506101208201518160050160096101000a81548173ffffffffffffffffffffffffffffffffffffffff021916908373ffffffffffffffffffffffffffffffffffffffff1602179055506101408201518160060160006101000a81548163ffffffff021916908363ffffffff1602179055506101608201518160060160046101000a81548163ffffffff021916908363ffffffff160217905550905050600460003373ffffffffffffffffffffffffffffffffffffffff1673ffffffffffffffffffffffffffffffffffffffff16815260200190815260200160002060025490806001815401808255809150506001900390600052602060002001600090919091909150556002547f0e20c89151faf0b5dda54ebc9d15340d8f36e022eaab7561945a997b339fc56e8c8c8c8c8c8c8c8c8c8c6040516109869a99989796959493929190612ef2565b60405180910390a2600260008154809291906109a190612fbf565b91905055505050505050505050505050565b600460205281600052604060002081815481106109cf57600080fd5b90600052602060002001600091509150505481565b60606000600460008473ffffffffffffffffffffffffffffffffffffffff1673ffffffffffffffffffffffffffffffffffffffff168152602001908152602001600020805480602002602001604051908101604052809291908181526020018280548015610a7157602002820191906000526020600020905b815481526020019060010190808311610a5d575b505050505090506000815167ffffffffffffffff811115610a9557610a94611cae565b5b604051908082528060200260200182016040528015610ace57816020015b610abb6119d1565b815260200190600190039081610ab35790505b50905060005b8251811015610eee5760036000848381518110610af457610af3613007565b5b602002602001015181526020019081526020016000206040518061018001604052908160008201805480602002602001604051908101604052809291908181526020018280548015610b9b57602002820191906000526020600020905b8160009054906101000a900473ffffffffffffffffffffffffffffffffffffffff1673ffffffffffffffffffffffffffffffffffffffff1681526020019060010190808311610b51575b5050505050815260200160018201805480602002602001604051908101604052809291908181526020018280548015610bf357602002820191906000526020600020905b815481526020019060010190808311610bdf575b50505050508152602001600282018054610c0c90612b98565b80601f0160208091040260200160405190810160405280929190818152602001828054610c3890612b98565b8015610c855780601f10610c5a57610100808354040283529160200191610c85565b820191906000526020600020905b815481529060010190602001808311610c6857829003601f168201915b50505050508152602001600382018054610c9e90612b98565b80601f0160208091040260200160405190810160405280929190818152602001828054610cca90612b98565b8015610d175780601f10610cec57610100808354040283529160200191610d17565b820191906000526020600020905b815481529060010190602001808311610cfa57829003601f168201915b505050505081526020016004820160009054906101000a90046fffffffffffffffffffffffffffffffff166fffffffffffffffffffffffffffffffff166fffffffffffffffffffffffffffffffff1681526020016004820160109054906101000a90046fffffffffffffffffffffffffffffffff166fffffffffffffffffffffffffffffffff166fffffffffffffffffffffffffffffffff1681526020016005820160009054906101000a900463ffffffff1663ffffffff1663ffffffff1681526020016005820160049054906101000a900463ffffffff1663ffffffff1663ffffffff1681526020016005820160089054906101000a900460ff161515151581526020016005820160099054906101000a900473ffffffffffffffffffffffffffffffffffffffff1673ffffffffffffffffffffffffffffffffffffffff1673ffffffffffffffffffffffffffffffffffffffff1681526020016006820160009054906101000a900463ffffffff1663ffffffff1663ffffffff1681526020016006820160049054906101000a900463ffffffff1663ffffffff1663ffffffff1681525050828281518110610ed057610ecf613007565b5b60200260200101819052508080610ee690612fbf565b915050610ad4565b508092505050919050565b6003602052806000526040600020600091509050806002018054610f1c90612b98565b80601f0160208091040260200160405190810160405280929190818152602001828054610f4890612b98565b8015610f955780601f10610f6a57610100808354040283529160200191610f95565b820191906000526020600020905b815481529060010190602001808311610f7857829003601f168201915b505050505090806003018054610faa90612b98565b80601f0160208091040260200160405190810160405280929190818152602001828054610fd690612b98565b80156110235780601f10610ff857610100808354040283529160200191611023565b820191906000526020600020905b81548152906001019060200180831161100657829003601f168201915b5050505050908060040160009054906101000a90046fffffffffffffffffffffffffffffffff16908060040160109054906101000a90046fffffffffffffffffffffffffffffffff16908060050160009054906101000a900463ffffffff16908060050160049054906101000a900463ffffffff16908060050160089054906101000a900460ff16908060050160099054906101000a900473ffffffffffffffffffffffffffffffffffffffff16908060060160009054906101000a900463ffffffff16908060060160049054906101000a900463ffffffff1690508a565b600061110c610410565b90506000805b8251811015611158578383828151811061112f5761112e613007565b5b6020026020010151036111455760019150611158565b808061115090612fbf565b915050611112565b5080611199576040517f08c379a000000000000000000000000000000000000000000000000000000000815260040161119090613082565b60405180910390fd5b60006003600085815260200190815260200160002060050160086101000a81548160ff0219169083151502179055507fbe5aa4247333e0978e80edfd1266e28e6cba6ea134522f795973c7133bc43174836040516111f79190612111565b60405180910390a1505050565b600160009054906101000a900473ffffffffffffffffffffffffffffffffffffffff1673ffffffffffffffffffffffffffffffffffffffff163373ffffffffffffffffffffffffffffffffffffffff1614611294576040517f08c379a000000000000000000000000000000000000000000000000000000000815260040161128b90612843565b60405180910390fd5b80600160006101000a81548173ffffffffffffffffffffffffffffffffffffffff021916908373ffffffffffffffffffffffffffffffffffffffff16021790555050565b426003600083815260200190815260200160002060060160046101000a81548163ffffffff021916908363ffffffff16021790555050565b600061131a610410565b90506000805b8251811015611366578483828151811061133d5761133c613007565b5b6020026020010151036113535760019150611366565b808061135e90612fbf565b915050611320565b50806113a7576040517f08c379a000000000000000000000000000000000000000000000000000000000815260040161139e90613082565b60405180910390fd5b826003600086815260200190815260200160002060040160008282829054906101000a90046fffffffffffffffffffffffffffffffff166113e891906130a2565b92506101000a8154816fffffffffffffffffffffffffffffffff02191690836fffffffffffffffffffffffffffffffff160217905550837f0cdf608777b7c369c17a854e339a0c861f903b381b92294555cd61b0c49f6cab6003600087815260200190815260200160002060040160009054906101000a90046fffffffffffffffffffffffffffffffff1660405161148091906130e6565b60405180910390a250505050565b6114966119d1565b60036000838152602001908152602001600020604051806101800160405290816000820180548060200260200160405190810160405280929190818152602001828054801561153a57602002820191906000526020600020905b8160009054906101000a900473ffffffffffffffffffffffffffffffffffffffff1673ffffffffffffffffffffffffffffffffffffffff16815260200190600101908083116114f0575b505050505081526020016001820180548060200260200160405190810160405280929190818152602001828054801561159257602002820191906000526020600020905b81548152602001906001019080831161157e575b505050505081526020016002820180546115ab90612b98565b80601f01602080910402602001604051908101604052809291908181526020018280546115d790612b98565b80156116245780601f106115f957610100808354040283529160200191611624565b820191906000526020600020905b81548152906001019060200180831161160757829003601f168201915b5050505050815260200160038201805461163d90612b98565b80601f016020809104026020016040519081016040528092919081815260200182805461166990612b98565b80156116b65780601f1061168b576101008083540402835291602001916116b6565b820191906000526020600020905b81548152906001019060200180831161169957829003601f168201915b505050505081526020016004820160009054906101000a90046fffffffffffffffffffffffffffffffff166fffffffffffffffffffffffffffffffff166fffffffffffffffffffffffffffffffff1681526020016004820160109054906101000a90046fffffffffffffffffffffffffffffffff166fffffffffffffffffffffffffffffffff166fffffffffffffffffffffffffffffffff1681526020016005820160009054906101000a900463ffffffff1663ffffffff1663ffffffff1681526020016005820160049054906101000a900463ffffffff1663ffffffff1663ffffffff1681526020016005820160089054906101000a900460ff161515151581526020016005820160099054906101000a900473ffffffffffffffffffffffffffffffffffffffff1673ffffffffffffffffffffffffffffffffffffffff1673ffffffffffffffffffffffffffffffffffffffff1681526020016006820160009054906101000a900463ffffffff1663ffffffff1663ffffffff1681526020016006820160049054906101000a900463ffffffff1663ffffffff1663ffffffff16815250509050919050565b6060600460008373ffffffffffffffffffffffffffffffffffffffff1673ffffffffffffffffffffffffffffffffffffffff1681526020019081526020016000208054806020026020016040519081016040528092919081815260200182805480156118ee57602002820191906000526020600020905b8154815260200190600101908083116118da575b50505050509050919050565b828054828255906000526020600020908101928215611973579160200282015b828111156119725782518260006101000a81548173ffffffffffffffffffffffffffffffffffffffff021916908373ffffffffffffffffffffffffffffffffffffffff1602179055509160200191906001019061191a565b5b5090506119809190611a86565b5090565b8280548282559060005260206000209081019282156119c0579160200282015b828111156119bf5782518255916020019190600101906119a4565b5b5090506119cd9190611a86565b5090565b6040518061018001604052806060815260200160608152602001606081526020016060815260200160006fffffffffffffffffffffffffffffffff16815260200160006fffffffffffffffffffffffffffffffff168152602001600063ffffffff168152602001600063ffffffff168152602001600015158152602001600073ffffffffffffffffffffffffffffffffffffffff168152602001600063ffffffff168152602001600063ffffffff1681525090565b5b80821115611a9f576000816000905550600101611a87565b5090565b6000604051905090565b600080fd5b600080fd5b6000819050919050565b611aca81611ab7565b8114611ad557600080fd5b50565b600081359050611ae781611ac1565b92915050565b600073ffffffffffffffffffffffffffffffffffffffff82169050919050565b6000611b1882611aed565b9050919050565b611b2881611b0d565b8114611b3357600080fd5b50565b600081359050611b4581611b1f565b92915050565b60008060408385031215611b6257611b61611aad565b5b6000611b7085828601611ad8565b9250506020611b8185828601611b36565b9150509250929050565b600060208284031215611ba157611ba0611aad565b5b6000611baf84828501611b36565b91505092915050565b600081519050919050565b600082825260208201905092915050565b6000819050602082019050919050565b611bed81611ab7565b82525050565b6000611bff8383611be4565b60208301905092915050565b6000602082019050919050565b6000611c2382611bb8565b611c2d8185611bc3565b9350611c3883611bd4565b8060005b83811015611c69578151611c508882611bf3565b9750611c5b83611c0b565b925050600181019050611c3c565b5085935050505092915050565b60006020820190508181036000830152611c908184611c18565b905092915050565b600080fd5b6000601f19601f8301169050919050565b7f4e487b7100000000000000000000000000000000000000000000000000000000600052604160045260246000fd5b611ce682611c9d565b810181811067ffffffffffffffff82111715611d0557611d04611cae565b5b80604052505050565b6000611d18611aa3565b9050611d248282611cdd565b919050565b600067ffffffffffffffff821115611d4457611d43611cae565b5b602082029050602081019050919050565b600080fd5b6000611d6d611d6884611d29565b611d0e565b90508083825260208201905060208402830185811115611d9057611d8f611d55565b5b835b81811015611db95780611da58882611b36565b845260208401935050602081019050611d92565b5050509392505050565b600082601f830112611dd857611dd7611c98565b5b8135611de8848260208601611d5a565b91505092915050565b600067ffffffffffffffff821115611e0c57611e0b611cae565b5b602082029050602081019050919050565b6000611e30611e2b84611df1565b611d0e565b90508083825260208201905060208402830185811115611e5357611e52611d55565b5b835b81811015611e7c5780611e688882611ad8565b845260208401935050602081019050611e55565b5050509392505050565b600082601f830112611e9b57611e9a611c98565b5b8135611eab848260208601611e1d565b91505092915050565b600080fd5b60008083601f840112611ecf57611ece611c98565b5b8235905067ffffffffffffffff811115611eec57611eeb611eb4565b5b602083019150836001820283011115611f0857611f07611d55565b5b9250929050565b60006fffffffffffffffffffffffffffffffff82169050919050565b611f3481611f0f565b8114611f3f57600080fd5b50565b600081359050611f5181611f2b565b92915050565b600063ffffffff82169050919050565b611f7081611f57565b8114611f7b57600080fd5b50565b600081359050611f8d81611f67565b92915050565b6000806000806000806000806000806101008b8d031215611fb757611fb6611aad565b5b60008b013567ffffffffffffffff811115611fd557611fd4611ab2565b5b611fe18d828e01611dc3565b9a505060208b013567ffffffffffffffff81111561200257612001611ab2565b5b61200e8d828e01611e86565b99505060408b013567ffffffffffffffff81111561202f5761202e611ab2565b5b61203b8d828e01611eb9565b985098505060608b013567ffffffffffffffff81111561205e5761205d611ab2565b5b61206a8d828e01611eb9565b9650965050608061207d8d828e01611f42565b94505060a061208e8d828e01611f42565b93505060c061209f8d828e01611f7e565b92505060e06120b08d828e01611f7e565b9150509295989b9194979a5092959850565b600080604083850312156120d9576120d8611aad565b5b60006120e785828601611b36565b92505060206120f885828601611ad8565b9150509250929050565b61210b81611ab7565b82525050565b60006020820190506121266000830184612102565b92915050565b600081519050919050565b600082825260208201905092915050565b6000819050602082019050919050565b600081519050919050565b600082825260208201905092915050565b6000819050602082019050919050565b61218d81611b0d565b82525050565b600061219f8383612184565b60208301905092915050565b6000602082019050919050565b60006121c382612158565b6121cd8185612163565b93506121d883612174565b8060005b838110156122095781516121f08882612193565b97506121fb836121ab565b9250506001810190506121dc565b5085935050505092915050565b600082825260208201905092915050565b600061223282611bb8565b61223c8185612216565b935061224783611bd4565b8060005b8381101561227857815161225f8882611bf3565b975061226a83611c0b565b92505060018101905061224b565b5085935050505092915050565b600081519050919050565b600082825260208201905092915050565b60005b838110156122bf5780820151818401526020810190506122a4565b60008484015250505050565b60006122d682612285565b6122e08185612290565b93506122f08185602086016122a1565b6122f981611c9d565b840191505092915050565b61230d81611f0f565b82525050565b61231c81611f57565b82525050565b60008115159050919050565b61233781612322565b82525050565b600061018083016000830151848203600086015261235b82826121b8565b915050602083015184820360208601526123758282612227565b9150506040830151848203604086015261238f82826122cb565b915050606083015184820360608601526123a982826122cb565b91505060808301516123be6080860182612304565b5060a08301516123d160a0860182612304565b5060c08301516123e460c0860182612313565b5060e08301516123f760e0860182612313565b5061010083015161240c61010086018261232e565b50610120830151612421610120860182612184565b50610140830151612436610140860182612313565b5061016083015161244b610160860182612313565b508091505092915050565b6000612462838361233d565b905092915050565b6000602082019050919050565b60006124828261212c565b61248c8185612137565b93508360208202850161249e85612148565b8060005b858110156124da57848403895281516124bb8582612456565b94506124c68361246a565b925060208a019950506001810190506124a2565b50829750879550505050505092915050565b600060208201905081810360008301526125068184612477565b905092915050565b60006020828403121561252457612523611aad565b5b600061253284828501611ad8565b91505092915050565b600082825260208201905092915050565b600061255782612285565b612561818561253b565b93506125718185602086016122a1565b61257a81611c9d565b840191505092915050565b61258e81611f0f565b82525050565b61259d81611f57565b82525050565b6125ac81612322565b82525050565b6125bb81611b0d565b82525050565b60006101408201905081810360008301526125dc818d61254c565b905081810360208301526125f0818c61254c565b90506125ff604083018b612585565b61260c606083018a612585565b6126196080830189612594565b61262660a0830188612594565b61263360c08301876125a3565b61264060e08301866125b2565b61264e610100830185612594565b61265c610120830184612594565b9b9a5050505050505050505050565b6000806040838503121561268257612681611aad565b5b600061269085828601611ad8565b92505060206126a185828601611f42565b9150509250929050565b60006101808301600083015184820360008601526126c982826121b8565b915050602083015184820360208601526126e38282612227565b915050604083015184820360408601526126fd82826122cb565b9150506060830151848203606086015261271782826122cb565b915050608083015161272c6080860182612304565b5060a083015161273f60a0860182612304565b5060c083015161275260c0860182612313565b5060e083015161276560e0860182612313565b5061010083015161277a61010086018261232e565b5061012083015161278f610120860182612184565b506101408301516127a4610140860182612313565b506101608301516127b9610160860182612313565b508091505092915050565b600060208201905081810360008301526127de81846126ab565b905092915050565b600082825260208201905092915050565b7f4e6f74206f776e65720000000000000000000000000000000000000000000000600082015250565b600061282d6009836127e6565b9150612838826127f7565b602082019050919050565b6000602082019050818103600083015261285c81612820565b9050919050565b600060208201905061287860008301846125b2565b92915050565b600080fd5b600080fd5b6003811061289557600080fd5b50565b6000815190506128a781612888565b92915050565b600080fd5b600067ffffffffffffffff8211156128cd576128cc611cae565b5b6128d682611c9d565b9050602081019050919050565b60006128f66128f1846128b2565b611d0e565b905082815260208101848484011115612912576129116128ad565b5b61291d8482856122a1565b509392505050565b600082601f83011261293a57612939611c98565b5b815161294a8482602086016128e3565b91505092915050565b61295c81612322565b811461296757600080fd5b50565b60008151905061297981612953565b92915050565b600060a082840312156129955761299461287e565b5b61299f60a0611d0e565b905060006129af84828501612898565b600083015250602082015167ffffffffffffffff8111156129d3576129d2612883565b5b6129df84828501612925565b602083015250604082015167ffffffffffffffff811115612a0357612a02612883565b5b612a0f84828501612925565b604083015250606082015167ffffffffffffffff811115612a3357612a32612883565b5b612a3f84828501612925565b6060830152506080612a538482850161296a565b60808301525092915050565b600060208284031215612a7557612a74611aad565b5b600082015167ffffffffffffffff811115612a9357612a92611ab2565b5b612a9f8482850161297f565b91505092915050565b7f4e487b7100000000000000000000000000000000000000000000000000000000600052602160045260246000fd5b7f4f6e6c79204d616e7566616374757265722063616e206164642070726f64756360008201527f7400000000000000000000000000000000000000000000000000000000000000602082015250565b6000612b336021836127e6565b9150612b3e82612ad7565b604082019050919050565b60006020820190508181036000830152612b6281612b26565b9050919050565b7f4e487b7100000000000000000000000000000000000000000000000000000000600052602260045260246000fd5b60006002820490506001821680612bb057607f821691505b602082108103612bc357612bc2612b69565b5b50919050565b60008190508160005260206000209050919050565b60006020601f8301049050919050565b600082821b905092915050565b600060088302612c2b7fffffffffffffffffffffffffffffffffffffffffffffffffffffffffffffffff82612bee565b612c358683612bee565b95508019841693508086168417925050509392505050565b6000819050919050565b6000612c72612c6d612c6884611ab7565b612c4d565b611ab7565b9050919050565b6000819050919050565b612c8c83612c57565b612ca0612c9882612c79565b848454612bfb565b825550505050565b600090565b612cb5612ca8565b612cc0818484612c83565b505050565b5b81811015612ce457612cd9600082612cad565b600181019050612cc6565b5050565b601f821115612d2957612cfa81612bc9565b612d0384612bde565b81016020851015612d12578190505b612d26612d1e85612bde565b830182612cc5565b50505b505050565b600082821c905092915050565b6000612d4c60001984600802612d2e565b1980831691505092915050565b6000612d658383612d3b565b9150826002028217905092915050565b612d7e82612285565b67ffffffffffffffff811115612d9757612d96611cae565b5b612da18254612b98565b612dac828285612ce8565b600060209050601f831160018114612ddf5760008415612dcd578287015190505b612dd78582612d59565b865550612e3f565b601f198416612ded86612bc9565b60005b82811015612e1557848901518255600182019150602085019450602081019050612df0565b86831015612e325784890151612e2e601f891682612d3b565b8355505b6001600288020188555050505b505050505050565b600082825260208201905092915050565b6000612e6382612158565b612e6d8185612e47565b9350612e7883612174565b8060005b83811015612ea9578151612e908882612193565b9750612e9b836121ab565b925050600181019050612e7c565b5085935050505092915050565b82818337600083830152505050565b6000612ed1838561253b565b9350612ede838584612eb6565b612ee783611c9d565b840190509392505050565b6000610100820190508181036000830152612f0d818d612e58565b90508181036020830152612f21818c611c18565b90508181036040830152612f36818a8c612ec5565b90508181036060830152612f4b81888a612ec5565b9050612f5a6080830187612585565b612f6760a0830186612585565b612f7460c0830185612594565b612f8160e0830184612594565b9b9a5050505050505050505050565b7f4e487b7100000000000000000000000000000000000000000000000000000000600052601160045260246000fd5b6000612fca82611ab7565b91507fffffffffffffffffffffffffffffffffffffffffffffffffffffffffffffffff8203612ffc57612ffb612f90565b5b600182019050919050565b7f4e487b7100000000000000000000000000000000000000000000000000000000600052603260045260246000fd5b7f50726f64756374206e6f74206f776e656420627920796f750000000000000000600082015250565b600061306c6018836127e6565b915061307782613036565b602082019050919050565b6000602082019050818103600083015261309b8161305f565b9050919050565b60006130ad82611f0f565b91506130b883611f0f565b925082820390506fffffffffffffffffffffffffffffffff8111156130e0576130df612f90565b5b92915050565b60006020820190506130fb6000830184612585565b9291505056fea26469706673582212208a220382b26462eff75cfba7adf117364b932e3d9bf5763bf0f81a9af6387a7f64736f6c63430008120033",
  "linkReferences": {},
  "deployedLinkReferences": {}
}