{
  "_format": "hh-sol-artifact-1",
  "contractName": "manufacturerProduct",
  "sourceName": "contracts/manufacturerProduct.sol",
  "abi": [
    {
      "inputs": [
        {
          "internalType": "address",
          "name": "_udAddress",
          "type": "address"
        },
        {
          "internalType": "address",
          "name": "_smAddress",
          "type": "address"
        }
      ],
      "stateMutability": "nonpayable",
      "type": "constructor"
    },
    {
      "anonymous": false,
      "inputs": [
        {
          "indexed": true,
          "internalType": "uint256",
          "name": "_mpId",
          "type": "uint256"
        },
        {
          "indexed": false,
          "internalType": "address[]",
          "name": "_supplierAddress",
          "type": "address[]"
        },
        {
          "indexed": false,
          "internalType": "uint256[]",
          "name": "_smId",
          "type": "uint256[]"
        },
        {
          "indexed": false,
          "internalType": "bytes",
          "name": "_name",
          "type": "bytes"
        },
        {
          "indexed": false,
          "internalType": "bytes",
          "name": "_description",
          "type": "bytes"
        },
        {
          "indexed": false,
          "internalType": "uint128",
          "name": "_unit",
          "type": "uint128"
        },
        {
          "indexed": false,
          "internalType": "uint128",
          "name": "_price",
          "type": "uint128"
        },
        {
          "indexed": false,
          "internalType": "uint32",
          "name": "_date",
          "type": "uint32"
        },
        {
          "indexed": false,
          "internalType": "uint32",
          "name": "_expiryDate",
          "type": "uint32"
        }
      ],
      "name": "eventAddManufacturerProduct",
      "type": "event"
    },
    {
      "anonymous": false,
      "inputs": [
        {
          "indexed": false,
          "internalType": "uint256",
          "name": "_mpId",
          "type": "uint256"
        }
      ],
      "name": "eventDeleteManufacturerProduct",
      "type": "event"
    },
    {
      "anonymous": false,
      "inputs": [
        {
          "indexed": true,
          "internalType": "uint256",
          "name": "_dpId",
          "type": "uint256"
        },
        {
          "indexed": false,
          "internalType": "uint128",
          "name": "_quantity",
          "type": "uint128"
        }
      ],
      "name": "eventUpdateManufacturerProductUints",
      "type": "event"
    },
    {
      "inputs": [
        {
          "internalType": "address[]",
          "name": "_supplierAddress",
          "type": "address[]"
        },
        {
          "internalType": "uint256[]",
          "name": "_smId",
          "type": "uint256[]"
        },
        {
          "internalType": "bytes",
          "name": "_name",
          "type": "bytes"
        },
        {
          "internalType": "bytes",
          "name": "_description",
          "type": "bytes"
        },
        {
          "internalType": "uint128",
          "name": "_unit",
          "type": "uint128"
        },
        {
          "internalType": "uint128",
          "name": "_price",
          "type": "uint128"
        },
        {
          "internalType": "uint32",
          "name": "_date",
          "type": "uint32"
        },
        {
          "internalType": "uint32",
          "name": "_expiryDate",
          "type": "uint32"
        }
      ],
      "name": "addManufacturerProduct",
      "outputs": [],
      "stateMutability": "nonpayable",
      "type": "function"
    },
    {
      "inputs": [
        {
          "internalType": "address",
          "name": "_ownerAddress",
          "type": "address"
        }
      ],
      "name": "changeOwner",
      "outputs": [],
      "stateMutability": "nonpayable",
      "type": "function"
    },
    {
      "inputs": [
        {
          "internalType": "address",
          "name": "_udAddress",
          "type": "address"
        }
      ],
      "name": "changeUdAddress",
      "outputs": [],
      "stateMutability": "nonpayable",
      "type": "function"
    },
    {
      "inputs": [
        {
          "internalType": "uint256",
          "name": "_mpId",
          "type": "uint256"
        }
      ],
      "name": "deleteManufacturerProduct",
      "outputs": [],
      "stateMutability": "nonpayable",
      "type": "function"
    },
    {
      "inputs": [
        {
          "internalType": "address",
          "name": "_manufacturerAddress",
          "type": "address"
        }
      ],
      "name": "getAllProductsOfManufacturer",
      "outputs": [
        {
          "components": [
            {
              "internalType": "address[]",
              "name": "supplierAddress",
              "type": "address[]"
            },
            {
              "internalType": "uint256[]",
              "name": "smId",
              "type": "uint256[]"
            },
            {
              "internalType": "address",
              "name": "manufacturerAddress",
              "type": "address"
            },
            {
              "internalType": "bytes",
              "name": "mp_name",
              "type": "bytes"
            },
            {
              "internalType": "bytes",
              "name": "mp_description",
              "type": "bytes"
            },
            {
              "internalType": "uint128",
              "name": "mp_unit",
              "type": "uint128"
            },
            {
              "internalType": "uint128",
              "name": "mp_price",
              "type": "uint128"
            },
            {
              "internalType": "uint32",
              "name": "mp_date",
              "type": "uint32"
            },
            {
              "internalType": "uint32",
              "name": "mp_expiryDate",
              "type": "uint32"
            },
            {
              "internalType": "bool",
              "name": "mp_status",
              "type": "bool"
            },
            {
              "internalType": "address",
              "name": "distributorAddress",
              "type": "address"
            },
            {
              "internalType": "uint32",
              "name": "dispatchTime",
              "type": "uint32"
            },
            {
              "internalType": "uint32",
              "name": "arrivalTime",
              "type": "uint32"
            }
          ],
          "internalType": "struct IManufacturerProduct.manufacturerProduct[]",
          "name": "",
          "type": "tuple[]"
        },
        {
          "internalType": "uint256[]",
          "name": "_productIds",
          "type": "uint256[]"
        }
      ],
      "stateMutability": "view",
      "type": "function"
    },
    {
      "inputs": [],
      "name": "getManufacturerProductIds",
      "outputs": [
        {
          "internalType": "uint256[]",
          "name": "",
          "type": "uint256[]"
        }
      ],
      "stateMutability": "view",
      "type": "function"
    },
    {
      "inputs": [
        {
          "internalType": "address",
          "name": "_address",
          "type": "address"
        }
      ],
      "name": "getMpIdsByAddress",
      "outputs": [
        {
          "internalType": "uint256[]",
          "name": "",
          "type": "uint256[]"
        }
      ],
      "stateMutability": "view",
      "type": "function"
    },
    {
      "inputs": [
        {
          "internalType": "uint256",
          "name": "_mpId",
          "type": "uint256"
        }
      ],
      "name": "getProductsOfManufacturer",
      "outputs": [
        {
          "components": [
            {
              "components": [
                {
                  "internalType": "address[]",
                  "name": "supplierAddress",
                  "type": "address[]"
                },
                {
                  "internalType": "uint256[]",
                  "name": "smId",
                  "type": "uint256[]"
                },
                {
                  "internalType": "address",
                  "name": "manufacturerAddress",
                  "type": "address"
                },
                {
                  "internalType": "bytes",
                  "name": "mp_name",
                  "type": "bytes"
                },
                {
                  "internalType": "bytes",
                  "name": "mp_description",
                  "type": "bytes"
                },
                {
                  "internalType": "uint128",
                  "name": "mp_unit",
                  "type": "uint128"
                },
                {
                  "internalType": "uint128",
                  "name": "mp_price",
                  "type": "uint128"
                },
                {
                  "internalType": "uint32",
                  "name": "mp_date",
                  "type": "uint32"
                },
                {
                  "internalType": "uint32",
                  "name": "mp_expiryDate",
                  "type": "uint32"
                },
                {
                  "internalType": "bool",
                  "name": "mp_status",
                  "type": "bool"
                },
                {
                  "internalType": "address",
                  "name": "distributorAddress",
                  "type": "address"
                },
                {
                  "internalType": "uint32",
                  "name": "dispatchTime",
                  "type": "uint32"
                },
                {
                  "internalType": "uint32",
                  "name": "arrivalTime",
                  "type": "uint32"
                }
              ],
              "internalType": "struct IManufacturerProduct.manufacturerProduct",
              "name": "manufacturerProductDetails",
              "type": "tuple"
            },
            {
              "components": [
                {
                  "components": [
                    {
                      "internalType": "uint256",
                      "name": "smId",
                      "type": "uint256"
                    },
                    {
                      "internalType": "uint256",
                      "name": "spId",
                      "type": "uint256"
                    },
                    {
                      "internalType": "address",
                      "name": "supplierAddress",
                      "type": "address"
                    },
                    {
                      "internalType": "address",
                      "name": "manufacturerAddress",
                      "type": "address"
                    },
                    {
                      "internalType": "uint32",
                      "name": "dispatchTime",
                      "type": "uint32"
                    },
                    {
                      "internalType": "uint32",
                      "name": "arrivalTime",
                      "type": "uint32"
                    },
                    {
                      "internalType": "uint32",
                      "name": "quantity",
                      "type": "uint32"
                    },
                    {
                      "internalType": "uint32",
                      "name": "currentQuantity",
                      "type": "uint32"
                    },
                    {
                      "internalType": "enum ISupplierManufacturer.transferStatus",
                      "name": "status",
                      "type": "uint8"
                    }
                  ],
                  "internalType": "struct ISupplierManufacturer.supplierManufacturer",
                  "name": "smDetails",
                  "type": "tuple"
                },
                {
                  "components": [
                    {
                      "internalType": "address",
                      "name": "supplierAddress",
                      "type": "address"
                    },
                    {
                      "internalType": "bytes",
                      "name": "sp_name",
                      "type": "bytes"
                    },
                    {
                      "internalType": "bytes",
                      "name": "sp_description",
                      "type": "bytes"
                    },
                    {
                      "internalType": "uint128",
                      "name": "sp_unit",
                      "type": "uint128"
                    },
                    {
                      "internalType": "uint128",
                      "name": "sp_price",
                      "type": "uint128"
                    },
                    {
                      "internalType": "uint32",
                      "name": "sp_date",
                      "type": "uint32"
                    },
                    {
                      "internalType": "uint32",
                      "name": "sp_expiryDate",
                      "type": "uint32"
                    },
                    {
                      "internalType": "bool",
                      "name": "sp_status",
                      "type": "bool"
                    }
                  ],
                  "internalType": "struct ISupplierProduct.supplierProduct",
                  "name": "spDetails",
                  "type": "tuple"
                },
                {
                  "components": [
                    {
                      "internalType": "enum IUserDetails.userType",
                      "name": "userType",
                      "type": "uint8"
                    },
                    {
                      "internalType": "bytes",
                      "name": "userName",
                      "type": "bytes"
                    },
                    {
                      "internalType": "bytes",
                      "name": "userPhysicalAddress",
                      "type": "bytes"
                    },
                    {
                      "internalType": "bytes",
                      "name": "userImage",
                      "type": "bytes"
                    },
                    {
                      "internalType": "bool",
                      "name": "userStatus",
                      "type": "bool"
                    }
                  ],
                  "internalType": "struct IUserDetails.userDetails",
                  "name": "uDetails",
                  "type": "tuple"
                }
              ],
              "internalType": "struct supplierManufacturer.supplierManufacturerWithProduct[]",
              "name": "supplierManufacturerWithProductDetails",
              "type": "tuple[]"
            },
            {
              "components": [
                {
                  "internalType": "enum IUserDetails.userType",
                  "name": "userType",
                  "type": "uint8"
                },
                {
                  "internalType": "bytes",
                  "name": "userName",
                  "type": "bytes"
                },
                {
                  "internalType": "bytes",
                  "name": "userPhysicalAddress",
                  "type": "bytes"
                },
                {
                  "internalType": "bytes",
                  "name": "userImage",
                  "type": "bytes"
                },
                {
                  "internalType": "bool",
                  "name": "userStatus",
                  "type": "bool"
                }
              ],
              "internalType": "struct IUserDetails.userDetails",
              "name": "manufacturerDetails",
              "type": "tuple"
            },
            {
              "components": [
                {
                  "internalType": "enum IUserDetails.userType",
                  "name": "userType",
                  "type": "uint8"
                },
                {
                  "internalType": "bytes",
                  "name": "userName",
                  "type": "bytes"
                },
                {
                  "internalType": "bytes",
                  "name": "userPhysicalAddress",
                  "type": "bytes"
                },
                {
                  "internalType": "bytes",
                  "name": "userImage",
                  "type": "bytes"
                },
                {
                  "internalType": "bool",
                  "name": "userStatus",
                  "type": "bool"
                }
              ],
              "internalType": "struct IUserDetails.userDetails",
              "name": "distributorDetails",
              "type": "tuple"
            }
          ],
          "internalType": "struct manufacturerProduct.ManufacturerProductAllDetails",
          "name": "",
          "type": "tuple"
        }
      ],
      "stateMutability": "view",
      "type": "function"
    },
    {
      "inputs": [
        {
          "internalType": "uint256",
          "name": "_mpId",
          "type": "uint256"
        }
      ],
      "name": "getSingleManufacturerProduct",
      "outputs": [
        {
          "components": [
            {
              "internalType": "address[]",
              "name": "supplierAddress",
              "type": "address[]"
            },
            {
              "internalType": "uint256[]",
              "name": "smId",
              "type": "uint256[]"
            },
            {
              "internalType": "address",
              "name": "manufacturerAddress",
              "type": "address"
            },
            {
              "internalType": "bytes",
              "name": "mp_name",
              "type": "bytes"
            },
            {
              "internalType": "bytes",
              "name": "mp_description",
              "type": "bytes"
            },
            {
              "internalType": "uint128",
              "name": "mp_unit",
              "type": "uint128"
            },
            {
              "internalType": "uint128",
              "name": "mp_price",
              "type": "uint128"
            },
            {
              "internalType": "uint32",
              "name": "mp_date",
              "type": "uint32"
            },
            {
              "internalType": "uint32",
              "name": "mp_expiryDate",
              "type": "uint32"
            },
            {
              "internalType": "bool",
              "name": "mp_status",
              "type": "bool"
            },
            {
              "internalType": "address",
              "name": "distributorAddress",
              "type": "address"
            },
            {
              "internalType": "uint32",
              "name": "dispatchTime",
              "type": "uint32"
            },
            {
              "internalType": "uint32",
              "name": "arrivalTime",
              "type": "uint32"
            }
          ],
          "internalType": "struct IManufacturerProduct.manufacturerProduct",
          "name": "",
          "type": "tuple"
        }
      ],
      "stateMutability": "view",
      "type": "function"
    },
    {
      "inputs": [
        {
          "internalType": "address",
          "name": "",
          "type": "address"
        },
        {
          "internalType": "uint256",
          "name": "",
          "type": "uint256"
        }
      ],
      "name": "manufacturerAddressToproductsIdMapping",
      "outputs": [
        {
          "internalType": "uint256",
          "name": "",
          "type": "uint256"
        }
      ],
      "stateMutability": "view",
      "type": "function"
    },
    {
      "inputs": [
        {
          "internalType": "uint256",
          "name": "",
          "type": "uint256"
        }
      ],
      "name": "manufacturerProductsIdToStructMapping",
      "outputs": [
        {
          "internalType": "address",
          "name": "manufacturerAddress",
          "type": "address"
        },
        {
          "internalType": "bytes",
          "name": "mp_name",
          "type": "bytes"
        },
        {
          "internalType": "bytes",
          "name": "mp_description",
          "type": "bytes"
        },
        {
          "internalType": "uint128",
          "name": "mp_unit",
          "type": "uint128"
        },
        {
          "internalType": "uint128",
          "name": "mp_price",
          "type": "uint128"
        },
        {
          "internalType": "uint32",
          "name": "mp_date",
          "type": "uint32"
        },
        {
          "internalType": "uint32",
          "name": "mp_expiryDate",
          "type": "uint32"
        },
        {
          "internalType": "bool",
          "name": "mp_status",
          "type": "bool"
        },
        {
          "internalType": "address",
          "name": "distributorAddress",
          "type": "address"
        },
        {
          "internalType": "uint32",
          "name": "dispatchTime",
          "type": "uint32"
        },
        {
          "internalType": "uint32",
          "name": "arrivalTime",
          "type": "uint32"
        }
      ],
      "stateMutability": "view",
      "type": "function"
    },
    {
      "inputs": [
        {
          "internalType": "uint256",
          "name": "_mpId",
          "type": "uint256"
        }
      ],
      "name": "updateManufactureProductReceived",
      "outputs": [],
      "stateMutability": "nonpayable",
      "type": "function"
    },
    {
      "inputs": [
        {
          "internalType": "uint256",
          "name": "_mpId",
          "type": "uint256"
        },
        {
          "internalType": "address",
          "name": "_distributorAddress",
          "type": "address"
        }
      ],
      "name": "updateManufactureProductTransfer",
      "outputs": [],
      "stateMutability": "nonpayable",
      "type": "function"
    },
    {
      "inputs": [
        {
          "internalType": "uint256",
          "name": "_mpId",
          "type": "uint256"
        },
        {
          "internalType": "uint128",
          "name": "_quantity",
          "type": "uint128"
        }
      ],
      "name": "updateManufacturerProductUints",
      "outputs": [],
      "stateMutability": "nonpayable",
      "type": "function"
    }
  ],
  "bytecode": "0x608060405260016003553480156200001657600080fd5b50604051620048543803806200485483398181016040528101906200003c919062000170565b33600260006101000a81548173ffffffffffffffffffffffffffffffffffffffff021916908373ffffffffffffffffffffffffffffffffffffffff160217905550816000806101000a81548173ffffffffffffffffffffffffffffffffffffffff021916908373ffffffffffffffffffffffffffffffffffffffff16021790555080600160006101000a81548173ffffffffffffffffffffffffffffffffffffffff021916908373ffffffffffffffffffffffffffffffffffffffff1602179055505050620001b7565b600080fd5b600073ffffffffffffffffffffffffffffffffffffffff82169050919050565b600062000138826200010b565b9050919050565b6200014a816200012b565b81146200015657600080fd5b50565b6000815190506200016a816200013f565b92915050565b600080604083850312156200018a576200018962000106565b5b60006200019a8582860162000159565b9250506020620001ad8582860162000159565b9150509250929050565b61468d80620001c76000396000f3fe608060405234801561001057600080fd5b50600436106100ea5760003560e01c80639ea61c7e1161008c578063d37889c611610066578063d37889c614610250578063f6a989f81461026c578063f70ac6a41461029c578063fcc7fa7e146102cc576100ea565b80639ea61c7e146101fc578063a6f9dae114610218578063cbd05c7d14610234576100ea565b8063448952e1116100c8578063448952e114610145578063580f469c14610161578063607159711461019157806365603df2146101c2576100ea565b806302c0ad90146100ef5780630f65ae381461010b57806324e5e6aa14610127575b600080fd5b610109600480360381019061010491906127f7565b6102fc565b005b61012560048036038101906101209190612837565b61038a565b005b61012f61045d565b60405161013c9190612922565b60405180910390f35b61015f600480360381019061015a9190612c3f565b6104f2565b005b61017b60048036038101906101769190612d6e565b610a64565b6040516101889190612dbd565b60405180910390f35b6101ab60048036038101906101a69190612837565b610a95565b6040516101b99291906131ad565b60405180910390f35b6101dc60048036038101906101d791906131e4565b611004565b6040516101f39b9a99989796959493929190613297565b60405180910390f35b610216600480360381019061021191906131e4565b611233565b005b610232600480360381019061022d9190612837565b611335565b005b61024e600480360381019061024991906131e4565b611409565b005b61026a60048036038101906102659190613350565b611441565b005b610286600480360381019061028191906131e4565b61157f565b60405161029391906134be565b60405180910390f35b6102b660048036038101906102b19190612837565b6119aa565b6040516102c39190612922565b60405180910390f35b6102e660048036038101906102e191906131e4565b611a41565b6040516102f39190613925565b60405180910390f35b806004600084815260200190815260200160002060060160096101000a81548173ffffffffffffffffffffffffffffffffffffffff021916908373ffffffffffffffffffffffffffffffffffffffff160217905550426004600084815260200190815260200160002060070160006101000a81548163ffffffff021916908363ffffffff1602179055505050565b600260009054906101000a900473ffffffffffffffffffffffffffffffffffffffff1673ffffffffffffffffffffffffffffffffffffffff163373ffffffffffffffffffffffffffffffffffffffff161461041a576040517f08c379a0000000000000000000000000000000000000000000000000000000008152600401610411906139a4565b60405180910390fd5b806000806101000a81548173ffffffffffffffffffffffffffffffffffffffff021916908373ffffffffffffffffffffffffffffffffffffffff16021790555050565b6060600560003373ffffffffffffffffffffffffffffffffffffffff1673ffffffffffffffffffffffffffffffffffffffff1681526020019081526020016000208054806020026020016040519081016040528092919081815260200182805480156104e857602002820191906000526020600020905b8154815260200190600101908083116104d4575b5050505050905090565b60008060009054906101000a900473ffffffffffffffffffffffffffffffffffffffff1673ffffffffffffffffffffffffffffffffffffffff166335852541336040518263ffffffff1660e01b815260040161054e91906139c4565b600060405180830381865afa15801561056b573d6000803e3d6000fd5b505050506040513d6000823e3d601f19601f820116820180604052508101906105949190613bc0565b90506001816000015160028111156105af576105ae61350c565b5b60ff16146105f2576040517f08c379a00000000000000000000000000000000000000000000000000000000081526004016105e990613c7b565b60405180910390fd5b604051806101a001604052808c81526020018b81526020013373ffffffffffffffffffffffffffffffffffffffff1681526020018a8a8080601f016020809104026020016040519081016040528093929190818152602001838380828437600081840152601f19601f82011690508083019250505050505050815260200188888080601f016020809104026020016040519081016040528093929190818152602001838380828437600081840152601f19601f820116905080830192505050505050508152602001866fffffffffffffffffffffffffffffffff168152602001856fffffffffffffffffffffffffffffffff1681526020018463ffffffff1681526020018363ffffffff168152602001600115158152602001600073ffffffffffffffffffffffffffffffffffffffff168152602001600063ffffffff168152602001600063ffffffff16815250600460006003548152602001908152602001600020600082015181600001908051906020019061077192919061250c565b50602082015181600101908051906020019061078e929190612596565b5060408201518160020160006101000a81548173ffffffffffffffffffffffffffffffffffffffff021916908373ffffffffffffffffffffffffffffffffffffffff16021790555060608201518160030190816107eb9190613ea7565b5060808201518160040190816108019190613ea7565b5060a08201518160050160006101000a8154816fffffffffffffffffffffffffffffffff02191690836fffffffffffffffffffffffffffffffff16021790555060c08201518160050160106101000a8154816fffffffffffffffffffffffffffffffff02191690836fffffffffffffffffffffffffffffffff16021790555060e08201518160060160006101000a81548163ffffffff021916908363ffffffff1602179055506101008201518160060160046101000a81548163ffffffff021916908363ffffffff1602179055506101208201518160060160086101000a81548160ff0219169083151502179055506101408201518160060160096101000a81548173ffffffffffffffffffffffffffffffffffffffff021916908373ffffffffffffffffffffffffffffffffffffffff1602179055506101608201518160070160006101000a81548163ffffffff021916908363ffffffff1602179055506101808201518160070160046101000a81548163ffffffff021916908363ffffffff160217905550905050600560003373ffffffffffffffffffffffffffffffffffffffff1673ffffffffffffffffffffffffffffffffffffffff16815260200190815260200160002060035490806001815401808255809150506001900390600052602060002001600090919091909150556003547f0e20c89151faf0b5dda54ebc9d15340d8f36e022eaab7561945a997b339fc56e8c8c8c8c8c8c8c8c8c8c604051610a379a99989796959493929190614024565b60405180910390a260036000815480929190610a52906140f1565b91905055505050505050505050505050565b60056020528160005260406000208181548110610a8057600080fd5b90600052602060002001600091509150505481565b6060806000600560008573ffffffffffffffffffffffffffffffffffffffff1673ffffffffffffffffffffffffffffffffffffffff168152602001908152602001600020805480602002602001604051908101604052809291908181526020018280548015610b2357602002820191906000526020600020905b815481526020019060010190808311610b0f575b505050505090506000815167ffffffffffffffff811115610b4757610b4661295a565b5b604051908082528060200260200182016040528015610b8057816020015b610b6d6125e3565b815260200190600190039081610b655790505b50905060005b8251811015610ff65760046000848381518110610ba657610ba5614139565b5b60200260200101518152602001908152602001600020604051806101a001604052908160008201805480602002602001604051908101604052809291908181526020018280548015610c4d57602002820191906000526020600020905b8160009054906101000a900473ffffffffffffffffffffffffffffffffffffffff1673ffffffffffffffffffffffffffffffffffffffff1681526020019060010190808311610c03575b5050505050815260200160018201805480602002602001604051908101604052809291908181526020018280548015610ca557602002820191906000526020600020905b815481526020019060010190808311610c91575b505050505081526020016002820160009054906101000a900473ffffffffffffffffffffffffffffffffffffffff1673ffffffffffffffffffffffffffffffffffffffff1673ffffffffffffffffffffffffffffffffffffffff168152602001600382018054610d1490613cca565b80601f0160208091040260200160405190810160405280929190818152602001828054610d4090613cca565b8015610d8d5780601f10610d6257610100808354040283529160200191610d8d565b820191906000526020600020905b815481529060010190602001808311610d7057829003601f168201915b50505050508152602001600482018054610da690613cca565b80601f0160208091040260200160405190810160405280929190818152602001828054610dd290613cca565b8015610e1f5780601f10610df457610100808354040283529160200191610e1f565b820191906000526020600020905b815481529060010190602001808311610e0257829003601f168201915b505050505081526020016005820160009054906101000a90046fffffffffffffffffffffffffffffffff166fffffffffffffffffffffffffffffffff166fffffffffffffffffffffffffffffffff1681526020016005820160109054906101000a90046fffffffffffffffffffffffffffffffff166fffffffffffffffffffffffffffffffff166fffffffffffffffffffffffffffffffff1681526020016006820160009054906101000a900463ffffffff1663ffffffff1663ffffffff1681526020016006820160049054906101000a900463ffffffff1663ffffffff1663ffffffff1681526020016006820160089054906101000a900460ff161515151581526020016006820160099054906101000a900473ffffffffffffffffffffffffffffffffffffffff1673ffffffffffffffffffffffffffffffffffffffff1673ffffffffffffffffffffffffffffffffffffffff1681526020016007820160009054906101000a900463ffffffff1663ffffffff1663ffffffff1681526020016007820160049054906101000a900463ffffffff1663ffffffff1663ffffffff1681525050828281518110610fd857610fd7614139565b5b60200260200101819052508080610fee906140f1565b915050610b86565b508082935093505050915091565b60046020528060005260406000206000915090508060020160009054906101000a900473ffffffffffffffffffffffffffffffffffffffff169080600301805461104d90613cca565b80601f016020809104026020016040519081016040528092919081815260200182805461107990613cca565b80156110c65780601f1061109b576101008083540402835291602001916110c6565b820191906000526020600020905b8154815290600101906020018083116110a957829003601f168201915b5050505050908060040180546110db90613cca565b80601f016020809104026020016040519081016040528092919081815260200182805461110790613cca565b80156111545780601f1061112957610100808354040283529160200191611154565b820191906000526020600020905b81548152906001019060200180831161113757829003601f168201915b5050505050908060050160009054906101000a90046fffffffffffffffffffffffffffffffff16908060050160109054906101000a90046fffffffffffffffffffffffffffffffff16908060060160009054906101000a900463ffffffff16908060060160049054906101000a900463ffffffff16908060060160089054906101000a900460ff16908060060160099054906101000a900473ffffffffffffffffffffffffffffffffffffffff16908060070160009054906101000a900463ffffffff16908060070160049054906101000a900463ffffffff1690508b565b600061123d61045d565b90506000805b825181101561128957838382815181106112605761125f614139565b5b6020026020010151036112765760019150611289565b8080611281906140f1565b915050611243565b50806112ca576040517f08c379a00000000000000000000000000000000000000000000000000000000081526004016112c1906141b4565b60405180910390fd5b60006004600085815260200190815260200160002060060160086101000a81548160ff0219169083151502179055507fbe5aa4247333e0978e80edfd1266e28e6cba6ea134522f795973c7133bc43174836040516113289190612dbd565b60405180910390a1505050565b600260009054906101000a900473ffffffffffffffffffffffffffffffffffffffff1673ffffffffffffffffffffffffffffffffffffffff163373ffffffffffffffffffffffffffffffffffffffff16146113c5576040517f08c379a00000000000000000000000000000000000000000000000000000000081526004016113bc906139a4565b60405180910390fd5b80600260006101000a81548173ffffffffffffffffffffffffffffffffffffffff021916908373ffffffffffffffffffffffffffffffffffffffff16021790555050565b426004600083815260200190815260200160002060070160046101000a81548163ffffffff021916908363ffffffff16021790555050565b600061144b61045d565b90506000805b8251811015611497578483828151811061146e5761146d614139565b5b6020026020010151036114845760019150611497565b808061148f906140f1565b915050611451565b50826004600086815260200190815260200160002060050160008282829054906101000a90046fffffffffffffffffffffffffffffffff166114d991906141d4565b92506101000a8154816fffffffffffffffffffffffffffffffff02191690836fffffffffffffffffffffffffffffffff160217905550837f0cdf608777b7c369c17a854e339a0c861f903b381b92294555cd61b0c49f6cab6004600087815260200190815260200160002060050160009054906101000a90046fffffffffffffffffffffffffffffffff166040516115719190614218565b60405180910390a250505050565b6115876125e3565b60046000838152602001908152602001600020604051806101a00160405290816000820180548060200260200160405190810160405280929190818152602001828054801561162b57602002820191906000526020600020905b8160009054906101000a900473ffffffffffffffffffffffffffffffffffffffff1673ffffffffffffffffffffffffffffffffffffffff16815260200190600101908083116115e1575b505050505081526020016001820180548060200260200160405190810160405280929190818152602001828054801561168357602002820191906000526020600020905b81548152602001906001019080831161166f575b505050505081526020016002820160009054906101000a900473ffffffffffffffffffffffffffffffffffffffff1673ffffffffffffffffffffffffffffffffffffffff1673ffffffffffffffffffffffffffffffffffffffff1681526020016003820180546116f290613cca565b80601f016020809104026020016040519081016040528092919081815260200182805461171e90613cca565b801561176b5780601f106117405761010080835404028352916020019161176b565b820191906000526020600020905b81548152906001019060200180831161174e57829003601f168201915b5050505050815260200160048201805461178490613cca565b80601f01602080910402602001604051908101604052809291908181526020018280546117b090613cca565b80156117fd5780601f106117d2576101008083540402835291602001916117fd565b820191906000526020600020905b8154815290600101906020018083116117e057829003601f168201915b505050505081526020016005820160009054906101000a90046fffffffffffffffffffffffffffffffff166fffffffffffffffffffffffffffffffff166fffffffffffffffffffffffffffffffff1681526020016005820160109054906101000a90046fffffffffffffffffffffffffffffffff166fffffffffffffffffffffffffffffffff166fffffffffffffffffffffffffffffffff1681526020016006820160009054906101000a900463ffffffff1663ffffffff1663ffffffff1681526020016006820160049054906101000a900463ffffffff1663ffffffff1663ffffffff1681526020016006820160089054906101000a900460ff161515151581526020016006820160099054906101000a900473ffffffffffffffffffffffffffffffffffffffff1673ffffffffffffffffffffffffffffffffffffffff1673ffffffffffffffffffffffffffffffffffffffff1681526020016007820160009054906101000a900463ffffffff1663ffffffff1663ffffffff1681526020016007820160049054906101000a900463ffffffff1663ffffffff1663ffffffff16815250509050919050565b6060600560008373ffffffffffffffffffffffffffffffffffffffff1673ffffffffffffffffffffffffffffffffffffffff168152602001908152602001600020805480602002602001604051908101604052809291908181526020018280548015611a3557602002820191906000526020600020905b815481526020019060010190808311611a21575b50505050509050919050565b611a496126b5565b600060046000848152602001908152602001600020604051806101a001604052908160008201805480602002602001604051908101604052809291908181526020018280548015611aef57602002820191906000526020600020905b8160009054906101000a900473ffffffffffffffffffffffffffffffffffffffff1673ffffffffffffffffffffffffffffffffffffffff1681526020019060010190808311611aa5575b5050505050815260200160018201805480602002602001604051908101604052809291908181526020018280548015611b4757602002820191906000526020600020905b815481526020019060010190808311611b33575b505050505081526020016002820160009054906101000a900473ffffffffffffffffffffffffffffffffffffffff1673ffffffffffffffffffffffffffffffffffffffff1673ffffffffffffffffffffffffffffffffffffffff168152602001600382018054611bb690613cca565b80601f0160208091040260200160405190810160405280929190818152602001828054611be290613cca565b8015611c2f5780601f10611c0457610100808354040283529160200191611c2f565b820191906000526020600020905b815481529060010190602001808311611c1257829003601f168201915b50505050508152602001600482018054611c4890613cca565b80601f0160208091040260200160405190810160405280929190818152602001828054611c7490613cca565b8015611cc15780601f10611c9657610100808354040283529160200191611cc1565b820191906000526020600020905b815481529060010190602001808311611ca457829003601f168201915b505050505081526020016005820160009054906101000a90046fffffffffffffffffffffffffffffffff166fffffffffffffffffffffffffffffffff166fffffffffffffffffffffffffffffffff1681526020016005820160109054906101000a90046fffffffffffffffffffffffffffffffff166fffffffffffffffffffffffffffffffff166fffffffffffffffffffffffffffffffff1681526020016006820160009054906101000a900463ffffffff1663ffffffff1663ffffffff1681526020016006820160049054906101000a900463ffffffff1663ffffffff1663ffffffff1681526020016006820160089054906101000a900460ff161515151581526020016006820160099054906101000a900473ffffffffffffffffffffffffffffffffffffffff1673ffffffffffffffffffffffffffffffffffffffff1673ffffffffffffffffffffffffffffffffffffffff1681526020016007820160009054906101000a900463ffffffff1663ffffffff1663ffffffff1681526020016007820160049054906101000a900463ffffffff1663ffffffff1663ffffffff16815250509050600081602001519050611e7a6126b5565b60046000868152602001908152602001600020604051806101a001604052908160008201805480602002602001604051908101604052809291908181526020018280548015611f1e57602002820191906000526020600020905b8160009054906101000a900473ffffffffffffffffffffffffffffffffffffffff1673ffffffffffffffffffffffffffffffffffffffff1681526020019060010190808311611ed4575b5050505050815260200160018201805480602002602001604051908101604052809291908181526020018280548015611f7657602002820191906000526020600020905b815481526020019060010190808311611f62575b505050505081526020016002820160009054906101000a900473ffffffffffffffffffffffffffffffffffffffff1673ffffffffffffffffffffffffffffffffffffffff1673ffffffffffffffffffffffffffffffffffffffff168152602001600382018054611fe590613cca565b80601f016020809104026020016040519081016040528092919081815260200182805461201190613cca565b801561205e5780601f106120335761010080835404028352916020019161205e565b820191906000526020600020905b81548152906001019060200180831161204157829003601f168201915b5050505050815260200160048201805461207790613cca565b80601f01602080910402602001604051908101604052809291908181526020018280546120a390613cca565b80156120f05780601f106120c5576101008083540402835291602001916120f0565b820191906000526020600020905b8154815290600101906020018083116120d357829003601f168201915b505050505081526020016005820160009054906101000a90046fffffffffffffffffffffffffffffffff166fffffffffffffffffffffffffffffffff166fffffffffffffffffffffffffffffffff1681526020016005820160109054906101000a90046fffffffffffffffffffffffffffffffff166fffffffffffffffffffffffffffffffff166fffffffffffffffffffffffffffffffff1681526020016006820160009054906101000a900463ffffffff1663ffffffff1663ffffffff1681526020016006820160049054906101000a900463ffffffff1663ffffffff1663ffffffff1681526020016006820160089054906101000a900460ff161515151581526020016006820160099054906101000a900473ffffffffffffffffffffffffffffffffffffffff1673ffffffffffffffffffffffffffffffffffffffff1673ffffffffffffffffffffffffffffffffffffffff1681526020016007820160009054906101000a900463ffffffff1663ffffffff1663ffffffff1681526020016007820160049054906101000a900463ffffffff1663ffffffff1663ffffffff1681525050816000018190525060008054906101000a900473ffffffffffffffffffffffffffffffffffffffff1673ffffffffffffffffffffffffffffffffffffffff1663358525416004600088815260200190815260200160002060020160009054906101000a900473ffffffffffffffffffffffffffffffffffffffff166040518263ffffffff1660e01b815260040161232d91906139c4565b600060405180830381865afa15801561234a573d6000803e3d6000fd5b505050506040513d6000823e3d601f19601f820116820180604052508101906123739190613bc0565b8160400181905250600160009054906101000a900473ffffffffffffffffffffffffffffffffffffffff1673ffffffffffffffffffffffffffffffffffffffff16634e6afd2c836040518263ffffffff1660e01b81526004016123d69190612922565b600060405180830381865afa1580156123f3573d6000803e3d6000fd5b505050506040513d6000823e3d601f19601f8201168201806040525081019061241c919061460e565b816020018190525060008054906101000a900473ffffffffffffffffffffffffffffffffffffffff1673ffffffffffffffffffffffffffffffffffffffff1663358525416004600088815260200190815260200160002060060160099054906101000a900473ffffffffffffffffffffffffffffffffffffffff166040518263ffffffff1660e01b81526004016124b391906139c4565b600060405180830381865afa1580156124d0573d6000803e3d6000fd5b505050506040513d6000823e3d601f19601f820116820180604052508101906124f99190613bc0565b8160600181905250809350505050919050565b828054828255906000526020600020908101928215612585579160200282015b828111156125845782518260006101000a81548173ffffffffffffffffffffffffffffffffffffffff021916908373ffffffffffffffffffffffffffffffffffffffff1602179055509160200191906001019061252c565b5b50905061259291906126ef565b5090565b8280548282559060005260206000209081019282156125d2579160200282015b828111156125d15782518255916020019190600101906125b6565b5b5090506125df91906126ef565b5090565b604051806101a001604052806060815260200160608152602001600073ffffffffffffffffffffffffffffffffffffffff168152602001606081526020016060815260200160006fffffffffffffffffffffffffffffffff16815260200160006fffffffffffffffffffffffffffffffff168152602001600063ffffffff168152602001600063ffffffff168152602001600015158152602001600073ffffffffffffffffffffffffffffffffffffffff168152602001600063ffffffff168152602001600063ffffffff1681525090565b60405180608001604052806126c86125e3565b8152602001606081526020016126dc61270c565b81526020016126e961270c565b81525090565b5b808211156127085760008160009055506001016126f0565b5090565b6040518060a001604052806000600281111561272b5761272a61350c565b5b81526020016060815260200160608152602001606081526020016000151581525090565b6000604051905090565b600080fd5b600080fd5b6000819050919050565b61277681612763565b811461278157600080fd5b50565b6000813590506127938161276d565b92915050565b600073ffffffffffffffffffffffffffffffffffffffff82169050919050565b60006127c482612799565b9050919050565b6127d4816127b9565b81146127df57600080fd5b50565b6000813590506127f1816127cb565b92915050565b6000806040838503121561280e5761280d612759565b5b600061281c85828601612784565b925050602061282d858286016127e2565b9150509250929050565b60006020828403121561284d5761284c612759565b5b600061285b848285016127e2565b91505092915050565b600081519050919050565b600082825260208201905092915050565b6000819050602082019050919050565b61289981612763565b82525050565b60006128ab8383612890565b60208301905092915050565b6000602082019050919050565b60006128cf82612864565b6128d9818561286f565b93506128e483612880565b8060005b838110156129155781516128fc888261289f565b9750612907836128b7565b9250506001810190506128e8565b5085935050505092915050565b6000602082019050818103600083015261293c81846128c4565b905092915050565b600080fd5b6000601f19601f8301169050919050565b7f4e487b7100000000000000000000000000000000000000000000000000000000600052604160045260246000fd5b61299282612949565b810181811067ffffffffffffffff821117156129b1576129b061295a565b5b80604052505050565b60006129c461274f565b90506129d08282612989565b919050565b600067ffffffffffffffff8211156129f0576129ef61295a565b5b602082029050602081019050919050565b600080fd5b6000612a19612a14846129d5565b6129ba565b90508083825260208201905060208402830185811115612a3c57612a3b612a01565b5b835b81811015612a655780612a5188826127e2565b845260208401935050602081019050612a3e565b5050509392505050565b600082601f830112612a8457612a83612944565b5b8135612a94848260208601612a06565b91505092915050565b600067ffffffffffffffff821115612ab857612ab761295a565b5b602082029050602081019050919050565b6000612adc612ad784612a9d565b6129ba565b90508083825260208201905060208402830185811115612aff57612afe612a01565b5b835b81811015612b285780612b148882612784565b845260208401935050602081019050612b01565b5050509392505050565b600082601f830112612b4757612b46612944565b5b8135612b57848260208601612ac9565b91505092915050565b600080fd5b60008083601f840112612b7b57612b7a612944565b5b8235905067ffffffffffffffff811115612b9857612b97612b60565b5b602083019150836001820283011115612bb457612bb3612a01565b5b9250929050565b60006fffffffffffffffffffffffffffffffff82169050919050565b612be081612bbb565b8114612beb57600080fd5b50565b600081359050612bfd81612bd7565b92915050565b600063ffffffff82169050919050565b612c1c81612c03565b8114612c2757600080fd5b50565b600081359050612c3981612c13565b92915050565b6000806000806000806000806000806101008b8d031215612c6357612c62612759565b5b60008b013567ffffffffffffffff811115612c8157612c8061275e565b5b612c8d8d828e01612a6f565b9a505060208b013567ffffffffffffffff811115612cae57612cad61275e565b5b612cba8d828e01612b32565b99505060408b013567ffffffffffffffff811115612cdb57612cda61275e565b5b612ce78d828e01612b65565b985098505060608b013567ffffffffffffffff811115612d0a57612d0961275e565b5b612d168d828e01612b65565b96509650506080612d298d828e01612bee565b94505060a0612d3a8d828e01612bee565b93505060c0612d4b8d828e01612c2a565b92505060e0612d5c8d828e01612c2a565b9150509295989b9194979a5092959850565b60008060408385031215612d8557612d84612759565b5b6000612d93858286016127e2565b9250506020612da485828601612784565b9150509250929050565b612db781612763565b82525050565b6000602082019050612dd26000830184612dae565b92915050565b600081519050919050565b600082825260208201905092915050565b6000819050602082019050919050565b600081519050919050565b600082825260208201905092915050565b6000819050602082019050919050565b612e39816127b9565b82525050565b6000612e4b8383612e30565b60208301905092915050565b6000602082019050919050565b6000612e6f82612e04565b612e798185612e0f565b9350612e8483612e20565b8060005b83811015612eb5578151612e9c8882612e3f565b9750612ea783612e57565b925050600181019050612e88565b5085935050505092915050565b600082825260208201905092915050565b6000612ede82612864565b612ee88185612ec2565b9350612ef383612880565b8060005b83811015612f24578151612f0b888261289f565b9750612f16836128b7565b925050600181019050612ef7565b5085935050505092915050565b600081519050919050565b600082825260208201905092915050565b60005b83811015612f6b578082015181840152602081019050612f50565b60008484015250505050565b6000612f8282612f31565b612f8c8185612f3c565b9350612f9c818560208601612f4d565b612fa581612949565b840191505092915050565b612fb981612bbb565b82525050565b612fc881612c03565b82525050565b60008115159050919050565b612fe381612fce565b82525050565b60006101a08301600083015184820360008601526130078282612e64565b915050602083015184820360208601526130218282612ed3565b91505060408301516130366040860182612e30565b506060830151848203606086015261304e8282612f77565b915050608083015184820360808601526130688282612f77565b91505060a083015161307d60a0860182612fb0565b5060c083015161309060c0860182612fb0565b5060e08301516130a360e0860182612fbf565b506101008301516130b8610100860182612fbf565b506101208301516130cd610120860182612fda565b506101408301516130e2610140860182612e30565b506101608301516130f7610160860182612fbf565b5061018083015161310c610180860182612fbf565b508091505092915050565b60006131238383612fe9565b905092915050565b6000602082019050919050565b600061314382612dd8565b61314d8185612de3565b93508360208202850161315f85612df4565b8060005b8581101561319b578484038952815161317c8582613117565b94506131878361312b565b925060208a01995050600181019050613163565b50829750879550505050505092915050565b600060408201905081810360008301526131c78185613138565b905081810360208301526131db81846128c4565b90509392505050565b6000602082840312156131fa576131f9612759565b5b600061320884828501612784565b91505092915050565b61321a816127b9565b82525050565b600082825260208201905092915050565b600061323c82612f31565b6132468185613220565b9350613256818560208601612f4d565b61325f81612949565b840191505092915050565b61327381612bbb565b82525050565b61328281612c03565b82525050565b61329181612fce565b82525050565b6000610160820190506132ad600083018e613211565b81810360208301526132bf818d613231565b905081810360408301526132d3818c613231565b90506132e2606083018b61326a565b6132ef608083018a61326a565b6132fc60a0830189613279565b61330960c0830188613279565b61331660e0830187613288565b613324610100830186613211565b613332610120830185613279565b613340610140830184613279565b9c9b505050505050505050505050565b6000806040838503121561336757613366612759565b5b600061337585828601612784565b925050602061338685828601612bee565b9150509250929050565b60006101a08301600083015184820360008601526133ae8282612e64565b915050602083015184820360208601526133c88282612ed3565b91505060408301516133dd6040860182612e30565b50606083015184820360608601526133f58282612f77565b9150506080830151848203608086015261340f8282612f77565b91505060a083015161342460a0860182612fb0565b5060c083015161343760c0860182612fb0565b5060e083015161344a60e0860182612fbf565b5061010083015161345f610100860182612fbf565b50610120830151613474610120860182612fda565b50610140830151613489610140860182612e30565b5061016083015161349e610160860182612fbf565b506101808301516134b3610180860182612fbf565b508091505092915050565b600060208201905081810360008301526134d88184613390565b905092915050565b600081519050919050565b600082825260208201905092915050565b6000819050602082019050919050565b7f4e487b7100000000000000000000000000000000000000000000000000000000600052602160045260246000fd5b6004811061354c5761354b61350c565b5b50565b600081905061355d8261353b565b919050565b600061356d8261354f565b9050919050565b61357d81613562565b82525050565b6101208201600082015161359a6000850182612890565b5060208201516135ad6020850182612890565b5060408201516135c06040850182612e30565b5060608201516135d36060850182612e30565b5060808201516135e66080850182612fbf565b5060a08201516135f960a0850182612fbf565b5060c082015161360c60c0850182612fbf565b5060e082015161361f60e0850182612fbf565b50610100820151613634610100850182613574565b50505050565b6000610100830160008301516136536000860182612e30565b506020830151848203602086015261366b8282612f77565b915050604083015184820360408601526136858282612f77565b915050606083015161369a6060860182612fb0565b5060808301516136ad6080860182612fb0565b5060a08301516136c060a0860182612fbf565b5060c08301516136d360c0860182612fbf565b5060e08301516136e660e0860182612fda565b508091505092915050565b600381106137025761370161350c565b5b50565b6000819050613713826136f1565b919050565b600061372382613705565b9050919050565b61373381613718565b82525050565b600060a083016000830151613751600086018261372a565b50602083015184820360208601526137698282612f77565b915050604083015184820360408601526137838282612f77565b9150506060830151848203606086015261379d8282612f77565b91505060808301516137b26080860182612fda565b508091505092915050565b6000610160830160008301516137d66000860182613583565b5060208301518482036101208601526137ef828261363a565b915050604083015184820361014086015261380a8282613739565b9150508091505092915050565b600061382383836137bd565b905092915050565b6000602082019050919050565b6000613843826134e0565b61384d81856134eb565b93508360208202850161385f856134fc565b8060005b8581101561389b578484038952815161387c8582613817565b94506138878361382b565b925060208a01995050600181019050613863565b50829750879550505050505092915050565b600060808301600083015184820360008601526138ca8282612fe9565b915050602083015184820360208601526138e48282613838565b915050604083015184820360408601526138fe8282613739565b915050606083015184820360608601526139188282613739565b9150508091505092915050565b6000602082019050818103600083015261393f81846138ad565b905092915050565b600082825260208201905092915050565b7f4e6f74206f776e65720000000000000000000000000000000000000000000000600082015250565b600061398e600983613947565b915061399982613958565b602082019050919050565b600060208201905081810360008301526139bd81613981565b9050919050565b60006020820190506139d96000830184613211565b92915050565b600080fd5b600080fd5b600381106139f657600080fd5b50565b600081519050613a08816139e9565b92915050565b600080fd5b600067ffffffffffffffff821115613a2e57613a2d61295a565b5b613a3782612949565b9050602081019050919050565b6000613a57613a5284613a13565b6129ba565b905082815260208101848484011115613a7357613a72613a0e565b5b613a7e848285612f4d565b509392505050565b600082601f830112613a9b57613a9a612944565b5b8151613aab848260208601613a44565b91505092915050565b613abd81612fce565b8114613ac857600080fd5b50565b600081519050613ada81613ab4565b92915050565b600060a08284031215613af657613af56139df565b5b613b0060a06129ba565b90506000613b10848285016139f9565b600083015250602082015167ffffffffffffffff811115613b3457613b336139e4565b5b613b4084828501613a86565b602083015250604082015167ffffffffffffffff811115613b6457613b636139e4565b5b613b7084828501613a86565b604083015250606082015167ffffffffffffffff811115613b9457613b936139e4565b5b613ba084828501613a86565b6060830152506080613bb484828501613acb565b60808301525092915050565b600060208284031215613bd657613bd5612759565b5b600082015167ffffffffffffffff811115613bf457613bf361275e565b5b613c0084828501613ae0565b91505092915050565b7f4f6e6c79204d616e7566616374757265722063616e206164642070726f64756360008201527f7400000000000000000000000000000000000000000000000000000000000000602082015250565b6000613c65602183613947565b9150613c7082613c09565b604082019050919050565b60006020820190508181036000830152613c9481613c58565b9050919050565b7f4e487b7100000000000000000000000000000000000000000000000000000000600052602260045260246000fd5b60006002820490506001821680613ce257607f821691505b602082108103613cf557613cf4613c9b565b5b50919050565b60008190508160005260206000209050919050565b60006020601f8301049050919050565b600082821b905092915050565b600060088302613d5d7fffffffffffffffffffffffffffffffffffffffffffffffffffffffffffffffff82613d20565b613d678683613d20565b95508019841693508086168417925050509392505050565b6000819050919050565b6000613da4613d9f613d9a84612763565b613d7f565b612763565b9050919050565b6000819050919050565b613dbe83613d89565b613dd2613dca82613dab565b848454613d2d565b825550505050565b600090565b613de7613dda565b613df2818484613db5565b505050565b5b81811015613e1657613e0b600082613ddf565b600181019050613df8565b5050565b601f821115613e5b57613e2c81613cfb565b613e3584613d10565b81016020851015613e44578190505b613e58613e5085613d10565b830182613df7565b50505b505050565b600082821c905092915050565b6000613e7e60001984600802613e60565b1980831691505092915050565b6000613e978383613e6d565b9150826002028217905092915050565b613eb082612f31565b67ffffffffffffffff811115613ec957613ec861295a565b5b613ed38254613cca565b613ede828285613e1a565b600060209050601f831160018114613f115760008415613eff578287015190505b613f098582613e8b565b865550613f71565b601f198416613f1f86613cfb565b60005b82811015613f4757848901518255600182019150602085019450602081019050613f22565b86831015613f645784890151613f60601f891682613e6d565b8355505b6001600288020188555050505b505050505050565b600082825260208201905092915050565b6000613f9582612e04565b613f9f8185613f79565b9350613faa83612e20565b8060005b83811015613fdb578151613fc28882612e3f565b9750613fcd83612e57565b925050600181019050613fae565b5085935050505092915050565b82818337600083830152505050565b60006140038385613220565b9350614010838584613fe8565b61401983612949565b840190509392505050565b600061010082019050818103600083015261403f818d613f8a565b90508181036020830152614053818c6128c4565b90508181036040830152614068818a8c613ff7565b9050818103606083015261407d81888a613ff7565b905061408c608083018761326a565b61409960a083018661326a565b6140a660c0830185613279565b6140b360e0830184613279565b9b9a5050505050505050505050565b7f4e487b7100000000000000000000000000000000000000000000000000000000600052601160045260246000fd5b60006140fc82612763565b91507fffffffffffffffffffffffffffffffffffffffffffffffffffffffffffffffff820361412e5761412d6140c2565b5b600182019050919050565b7f4e487b7100000000000000000000000000000000000000000000000000000000600052603260045260246000fd5b7f50726f64756374206e6f74206f776e656420627920796f750000000000000000600082015250565b600061419e601883613947565b91506141a982614168565b602082019050919050565b600060208201905081810360008301526141cd81614191565b9050919050565b60006141df82612bbb565b91506141ea83612bbb565b925082820390506fffffffffffffffffffffffffffffffff811115614212576142116140c2565b5b92915050565b600060208201905061422d600083018461326a565b92915050565b600067ffffffffffffffff82111561424e5761424d61295a565b5b602082029050602081019050919050565b60008151905061426e8161276d565b92915050565b600081519050614283816127cb565b92915050565b60008151905061429881612c13565b92915050565b600481106142ab57600080fd5b50565b6000815190506142bd8161429e565b92915050565b600061012082840312156142da576142d96139df565b5b6142e56101206129ba565b905060006142f58482850161425f565b60008301525060206143098482850161425f565b602083015250604061431d84828501614274565b604083015250606061433184828501614274565b606083015250608061434584828501614289565b60808301525060a061435984828501614289565b60a08301525060c061436d84828501614289565b60c08301525060e061438184828501614289565b60e083015250610100614396848285016142ae565b6101008301525092915050565b6000815190506143b281612bd7565b92915050565b600061010082840312156143cf576143ce6139df565b5b6143da6101006129ba565b905060006143ea84828501614274565b600083015250602082015167ffffffffffffffff81111561440e5761440d6139e4565b5b61441a84828501613a86565b602083015250604082015167ffffffffffffffff81111561443e5761443d6139e4565b5b61444a84828501613a86565b604083015250606061445e848285016143a3565b6060830152506080614472848285016143a3565b60808301525060a061448684828501614289565b60a08301525060c061449a84828501614289565b60c08301525060e06144ae84828501613acb565b60e08301525092915050565b600061016082840312156144d1576144d06139df565b5b6144db60606129ba565b905060006144eb848285016142c3565b60008301525061012082015167ffffffffffffffff8111156145105761450f6139e4565b5b61451c848285016143b8565b60208301525061014082015167ffffffffffffffff811115614541576145406139e4565b5b61454d84828501613ae0565b60408301525092915050565b600061456c61456784614233565b6129ba565b9050808382526020820190506020840283018581111561458f5761458e612a01565b5b835b818110156145d657805167ffffffffffffffff8111156145b4576145b3612944565b5b8086016145c189826144ba565b85526020850194505050602081019050614591565b5050509392505050565b600082601f8301126145f5576145f4612944565b5b8151614605848260208601614559565b91505092915050565b60006020828403121561462457614623612759565b5b600082015167ffffffffffffffff8111156146425761464161275e565b5b61464e848285016145e0565b9150509291505056fea26469706673582212209f507c29e4572c64cfbbb7b569d01e4ac2b0c6525fc971c9ff2c6a049e2cb99f64736f6c63430008120033",
  "linkReferences": {},
  "deployedLinkReferences": {}
}