{
  "_format": "hh-sol-artifact-1",
  "contractName": "manufacturerProduct",
  "sourceName": "contracts/manufacturerProduct.sol",
  "abi": [
    {
      "inputs": [
        {
          "internalType": "address",
          "name": "_udAddress",
          "type": "address"
        },
        {
          "internalType": "address",
          "name": "_smAddress",
          "type": "address"
        }
      ],
      "stateMutability": "nonpayable",
      "type": "constructor"
    },
    {
      "anonymous": false,
      "inputs": [
        {
          "indexed": true,
          "internalType": "uint256",
          "name": "_mpId",
          "type": "uint256"
        },
        {
          "indexed": false,
          "internalType": "address[]",
          "name": "_supplierAddress",
          "type": "address[]"
        },
        {
          "indexed": false,
          "internalType": "uint256[]",
          "name": "_smId",
          "type": "uint256[]"
        },
        {
          "indexed": false,
          "internalType": "bytes",
          "name": "_name",
          "type": "bytes"
        },
        {
          "indexed": false,
          "internalType": "bytes",
          "name": "_description",
          "type": "bytes"
        },
        {
          "indexed": false,
          "internalType": "uint128",
          "name": "_unit",
          "type": "uint128"
        },
        {
          "indexed": false,
          "internalType": "uint128",
          "name": "_price",
          "type": "uint128"
        },
        {
          "indexed": false,
          "internalType": "uint32",
          "name": "_date",
          "type": "uint32"
        },
        {
          "indexed": false,
          "internalType": "uint32",
          "name": "_expiryDate",
          "type": "uint32"
        }
      ],
      "name": "eventAddManufacturerProduct",
      "type": "event"
    },
    {
      "anonymous": false,
      "inputs": [
        {
          "indexed": false,
          "internalType": "uint256",
          "name": "_mpId",
          "type": "uint256"
        }
      ],
      "name": "eventDeleteManufacturerProduct",
      "type": "event"
    },
    {
      "anonymous": false,
      "inputs": [
        {
          "indexed": true,
          "internalType": "uint256",
          "name": "_dpId",
          "type": "uint256"
        },
        {
          "indexed": false,
          "internalType": "uint128",
          "name": "_quantity",
          "type": "uint128"
        }
      ],
      "name": "eventUpdateManufacturerProductUints",
      "type": "event"
    },
    {
      "inputs": [
        {
          "internalType": "address[]",
          "name": "_supplierAddress",
          "type": "address[]"
        },
        {
          "internalType": "uint256[]",
          "name": "_smId",
          "type": "uint256[]"
        },
        {
          "internalType": "bytes",
          "name": "_name",
          "type": "bytes"
        },
        {
          "internalType": "bytes",
          "name": "_description",
          "type": "bytes"
        },
        {
          "internalType": "uint128",
          "name": "_unit",
          "type": "uint128"
        },
        {
          "internalType": "uint128",
          "name": "_price",
          "type": "uint128"
        },
        {
          "internalType": "uint32",
          "name": "_date",
          "type": "uint32"
        },
        {
          "internalType": "uint32",
          "name": "_expiryDate",
          "type": "uint32"
        }
      ],
      "name": "addManufacturerProduct",
      "outputs": [],
      "stateMutability": "nonpayable",
      "type": "function"
    },
    {
      "inputs": [
        {
          "internalType": "address",
          "name": "_ownerAddress",
          "type": "address"
        }
      ],
      "name": "changeOwner",
      "outputs": [],
      "stateMutability": "nonpayable",
      "type": "function"
    },
    {
      "inputs": [
        {
          "internalType": "address",
          "name": "_udAddress",
          "type": "address"
        }
      ],
      "name": "changeUdAddress",
      "outputs": [],
      "stateMutability": "nonpayable",
      "type": "function"
    },
    {
      "inputs": [
        {
          "internalType": "uint256",
          "name": "_mpId",
          "type": "uint256"
        }
      ],
      "name": "deleteManufacturerProduct",
      "outputs": [],
      "stateMutability": "nonpayable",
      "type": "function"
    },
    {
      "inputs": [
        {
          "internalType": "address",
          "name": "_manufacturerAddress",
          "type": "address"
        }
      ],
      "name": "getAllProductsOfManufacturer",
      "outputs": [
        {
          "components": [
            {
              "internalType": "address[]",
              "name": "supplierAddress",
              "type": "address[]"
            },
            {
              "internalType": "uint256[]",
              "name": "smId",
              "type": "uint256[]"
            },
            {
              "internalType": "address",
              "name": "manufacturerAddress",
              "type": "address"
            },
            {
              "internalType": "bytes",
              "name": "mp_name",
              "type": "bytes"
            },
            {
              "internalType": "bytes",
              "name": "mp_description",
              "type": "bytes"
            },
            {
              "internalType": "uint128",
              "name": "mp_unit",
              "type": "uint128"
            },
            {
              "internalType": "uint128",
              "name": "mp_price",
              "type": "uint128"
            },
            {
              "internalType": "uint32",
              "name": "mp_date",
              "type": "uint32"
            },
            {
              "internalType": "uint32",
              "name": "mp_expiryDate",
              "type": "uint32"
            },
            {
              "internalType": "bool",
              "name": "mp_status",
              "type": "bool"
            },
            {
              "internalType": "address",
              "name": "distributorAddress",
              "type": "address"
            },
            {
              "internalType": "uint32",
              "name": "dispatchTime",
              "type": "uint32"
            },
            {
              "internalType": "uint32",
              "name": "arrivalTime",
              "type": "uint32"
            }
          ],
          "internalType": "struct IManufacturerProduct.manufacturerProduct[]",
          "name": "",
          "type": "tuple[]"
        },
        {
          "internalType": "uint256[]",
          "name": "_productIds",
          "type": "uint256[]"
        }
      ],
      "stateMutability": "view",
      "type": "function"
    },
    {
      "inputs": [],
      "name": "getManufacturerProductIds",
      "outputs": [
        {
          "internalType": "uint256[]",
          "name": "",
          "type": "uint256[]"
        }
      ],
      "stateMutability": "view",
      "type": "function"
    },
    {
      "inputs": [
        {
          "internalType": "address",
          "name": "_address",
          "type": "address"
        }
      ],
      "name": "getMpIdsByAddress",
      "outputs": [
        {
          "internalType": "uint256[]",
          "name": "",
          "type": "uint256[]"
        }
      ],
      "stateMutability": "view",
      "type": "function"
    },
    {
      "inputs": [
        {
          "internalType": "uint256",
          "name": "_mpId",
          "type": "uint256"
        }
      ],
      "name": "getProductsOfManufacturer",
      "outputs": [
        {
          "components": [
            {
              "components": [
                {
                  "internalType": "address[]",
                  "name": "supplierAddress",
                  "type": "address[]"
                },
                {
                  "internalType": "uint256[]",
                  "name": "smId",
                  "type": "uint256[]"
                },
                {
                  "internalType": "address",
                  "name": "manufacturerAddress",
                  "type": "address"
                },
                {
                  "internalType": "bytes",
                  "name": "mp_name",
                  "type": "bytes"
                },
                {
                  "internalType": "bytes",
                  "name": "mp_description",
                  "type": "bytes"
                },
                {
                  "internalType": "uint128",
                  "name": "mp_unit",
                  "type": "uint128"
                },
                {
                  "internalType": "uint128",
                  "name": "mp_price",
                  "type": "uint128"
                },
                {
                  "internalType": "uint32",
                  "name": "mp_date",
                  "type": "uint32"
                },
                {
                  "internalType": "uint32",
                  "name": "mp_expiryDate",
                  "type": "uint32"
                },
                {
                  "internalType": "bool",
                  "name": "mp_status",
                  "type": "bool"
                },
                {
                  "internalType": "address",
                  "name": "distributorAddress",
                  "type": "address"
                },
                {
                  "internalType": "uint32",
                  "name": "dispatchTime",
                  "type": "uint32"
                },
                {
                  "internalType": "uint32",
                  "name": "arrivalTime",
                  "type": "uint32"
                }
              ],
              "internalType": "struct IManufacturerProduct.manufacturerProduct",
              "name": "manufacturerProductDetails",
              "type": "tuple"
            },
            {
              "components": [
                {
                  "components": [
                    {
                      "internalType": "uint256",
                      "name": "smId",
                      "type": "uint256"
                    },
                    {
                      "internalType": "uint256",
                      "name": "spId",
                      "type": "uint256"
                    },
                    {
                      "internalType": "address",
                      "name": "supplierAddress",
                      "type": "address"
                    },
                    {
                      "internalType": "address",
                      "name": "manufacturerAddress",
                      "type": "address"
                    },
                    {
                      "internalType": "uint32",
                      "name": "dispatchTime",
                      "type": "uint32"
                    },
                    {
                      "internalType": "uint32",
                      "name": "arrivalTime",
                      "type": "uint32"
                    },
                    {
                      "internalType": "uint32",
                      "name": "quantity",
                      "type": "uint32"
                    },
                    {
                      "internalType": "uint32",
                      "name": "currentQuantity",
                      "type": "uint32"
                    },
                    {
                      "internalType": "enum ISupplierManufacturer.transferStatus",
                      "name": "status",
                      "type": "uint8"
                    }
                  ],
                  "internalType": "struct ISupplierManufacturer.supplierManufacturer",
                  "name": "smDetails",
                  "type": "tuple"
                },
                {
                  "components": [
                    {
                      "internalType": "address",
                      "name": "supplierAddress",
                      "type": "address"
                    },
                    {
                      "internalType": "bytes",
                      "name": "sp_name",
                      "type": "bytes"
                    },
                    {
                      "internalType": "bytes",
                      "name": "sp_description",
                      "type": "bytes"
                    },
                    {
                      "internalType": "uint128",
                      "name": "sp_unit",
                      "type": "uint128"
                    },
                    {
                      "internalType": "uint128",
                      "name": "sp_price",
                      "type": "uint128"
                    },
                    {
                      "internalType": "uint32",
                      "name": "sp_date",
                      "type": "uint32"
                    },
                    {
                      "internalType": "uint32",
                      "name": "sp_expiryDate",
                      "type": "uint32"
                    },
                    {
                      "internalType": "bool",
                      "name": "sp_status",
                      "type": "bool"
                    }
                  ],
                  "internalType": "struct ISupplierProduct.supplierProduct",
                  "name": "spDetails",
                  "type": "tuple"
                },
                {
                  "components": [
                    {
                      "internalType": "enum IUserDetails.userType",
                      "name": "userType",
                      "type": "uint8"
                    },
                    {
                      "internalType": "bytes",
                      "name": "userName",
                      "type": "bytes"
                    },
                    {
                      "internalType": "bytes",
                      "name": "userPhysicalAddress",
                      "type": "bytes"
                    },
                    {
                      "internalType": "bytes",
                      "name": "userImage",
                      "type": "bytes"
                    },
                    {
                      "internalType": "bool",
                      "name": "userStatus",
                      "type": "bool"
                    }
                  ],
                  "internalType": "struct IUserDetails.userDetails",
                  "name": "uDetails",
                  "type": "tuple"
                }
              ],
              "internalType": "struct supplierManufacturer.supplierManufacturerWithProduct[]",
              "name": "supplierManufacturerWithProductDetails",
              "type": "tuple[]"
            },
            {
              "components": [
                {
                  "internalType": "enum IUserDetails.userType",
                  "name": "userType",
                  "type": "uint8"
                },
                {
                  "internalType": "bytes",
                  "name": "userName",
                  "type": "bytes"
                },
                {
                  "internalType": "bytes",
                  "name": "userPhysicalAddress",
                  "type": "bytes"
                },
                {
                  "internalType": "bytes",
                  "name": "userImage",
                  "type": "bytes"
                },
                {
                  "internalType": "bool",
                  "name": "userStatus",
                  "type": "bool"
                }
              ],
              "internalType": "struct IUserDetails.userDetails",
              "name": "manufacturerDetails",
              "type": "tuple"
            },
            {
              "components": [
                {
                  "internalType": "enum IUserDetails.userType",
                  "name": "userType",
                  "type": "uint8"
                },
                {
                  "internalType": "bytes",
                  "name": "userName",
                  "type": "bytes"
                },
                {
                  "internalType": "bytes",
                  "name": "userPhysicalAddress",
                  "type": "bytes"
                },
                {
                  "internalType": "bytes",
                  "name": "userImage",
                  "type": "bytes"
                },
                {
                  "internalType": "bool",
                  "name": "userStatus",
                  "type": "bool"
                }
              ],
              "internalType": "struct IUserDetails.userDetails",
              "name": "distributorDetails",
              "type": "tuple"
            }
          ],
          "internalType": "struct manufacturerProduct.ManufacturerProductAllDetails",
          "name": "",
          "type": "tuple"
        }
      ],
      "stateMutability": "view",
      "type": "function"
    },
    {
      "inputs": [
        {
          "internalType": "uint256",
          "name": "_mpId",
          "type": "uint256"
        }
      ],
      "name": "getSingleManufacturerProduct",
      "outputs": [
        {
          "components": [
            {
              "internalType": "address[]",
              "name": "supplierAddress",
              "type": "address[]"
            },
            {
              "internalType": "uint256[]",
              "name": "smId",
              "type": "uint256[]"
            },
            {
              "internalType": "address",
              "name": "manufacturerAddress",
              "type": "address"
            },
            {
              "internalType": "bytes",
              "name": "mp_name",
              "type": "bytes"
            },
            {
              "internalType": "bytes",
              "name": "mp_description",
              "type": "bytes"
            },
            {
              "internalType": "uint128",
              "name": "mp_unit",
              "type": "uint128"
            },
            {
              "internalType": "uint128",
              "name": "mp_price",
              "type": "uint128"
            },
            {
              "internalType": "uint32",
              "name": "mp_date",
              "type": "uint32"
            },
            {
              "internalType": "uint32",
              "name": "mp_expiryDate",
              "type": "uint32"
            },
            {
              "internalType": "bool",
              "name": "mp_status",
              "type": "bool"
            },
            {
              "internalType": "address",
              "name": "distributorAddress",
              "type": "address"
            },
            {
              "internalType": "uint32",
              "name": "dispatchTime",
              "type": "uint32"
            },
            {
              "internalType": "uint32",
              "name": "arrivalTime",
              "type": "uint32"
            }
          ],
          "internalType": "struct IManufacturerProduct.manufacturerProduct",
          "name": "",
          "type": "tuple"
        }
      ],
      "stateMutability": "view",
      "type": "function"
    },
    {
      "inputs": [
        {
          "internalType": "address",
          "name": "",
          "type": "address"
        },
        {
          "internalType": "uint256",
          "name": "",
          "type": "uint256"
        }
      ],
      "name": "manufacturerAddressToproductsIdMapping",
      "outputs": [
        {
          "internalType": "uint256",
          "name": "",
          "type": "uint256"
        }
      ],
      "stateMutability": "view",
      "type": "function"
    },
    {
      "inputs": [
        {
          "internalType": "uint256",
          "name": "",
          "type": "uint256"
        }
      ],
      "name": "manufacturerProductsIdToStructMapping",
      "outputs": [
        {
          "internalType": "address",
          "name": "manufacturerAddress",
          "type": "address"
        },
        {
          "internalType": "bytes",
          "name": "mp_name",
          "type": "bytes"
        },
        {
          "internalType": "bytes",
          "name": "mp_description",
          "type": "bytes"
        },
        {
          "internalType": "uint128",
          "name": "mp_unit",
          "type": "uint128"
        },
        {
          "internalType": "uint128",
          "name": "mp_price",
          "type": "uint128"
        },
        {
          "internalType": "uint32",
          "name": "mp_date",
          "type": "uint32"
        },
        {
          "internalType": "uint32",
          "name": "mp_expiryDate",
          "type": "uint32"
        },
        {
          "internalType": "bool",
          "name": "mp_status",
          "type": "bool"
        },
        {
          "internalType": "address",
          "name": "distributorAddress",
          "type": "address"
        },
        {
          "internalType": "uint32",
          "name": "dispatchTime",
          "type": "uint32"
        },
        {
          "internalType": "uint32",
          "name": "arrivalTime",
          "type": "uint32"
        }
      ],
      "stateMutability": "view",
      "type": "function"
    },
    {
      "inputs": [
        {
          "internalType": "uint256",
          "name": "_mpId",
          "type": "uint256"
        }
      ],
      "name": "updateManufactureProductReceived",
      "outputs": [],
      "stateMutability": "nonpayable",
      "type": "function"
    },
    {
      "inputs": [
        {
          "internalType": "uint256",
          "name": "_mpId",
          "type": "uint256"
        },
        {
          "internalType": "address",
          "name": "_distributorAddress",
          "type": "address"
        }
      ],
      "name": "updateManufactureProductTransfer",
      "outputs": [],
      "stateMutability": "nonpayable",
      "type": "function"
    },
    {
      "inputs": [
        {
          "internalType": "uint256",
          "name": "_mpId",
          "type": "uint256"
        },
        {
          "internalType": "uint128",
          "name": "_quantity",
          "type": "uint128"
        }
      ],
      "name": "updateManufacturerProductUints",
      "outputs": [],
      "stateMutability": "nonpayable",
      "type": "function"
    }
  ],
  "bytecode": "0x608060405260016003553480156200001657600080fd5b50604051620048943803806200489483398181016040528101906200003c919062000170565b33600260006101000a81548173ffffffffffffffffffffffffffffffffffffffff021916908373ffffffffffffffffffffffffffffffffffffffff160217905550816000806101000a81548173ffffffffffffffffffffffffffffffffffffffff021916908373ffffffffffffffffffffffffffffffffffffffff16021790555080600160006101000a81548173ffffffffffffffffffffffffffffffffffffffff021916908373ffffffffffffffffffffffffffffffffffffffff1602179055505050620001b7565b600080fd5b600073ffffffffffffffffffffffffffffffffffffffff82169050919050565b600062000138826200010b565b9050919050565b6200014a816200012b565b81146200015657600080fd5b50565b6000815190506200016a816200013f565b92915050565b600080604083850312156200018a576200018962000106565b5b60006200019a8582860162000159565b9250506020620001ad8582860162000159565b9150509250929050565b6146cd80620001c76000396000f3fe608060405234801561001057600080fd5b50600436106100ea5760003560e01c80639ea61c7e1161008c578063d37889c611610066578063d37889c614610250578063f6a989f81461026c578063f70ac6a41461029c578063fcc7fa7e146102cc576100ea565b80639ea61c7e146101fc578063a6f9dae114610218578063cbd05c7d14610234576100ea565b8063448952e1116100c8578063448952e114610145578063580f469c14610161578063607159711461019157806365603df2146101c2576100ea565b806302c0ad90146100ef5780630f65ae381461010b57806324e5e6aa14610127575b600080fd5b61010960048036038101906101049190612837565b6102fc565b005b61012560048036038101906101209190612877565b61038a565b005b61012f61045d565b60405161013c9190612962565b60405180910390f35b61015f600480360381019061015a9190612c7f565b6104f2565b005b61017b60048036038101906101769190612dae565b610a64565b6040516101889190612dfd565b60405180910390f35b6101ab60048036038101906101a69190612877565b610a95565b6040516101b99291906131ed565b60405180910390f35b6101dc60048036038101906101d79190613224565b611004565b6040516101f39b9a999897969594939291906132d7565b60405180910390f35b61021660048036038101906102119190613224565b611233565b005b610232600480360381019061022d9190612877565b611335565b005b61024e60048036038101906102499190613224565b611409565b005b61026a60048036038101906102659190613390565b611441565b005b61028660048036038101906102819190613224565b6115bf565b60405161029391906134fe565b60405180910390f35b6102b660048036038101906102b19190612877565b6119ea565b6040516102c39190612962565b60405180910390f35b6102e660048036038101906102e19190613224565b611a81565b6040516102f39190613965565b60405180910390f35b806004600084815260200190815260200160002060060160096101000a81548173ffffffffffffffffffffffffffffffffffffffff021916908373ffffffffffffffffffffffffffffffffffffffff160217905550426004600084815260200190815260200160002060070160006101000a81548163ffffffff021916908363ffffffff1602179055505050565b600260009054906101000a900473ffffffffffffffffffffffffffffffffffffffff1673ffffffffffffffffffffffffffffffffffffffff163373ffffffffffffffffffffffffffffffffffffffff161461041a576040517f08c379a0000000000000000000000000000000000000000000000000000000008152600401610411906139e4565b60405180910390fd5b806000806101000a81548173ffffffffffffffffffffffffffffffffffffffff021916908373ffffffffffffffffffffffffffffffffffffffff16021790555050565b6060600560003373ffffffffffffffffffffffffffffffffffffffff1673ffffffffffffffffffffffffffffffffffffffff1681526020019081526020016000208054806020026020016040519081016040528092919081815260200182805480156104e857602002820191906000526020600020905b8154815260200190600101908083116104d4575b5050505050905090565b60008060009054906101000a900473ffffffffffffffffffffffffffffffffffffffff1673ffffffffffffffffffffffffffffffffffffffff166335852541336040518263ffffffff1660e01b815260040161054e9190613a04565b600060405180830381865afa15801561056b573d6000803e3d6000fd5b505050506040513d6000823e3d601f19601f820116820180604052508101906105949190613c00565b90506001816000015160028111156105af576105ae61354c565b5b60ff16146105f2576040517f08c379a00000000000000000000000000000000000000000000000000000000081526004016105e990613cbb565b60405180910390fd5b604051806101a001604052808c81526020018b81526020013373ffffffffffffffffffffffffffffffffffffffff1681526020018a8a8080601f016020809104026020016040519081016040528093929190818152602001838380828437600081840152601f19601f82011690508083019250505050505050815260200188888080601f016020809104026020016040519081016040528093929190818152602001838380828437600081840152601f19601f820116905080830192505050505050508152602001866fffffffffffffffffffffffffffffffff168152602001856fffffffffffffffffffffffffffffffff1681526020018463ffffffff1681526020018363ffffffff168152602001600115158152602001600073ffffffffffffffffffffffffffffffffffffffff168152602001600063ffffffff168152602001600063ffffffff16815250600460006003548152602001908152602001600020600082015181600001908051906020019061077192919061254c565b50602082015181600101908051906020019061078e9291906125d6565b5060408201518160020160006101000a81548173ffffffffffffffffffffffffffffffffffffffff021916908373ffffffffffffffffffffffffffffffffffffffff16021790555060608201518160030190816107eb9190613ee7565b5060808201518160040190816108019190613ee7565b5060a08201518160050160006101000a8154816fffffffffffffffffffffffffffffffff02191690836fffffffffffffffffffffffffffffffff16021790555060c08201518160050160106101000a8154816fffffffffffffffffffffffffffffffff02191690836fffffffffffffffffffffffffffffffff16021790555060e08201518160060160006101000a81548163ffffffff021916908363ffffffff1602179055506101008201518160060160046101000a81548163ffffffff021916908363ffffffff1602179055506101208201518160060160086101000a81548160ff0219169083151502179055506101408201518160060160096101000a81548173ffffffffffffffffffffffffffffffffffffffff021916908373ffffffffffffffffffffffffffffffffffffffff1602179055506101608201518160070160006101000a81548163ffffffff021916908363ffffffff1602179055506101808201518160070160046101000a81548163ffffffff021916908363ffffffff160217905550905050600560003373ffffffffffffffffffffffffffffffffffffffff1673ffffffffffffffffffffffffffffffffffffffff16815260200190815260200160002060035490806001815401808255809150506001900390600052602060002001600090919091909150556003547f0e20c89151faf0b5dda54ebc9d15340d8f36e022eaab7561945a997b339fc56e8c8c8c8c8c8c8c8c8c8c604051610a379a99989796959493929190614064565b60405180910390a260036000815480929190610a5290614131565b91905055505050505050505050505050565b60056020528160005260406000208181548110610a8057600080fd5b90600052602060002001600091509150505481565b6060806000600560008573ffffffffffffffffffffffffffffffffffffffff1673ffffffffffffffffffffffffffffffffffffffff168152602001908152602001600020805480602002602001604051908101604052809291908181526020018280548015610b2357602002820191906000526020600020905b815481526020019060010190808311610b0f575b505050505090506000815167ffffffffffffffff811115610b4757610b4661299a565b5b604051908082528060200260200182016040528015610b8057816020015b610b6d612623565b815260200190600190039081610b655790505b50905060005b8251811015610ff65760046000848381518110610ba657610ba5614179565b5b60200260200101518152602001908152602001600020604051806101a001604052908160008201805480602002602001604051908101604052809291908181526020018280548015610c4d57602002820191906000526020600020905b8160009054906101000a900473ffffffffffffffffffffffffffffffffffffffff1673ffffffffffffffffffffffffffffffffffffffff1681526020019060010190808311610c03575b5050505050815260200160018201805480602002602001604051908101604052809291908181526020018280548015610ca557602002820191906000526020600020905b815481526020019060010190808311610c91575b505050505081526020016002820160009054906101000a900473ffffffffffffffffffffffffffffffffffffffff1673ffffffffffffffffffffffffffffffffffffffff1673ffffffffffffffffffffffffffffffffffffffff168152602001600382018054610d1490613d0a565b80601f0160208091040260200160405190810160405280929190818152602001828054610d4090613d0a565b8015610d8d5780601f10610d6257610100808354040283529160200191610d8d565b820191906000526020600020905b815481529060010190602001808311610d7057829003601f168201915b50505050508152602001600482018054610da690613d0a565b80601f0160208091040260200160405190810160405280929190818152602001828054610dd290613d0a565b8015610e1f5780601f10610df457610100808354040283529160200191610e1f565b820191906000526020600020905b815481529060010190602001808311610e0257829003601f168201915b505050505081526020016005820160009054906101000a90046fffffffffffffffffffffffffffffffff166fffffffffffffffffffffffffffffffff166fffffffffffffffffffffffffffffffff1681526020016005820160109054906101000a90046fffffffffffffffffffffffffffffffff166fffffffffffffffffffffffffffffffff166fffffffffffffffffffffffffffffffff1681526020016006820160009054906101000a900463ffffffff1663ffffffff1663ffffffff1681526020016006820160049054906101000a900463ffffffff1663ffffffff1663ffffffff1681526020016006820160089054906101000a900460ff161515151581526020016006820160099054906101000a900473ffffffffffffffffffffffffffffffffffffffff1673ffffffffffffffffffffffffffffffffffffffff1673ffffffffffffffffffffffffffffffffffffffff1681526020016007820160009054906101000a900463ffffffff1663ffffffff1663ffffffff1681526020016007820160049054906101000a900463ffffffff1663ffffffff1663ffffffff1681525050828281518110610fd857610fd7614179565b5b60200260200101819052508080610fee90614131565b915050610b86565b508082935093505050915091565b60046020528060005260406000206000915090508060020160009054906101000a900473ffffffffffffffffffffffffffffffffffffffff169080600301805461104d90613d0a565b80601f016020809104026020016040519081016040528092919081815260200182805461107990613d0a565b80156110c65780601f1061109b576101008083540402835291602001916110c6565b820191906000526020600020905b8154815290600101906020018083116110a957829003601f168201915b5050505050908060040180546110db90613d0a565b80601f016020809104026020016040519081016040528092919081815260200182805461110790613d0a565b80156111545780601f1061112957610100808354040283529160200191611154565b820191906000526020600020905b81548152906001019060200180831161113757829003601f168201915b5050505050908060050160009054906101000a90046fffffffffffffffffffffffffffffffff16908060050160109054906101000a90046fffffffffffffffffffffffffffffffff16908060060160009054906101000a900463ffffffff16908060060160049054906101000a900463ffffffff16908060060160089054906101000a900460ff16908060060160099054906101000a900473ffffffffffffffffffffffffffffffffffffffff16908060070160009054906101000a900463ffffffff16908060070160049054906101000a900463ffffffff1690508b565b600061123d61045d565b90506000805b825181101561128957838382815181106112605761125f614179565b5b6020026020010151036112765760019150611289565b808061128190614131565b915050611243565b50806112ca576040517f08c379a00000000000000000000000000000000000000000000000000000000081526004016112c1906141f4565b60405180910390fd5b60006004600085815260200190815260200160002060060160086101000a81548160ff0219169083151502179055507fbe5aa4247333e0978e80edfd1266e28e6cba6ea134522f795973c7133bc43174836040516113289190612dfd565b60405180910390a1505050565b600260009054906101000a900473ffffffffffffffffffffffffffffffffffffffff1673ffffffffffffffffffffffffffffffffffffffff163373ffffffffffffffffffffffffffffffffffffffff16146113c5576040517f08c379a00000000000000000000000000000000000000000000000000000000081526004016113bc906139e4565b60405180910390fd5b80600260006101000a81548173ffffffffffffffffffffffffffffffffffffffff021916908373ffffffffffffffffffffffffffffffffffffffff16021790555050565b426004600083815260200190815260200160002060070160046101000a81548163ffffffff021916908363ffffffff16021790555050565b600061144b61045d565b90506000805b8251811015611497578483828151811061146e5761146d614179565b5b6020026020010151036114845760019150611497565b808061148f90614131565b915050611451565b50806114d8576040517f08c379a00000000000000000000000000000000000000000000000000000000081526004016114cf906141f4565b60405180910390fd5b826004600086815260200190815260200160002060050160008282829054906101000a90046fffffffffffffffffffffffffffffffff166115199190614214565b92506101000a8154816fffffffffffffffffffffffffffffffff02191690836fffffffffffffffffffffffffffffffff160217905550837f0cdf608777b7c369c17a854e339a0c861f903b381b92294555cd61b0c49f6cab6004600087815260200190815260200160002060050160009054906101000a90046fffffffffffffffffffffffffffffffff166040516115b19190614258565b60405180910390a250505050565b6115c7612623565b60046000838152602001908152602001600020604051806101a00160405290816000820180548060200260200160405190810160405280929190818152602001828054801561166b57602002820191906000526020600020905b8160009054906101000a900473ffffffffffffffffffffffffffffffffffffffff1673ffffffffffffffffffffffffffffffffffffffff1681526020019060010190808311611621575b50505050508152602001600182018054806020026020016040519081016040528092919081815260200182805480156116c357602002820191906000526020600020905b8154815260200190600101908083116116af575b505050505081526020016002820160009054906101000a900473ffffffffffffffffffffffffffffffffffffffff1673ffffffffffffffffffffffffffffffffffffffff1673ffffffffffffffffffffffffffffffffffffffff16815260200160038201805461173290613d0a565b80601f016020809104026020016040519081016040528092919081815260200182805461175e90613d0a565b80156117ab5780601f10611780576101008083540402835291602001916117ab565b820191906000526020600020905b81548152906001019060200180831161178e57829003601f168201915b505050505081526020016004820180546117c490613d0a565b80601f01602080910402602001604051908101604052809291908181526020018280546117f090613d0a565b801561183d5780601f106118125761010080835404028352916020019161183d565b820191906000526020600020905b81548152906001019060200180831161182057829003601f168201915b505050505081526020016005820160009054906101000a90046fffffffffffffffffffffffffffffffff166fffffffffffffffffffffffffffffffff166fffffffffffffffffffffffffffffffff1681526020016005820160109054906101000a90046fffffffffffffffffffffffffffffffff166fffffffffffffffffffffffffffffffff166fffffffffffffffffffffffffffffffff1681526020016006820160009054906101000a900463ffffffff1663ffffffff1663ffffffff1681526020016006820160049054906101000a900463ffffffff1663ffffffff1663ffffffff1681526020016006820160089054906101000a900460ff161515151581526020016006820160099054906101000a900473ffffffffffffffffffffffffffffffffffffffff1673ffffffffffffffffffffffffffffffffffffffff1673ffffffffffffffffffffffffffffffffffffffff1681526020016007820160009054906101000a900463ffffffff1663ffffffff1663ffffffff1681526020016007820160049054906101000a900463ffffffff1663ffffffff1663ffffffff16815250509050919050565b6060600560008373ffffffffffffffffffffffffffffffffffffffff1673ffffffffffffffffffffffffffffffffffffffff168152602001908152602001600020805480602002602001604051908101604052809291908181526020018280548015611a7557602002820191906000526020600020905b815481526020019060010190808311611a61575b50505050509050919050565b611a896126f5565b600060046000848152602001908152602001600020604051806101a001604052908160008201805480602002602001604051908101604052809291908181526020018280548015611b2f57602002820191906000526020600020905b8160009054906101000a900473ffffffffffffffffffffffffffffffffffffffff1673ffffffffffffffffffffffffffffffffffffffff1681526020019060010190808311611ae5575b5050505050815260200160018201805480602002602001604051908101604052809291908181526020018280548015611b8757602002820191906000526020600020905b815481526020019060010190808311611b73575b505050505081526020016002820160009054906101000a900473ffffffffffffffffffffffffffffffffffffffff1673ffffffffffffffffffffffffffffffffffffffff1673ffffffffffffffffffffffffffffffffffffffff168152602001600382018054611bf690613d0a565b80601f0160208091040260200160405190810160405280929190818152602001828054611c2290613d0a565b8015611c6f5780601f10611c4457610100808354040283529160200191611c6f565b820191906000526020600020905b815481529060010190602001808311611c5257829003601f168201915b50505050508152602001600482018054611c8890613d0a565b80601f0160208091040260200160405190810160405280929190818152602001828054611cb490613d0a565b8015611d015780601f10611cd657610100808354040283529160200191611d01565b820191906000526020600020905b815481529060010190602001808311611ce457829003601f168201915b505050505081526020016005820160009054906101000a90046fffffffffffffffffffffffffffffffff166fffffffffffffffffffffffffffffffff166fffffffffffffffffffffffffffffffff1681526020016005820160109054906101000a90046fffffffffffffffffffffffffffffffff166fffffffffffffffffffffffffffffffff166fffffffffffffffffffffffffffffffff1681526020016006820160009054906101000a900463ffffffff1663ffffffff1663ffffffff1681526020016006820160049054906101000a900463ffffffff1663ffffffff1663ffffffff1681526020016006820160089054906101000a900460ff161515151581526020016006820160099054906101000a900473ffffffffffffffffffffffffffffffffffffffff1673ffffffffffffffffffffffffffffffffffffffff1673ffffffffffffffffffffffffffffffffffffffff1681526020016007820160009054906101000a900463ffffffff1663ffffffff1663ffffffff1681526020016007820160049054906101000a900463ffffffff1663ffffffff1663ffffffff16815250509050600081602001519050611eba6126f5565b60046000868152602001908152602001600020604051806101a001604052908160008201805480602002602001604051908101604052809291908181526020018280548015611f5e57602002820191906000526020600020905b8160009054906101000a900473ffffffffffffffffffffffffffffffffffffffff1673ffffffffffffffffffffffffffffffffffffffff1681526020019060010190808311611f14575b5050505050815260200160018201805480602002602001604051908101604052809291908181526020018280548015611fb657602002820191906000526020600020905b815481526020019060010190808311611fa2575b505050505081526020016002820160009054906101000a900473ffffffffffffffffffffffffffffffffffffffff1673ffffffffffffffffffffffffffffffffffffffff1673ffffffffffffffffffffffffffffffffffffffff16815260200160038201805461202590613d0a565b80601f016020809104026020016040519081016040528092919081815260200182805461205190613d0a565b801561209e5780601f106120735761010080835404028352916020019161209e565b820191906000526020600020905b81548152906001019060200180831161208157829003601f168201915b505050505081526020016004820180546120b790613d0a565b80601f01602080910402602001604051908101604052809291908181526020018280546120e390613d0a565b80156121305780601f1061210557610100808354040283529160200191612130565b820191906000526020600020905b81548152906001019060200180831161211357829003601f168201915b505050505081526020016005820160009054906101000a90046fffffffffffffffffffffffffffffffff166fffffffffffffffffffffffffffffffff166fffffffffffffffffffffffffffffffff1681526020016005820160109054906101000a90046fffffffffffffffffffffffffffffffff166fffffffffffffffffffffffffffffffff166fffffffffffffffffffffffffffffffff1681526020016006820160009054906101000a900463ffffffff1663ffffffff1663ffffffff1681526020016006820160049054906101000a900463ffffffff1663ffffffff1663ffffffff1681526020016006820160089054906101000a900460ff161515151581526020016006820160099054906101000a900473ffffffffffffffffffffffffffffffffffffffff1673ffffffffffffffffffffffffffffffffffffffff1673ffffffffffffffffffffffffffffffffffffffff1681526020016007820160009054906101000a900463ffffffff1663ffffffff1663ffffffff1681526020016007820160049054906101000a900463ffffffff1663ffffffff1663ffffffff1681525050816000018190525060008054906101000a900473ffffffffffffffffffffffffffffffffffffffff1673ffffffffffffffffffffffffffffffffffffffff1663358525416004600088815260200190815260200160002060020160009054906101000a900473ffffffffffffffffffffffffffffffffffffffff166040518263ffffffff1660e01b815260040161236d9190613a04565b600060405180830381865afa15801561238a573d6000803e3d6000fd5b505050506040513d6000823e3d601f19601f820116820180604052508101906123b39190613c00565b8160400181905250600160009054906101000a900473ffffffffffffffffffffffffffffffffffffffff1673ffffffffffffffffffffffffffffffffffffffff16634e6afd2c836040518263ffffffff1660e01b81526004016124169190612962565b600060405180830381865afa158015612433573d6000803e3d6000fd5b505050506040513d6000823e3d601f19601f8201168201806040525081019061245c919061464e565b816020018190525060008054906101000a900473ffffffffffffffffffffffffffffffffffffffff1673ffffffffffffffffffffffffffffffffffffffff1663358525416004600088815260200190815260200160002060060160099054906101000a900473ffffffffffffffffffffffffffffffffffffffff166040518263ffffffff1660e01b81526004016124f39190613a04565b600060405180830381865afa158015612510573d6000803e3d6000fd5b505050506040513d6000823e3d601f19601f820116820180604052508101906125399190613c00565b8160600181905250809350505050919050565b8280548282559060005260206000209081019282156125c5579160200282015b828111156125c45782518260006101000a81548173ffffffffffffffffffffffffffffffffffffffff021916908373ffffffffffffffffffffffffffffffffffffffff1602179055509160200191906001019061256c565b5b5090506125d2919061272f565b5090565b828054828255906000526020600020908101928215612612579160200282015b828111156126115782518255916020019190600101906125f6565b5b50905061261f919061272f565b5090565b604051806101a001604052806060815260200160608152602001600073ffffffffffffffffffffffffffffffffffffffff168152602001606081526020016060815260200160006fffffffffffffffffffffffffffffffff16815260200160006fffffffffffffffffffffffffffffffff168152602001600063ffffffff168152602001600063ffffffff168152602001600015158152602001600073ffffffffffffffffffffffffffffffffffffffff168152602001600063ffffffff168152602001600063ffffffff1681525090565b6040518060800160405280612708612623565b81526020016060815260200161271c61274c565b815260200161272961274c565b81525090565b5b80821115612748576000816000905550600101612730565b5090565b6040518060a001604052806000600281111561276b5761276a61354c565b5b81526020016060815260200160608152602001606081526020016000151581525090565b6000604051905090565b600080fd5b600080fd5b6000819050919050565b6127b6816127a3565b81146127c157600080fd5b50565b6000813590506127d3816127ad565b92915050565b600073ffffffffffffffffffffffffffffffffffffffff82169050919050565b6000612804826127d9565b9050919050565b612814816127f9565b811461281f57600080fd5b50565b6000813590506128318161280b565b92915050565b6000806040838503121561284e5761284d612799565b5b600061285c858286016127c4565b925050602061286d85828601612822565b9150509250929050565b60006020828403121561288d5761288c612799565b5b600061289b84828501612822565b91505092915050565b600081519050919050565b600082825260208201905092915050565b6000819050602082019050919050565b6128d9816127a3565b82525050565b60006128eb83836128d0565b60208301905092915050565b6000602082019050919050565b600061290f826128a4565b61291981856128af565b9350612924836128c0565b8060005b8381101561295557815161293c88826128df565b9750612947836128f7565b925050600181019050612928565b5085935050505092915050565b6000602082019050818103600083015261297c8184612904565b905092915050565b600080fd5b6000601f19601f8301169050919050565b7f4e487b7100000000000000000000000000000000000000000000000000000000600052604160045260246000fd5b6129d282612989565b810181811067ffffffffffffffff821117156129f1576129f061299a565b5b80604052505050565b6000612a0461278f565b9050612a1082826129c9565b919050565b600067ffffffffffffffff821115612a3057612a2f61299a565b5b602082029050602081019050919050565b600080fd5b6000612a59612a5484612a15565b6129fa565b90508083825260208201905060208402830185811115612a7c57612a7b612a41565b5b835b81811015612aa55780612a918882612822565b845260208401935050602081019050612a7e565b5050509392505050565b600082601f830112612ac457612ac3612984565b5b8135612ad4848260208601612a46565b91505092915050565b600067ffffffffffffffff821115612af857612af761299a565b5b602082029050602081019050919050565b6000612b1c612b1784612add565b6129fa565b90508083825260208201905060208402830185811115612b3f57612b3e612a41565b5b835b81811015612b685780612b5488826127c4565b845260208401935050602081019050612b41565b5050509392505050565b600082601f830112612b8757612b86612984565b5b8135612b97848260208601612b09565b91505092915050565b600080fd5b60008083601f840112612bbb57612bba612984565b5b8235905067ffffffffffffffff811115612bd857612bd7612ba0565b5b602083019150836001820283011115612bf457612bf3612a41565b5b9250929050565b60006fffffffffffffffffffffffffffffffff82169050919050565b612c2081612bfb565b8114612c2b57600080fd5b50565b600081359050612c3d81612c17565b92915050565b600063ffffffff82169050919050565b612c5c81612c43565b8114612c6757600080fd5b50565b600081359050612c7981612c53565b92915050565b6000806000806000806000806000806101008b8d031215612ca357612ca2612799565b5b60008b013567ffffffffffffffff811115612cc157612cc061279e565b5b612ccd8d828e01612aaf565b9a505060208b013567ffffffffffffffff811115612cee57612ced61279e565b5b612cfa8d828e01612b72565b99505060408b013567ffffffffffffffff811115612d1b57612d1a61279e565b5b612d278d828e01612ba5565b985098505060608b013567ffffffffffffffff811115612d4a57612d4961279e565b5b612d568d828e01612ba5565b96509650506080612d698d828e01612c2e565b94505060a0612d7a8d828e01612c2e565b93505060c0612d8b8d828e01612c6a565b92505060e0612d9c8d828e01612c6a565b9150509295989b9194979a5092959850565b60008060408385031215612dc557612dc4612799565b5b6000612dd385828601612822565b9250506020612de4858286016127c4565b9150509250929050565b612df7816127a3565b82525050565b6000602082019050612e126000830184612dee565b92915050565b600081519050919050565b600082825260208201905092915050565b6000819050602082019050919050565b600081519050919050565b600082825260208201905092915050565b6000819050602082019050919050565b612e79816127f9565b82525050565b6000612e8b8383612e70565b60208301905092915050565b6000602082019050919050565b6000612eaf82612e44565b612eb98185612e4f565b9350612ec483612e60565b8060005b83811015612ef5578151612edc8882612e7f565b9750612ee783612e97565b925050600181019050612ec8565b5085935050505092915050565b600082825260208201905092915050565b6000612f1e826128a4565b612f288185612f02565b9350612f33836128c0565b8060005b83811015612f64578151612f4b88826128df565b9750612f56836128f7565b925050600181019050612f37565b5085935050505092915050565b600081519050919050565b600082825260208201905092915050565b60005b83811015612fab578082015181840152602081019050612f90565b60008484015250505050565b6000612fc282612f71565b612fcc8185612f7c565b9350612fdc818560208601612f8d565b612fe581612989565b840191505092915050565b612ff981612bfb565b82525050565b61300881612c43565b82525050565b60008115159050919050565b6130238161300e565b82525050565b60006101a08301600083015184820360008601526130478282612ea4565b915050602083015184820360208601526130618282612f13565b91505060408301516130766040860182612e70565b506060830151848203606086015261308e8282612fb7565b915050608083015184820360808601526130a88282612fb7565b91505060a08301516130bd60a0860182612ff0565b5060c08301516130d060c0860182612ff0565b5060e08301516130e360e0860182612fff565b506101008301516130f8610100860182612fff565b5061012083015161310d61012086018261301a565b50610140830151613122610140860182612e70565b50610160830151613137610160860182612fff565b5061018083015161314c610180860182612fff565b508091505092915050565b60006131638383613029565b905092915050565b6000602082019050919050565b600061318382612e18565b61318d8185612e23565b93508360208202850161319f85612e34565b8060005b858110156131db57848403895281516131bc8582613157565b94506131c78361316b565b925060208a019950506001810190506131a3565b50829750879550505050505092915050565b600060408201905081810360008301526132078185613178565b9050818103602083015261321b8184612904565b90509392505050565b60006020828403121561323a57613239612799565b5b6000613248848285016127c4565b91505092915050565b61325a816127f9565b82525050565b600082825260208201905092915050565b600061327c82612f71565b6132868185613260565b9350613296818560208601612f8d565b61329f81612989565b840191505092915050565b6132b381612bfb565b82525050565b6132c281612c43565b82525050565b6132d18161300e565b82525050565b6000610160820190506132ed600083018e613251565b81810360208301526132ff818d613271565b90508181036040830152613313818c613271565b9050613322606083018b6132aa565b61332f608083018a6132aa565b61333c60a08301896132b9565b61334960c08301886132b9565b61335660e08301876132c8565b613364610100830186613251565b6133726101208301856132b9565b6133806101408301846132b9565b9c9b505050505050505050505050565b600080604083850312156133a7576133a6612799565b5b60006133b5858286016127c4565b92505060206133c685828601612c2e565b9150509250929050565b60006101a08301600083015184820360008601526133ee8282612ea4565b915050602083015184820360208601526134088282612f13565b915050604083015161341d6040860182612e70565b50606083015184820360608601526134358282612fb7565b9150506080830151848203608086015261344f8282612fb7565b91505060a083015161346460a0860182612ff0565b5060c083015161347760c0860182612ff0565b5060e083015161348a60e0860182612fff565b5061010083015161349f610100860182612fff565b506101208301516134b461012086018261301a565b506101408301516134c9610140860182612e70565b506101608301516134de610160860182612fff565b506101808301516134f3610180860182612fff565b508091505092915050565b6000602082019050818103600083015261351881846133d0565b905092915050565b600081519050919050565b600082825260208201905092915050565b6000819050602082019050919050565b7f4e487b7100000000000000000000000000000000000000000000000000000000600052602160045260246000fd5b6004811061358c5761358b61354c565b5b50565b600081905061359d8261357b565b919050565b60006135ad8261358f565b9050919050565b6135bd816135a2565b82525050565b610120820160008201516135da60008501826128d0565b5060208201516135ed60208501826128d0565b5060408201516136006040850182612e70565b5060608201516136136060850182612e70565b5060808201516136266080850182612fff565b5060a082015161363960a0850182612fff565b5060c082015161364c60c0850182612fff565b5060e082015161365f60e0850182612fff565b506101008201516136746101008501826135b4565b50505050565b6000610100830160008301516136936000860182612e70565b50602083015184820360208601526136ab8282612fb7565b915050604083015184820360408601526136c58282612fb7565b91505060608301516136da6060860182612ff0565b5060808301516136ed6080860182612ff0565b5060a083015161370060a0860182612fff565b5060c083015161371360c0860182612fff565b5060e083015161372660e086018261301a565b508091505092915050565b600381106137425761374161354c565b5b50565b600081905061375382613731565b919050565b600061376382613745565b9050919050565b61377381613758565b82525050565b600060a083016000830151613791600086018261376a565b50602083015184820360208601526137a98282612fb7565b915050604083015184820360408601526137c38282612fb7565b915050606083015184820360608601526137dd8282612fb7565b91505060808301516137f2608086018261301a565b508091505092915050565b60006101608301600083015161381660008601826135c3565b50602083015184820361012086015261382f828261367a565b915050604083015184820361014086015261384a8282613779565b9150508091505092915050565b600061386383836137fd565b905092915050565b6000602082019050919050565b600061388382613520565b61388d818561352b565b93508360208202850161389f8561353c565b8060005b858110156138db57848403895281516138bc8582613857565b94506138c78361386b565b925060208a019950506001810190506138a3565b50829750879550505050505092915050565b6000608083016000830151848203600086015261390a8282613029565b915050602083015184820360208601526139248282613878565b9150506040830151848203604086015261393e8282613779565b915050606083015184820360608601526139588282613779565b9150508091505092915050565b6000602082019050818103600083015261397f81846138ed565b905092915050565b600082825260208201905092915050565b7f4e6f74206f776e65720000000000000000000000000000000000000000000000600082015250565b60006139ce600983613987565b91506139d982613998565b602082019050919050565b600060208201905081810360008301526139fd816139c1565b9050919050565b6000602082019050613a196000830184613251565b92915050565b600080fd5b600080fd5b60038110613a3657600080fd5b50565b600081519050613a4881613a29565b92915050565b600080fd5b600067ffffffffffffffff821115613a6e57613a6d61299a565b5b613a7782612989565b9050602081019050919050565b6000613a97613a9284613a53565b6129fa565b905082815260208101848484011115613ab357613ab2613a4e565b5b613abe848285612f8d565b509392505050565b600082601f830112613adb57613ada612984565b5b8151613aeb848260208601613a84565b91505092915050565b613afd8161300e565b8114613b0857600080fd5b50565b600081519050613b1a81613af4565b92915050565b600060a08284031215613b3657613b35613a1f565b5b613b4060a06129fa565b90506000613b5084828501613a39565b600083015250602082015167ffffffffffffffff811115613b7457613b73613a24565b5b613b8084828501613ac6565b602083015250604082015167ffffffffffffffff811115613ba457613ba3613a24565b5b613bb084828501613ac6565b604083015250606082015167ffffffffffffffff811115613bd457613bd3613a24565b5b613be084828501613ac6565b6060830152506080613bf484828501613b0b565b60808301525092915050565b600060208284031215613c1657613c15612799565b5b600082015167ffffffffffffffff811115613c3457613c3361279e565b5b613c4084828501613b20565b91505092915050565b7f4f6e6c79204d616e7566616374757265722063616e206164642070726f64756360008201527f7400000000000000000000000000000000000000000000000000000000000000602082015250565b6000613ca5602183613987565b9150613cb082613c49565b604082019050919050565b60006020820190508181036000830152613cd481613c98565b9050919050565b7f4e487b7100000000000000000000000000000000000000000000000000000000600052602260045260246000fd5b60006002820490506001821680613d2257607f821691505b602082108103613d3557613d34613cdb565b5b50919050565b60008190508160005260206000209050919050565b60006020601f8301049050919050565b600082821b905092915050565b600060088302613d9d7fffffffffffffffffffffffffffffffffffffffffffffffffffffffffffffffff82613d60565b613da78683613d60565b95508019841693508086168417925050509392505050565b6000819050919050565b6000613de4613ddf613dda846127a3565b613dbf565b6127a3565b9050919050565b6000819050919050565b613dfe83613dc9565b613e12613e0a82613deb565b848454613d6d565b825550505050565b600090565b613e27613e1a565b613e32818484613df5565b505050565b5b81811015613e5657613e4b600082613e1f565b600181019050613e38565b5050565b601f821115613e9b57613e6c81613d3b565b613e7584613d50565b81016020851015613e84578190505b613e98613e9085613d50565b830182613e37565b50505b505050565b600082821c905092915050565b6000613ebe60001984600802613ea0565b1980831691505092915050565b6000613ed78383613ead565b9150826002028217905092915050565b613ef082612f71565b67ffffffffffffffff811115613f0957613f0861299a565b5b613f138254613d0a565b613f1e828285613e5a565b600060209050601f831160018114613f515760008415613f3f578287015190505b613f498582613ecb565b865550613fb1565b601f198416613f5f86613d3b565b60005b82811015613f8757848901518255600182019150602085019450602081019050613f62565b86831015613fa45784890151613fa0601f891682613ead565b8355505b6001600288020188555050505b505050505050565b600082825260208201905092915050565b6000613fd582612e44565b613fdf8185613fb9565b9350613fea83612e60565b8060005b8381101561401b5781516140028882612e7f565b975061400d83612e97565b925050600181019050613fee565b5085935050505092915050565b82818337600083830152505050565b60006140438385613260565b9350614050838584614028565b61405983612989565b840190509392505050565b600061010082019050818103600083015261407f818d613fca565b90508181036020830152614093818c612904565b905081810360408301526140a8818a8c614037565b905081810360608301526140bd81888a614037565b90506140cc60808301876132aa565b6140d960a08301866132aa565b6140e660c08301856132b9565b6140f360e08301846132b9565b9b9a5050505050505050505050565b7f4e487b7100000000000000000000000000000000000000000000000000000000600052601160045260246000fd5b600061413c826127a3565b91507fffffffffffffffffffffffffffffffffffffffffffffffffffffffffffffffff820361416e5761416d614102565b5b600182019050919050565b7f4e487b7100000000000000000000000000000000000000000000000000000000600052603260045260246000fd5b7f50726f64756374206e6f74206f776e656420627920796f750000000000000000600082015250565b60006141de601883613987565b91506141e9826141a8565b602082019050919050565b6000602082019050818103600083015261420d816141d1565b9050919050565b600061421f82612bfb565b915061422a83612bfb565b925082820390506fffffffffffffffffffffffffffffffff81111561425257614251614102565b5b92915050565b600060208201905061426d60008301846132aa565b92915050565b600067ffffffffffffffff82111561428e5761428d61299a565b5b602082029050602081019050919050565b6000815190506142ae816127ad565b92915050565b6000815190506142c38161280b565b92915050565b6000815190506142d881612c53565b92915050565b600481106142eb57600080fd5b50565b6000815190506142fd816142de565b92915050565b6000610120828403121561431a57614319613a1f565b5b6143256101206129fa565b905060006143358482850161429f565b60008301525060206143498482850161429f565b602083015250604061435d848285016142b4565b6040830152506060614371848285016142b4565b6060830152506080614385848285016142c9565b60808301525060a0614399848285016142c9565b60a08301525060c06143ad848285016142c9565b60c08301525060e06143c1848285016142c9565b60e0830152506101006143d6848285016142ee565b6101008301525092915050565b6000815190506143f281612c17565b92915050565b6000610100828403121561440f5761440e613a1f565b5b61441a6101006129fa565b9050600061442a848285016142b4565b600083015250602082015167ffffffffffffffff81111561444e5761444d613a24565b5b61445a84828501613ac6565b602083015250604082015167ffffffffffffffff81111561447e5761447d613a24565b5b61448a84828501613ac6565b604083015250606061449e848285016143e3565b60608301525060806144b2848285016143e3565b60808301525060a06144c6848285016142c9565b60a08301525060c06144da848285016142c9565b60c08301525060e06144ee84828501613b0b565b60e08301525092915050565b6000610160828403121561451157614510613a1f565b5b61451b60606129fa565b9050600061452b84828501614303565b60008301525061012082015167ffffffffffffffff8111156145505761454f613a24565b5b61455c848285016143f8565b60208301525061014082015167ffffffffffffffff81111561458157614580613a24565b5b61458d84828501613b20565b60408301525092915050565b60006145ac6145a784614273565b6129fa565b905080838252602082019050602084028301858111156145cf576145ce612a41565b5b835b8181101561461657805167ffffffffffffffff8111156145f4576145f3612984565b5b80860161460189826144fa565b855260208501945050506020810190506145d1565b5050509392505050565b600082601f83011261463557614634612984565b5b8151614645848260208601614599565b91505092915050565b60006020828403121561466457614663612799565b5b600082015167ffffffffffffffff8111156146825761468161279e565b5b61468e84828501614620565b9150509291505056fea2646970667358221220bd0147c7ddc46a82e6f766b28752f9694e052049120e55ec332352f42b79474264736f6c63430008120033",
  "linkReferences": {},
  "deployedLinkReferences": {}
}