{
  "_format": "hh-sol-artifact-1",
  "contractName": "manufacturerProduct",
  "sourceName": "contracts/manufacturerProduct.sol",
  "abi": [
    {
      "inputs": [
        {
          "internalType": "address",
          "name": "_udAddress",
          "type": "address"
        }
      ],
      "stateMutability": "nonpayable",
      "type": "constructor"
    },
    {
      "anonymous": false,
      "inputs": [
        {
          "indexed": true,
          "internalType": "uint256",
          "name": "_mpId",
          "type": "uint256"
        },
        {
          "indexed": false,
          "internalType": "address[]",
          "name": "_supplierAddress",
          "type": "address[]"
        },
        {
          "indexed": false,
          "internalType": "uint256[]",
          "name": "_smId",
          "type": "uint256[]"
        },
        {
          "indexed": false,
          "internalType": "bytes",
          "name": "_name",
          "type": "bytes"
        },
        {
          "indexed": false,
          "internalType": "bytes",
          "name": "_description",
          "type": "bytes"
        },
        {
          "indexed": false,
          "internalType": "uint128",
          "name": "_unit",
          "type": "uint128"
        },
        {
          "indexed": false,
          "internalType": "uint128",
          "name": "_price",
          "type": "uint128"
        },
        {
          "indexed": false,
          "internalType": "uint32",
          "name": "_date",
          "type": "uint32"
        },
        {
          "indexed": false,
          "internalType": "uint32",
          "name": "_expiryDate",
          "type": "uint32"
        }
      ],
      "name": "eventAddManufacturerProduct",
      "type": "event"
    },
    {
      "anonymous": false,
      "inputs": [
        {
          "indexed": false,
          "internalType": "uint256",
          "name": "_mpId",
          "type": "uint256"
        }
      ],
      "name": "eventDeleteManufacturerProduct",
      "type": "event"
    },
    {
      "anonymous": false,
      "inputs": [
        {
          "indexed": true,
          "internalType": "uint256",
          "name": "_dpId",
          "type": "uint256"
        },
        {
          "indexed": false,
          "internalType": "uint128",
          "name": "_quantity",
          "type": "uint128"
        }
      ],
      "name": "eventUpdateManufacturerProductUints",
      "type": "event"
    },
    {
      "inputs": [
        {
          "internalType": "address[]",
          "name": "_supplierAddress",
          "type": "address[]"
        },
        {
          "internalType": "uint256[]",
          "name": "_smId",
          "type": "uint256[]"
        },
        {
          "internalType": "bytes",
          "name": "_name",
          "type": "bytes"
        },
        {
          "internalType": "bytes",
          "name": "_description",
          "type": "bytes"
        },
        {
          "internalType": "uint128",
          "name": "_unit",
          "type": "uint128"
        },
        {
          "internalType": "uint128",
          "name": "_price",
          "type": "uint128"
        },
        {
          "internalType": "uint32",
          "name": "_date",
          "type": "uint32"
        },
        {
          "internalType": "uint32",
          "name": "_expiryDate",
          "type": "uint32"
        }
      ],
      "name": "addManufacturerProduct",
      "outputs": [],
      "stateMutability": "nonpayable",
      "type": "function"
    },
    {
      "inputs": [
        {
          "internalType": "address",
          "name": "_ownerAddress",
          "type": "address"
        }
      ],
      "name": "changeOwner",
      "outputs": [],
      "stateMutability": "nonpayable",
      "type": "function"
    },
    {
      "inputs": [
        {
          "internalType": "address",
          "name": "_udAddress",
          "type": "address"
        }
      ],
      "name": "changeUdAddress",
      "outputs": [],
      "stateMutability": "nonpayable",
      "type": "function"
    },
    {
      "inputs": [
        {
          "internalType": "uint256",
          "name": "_mpId",
          "type": "uint256"
        }
      ],
      "name": "deleteManufacturerProduct",
      "outputs": [],
      "stateMutability": "nonpayable",
      "type": "function"
    },
    {
      "inputs": [
        {
          "internalType": "address",
          "name": "_manufacturerAddress",
          "type": "address"
        }
      ],
      "name": "getAllProductsOfManufacturer",
      "outputs": [
        {
          "components": [
            {
              "internalType": "address[]",
              "name": "supplierAddress",
              "type": "address[]"
            },
            {
              "internalType": "uint256[]",
              "name": "smId",
              "type": "uint256[]"
            },
            {
              "internalType": "bytes",
              "name": "mp_name",
              "type": "bytes"
            },
            {
              "internalType": "bytes",
              "name": "mp_description",
              "type": "bytes"
            },
            {
              "internalType": "uint128",
              "name": "mp_unit",
              "type": "uint128"
            },
            {
              "internalType": "uint128",
              "name": "mp_price",
              "type": "uint128"
            },
            {
              "internalType": "uint32",
              "name": "mp_date",
              "type": "uint32"
            },
            {
              "internalType": "uint32",
              "name": "mp_expiryDate",
              "type": "uint32"
            },
            {
              "internalType": "bool",
              "name": "mp_status",
              "type": "bool"
            },
            {
              "internalType": "address",
              "name": "distributorAddress",
              "type": "address"
            },
            {
              "internalType": "uint32",
              "name": "dispatchTime",
              "type": "uint32"
            },
            {
              "internalType": "uint32",
              "name": "arrivalTime",
              "type": "uint32"
            }
          ],
          "internalType": "struct IManufacturerProduct.manufacturerProduct[]",
          "name": "",
          "type": "tuple[]"
        }
      ],
      "stateMutability": "view",
      "type": "function"
    },
    {
      "inputs": [
        {
          "internalType": "uint256",
          "name": "_mpId",
          "type": "uint256"
        }
      ],
      "name": "getAllProductsOfManufacturer",
      "outputs": [
        {
          "components": [
            {
              "components": [
                {
                  "internalType": "address[]",
                  "name": "supplierAddress",
                  "type": "address[]"
                },
                {
                  "internalType": "uint256[]",
                  "name": "smId",
                  "type": "uint256[]"
                },
                {
                  "internalType": "bytes",
                  "name": "mp_name",
                  "type": "bytes"
                },
                {
                  "internalType": "bytes",
                  "name": "mp_description",
                  "type": "bytes"
                },
                {
                  "internalType": "uint128",
                  "name": "mp_unit",
                  "type": "uint128"
                },
                {
                  "internalType": "uint128",
                  "name": "mp_price",
                  "type": "uint128"
                },
                {
                  "internalType": "uint32",
                  "name": "mp_date",
                  "type": "uint32"
                },
                {
                  "internalType": "uint32",
                  "name": "mp_expiryDate",
                  "type": "uint32"
                },
                {
                  "internalType": "bool",
                  "name": "mp_status",
                  "type": "bool"
                },
                {
                  "internalType": "address",
                  "name": "distributorAddress",
                  "type": "address"
                },
                {
                  "internalType": "uint32",
                  "name": "dispatchTime",
                  "type": "uint32"
                },
                {
                  "internalType": "uint32",
                  "name": "arrivalTime",
                  "type": "uint32"
                }
              ],
              "internalType": "struct IManufacturerProduct.manufacturerProduct",
              "name": "manufacturerDetails",
              "type": "tuple"
            },
            {
              "components": [
                {
                  "internalType": "uint256",
                  "name": "smId",
                  "type": "uint256"
                },
                {
                  "internalType": "uint256",
                  "name": "spId",
                  "type": "uint256"
                },
                {
                  "internalType": "address",
                  "name": "supplierAddress",
                  "type": "address"
                },
                {
                  "internalType": "address",
                  "name": "manufacturerAddress",
                  "type": "address"
                },
                {
                  "internalType": "uint32",
                  "name": "dispatchTime",
                  "type": "uint32"
                },
                {
                  "internalType": "uint32",
                  "name": "arrivalTime",
                  "type": "uint32"
                },
                {
                  "internalType": "uint32",
                  "name": "quantity",
                  "type": "uint32"
                },
                {
                  "internalType": "uint32",
                  "name": "currentQuantity",
                  "type": "uint32"
                },
                {
                  "internalType": "enum ISupplierManufacturer.transferStatus",
                  "name": "status",
                  "type": "uint8"
                }
              ],
              "internalType": "struct ISupplierManufacturer.supplierManufacturer",
              "name": "supplierManufacturerDetails",
              "type": "tuple"
            },
            {
              "components": [
                {
                  "internalType": "address",
                  "name": "supplierAddress",
                  "type": "address"
                },
                {
                  "internalType": "bytes",
                  "name": "sp_name",
                  "type": "bytes"
                },
                {
                  "internalType": "bytes",
                  "name": "sp_description",
                  "type": "bytes"
                },
                {
                  "internalType": "uint128",
                  "name": "sp_unit",
                  "type": "uint128"
                },
                {
                  "internalType": "uint128",
                  "name": "sp_price",
                  "type": "uint128"
                },
                {
                  "internalType": "uint32",
                  "name": "sp_date",
                  "type": "uint32"
                },
                {
                  "internalType": "uint32",
                  "name": "sp_expiryDate",
                  "type": "uint32"
                },
                {
                  "internalType": "bool",
                  "name": "sp_status",
                  "type": "bool"
                }
              ],
              "internalType": "struct ISupplierProduct.supplierProduct",
              "name": "supplierproductDetails",
              "type": "tuple"
            },
            {
              "components": [
                {
                  "internalType": "enum IUserDetails.userType",
                  "name": "userType",
                  "type": "uint8"
                },
                {
                  "internalType": "bytes",
                  "name": "userName",
                  "type": "bytes"
                },
                {
                  "internalType": "bytes",
                  "name": "userPhysicalAddress",
                  "type": "bytes"
                },
                {
                  "internalType": "bytes",
                  "name": "userImage",
                  "type": "bytes"
                },
                {
                  "internalType": "bool",
                  "name": "userStatus",
                  "type": "bool"
                }
              ],
              "internalType": "struct IUserDetails.userDetails",
              "name": "uDetails",
              "type": "tuple"
            }
          ],
          "internalType": "struct manufacturerProduct.ManufacturerProductAllDetails[]",
          "name": "",
          "type": "tuple[]"
        }
      ],
      "stateMutability": "view",
      "type": "function"
    },
    {
      "inputs": [],
      "name": "getManufacturerProductIds",
      "outputs": [
        {
          "internalType": "uint256[]",
          "name": "",
          "type": "uint256[]"
        }
      ],
      "stateMutability": "view",
      "type": "function"
    },
    {
      "inputs": [
        {
          "internalType": "address",
          "name": "_address",
          "type": "address"
        }
      ],
      "name": "getMpIdsByAddress",
      "outputs": [
        {
          "internalType": "uint256[]",
          "name": "",
          "type": "uint256[]"
        }
      ],
      "stateMutability": "view",
      "type": "function"
    },
    {
      "inputs": [
        {
          "internalType": "uint256",
          "name": "_mpId",
          "type": "uint256"
        }
      ],
      "name": "getSingleManufacturerProduct",
      "outputs": [
        {
          "components": [
            {
              "internalType": "address[]",
              "name": "supplierAddress",
              "type": "address[]"
            },
            {
              "internalType": "uint256[]",
              "name": "smId",
              "type": "uint256[]"
            },
            {
              "internalType": "bytes",
              "name": "mp_name",
              "type": "bytes"
            },
            {
              "internalType": "bytes",
              "name": "mp_description",
              "type": "bytes"
            },
            {
              "internalType": "uint128",
              "name": "mp_unit",
              "type": "uint128"
            },
            {
              "internalType": "uint128",
              "name": "mp_price",
              "type": "uint128"
            },
            {
              "internalType": "uint32",
              "name": "mp_date",
              "type": "uint32"
            },
            {
              "internalType": "uint32",
              "name": "mp_expiryDate",
              "type": "uint32"
            },
            {
              "internalType": "bool",
              "name": "mp_status",
              "type": "bool"
            },
            {
              "internalType": "address",
              "name": "distributorAddress",
              "type": "address"
            },
            {
              "internalType": "uint32",
              "name": "dispatchTime",
              "type": "uint32"
            },
            {
              "internalType": "uint32",
              "name": "arrivalTime",
              "type": "uint32"
            }
          ],
          "internalType": "struct IManufacturerProduct.manufacturerProduct",
          "name": "",
          "type": "tuple"
        }
      ],
      "stateMutability": "view",
      "type": "function"
    },
    {
      "inputs": [
        {
          "internalType": "address",
          "name": "",
          "type": "address"
        },
        {
          "internalType": "uint256",
          "name": "",
          "type": "uint256"
        }
      ],
      "name": "manufacturerAddressToproductsIdMapping",
      "outputs": [
        {
          "internalType": "uint256",
          "name": "",
          "type": "uint256"
        }
      ],
      "stateMutability": "view",
      "type": "function"
    },
    {
      "inputs": [
        {
          "internalType": "uint256",
          "name": "",
          "type": "uint256"
        }
      ],
      "name": "manufacturerProductsIdToStructMapping",
      "outputs": [
        {
          "internalType": "bytes",
          "name": "mp_name",
          "type": "bytes"
        },
        {
          "internalType": "bytes",
          "name": "mp_description",
          "type": "bytes"
        },
        {
          "internalType": "uint128",
          "name": "mp_unit",
          "type": "uint128"
        },
        {
          "internalType": "uint128",
          "name": "mp_price",
          "type": "uint128"
        },
        {
          "internalType": "uint32",
          "name": "mp_date",
          "type": "uint32"
        },
        {
          "internalType": "uint32",
          "name": "mp_expiryDate",
          "type": "uint32"
        },
        {
          "internalType": "bool",
          "name": "mp_status",
          "type": "bool"
        },
        {
          "internalType": "address",
          "name": "distributorAddress",
          "type": "address"
        },
        {
          "internalType": "uint32",
          "name": "dispatchTime",
          "type": "uint32"
        },
        {
          "internalType": "uint32",
          "name": "arrivalTime",
          "type": "uint32"
        }
      ],
      "stateMutability": "view",
      "type": "function"
    },
    {
      "inputs": [
        {
          "internalType": "uint256",
          "name": "_mpId",
          "type": "uint256"
        }
      ],
      "name": "updateManufactureProductReceived",
      "outputs": [],
      "stateMutability": "nonpayable",
      "type": "function"
    },
    {
      "inputs": [
        {
          "internalType": "uint256",
          "name": "_mpId",
          "type": "uint256"
        },
        {
          "internalType": "address",
          "name": "_distributorAddress",
          "type": "address"
        }
      ],
      "name": "updateManufactureProductTransfer",
      "outputs": [],
      "stateMutability": "nonpayable",
      "type": "function"
    },
    {
      "inputs": [
        {
          "internalType": "uint256",
          "name": "_mpId",
          "type": "uint256"
        },
        {
          "internalType": "uint128",
          "name": "_quantity",
          "type": "uint128"
        }
      ],
      "name": "updateManufacturerProductUints",
      "outputs": [],
      "stateMutability": "nonpayable",
      "type": "function"
    }
  ],
  "bytecode": "0x608060405260016004553480156200001657600080fd5b5060405162003a9e38038062003a9e83398181016040528101906200003c91906200012e565b33600360006101000a81548173ffffffffffffffffffffffffffffffffffffffff021916908373ffffffffffffffffffffffffffffffffffffffff160217905550806000806101000a81548173ffffffffffffffffffffffffffffffffffffffff021916908373ffffffffffffffffffffffffffffffffffffffff1602179055505062000160565b600080fd5b600073ffffffffffffffffffffffffffffffffffffffff82169050919050565b6000620000f682620000c9565b9050919050565b6200010881620000e9565b81146200011457600080fd5b50565b6000815190506200012881620000fd565b92915050565b600060208284031215620001475762000146620000c4565b5b6000620001578482850162000117565b91505092915050565b61392e80620001706000396000f3fe608060405234801561001057600080fd5b50600436106100ea5760003560e01c80639ea61c7e1161008c578063ccee9f5511610066578063ccee9f551461024e578063d37889c61461027e578063f6a989f81461029a578063f70ac6a4146102ca576100ea565b80639ea61c7e146101fa578063a6f9dae114610216578063cbd05c7d14610232576100ea565b8063448952e1116100c8578063448952e114610145578063580f469c14610161578063607159711461019157806365603df2146101c1576100ea565b806302c0ad90146100ef5780630f65ae381461010b57806324e5e6aa14610127575b600080fd5b61010960048036038101906101049190611f68565b6102fa565b005b61012560048036038101906101209190611fa8565b610388565b005b61012f61045b565b60405161013c9190612093565b60405180910390f35b61015f600480360381019061015a91906123b0565b6104f0565b005b61017b600480360381019061017691906124df565b6109fe565b604051610188919061252e565b60405180910390f35b6101ab60048036038101906101a69190611fa8565b610a2f565b6040516101b89190612909565b60405180910390f35b6101db60048036038101906101d6919061292b565b610f44565b6040516101f19a999897969594939291906129de565b60405180910390f35b610214600480360381019061020f919061292b565b61114d565b005b610230600480360381019061022b9190611fa8565b61124f565b005b61024c6004803603810190610247919061292b565b611323565b005b6102686004803603810190610263919061292b565b61135b565b6040516102759190612e6f565b60405180910390f35b61029860048036038101906102939190612e91565b61172d565b005b6102b460048036038101906102af919061292b565b6118ab565b6040516102c19190612fea565b60405180910390f35b6102e460048036038101906102df9190611fa8565b611c80565b6040516102f19190612093565b60405180910390f35b806005600084815260200190815260200160002060050160096101000a81548173ffffffffffffffffffffffffffffffffffffffff021916908373ffffffffffffffffffffffffffffffffffffffff160217905550426005600084815260200190815260200160002060060160006101000a81548163ffffffff021916908363ffffffff1602179055505050565b600360009054906101000a900473ffffffffffffffffffffffffffffffffffffffff1673ffffffffffffffffffffffffffffffffffffffff163373ffffffffffffffffffffffffffffffffffffffff1614610418576040517f08c379a000000000000000000000000000000000000000000000000000000000815260040161040f90613069565b60405180910390fd5b806000806101000a81548173ffffffffffffffffffffffffffffffffffffffff021916908373ffffffffffffffffffffffffffffffffffffffff16021790555050565b6060600660003373ffffffffffffffffffffffffffffffffffffffff1673ffffffffffffffffffffffffffffffffffffffff1681526020019081526020016000208054806020026020016040519081016040528092919081815260200182805480156104e657602002820191906000526020600020905b8154815260200190600101908083116104d2575b5050505050905090565b60008060009054906101000a900473ffffffffffffffffffffffffffffffffffffffff1673ffffffffffffffffffffffffffffffffffffffff166335852541336040518263ffffffff1660e01b815260040161054c9190613089565b600060405180830381865afa158015610569573d6000803e3d6000fd5b505050506040513d6000823e3d601f19601f820116820180604052508101906105929190613285565b90506001816000015160028111156105ad576105ac612ab4565b5b60ff16146105f0576040517f08c379a00000000000000000000000000000000000000000000000000000000081526004016105e790613340565b60405180910390fd5b6040518061018001604052808c81526020018b81526020018a8a8080601f016020809104026020016040519081016040528093929190818152602001838380828437600081840152601f19601f82011690508083019250505050505050815260200188888080601f016020809104026020016040519081016040528093929190818152602001838380828437600081840152601f19601f820116905080830192505050505050508152602001866fffffffffffffffffffffffffffffffff168152602001856fffffffffffffffffffffffffffffffff1681526020018463ffffffff1681526020018363ffffffff168152602001600115158152602001600073ffffffffffffffffffffffffffffffffffffffff168152602001600063ffffffff168152602001600063ffffffff168152506005600060045481526020019081526020016000206000820151816000019080519060200190610753929190611d17565b506020820151816001019080519060200190610770929190611da1565b506040820151816002019081610786919061356c565b50606082015181600301908161079c919061356c565b5060808201518160040160006101000a8154816fffffffffffffffffffffffffffffffff02191690836fffffffffffffffffffffffffffffffff16021790555060a08201518160040160106101000a8154816fffffffffffffffffffffffffffffffff02191690836fffffffffffffffffffffffffffffffff16021790555060c08201518160050160006101000a81548163ffffffff021916908363ffffffff16021790555060e08201518160050160046101000a81548163ffffffff021916908363ffffffff1602179055506101008201518160050160086101000a81548160ff0219169083151502179055506101208201518160050160096101000a81548173ffffffffffffffffffffffffffffffffffffffff021916908373ffffffffffffffffffffffffffffffffffffffff1602179055506101408201518160060160006101000a81548163ffffffff021916908363ffffffff1602179055506101608201518160060160046101000a81548163ffffffff021916908363ffffffff160217905550905050600660003373ffffffffffffffffffffffffffffffffffffffff1673ffffffffffffffffffffffffffffffffffffffff16815260200190815260200160002060045490806001815401808255809150506001900390600052602060002001600090919091909150556004547f0e20c89151faf0b5dda54ebc9d15340d8f36e022eaab7561945a997b339fc56e8c8c8c8c8c8c8c8c8c8c6040516109d19a999897969594939291906136e9565b60405180910390a2600460008154809291906109ec906137b6565b91905055505050505050505050505050565b60066020528160005260406000208181548110610a1a57600080fd5b90600052602060002001600091509150505481565b60606000600660008473ffffffffffffffffffffffffffffffffffffffff1673ffffffffffffffffffffffffffffffffffffffff168152602001908152602001600020805480602002602001604051908101604052809291908181526020018280548015610abc57602002820191906000526020600020905b815481526020019060010190808311610aa8575b505050505090506000815167ffffffffffffffff811115610ae057610adf6120cb565b5b604051908082528060200260200182016040528015610b1957816020015b610b06611dee565b815260200190600190039081610afe5790505b50905060005b8251811015610f395760056000848381518110610b3f57610b3e6137fe565b5b602002602001015181526020019081526020016000206040518061018001604052908160008201805480602002602001604051908101604052809291908181526020018280548015610be657602002820191906000526020600020905b8160009054906101000a900473ffffffffffffffffffffffffffffffffffffffff1673ffffffffffffffffffffffffffffffffffffffff1681526020019060010190808311610b9c575b5050505050815260200160018201805480602002602001604051908101604052809291908181526020018280548015610c3e57602002820191906000526020600020905b815481526020019060010190808311610c2a575b50505050508152602001600282018054610c579061338f565b80601f0160208091040260200160405190810160405280929190818152602001828054610c839061338f565b8015610cd05780601f10610ca557610100808354040283529160200191610cd0565b820191906000526020600020905b815481529060010190602001808311610cb357829003601f168201915b50505050508152602001600382018054610ce99061338f565b80601f0160208091040260200160405190810160405280929190818152602001828054610d159061338f565b8015610d625780601f10610d3757610100808354040283529160200191610d62565b820191906000526020600020905b815481529060010190602001808311610d4557829003601f168201915b505050505081526020016004820160009054906101000a90046fffffffffffffffffffffffffffffffff166fffffffffffffffffffffffffffffffff166fffffffffffffffffffffffffffffffff1681526020016004820160109054906101000a90046fffffffffffffffffffffffffffffffff166fffffffffffffffffffffffffffffffff166fffffffffffffffffffffffffffffffff1681526020016005820160009054906101000a900463ffffffff1663ffffffff1663ffffffff1681526020016005820160049054906101000a900463ffffffff1663ffffffff1663ffffffff1681526020016005820160089054906101000a900460ff161515151581526020016005820160099054906101000a900473ffffffffffffffffffffffffffffffffffffffff1673ffffffffffffffffffffffffffffffffffffffff1673ffffffffffffffffffffffffffffffffffffffff1681526020016006820160009054906101000a900463ffffffff1663ffffffff1663ffffffff1681526020016006820160049054906101000a900463ffffffff1663ffffffff1663ffffffff1681525050828281518110610f1b57610f1a6137fe565b5b60200260200101819052508080610f31906137b6565b915050610b1f565b508092505050919050565b6005602052806000526040600020600091509050806002018054610f679061338f565b80601f0160208091040260200160405190810160405280929190818152602001828054610f939061338f565b8015610fe05780601f10610fb557610100808354040283529160200191610fe0565b820191906000526020600020905b815481529060010190602001808311610fc357829003601f168201915b505050505090806003018054610ff59061338f565b80601f01602080910402602001604051908101604052809291908181526020018280546110219061338f565b801561106e5780601f106110435761010080835404028352916020019161106e565b820191906000526020600020905b81548152906001019060200180831161105157829003601f168201915b5050505050908060040160009054906101000a90046fffffffffffffffffffffffffffffffff16908060040160109054906101000a90046fffffffffffffffffffffffffffffffff16908060050160009054906101000a900463ffffffff16908060050160049054906101000a900463ffffffff16908060050160089054906101000a900460ff16908060050160099054906101000a900473ffffffffffffffffffffffffffffffffffffffff16908060060160009054906101000a900463ffffffff16908060060160049054906101000a900463ffffffff1690508a565b600061115761045b565b90506000805b82518110156111a3578383828151811061117a576111796137fe565b5b60200260200101510361119057600191506111a3565b808061119b906137b6565b91505061115d565b50806111e4576040517f08c379a00000000000000000000000000000000000000000000000000000000081526004016111db90613879565b60405180910390fd5b60006005600085815260200190815260200160002060050160086101000a81548160ff0219169083151502179055507fbe5aa4247333e0978e80edfd1266e28e6cba6ea134522f795973c7133bc4317483604051611242919061252e565b60405180910390a1505050565b600360009054906101000a900473ffffffffffffffffffffffffffffffffffffffff1673ffffffffffffffffffffffffffffffffffffffff163373ffffffffffffffffffffffffffffffffffffffff16146112df576040517f08c379a00000000000000000000000000000000000000000000000000000000081526004016112d690613069565b60405180910390fd5b80600360006101000a81548173ffffffffffffffffffffffffffffffffffffffff021916908373ffffffffffffffffffffffffffffffffffffffff16021790555050565b426005600083815260200190815260200160002060060160046101000a81548163ffffffff021916908363ffffffff16021790555050565b6060600060056000848152602001908152602001600020604051806101800160405290816000820180548060200260200160405190810160405280929190818152602001828054801561140357602002820191906000526020600020905b8160009054906101000a900473ffffffffffffffffffffffffffffffffffffffff1673ffffffffffffffffffffffffffffffffffffffff16815260200190600101908083116113b9575b505050505081526020016001820180548060200260200160405190810160405280929190818152602001828054801561145b57602002820191906000526020600020905b815481526020019060010190808311611447575b505050505081526020016002820180546114749061338f565b80601f01602080910402602001604051908101604052809291908181526020018280546114a09061338f565b80156114ed5780601f106114c2576101008083540402835291602001916114ed565b820191906000526020600020905b8154815290600101906020018083116114d057829003601f168201915b505050505081526020016003820180546115069061338f565b80601f01602080910402602001604051908101604052809291908181526020018280546115329061338f565b801561157f5780601f106115545761010080835404028352916020019161157f565b820191906000526020600020905b81548152906001019060200180831161156257829003601f168201915b505050505081526020016004820160009054906101000a90046fffffffffffffffffffffffffffffffff166fffffffffffffffffffffffffffffffff166fffffffffffffffffffffffffffffffff1681526020016004820160109054906101000a90046fffffffffffffffffffffffffffffffff166fffffffffffffffffffffffffffffffff166fffffffffffffffffffffffffffffffff1681526020016005820160009054906101000a900463ffffffff1663ffffffff1663ffffffff1681526020016005820160049054906101000a900463ffffffff1663ffffffff1663ffffffff1681526020016005820160089054906101000a900460ff161515151581526020016005820160099054906101000a900473ffffffffffffffffffffffffffffffffffffffff1673ffffffffffffffffffffffffffffffffffffffff1673ffffffffffffffffffffffffffffffffffffffff1681526020016006820160009054906101000a900463ffffffff1663ffffffff1663ffffffff1681526020016006820160049054906101000a900463ffffffff1663ffffffff1663ffffffff1681525050905050919050565b600061173761045b565b90506000805b8251811015611783578483828151811061175a576117596137fe565b5b6020026020010151036117705760019150611783565b808061177b906137b6565b91505061173d565b50806117c4576040517f08c379a00000000000000000000000000000000000000000000000000000000081526004016117bb90613879565b60405180910390fd5b826005600086815260200190815260200160002060040160008282829054906101000a90046fffffffffffffffffffffffffffffffff166118059190613899565b92506101000a8154816fffffffffffffffffffffffffffffffff02191690836fffffffffffffffffffffffffffffffff160217905550837f0cdf608777b7c369c17a854e339a0c861f903b381b92294555cd61b0c49f6cab6005600087815260200190815260200160002060040160009054906101000a90046fffffffffffffffffffffffffffffffff1660405161189d91906138dd565b60405180910390a250505050565b6118b3611dee565b60056000838152602001908152602001600020604051806101800160405290816000820180548060200260200160405190810160405280929190818152602001828054801561195757602002820191906000526020600020905b8160009054906101000a900473ffffffffffffffffffffffffffffffffffffffff1673ffffffffffffffffffffffffffffffffffffffff168152602001906001019080831161190d575b50505050508152602001600182018054806020026020016040519081016040528092919081815260200182805480156119af57602002820191906000526020600020905b81548152602001906001019080831161199b575b505050505081526020016002820180546119c89061338f565b80601f01602080910402602001604051908101604052809291908181526020018280546119f49061338f565b8015611a415780601f10611a1657610100808354040283529160200191611a41565b820191906000526020600020905b815481529060010190602001808311611a2457829003601f168201915b50505050508152602001600382018054611a5a9061338f565b80601f0160208091040260200160405190810160405280929190818152602001828054611a869061338f565b8015611ad35780601f10611aa857610100808354040283529160200191611ad3565b820191906000526020600020905b815481529060010190602001808311611ab657829003601f168201915b505050505081526020016004820160009054906101000a90046fffffffffffffffffffffffffffffffff166fffffffffffffffffffffffffffffffff166fffffffffffffffffffffffffffffffff1681526020016004820160109054906101000a90046fffffffffffffffffffffffffffffffff166fffffffffffffffffffffffffffffffff166fffffffffffffffffffffffffffffffff1681526020016005820160009054906101000a900463ffffffff1663ffffffff1663ffffffff1681526020016005820160049054906101000a900463ffffffff1663ffffffff1663ffffffff1681526020016005820160089054906101000a900460ff161515151581526020016005820160099054906101000a900473ffffffffffffffffffffffffffffffffffffffff1673ffffffffffffffffffffffffffffffffffffffff1673ffffffffffffffffffffffffffffffffffffffff1681526020016006820160009054906101000a900463ffffffff1663ffffffff1663ffffffff1681526020016006820160049054906101000a900463ffffffff1663ffffffff1663ffffffff16815250509050919050565b6060600660008373ffffffffffffffffffffffffffffffffffffffff1673ffffffffffffffffffffffffffffffffffffffff168152602001908152602001600020805480602002602001604051908101604052809291908181526020018280548015611d0b57602002820191906000526020600020905b815481526020019060010190808311611cf7575b50505050509050919050565b828054828255906000526020600020908101928215611d90579160200282015b82811115611d8f5782518260006101000a81548173ffffffffffffffffffffffffffffffffffffffff021916908373ffffffffffffffffffffffffffffffffffffffff16021790555091602001919060010190611d37565b5b509050611d9d9190611ea3565b5090565b828054828255906000526020600020908101928215611ddd579160200282015b82811115611ddc578251825591602001919060010190611dc1565b5b509050611dea9190611ea3565b5090565b6040518061018001604052806060815260200160608152602001606081526020016060815260200160006fffffffffffffffffffffffffffffffff16815260200160006fffffffffffffffffffffffffffffffff168152602001600063ffffffff168152602001600063ffffffff168152602001600015158152602001600073ffffffffffffffffffffffffffffffffffffffff168152602001600063ffffffff168152602001600063ffffffff1681525090565b5b80821115611ebc576000816000905550600101611ea4565b5090565b6000604051905090565b600080fd5b600080fd5b6000819050919050565b611ee781611ed4565b8114611ef257600080fd5b50565b600081359050611f0481611ede565b92915050565b600073ffffffffffffffffffffffffffffffffffffffff82169050919050565b6000611f3582611f0a565b9050919050565b611f4581611f2a565b8114611f5057600080fd5b50565b600081359050611f6281611f3c565b92915050565b60008060408385031215611f7f57611f7e611eca565b5b6000611f8d85828601611ef5565b9250506020611f9e85828601611f53565b9150509250929050565b600060208284031215611fbe57611fbd611eca565b5b6000611fcc84828501611f53565b91505092915050565b600081519050919050565b600082825260208201905092915050565b6000819050602082019050919050565b61200a81611ed4565b82525050565b600061201c8383612001565b60208301905092915050565b6000602082019050919050565b600061204082611fd5565b61204a8185611fe0565b935061205583611ff1565b8060005b8381101561208657815161206d8882612010565b975061207883612028565b925050600181019050612059565b5085935050505092915050565b600060208201905081810360008301526120ad8184612035565b905092915050565b600080fd5b6000601f19601f8301169050919050565b7f4e487b7100000000000000000000000000000000000000000000000000000000600052604160045260246000fd5b612103826120ba565b810181811067ffffffffffffffff82111715612122576121216120cb565b5b80604052505050565b6000612135611ec0565b905061214182826120fa565b919050565b600067ffffffffffffffff821115612161576121606120cb565b5b602082029050602081019050919050565b600080fd5b600061218a61218584612146565b61212b565b905080838252602082019050602084028301858111156121ad576121ac612172565b5b835b818110156121d657806121c28882611f53565b8452602084019350506020810190506121af565b5050509392505050565b600082601f8301126121f5576121f46120b5565b5b8135612205848260208601612177565b91505092915050565b600067ffffffffffffffff821115612229576122286120cb565b5b602082029050602081019050919050565b600061224d6122488461220e565b61212b565b905080838252602082019050602084028301858111156122705761226f612172565b5b835b8181101561229957806122858882611ef5565b845260208401935050602081019050612272565b5050509392505050565b600082601f8301126122b8576122b76120b5565b5b81356122c884826020860161223a565b91505092915050565b600080fd5b60008083601f8401126122ec576122eb6120b5565b5b8235905067ffffffffffffffff811115612309576123086122d1565b5b60208301915083600182028301111561232557612324612172565b5b9250929050565b60006fffffffffffffffffffffffffffffffff82169050919050565b6123518161232c565b811461235c57600080fd5b50565b60008135905061236e81612348565b92915050565b600063ffffffff82169050919050565b61238d81612374565b811461239857600080fd5b50565b6000813590506123aa81612384565b92915050565b6000806000806000806000806000806101008b8d0312156123d4576123d3611eca565b5b60008b013567ffffffffffffffff8111156123f2576123f1611ecf565b5b6123fe8d828e016121e0565b9a505060208b013567ffffffffffffffff81111561241f5761241e611ecf565b5b61242b8d828e016122a3565b99505060408b013567ffffffffffffffff81111561244c5761244b611ecf565b5b6124588d828e016122d6565b985098505060608b013567ffffffffffffffff81111561247b5761247a611ecf565b5b6124878d828e016122d6565b9650965050608061249a8d828e0161235f565b94505060a06124ab8d828e0161235f565b93505060c06124bc8d828e0161239b565b92505060e06124cd8d828e0161239b565b9150509295989b9194979a5092959850565b600080604083850312156124f6576124f5611eca565b5b600061250485828601611f53565b925050602061251585828601611ef5565b9150509250929050565b61252881611ed4565b82525050565b6000602082019050612543600083018461251f565b92915050565b600081519050919050565b600082825260208201905092915050565b6000819050602082019050919050565b600081519050919050565b600082825260208201905092915050565b6000819050602082019050919050565b6125aa81611f2a565b82525050565b60006125bc83836125a1565b60208301905092915050565b6000602082019050919050565b60006125e082612575565b6125ea8185612580565b93506125f583612591565b8060005b8381101561262657815161260d88826125b0565b9750612618836125c8565b9250506001810190506125f9565b5085935050505092915050565b600082825260208201905092915050565b600061264f82611fd5565b6126598185612633565b935061266483611ff1565b8060005b8381101561269557815161267c8882612010565b975061268783612028565b925050600181019050612668565b5085935050505092915050565b600081519050919050565b600082825260208201905092915050565b60005b838110156126dc5780820151818401526020810190506126c1565b60008484015250505050565b60006126f3826126a2565b6126fd81856126ad565b935061270d8185602086016126be565b612716816120ba565b840191505092915050565b61272a8161232c565b82525050565b61273981612374565b82525050565b60008115159050919050565b6127548161273f565b82525050565b600061018083016000830151848203600086015261277882826125d5565b915050602083015184820360208601526127928282612644565b915050604083015184820360408601526127ac82826126e8565b915050606083015184820360608601526127c682826126e8565b91505060808301516127db6080860182612721565b5060a08301516127ee60a0860182612721565b5060c083015161280160c0860182612730565b5060e083015161281460e0860182612730565b5061010083015161282961010086018261274b565b5061012083015161283e6101208601826125a1565b50610140830151612853610140860182612730565b50610160830151612868610160860182612730565b508091505092915050565b600061287f838361275a565b905092915050565b6000602082019050919050565b600061289f82612549565b6128a98185612554565b9350836020820285016128bb85612565565b8060005b858110156128f757848403895281516128d88582612873565b94506128e383612887565b925060208a019950506001810190506128bf565b50829750879550505050505092915050565b600060208201905081810360008301526129238184612894565b905092915050565b60006020828403121561294157612940611eca565b5b600061294f84828501611ef5565b91505092915050565b600082825260208201905092915050565b6000612974826126a2565b61297e8185612958565b935061298e8185602086016126be565b612997816120ba565b840191505092915050565b6129ab8161232c565b82525050565b6129ba81612374565b82525050565b6129c98161273f565b82525050565b6129d881611f2a565b82525050565b60006101408201905081810360008301526129f9818d612969565b90508181036020830152612a0d818c612969565b9050612a1c604083018b6129a2565b612a29606083018a6129a2565b612a3660808301896129b1565b612a4360a08301886129b1565b612a5060c08301876129c0565b612a5d60e08301866129cf565b612a6b6101008301856129b1565b612a796101208301846129b1565b9b9a5050505050505050505050565b600081519050919050565b600082825260208201905092915050565b6000819050602082019050919050565b7f4e487b7100000000000000000000000000000000000000000000000000000000600052602160045260246000fd5b60048110612af457612af3612ab4565b5b50565b6000819050612b0582612ae3565b919050565b6000612b1582612af7565b9050919050565b612b2581612b0a565b82525050565b61012082016000820151612b426000850182612001565b506020820151612b556020850182612001565b506040820151612b6860408501826125a1565b506060820151612b7b60608501826125a1565b506080820151612b8e6080850182612730565b5060a0820151612ba160a0850182612730565b5060c0820151612bb460c0850182612730565b5060e0820151612bc760e0850182612730565b50610100820151612bdc610100850182612b1c565b50505050565b600061010083016000830151612bfb60008601826125a1565b5060208301518482036020860152612c1382826126e8565b91505060408301518482036040860152612c2d82826126e8565b9150506060830151612c426060860182612721565b506080830151612c556080860182612721565b5060a0830151612c6860a0860182612730565b5060c0830151612c7b60c0860182612730565b5060e0830151612c8e60e086018261274b565b508091505092915050565b60038110612caa57612ca9612ab4565b5b50565b6000819050612cbb82612c99565b919050565b6000612ccb82612cad565b9050919050565b612cdb81612cc0565b82525050565b600060a083016000830151612cf96000860182612cd2565b5060208301518482036020860152612d1182826126e8565b91505060408301518482036040860152612d2b82826126e8565b91505060608301518482036060860152612d4582826126e8565b9150506080830151612d5a608086018261274b565b508091505092915050565b6000610180830160008301518482036000860152612d83828261275a565b9150506020830151612d986020860182612b2b565b506040830151848203610140860152612db18282612be2565b9150506060830151848203610160860152612dcc8282612ce1565b9150508091505092915050565b6000612de58383612d65565b905092915050565b6000602082019050919050565b6000612e0582612a88565b612e0f8185612a93565b935083602082028501612e2185612aa4565b8060005b85811015612e5d5784840389528151612e3e8582612dd9565b9450612e4983612ded565b925060208a01995050600181019050612e25565b50829750879550505050505092915050565b60006020820190508181036000830152612e898184612dfa565b905092915050565b60008060408385031215612ea857612ea7611eca565b5b6000612eb685828601611ef5565b9250506020612ec78582860161235f565b9150509250929050565b6000610180830160008301518482036000860152612eef82826125d5565b91505060208301518482036020860152612f098282612644565b91505060408301518482036040860152612f2382826126e8565b91505060608301518482036060860152612f3d82826126e8565b9150506080830151612f526080860182612721565b5060a0830151612f6560a0860182612721565b5060c0830151612f7860c0860182612730565b5060e0830151612f8b60e0860182612730565b50610100830151612fa061010086018261274b565b50610120830151612fb56101208601826125a1565b50610140830151612fca610140860182612730565b50610160830151612fdf610160860182612730565b508091505092915050565b600060208201905081810360008301526130048184612ed1565b905092915050565b600082825260208201905092915050565b7f4e6f74206f776e65720000000000000000000000000000000000000000000000600082015250565b600061305360098361300c565b915061305e8261301d565b602082019050919050565b6000602082019050818103600083015261308281613046565b9050919050565b600060208201905061309e60008301846129cf565b92915050565b600080fd5b600080fd5b600381106130bb57600080fd5b50565b6000815190506130cd816130ae565b92915050565b600080fd5b600067ffffffffffffffff8211156130f3576130f26120cb565b5b6130fc826120ba565b9050602081019050919050565b600061311c613117846130d8565b61212b565b905082815260208101848484011115613138576131376130d3565b5b6131438482856126be565b509392505050565b600082601f8301126131605761315f6120b5565b5b8151613170848260208601613109565b91505092915050565b6131828161273f565b811461318d57600080fd5b50565b60008151905061319f81613179565b92915050565b600060a082840312156131bb576131ba6130a4565b5b6131c560a061212b565b905060006131d5848285016130be565b600083015250602082015167ffffffffffffffff8111156131f9576131f86130a9565b5b6132058482850161314b565b602083015250604082015167ffffffffffffffff811115613229576132286130a9565b5b6132358482850161314b565b604083015250606082015167ffffffffffffffff811115613259576132586130a9565b5b6132658482850161314b565b606083015250608061327984828501613190565b60808301525092915050565b60006020828403121561329b5761329a611eca565b5b600082015167ffffffffffffffff8111156132b9576132b8611ecf565b5b6132c5848285016131a5565b91505092915050565b7f4f6e6c79204d616e7566616374757265722063616e206164642070726f64756360008201527f7400000000000000000000000000000000000000000000000000000000000000602082015250565b600061332a60218361300c565b9150613335826132ce565b604082019050919050565b600060208201905081810360008301526133598161331d565b9050919050565b7f4e487b7100000000000000000000000000000000000000000000000000000000600052602260045260246000fd5b600060028204905060018216806133a757607f821691505b6020821081036133ba576133b9613360565b5b50919050565b60008190508160005260206000209050919050565b60006020601f8301049050919050565b600082821b905092915050565b6000600883026134227fffffffffffffffffffffffffffffffffffffffffffffffffffffffffffffffff826133e5565b61342c86836133e5565b95508019841693508086168417925050509392505050565b6000819050919050565b600061346961346461345f84611ed4565b613444565b611ed4565b9050919050565b6000819050919050565b6134838361344e565b61349761348f82613470565b8484546133f2565b825550505050565b600090565b6134ac61349f565b6134b781848461347a565b505050565b5b818110156134db576134d06000826134a4565b6001810190506134bd565b5050565b601f821115613520576134f1816133c0565b6134fa846133d5565b81016020851015613509578190505b61351d613515856133d5565b8301826134bc565b50505b505050565b600082821c905092915050565b600061354360001984600802613525565b1980831691505092915050565b600061355c8383613532565b9150826002028217905092915050565b613575826126a2565b67ffffffffffffffff81111561358e5761358d6120cb565b5b613598825461338f565b6135a38282856134df565b600060209050601f8311600181146135d657600084156135c4578287015190505b6135ce8582613550565b865550613636565b601f1984166135e4866133c0565b60005b8281101561360c578489015182556001820191506020850194506020810190506135e7565b868310156136295784890151613625601f891682613532565b8355505b6001600288020188555050505b505050505050565b600082825260208201905092915050565b600061365a82612575565b613664818561363e565b935061366f83612591565b8060005b838110156136a057815161368788826125b0565b9750613692836125c8565b925050600181019050613673565b5085935050505092915050565b82818337600083830152505050565b60006136c88385612958565b93506136d58385846136ad565b6136de836120ba565b840190509392505050565b6000610100820190508181036000830152613704818d61364f565b90508181036020830152613718818c612035565b9050818103604083015261372d818a8c6136bc565b9050818103606083015261374281888a6136bc565b905061375160808301876129a2565b61375e60a08301866129a2565b61376b60c08301856129b1565b61377860e08301846129b1565b9b9a5050505050505050505050565b7f4e487b7100000000000000000000000000000000000000000000000000000000600052601160045260246000fd5b60006137c182611ed4565b91507fffffffffffffffffffffffffffffffffffffffffffffffffffffffffffffffff82036137f3576137f2613787565b5b600182019050919050565b7f4e487b7100000000000000000000000000000000000000000000000000000000600052603260045260246000fd5b7f50726f64756374206e6f74206f776e656420627920796f750000000000000000600082015250565b600061386360188361300c565b915061386e8261382d565b602082019050919050565b6000602082019050818103600083015261389281613856565b9050919050565b60006138a48261232c565b91506138af8361232c565b925082820390506fffffffffffffffffffffffffffffffff8111156138d7576138d6613787565b5b92915050565b60006020820190506138f260008301846129a2565b9291505056fea264697066735822122077b0442be0f402245fbff6bd80598c1b5bc1fd74d9a9e2269dc9816feed8195264736f6c63430008120033",
  "linkReferences": {},
  "deployedLinkReferences": {}
}