{
  "_format": "hh-sol-artifact-1",
  "contractName": "manufacturerProduct",
  "sourceName": "contracts/manufacturerProduct.sol",
  "abi": [
    {
      "anonymous": false,
      "inputs": [
        {
          "indexed": true,
          "internalType": "uint256",
          "name": "_mpId",
          "type": "uint256"
        },
        {
          "indexed": false,
          "internalType": "address[]",
          "name": "_supplierAddress",
          "type": "address[]"
        },
        {
          "indexed": false,
          "internalType": "uint256[]",
          "name": "_smId",
          "type": "uint256[]"
        },
        {
          "indexed": false,
          "internalType": "bytes",
          "name": "_name",
          "type": "bytes"
        },
        {
          "indexed": false,
          "internalType": "bytes",
          "name": "_description",
          "type": "bytes"
        },
        {
          "indexed": false,
          "internalType": "uint128",
          "name": "_unit",
          "type": "uint128"
        },
        {
          "indexed": false,
          "internalType": "uint128",
          "name": "_price",
          "type": "uint128"
        },
        {
          "indexed": false,
          "internalType": "uint32",
          "name": "_date",
          "type": "uint32"
        },
        {
          "indexed": false,
          "internalType": "uint32",
          "name": "_expiryDate",
          "type": "uint32"
        }
      ],
      "name": "eventAddManufacturerProduct",
      "type": "event"
    },
    {
      "anonymous": false,
      "inputs": [
        {
          "indexed": false,
          "internalType": "uint256",
          "name": "_mpId",
          "type": "uint256"
        }
      ],
      "name": "eventDeleteManufacturerProduct",
      "type": "event"
    },
    {
      "anonymous": false,
      "inputs": [
        {
          "indexed": true,
          "internalType": "uint256",
          "name": "_dpId",
          "type": "uint256"
        },
        {
          "indexed": false,
          "internalType": "uint128",
          "name": "_quantity",
          "type": "uint128"
        }
      ],
      "name": "eventUpdateManufacturerProductUints",
      "type": "event"
    },
    {
      "inputs": [
        {
          "internalType": "address[]",
          "name": "_supplierAddress",
          "type": "address[]"
        },
        {
          "internalType": "uint256[]",
          "name": "_smId",
          "type": "uint256[]"
        },
        {
          "internalType": "bytes",
          "name": "_name",
          "type": "bytes"
        },
        {
          "internalType": "bytes",
          "name": "_description",
          "type": "bytes"
        },
        {
          "internalType": "uint128",
          "name": "_unit",
          "type": "uint128"
        },
        {
          "internalType": "uint128",
          "name": "_price",
          "type": "uint128"
        },
        {
          "internalType": "uint32",
          "name": "_date",
          "type": "uint32"
        },
        {
          "internalType": "uint32",
          "name": "_expiryDate",
          "type": "uint32"
        }
      ],
      "name": "addManufacturerProduct",
      "outputs": [],
      "stateMutability": "nonpayable",
      "type": "function"
    },
    {
      "inputs": [
        {
          "internalType": "uint256",
          "name": "_mpId",
          "type": "uint256"
        }
      ],
      "name": "deleteManufacturerProduct",
      "outputs": [],
      "stateMutability": "nonpayable",
      "type": "function"
    },
    {
      "inputs": [
        {
          "internalType": "address",
          "name": "_manufacturerAddress",
          "type": "address"
        }
      ],
      "name": "getAllProductsOfManufacturer",
      "outputs": [
        {
          "components": [
            {
              "internalType": "address[]",
              "name": "supplierAddress",
              "type": "address[]"
            },
            {
              "internalType": "uint256[]",
              "name": "smId",
              "type": "uint256[]"
            },
            {
              "internalType": "bytes",
              "name": "mp_name",
              "type": "bytes"
            },
            {
              "internalType": "bytes",
              "name": "mp_description",
              "type": "bytes"
            },
            {
              "internalType": "uint128",
              "name": "mp_unit",
              "type": "uint128"
            },
            {
              "internalType": "uint128",
              "name": "mp_price",
              "type": "uint128"
            },
            {
              "internalType": "uint32",
              "name": "mp_date",
              "type": "uint32"
            },
            {
              "internalType": "uint32",
              "name": "mp_expiryDate",
              "type": "uint32"
            },
            {
              "internalType": "bool",
              "name": "mp_status",
              "type": "bool"
            }
          ],
          "internalType": "struct IManufacturerProduct.manufacturerProduct[]",
          "name": "",
          "type": "tuple[]"
        }
      ],
      "stateMutability": "view",
      "type": "function"
    },
    {
      "inputs": [],
      "name": "getManufacturerProductIds",
      "outputs": [
        {
          "internalType": "uint256[]",
          "name": "",
          "type": "uint256[]"
        }
      ],
      "stateMutability": "view",
      "type": "function"
    },
    {
      "inputs": [
        {
          "internalType": "uint256",
          "name": "_mpId",
          "type": "uint256"
        }
      ],
      "name": "getSingleManufacturerProduct",
      "outputs": [
        {
          "components": [
            {
              "internalType": "address[]",
              "name": "supplierAddress",
              "type": "address[]"
            },
            {
              "internalType": "uint256[]",
              "name": "smId",
              "type": "uint256[]"
            },
            {
              "internalType": "bytes",
              "name": "mp_name",
              "type": "bytes"
            },
            {
              "internalType": "bytes",
              "name": "mp_description",
              "type": "bytes"
            },
            {
              "internalType": "uint128",
              "name": "mp_unit",
              "type": "uint128"
            },
            {
              "internalType": "uint128",
              "name": "mp_price",
              "type": "uint128"
            },
            {
              "internalType": "uint32",
              "name": "mp_date",
              "type": "uint32"
            },
            {
              "internalType": "uint32",
              "name": "mp_expiryDate",
              "type": "uint32"
            },
            {
              "internalType": "bool",
              "name": "mp_status",
              "type": "bool"
            }
          ],
          "internalType": "struct IManufacturerProduct.manufacturerProduct",
          "name": "",
          "type": "tuple"
        }
      ],
      "stateMutability": "view",
      "type": "function"
    },
    {
      "inputs": [
        {
          "internalType": "address",
          "name": "",
          "type": "address"
        },
        {
          "internalType": "uint256",
          "name": "",
          "type": "uint256"
        }
      ],
      "name": "manufacturerAddressToproductsIdMapping",
      "outputs": [
        {
          "internalType": "uint256",
          "name": "",
          "type": "uint256"
        }
      ],
      "stateMutability": "view",
      "type": "function"
    },
    {
      "inputs": [
        {
          "internalType": "uint256",
          "name": "",
          "type": "uint256"
        }
      ],
      "name": "manufacturerProductsIdToStructMapping",
      "outputs": [
        {
          "internalType": "bytes",
          "name": "mp_name",
          "type": "bytes"
        },
        {
          "internalType": "bytes",
          "name": "mp_description",
          "type": "bytes"
        },
        {
          "internalType": "uint128",
          "name": "mp_unit",
          "type": "uint128"
        },
        {
          "internalType": "uint128",
          "name": "mp_price",
          "type": "uint128"
        },
        {
          "internalType": "uint32",
          "name": "mp_date",
          "type": "uint32"
        },
        {
          "internalType": "uint32",
          "name": "mp_expiryDate",
          "type": "uint32"
        },
        {
          "internalType": "bool",
          "name": "mp_status",
          "type": "bool"
        }
      ],
      "stateMutability": "view",
      "type": "function"
    },
    {
      "inputs": [
        {
          "internalType": "uint256",
          "name": "_mpId",
          "type": "uint256"
        },
        {
          "internalType": "uint128",
          "name": "_quantity",
          "type": "uint128"
        }
      ],
      "name": "updateManufacturerProductUints",
      "outputs": [],
      "stateMutability": "nonpayable",
      "type": "function"
    }
  ],
  "bytecode": "0x6080604052600160005534801561001557600080fd5b5061238f806100256000396000f3fe608060405234801561001057600080fd5b50600436106100885760003560e01c806365603df21161005b57806365603df2146101275780639ea61c7e1461015d578063d37889c614610179578063f6a989f81461019557610088565b806324e5e6aa1461008d578063448952e1146100ab578063580f469c146100c757806360715971146100f7575b600080fd5b6100956101c5565b6040516100a291906112ac565b60405180910390f35b6100c560048036038101906100c09190611667565b61025a565b005b6100e160048036038101906100dc9190611796565b610596565b6040516100ee91906117e5565b60405180910390f35b610111600480360381019061010c9190611800565b6105c7565b60405161011e9190611bae565b60405180910390f35b610141600480360381019061013c9190611bd0565b610a3a565b6040516101549796959493929190611c74565b60405180910390f35b61017760048036038101906101729190611bd0565b610bf1565b005b610193600480360381019061018e9190611cf1565b610c5a565b005b6101af60048036038101906101aa9190611bd0565b610d3f565b6040516101bc9190611e0b565b60405180910390f35b6060600260003373ffffffffffffffffffffffffffffffffffffffff1673ffffffffffffffffffffffffffffffffffffffff16815260200190815260200160002080548060200260200160405190810160405280929190818152602001828054801561025057602002820191906000526020600020905b81548152602001906001019080831161023c575b5050505050905090565b6040518061012001604052808b81526020018a815260200189898080601f016020809104026020016040519081016040528093929190818152602001838380828437600081840152601f19601f82011690508083019250505050505050815260200187878080601f016020809104026020016040519081016040528093929190818152602001838380828437600081840152601f19601f820116905080830192505050505050508152602001856fffffffffffffffffffffffffffffffff168152602001846fffffffffffffffffffffffffffffffff1681526020018363ffffffff1681526020018263ffffffff1681526020016001151581525060016000805481526020019081526020016000206000820151816000019080519060200190610385929190611072565b5060208201518160010190805190602001906103a29291906110fc565b5060408201518160020190816103b89190612039565b5060608201518160030190816103ce9190612039565b5060808201518160040160006101000a8154816fffffffffffffffffffffffffffffffff02191690836fffffffffffffffffffffffffffffffff16021790555060a08201518160040160106101000a8154816fffffffffffffffffffffffffffffffff02191690836fffffffffffffffffffffffffffffffff16021790555060c08201518160050160006101000a81548163ffffffff021916908363ffffffff16021790555060e08201518160050160046101000a81548163ffffffff021916908363ffffffff1602179055506101008201518160050160086101000a81548160ff021916908315150217905550905050600260003373ffffffffffffffffffffffffffffffffffffffff1673ffffffffffffffffffffffffffffffffffffffff16815260200190815260200160002060005490806001815401808255809150506001900390600052602060002001600090919091909150556000547f0e20c89151faf0b5dda54ebc9d15340d8f36e022eaab7561945a997b339fc56e8b8b8b8b8b8b8b8b8b8b60405161056b9a999897969594939291906121b6565b60405180910390a260008081548092919061058590612283565b919050555050505050505050505050565b600260205281600052604060002081815481106105b257600080fd5b90600052602060002001600091509150505481565b60606000600260008473ffffffffffffffffffffffffffffffffffffffff1673ffffffffffffffffffffffffffffffffffffffff16815260200190815260200160002080548060200260200160405190810160405280929190818152602001828054801561065457602002820191906000526020600020905b815481526020019060010190808311610640575b505050505090506000815167ffffffffffffffff811115610678576106776112f8565b5b6040519080825280602002602001820160405280156106b157816020015b61069e611149565b8152602001906001900390816106965790505b50905060005b8251811015610a2f57600160008483815181106106d7576106d66122cb565b5b60200260200101518152602001908152602001600020604051806101200160405290816000820180548060200260200160405190810160405280929190818152602001828054801561077e57602002820191906000526020600020905b8160009054906101000a900473ffffffffffffffffffffffffffffffffffffffff1673ffffffffffffffffffffffffffffffffffffffff1681526020019060010190808311610734575b50505050508152602001600182018054806020026020016040519081016040528092919081815260200182805480156107d657602002820191906000526020600020905b8154815260200190600101908083116107c2575b505050505081526020016002820180546107ef90611e5c565b80601f016020809104026020016040519081016040528092919081815260200182805461081b90611e5c565b80156108685780601f1061083d57610100808354040283529160200191610868565b820191906000526020600020905b81548152906001019060200180831161084b57829003601f168201915b5050505050815260200160038201805461088190611e5c565b80601f01602080910402602001604051908101604052809291908181526020018280546108ad90611e5c565b80156108fa5780601f106108cf576101008083540402835291602001916108fa565b820191906000526020600020905b8154815290600101906020018083116108dd57829003601f168201915b505050505081526020016004820160009054906101000a90046fffffffffffffffffffffffffffffffff166fffffffffffffffffffffffffffffffff166fffffffffffffffffffffffffffffffff1681526020016004820160109054906101000a90046fffffffffffffffffffffffffffffffff166fffffffffffffffffffffffffffffffff166fffffffffffffffffffffffffffffffff1681526020016005820160009054906101000a900463ffffffff1663ffffffff1663ffffffff1681526020016005820160049054906101000a900463ffffffff1663ffffffff1663ffffffff1681526020016005820160089054906101000a900460ff161515151581525050828281518110610a1157610a106122cb565b5b60200260200101819052508080610a2790612283565b9150506106b7565b508092505050919050565b6001602052806000526040600020600091509050806002018054610a5d90611e5c565b80601f0160208091040260200160405190810160405280929190818152602001828054610a8990611e5c565b8015610ad65780601f10610aab57610100808354040283529160200191610ad6565b820191906000526020600020905b815481529060010190602001808311610ab957829003601f168201915b505050505090806003018054610aeb90611e5c565b80601f0160208091040260200160405190810160405280929190818152602001828054610b1790611e5c565b8015610b645780601f10610b3957610100808354040283529160200191610b64565b820191906000526020600020905b815481529060010190602001808311610b4757829003601f168201915b5050505050908060040160009054906101000a90046fffffffffffffffffffffffffffffffff16908060040160109054906101000a90046fffffffffffffffffffffffffffffffff16908060050160009054906101000a900463ffffffff16908060050160049054906101000a900463ffffffff16908060050160089054906101000a900460ff16905087565b60006001600083815260200190815260200160002060050160086101000a81548160ff0219169083151502179055507fbe5aa4247333e0978e80edfd1266e28e6cba6ea134522f795973c7133bc4317481604051610c4f91906117e5565b60405180910390a150565b806001600084815260200190815260200160002060040160008282829054906101000a90046fffffffffffffffffffffffffffffffff16610c9b91906122fa565b92506101000a8154816fffffffffffffffffffffffffffffffff02191690836fffffffffffffffffffffffffffffffff160217905550817f0cdf608777b7c369c17a854e339a0c861f903b381b92294555cd61b0c49f6cab6001600085815260200190815260200160002060040160009054906101000a90046fffffffffffffffffffffffffffffffff16604051610d33919061233e565b60405180910390a25050565b610d47611149565b600160008381526020019081526020016000206040518061012001604052908160008201805480602002602001604051908101604052809291908181526020018280548015610deb57602002820191906000526020600020905b8160009054906101000a900473ffffffffffffffffffffffffffffffffffffffff1673ffffffffffffffffffffffffffffffffffffffff1681526020019060010190808311610da1575b5050505050815260200160018201805480602002602001604051908101604052809291908181526020018280548015610e4357602002820191906000526020600020905b815481526020019060010190808311610e2f575b50505050508152602001600282018054610e5c90611e5c565b80601f0160208091040260200160405190810160405280929190818152602001828054610e8890611e5c565b8015610ed55780601f10610eaa57610100808354040283529160200191610ed5565b820191906000526020600020905b815481529060010190602001808311610eb857829003601f168201915b50505050508152602001600382018054610eee90611e5c565b80601f0160208091040260200160405190810160405280929190818152602001828054610f1a90611e5c565b8015610f675780601f10610f3c57610100808354040283529160200191610f67565b820191906000526020600020905b815481529060010190602001808311610f4a57829003601f168201915b505050505081526020016004820160009054906101000a90046fffffffffffffffffffffffffffffffff166fffffffffffffffffffffffffffffffff166fffffffffffffffffffffffffffffffff1681526020016004820160109054906101000a90046fffffffffffffffffffffffffffffffff166fffffffffffffffffffffffffffffffff166fffffffffffffffffffffffffffffffff1681526020016005820160009054906101000a900463ffffffff1663ffffffff1663ffffffff1681526020016005820160049054906101000a900463ffffffff1663ffffffff1663ffffffff1681526020016005820160089054906101000a900460ff1615151515815250509050919050565b8280548282559060005260206000209081019282156110eb579160200282015b828111156110ea5782518260006101000a81548173ffffffffffffffffffffffffffffffffffffffff021916908373ffffffffffffffffffffffffffffffffffffffff16021790555091602001919060010190611092565b5b5090506110f891906111c7565b5090565b828054828255906000526020600020908101928215611138579160200282015b8281111561113757825182559160200191906001019061111c565b5b50905061114591906111c7565b5090565b6040518061012001604052806060815260200160608152602001606081526020016060815260200160006fffffffffffffffffffffffffffffffff16815260200160006fffffffffffffffffffffffffffffffff168152602001600063ffffffff168152602001600063ffffffff1681526020016000151581525090565b5b808211156111e05760008160009055506001016111c8565b5090565b600081519050919050565b600082825260208201905092915050565b6000819050602082019050919050565b6000819050919050565b61122381611210565b82525050565b6000611235838361121a565b60208301905092915050565b6000602082019050919050565b6000611259826111e4565b61126381856111ef565b935061126e83611200565b8060005b8381101561129f5781516112868882611229565b975061129183611241565b925050600181019050611272565b5085935050505092915050565b600060208201905081810360008301526112c6818461124e565b905092915050565b6000604051905090565b600080fd5b600080fd5b600080fd5b6000601f19601f8301169050919050565b7f4e487b7100000000000000000000000000000000000000000000000000000000600052604160045260246000fd5b611330826112e7565b810181811067ffffffffffffffff8211171561134f5761134e6112f8565b5b80604052505050565b60006113626112ce565b905061136e8282611327565b919050565b600067ffffffffffffffff82111561138e5761138d6112f8565b5b602082029050602081019050919050565b600080fd5b600073ffffffffffffffffffffffffffffffffffffffff82169050919050565b60006113cf826113a4565b9050919050565b6113df816113c4565b81146113ea57600080fd5b50565b6000813590506113fc816113d6565b92915050565b600061141561141084611373565b611358565b905080838252602082019050602084028301858111156114385761143761139f565b5b835b81811015611461578061144d88826113ed565b84526020840193505060208101905061143a565b5050509392505050565b600082601f8301126114805761147f6112e2565b5b8135611490848260208601611402565b91505092915050565b600067ffffffffffffffff8211156114b4576114b36112f8565b5b602082029050602081019050919050565b6114ce81611210565b81146114d957600080fd5b50565b6000813590506114eb816114c5565b92915050565b60006115046114ff84611499565b611358565b905080838252602082019050602084028301858111156115275761152661139f565b5b835b81811015611550578061153c88826114dc565b845260208401935050602081019050611529565b5050509392505050565b600082601f83011261156f5761156e6112e2565b5b813561157f8482602086016114f1565b91505092915050565b600080fd5b60008083601f8401126115a3576115a26112e2565b5b8235905067ffffffffffffffff8111156115c0576115bf611588565b5b6020830191508360018202830111156115dc576115db61139f565b5b9250929050565b60006fffffffffffffffffffffffffffffffff82169050919050565b611608816115e3565b811461161357600080fd5b50565b600081359050611625816115ff565b92915050565b600063ffffffff82169050919050565b6116448161162b565b811461164f57600080fd5b50565b6000813590506116618161163b565b92915050565b6000806000806000806000806000806101008b8d03121561168b5761168a6112d8565b5b60008b013567ffffffffffffffff8111156116a9576116a86112dd565b5b6116b58d828e0161146b565b9a505060208b013567ffffffffffffffff8111156116d6576116d56112dd565b5b6116e28d828e0161155a565b99505060408b013567ffffffffffffffff811115611703576117026112dd565b5b61170f8d828e0161158d565b985098505060608b013567ffffffffffffffff811115611732576117316112dd565b5b61173e8d828e0161158d565b965096505060806117518d828e01611616565b94505060a06117628d828e01611616565b93505060c06117738d828e01611652565b92505060e06117848d828e01611652565b9150509295989b9194979a5092959850565b600080604083850312156117ad576117ac6112d8565b5b60006117bb858286016113ed565b92505060206117cc858286016114dc565b9150509250929050565b6117df81611210565b82525050565b60006020820190506117fa60008301846117d6565b92915050565b600060208284031215611816576118156112d8565b5b6000611824848285016113ed565b91505092915050565b600081519050919050565b600082825260208201905092915050565b6000819050602082019050919050565b600081519050919050565b600082825260208201905092915050565b6000819050602082019050919050565b61188e816113c4565b82525050565b60006118a08383611885565b60208301905092915050565b6000602082019050919050565b60006118c482611859565b6118ce8185611864565b93506118d983611875565b8060005b8381101561190a5781516118f18882611894565b97506118fc836118ac565b9250506001810190506118dd565b5085935050505092915050565b600082825260208201905092915050565b6000611933826111e4565b61193d8185611917565b935061194883611200565b8060005b838110156119795781516119608882611229565b975061196b83611241565b92505060018101905061194c565b5085935050505092915050565b600081519050919050565b600082825260208201905092915050565b60005b838110156119c05780820151818401526020810190506119a5565b60008484015250505050565b60006119d782611986565b6119e18185611991565b93506119f18185602086016119a2565b6119fa816112e7565b840191505092915050565b611a0e816115e3565b82525050565b611a1d8161162b565b82525050565b60008115159050919050565b611a3881611a23565b82525050565b6000610120830160008301518482036000860152611a5c82826118b9565b91505060208301518482036020860152611a768282611928565b91505060408301518482036040860152611a9082826119cc565b91505060608301518482036060860152611aaa82826119cc565b9150506080830151611abf6080860182611a05565b5060a0830151611ad260a0860182611a05565b5060c0830151611ae560c0860182611a14565b5060e0830151611af860e0860182611a14565b50610100830151611b0d610100860182611a2f565b508091505092915050565b6000611b248383611a3e565b905092915050565b6000602082019050919050565b6000611b448261182d565b611b4e8185611838565b935083602082028501611b6085611849565b8060005b85811015611b9c5784840389528151611b7d8582611b18565b9450611b8883611b2c565b925060208a01995050600181019050611b64565b50829750879550505050505092915050565b60006020820190508181036000830152611bc88184611b39565b905092915050565b600060208284031215611be657611be56112d8565b5b6000611bf4848285016114dc565b91505092915050565b600082825260208201905092915050565b6000611c1982611986565b611c238185611bfd565b9350611c338185602086016119a2565b611c3c816112e7565b840191505092915050565b611c50816115e3565b82525050565b611c5f8161162b565b82525050565b611c6e81611a23565b82525050565b600060e0820190508181036000830152611c8e818a611c0e565b90508181036020830152611ca28189611c0e565b9050611cb16040830188611c47565b611cbe6060830187611c47565b611ccb6080830186611c56565b611cd860a0830185611c56565b611ce560c0830184611c65565b98975050505050505050565b60008060408385031215611d0857611d076112d8565b5b6000611d16858286016114dc565b9250506020611d2785828601611616565b9150509250929050565b6000610120830160008301518482036000860152611d4f82826118b9565b91505060208301518482036020860152611d698282611928565b91505060408301518482036040860152611d8382826119cc565b91505060608301518482036060860152611d9d82826119cc565b9150506080830151611db26080860182611a05565b5060a0830151611dc560a0860182611a05565b5060c0830151611dd860c0860182611a14565b5060e0830151611deb60e0860182611a14565b50610100830151611e00610100860182611a2f565b508091505092915050565b60006020820190508181036000830152611e258184611d31565b905092915050565b7f4e487b7100000000000000000000000000000000000000000000000000000000600052602260045260246000fd5b60006002820490506001821680611e7457607f821691505b602082108103611e8757611e86611e2d565b5b50919050565b60008190508160005260206000209050919050565b60006020601f8301049050919050565b600082821b905092915050565b600060088302611eef7fffffffffffffffffffffffffffffffffffffffffffffffffffffffffffffffff82611eb2565b611ef98683611eb2565b95508019841693508086168417925050509392505050565b6000819050919050565b6000611f36611f31611f2c84611210565b611f11565b611210565b9050919050565b6000819050919050565b611f5083611f1b565b611f64611f5c82611f3d565b848454611ebf565b825550505050565b600090565b611f79611f6c565b611f84818484611f47565b505050565b5b81811015611fa857611f9d600082611f71565b600181019050611f8a565b5050565b601f821115611fed57611fbe81611e8d565b611fc784611ea2565b81016020851015611fd6578190505b611fea611fe285611ea2565b830182611f89565b50505b505050565b600082821c905092915050565b600061201060001984600802611ff2565b1980831691505092915050565b60006120298383611fff565b9150826002028217905092915050565b61204282611986565b67ffffffffffffffff81111561205b5761205a6112f8565b5b6120658254611e5c565b612070828285611fac565b600060209050601f8311600181146120a35760008415612091578287015190505b61209b858261201d565b865550612103565b601f1984166120b186611e8d565b60005b828110156120d9578489015182556001820191506020850194506020810190506120b4565b868310156120f657848901516120f2601f891682611fff565b8355505b6001600288020188555050505b505050505050565b600082825260208201905092915050565b600061212782611859565b612131818561210b565b935061213c83611875565b8060005b8381101561216d5781516121548882611894565b975061215f836118ac565b925050600181019050612140565b5085935050505092915050565b82818337600083830152505050565b60006121958385611bfd565b93506121a283858461217a565b6121ab836112e7565b840190509392505050565b60006101008201905081810360008301526121d1818d61211c565b905081810360208301526121e5818c61124e565b905081810360408301526121fa818a8c612189565b9050818103606083015261220f81888a612189565b905061221e6080830187611c47565b61222b60a0830186611c47565b61223860c0830185611c56565b61224560e0830184611c56565b9b9a5050505050505050505050565b7f4e487b7100000000000000000000000000000000000000000000000000000000600052601160045260246000fd5b600061228e82611210565b91507fffffffffffffffffffffffffffffffffffffffffffffffffffffffffffffffff82036122c0576122bf612254565b5b600182019050919050565b7f4e487b7100000000000000000000000000000000000000000000000000000000600052603260045260246000fd5b6000612305826115e3565b9150612310836115e3565b925082820390506fffffffffffffffffffffffffffffffff81111561233857612337612254565b5b92915050565b60006020820190506123536000830184611c47565b9291505056fea26469706673582212201a0faa1ae3a05999ca72a10725d017adf24b66d5782cc8797bdec91387727c2c64736f6c63430008120033",
  "linkReferences": {},
  "deployedLinkReferences": {}
}