{
  "_format": "hh-sol-artifact-1",
  "contractName": "supplierProduct",
  "sourceName": "contracts/supplierProduct.sol",
  "abi": [
    {
      "anonymous": false,
      "inputs": [
        {
          "indexed": true,
          "internalType": "uint256",
          "name": "_spid",
          "type": "uint256"
        },
        {
          "indexed": true,
          "internalType": "address",
          "name": "_address",
          "type": "address"
        },
        {
          "indexed": false,
          "internalType": "bytes",
          "name": "_name",
          "type": "bytes"
        },
        {
          "indexed": false,
          "internalType": "bytes",
          "name": "_description",
          "type": "bytes"
        },
        {
          "indexed": false,
          "internalType": "uint128",
          "name": "_unit",
          "type": "uint128"
        },
        {
          "indexed": false,
          "internalType": "uint128",
          "name": "_price",
          "type": "uint128"
        },
        {
          "indexed": false,
          "internalType": "uint32",
          "name": "_date",
          "type": "uint32"
        },
        {
          "indexed": false,
          "internalType": "uint32",
          "name": "_expiryDate",
          "type": "uint32"
        },
        {
          "indexed": false,
          "internalType": "uint256",
          "name": "_timeAdded",
          "type": "uint256"
        }
      ],
      "name": "eventAddSupplierProduct",
      "type": "event"
    },
    {
      "anonymous": false,
      "inputs": [
        {
          "indexed": true,
          "internalType": "uint256",
          "name": "_spId",
          "type": "uint256"
        }
      ],
      "name": "eventDeleteSupplierProduct",
      "type": "event"
    },
    {
      "anonymous": false,
      "inputs": [
        {
          "indexed": true,
          "internalType": "uint256",
          "name": "_spId",
          "type": "uint256"
        },
        {
          "indexed": false,
          "internalType": "uint128",
          "name": "_quantity",
          "type": "uint128"
        }
      ],
      "name": "eventUpdateSupplierProductUints",
      "type": "event"
    },
    {
      "inputs": [
        {
          "internalType": "bytes",
          "name": "_name",
          "type": "bytes"
        },
        {
          "internalType": "bytes",
          "name": "_description",
          "type": "bytes"
        },
        {
          "internalType": "uint128",
          "name": "_unit",
          "type": "uint128"
        },
        {
          "internalType": "uint128",
          "name": "_price",
          "type": "uint128"
        },
        {
          "internalType": "uint32",
          "name": "_date",
          "type": "uint32"
        },
        {
          "internalType": "uint32",
          "name": "_expiryDate",
          "type": "uint32"
        }
      ],
      "name": "addSupplierProduct",
      "outputs": [],
      "stateMutability": "nonpayable",
      "type": "function"
    },
    {
      "inputs": [
        {
          "internalType": "uint256",
          "name": "_spId",
          "type": "uint256"
        }
      ],
      "name": "deleteSupplierProduct",
      "outputs": [],
      "stateMutability": "nonpayable",
      "type": "function"
    },
    {
      "inputs": [
        {
          "internalType": "address",
          "name": "_supplierAddress",
          "type": "address"
        }
      ],
      "name": "getAllActiveProductsOfSupplier",
      "outputs": [
        {
          "components": [
            {
              "internalType": "address",
              "name": "supplierAddress",
              "type": "address"
            },
            {
              "internalType": "bytes",
              "name": "sp_name",
              "type": "bytes"
            },
            {
              "internalType": "bytes",
              "name": "sp_description",
              "type": "bytes"
            },
            {
              "internalType": "uint128",
              "name": "sp_unit",
              "type": "uint128"
            },
            {
              "internalType": "uint128",
              "name": "sp_price",
              "type": "uint128"
            },
            {
              "internalType": "uint32",
              "name": "sp_date",
              "type": "uint32"
            },
            {
              "internalType": "uint32",
              "name": "sp_expiryDate",
              "type": "uint32"
            },
            {
              "internalType": "bool",
              "name": "sp_status",
              "type": "bool"
            }
          ],
          "internalType": "struct ISupplierProduct.supplierProduct[]",
          "name": "",
          "type": "tuple[]"
        },
        {
          "internalType": "uint256[]",
          "name": "",
          "type": "uint256[]"
        }
      ],
      "stateMutability": "view",
      "type": "function"
    },
    {
      "inputs": [
        {
          "internalType": "address",
          "name": "_supplierAddress",
          "type": "address"
        }
      ],
      "name": "getAllProductsOfSupplier",
      "outputs": [
        {
          "components": [
            {
              "internalType": "address",
              "name": "supplierAddress",
              "type": "address"
            },
            {
              "internalType": "bytes",
              "name": "sp_name",
              "type": "bytes"
            },
            {
              "internalType": "bytes",
              "name": "sp_description",
              "type": "bytes"
            },
            {
              "internalType": "uint128",
              "name": "sp_unit",
              "type": "uint128"
            },
            {
              "internalType": "uint128",
              "name": "sp_price",
              "type": "uint128"
            },
            {
              "internalType": "uint32",
              "name": "sp_date",
              "type": "uint32"
            },
            {
              "internalType": "uint32",
              "name": "sp_expiryDate",
              "type": "uint32"
            },
            {
              "internalType": "bool",
              "name": "sp_status",
              "type": "bool"
            }
          ],
          "internalType": "struct ISupplierProduct.supplierProduct[]",
          "name": "",
          "type": "tuple[]"
        }
      ],
      "stateMutability": "view",
      "type": "function"
    },
    {
      "inputs": [
        {
          "internalType": "uint256",
          "name": "_spId",
          "type": "uint256"
        }
      ],
      "name": "getSingleSupplierProduct",
      "outputs": [
        {
          "components": [
            {
              "internalType": "address",
              "name": "supplierAddress",
              "type": "address"
            },
            {
              "internalType": "bytes",
              "name": "sp_name",
              "type": "bytes"
            },
            {
              "internalType": "bytes",
              "name": "sp_description",
              "type": "bytes"
            },
            {
              "internalType": "uint128",
              "name": "sp_unit",
              "type": "uint128"
            },
            {
              "internalType": "uint128",
              "name": "sp_price",
              "type": "uint128"
            },
            {
              "internalType": "uint32",
              "name": "sp_date",
              "type": "uint32"
            },
            {
              "internalType": "uint32",
              "name": "sp_expiryDate",
              "type": "uint32"
            },
            {
              "internalType": "bool",
              "name": "sp_status",
              "type": "bool"
            }
          ],
          "internalType": "struct ISupplierProduct.supplierProduct",
          "name": "",
          "type": "tuple"
        }
      ],
      "stateMutability": "view",
      "type": "function"
    },
    {
      "inputs": [],
      "name": "getSupplierProductIds",
      "outputs": [
        {
          "internalType": "uint256[]",
          "name": "",
          "type": "uint256[]"
        }
      ],
      "stateMutability": "view",
      "type": "function"
    },
    {
      "inputs": [
        {
          "internalType": "address",
          "name": "",
          "type": "address"
        },
        {
          "internalType": "uint256",
          "name": "",
          "type": "uint256"
        }
      ],
      "name": "supplierAddressToproductsIdMapping",
      "outputs": [
        {
          "internalType": "uint256",
          "name": "",
          "type": "uint256"
        }
      ],
      "stateMutability": "view",
      "type": "function"
    },
    {
      "inputs": [
        {
          "internalType": "uint256",
          "name": "",
          "type": "uint256"
        }
      ],
      "name": "supplierProductsIdToStructMapping",
      "outputs": [
        {
          "internalType": "address",
          "name": "supplierAddress",
          "type": "address"
        },
        {
          "internalType": "bytes",
          "name": "sp_name",
          "type": "bytes"
        },
        {
          "internalType": "bytes",
          "name": "sp_description",
          "type": "bytes"
        },
        {
          "internalType": "uint128",
          "name": "sp_unit",
          "type": "uint128"
        },
        {
          "internalType": "uint128",
          "name": "sp_price",
          "type": "uint128"
        },
        {
          "internalType": "uint32",
          "name": "sp_date",
          "type": "uint32"
        },
        {
          "internalType": "uint32",
          "name": "sp_expiryDate",
          "type": "uint32"
        },
        {
          "internalType": "bool",
          "name": "sp_status",
          "type": "bool"
        }
      ],
      "stateMutability": "view",
      "type": "function"
    },
    {
      "inputs": [
        {
          "internalType": "uint256",
          "name": "_spId",
          "type": "uint256"
        },
        {
          "internalType": "uint128",
          "name": "_quantity",
          "type": "uint128"
        }
      ],
      "name": "updateSupplierProductUints",
      "outputs": [],
      "stateMutability": "nonpayable",
      "type": "function"
    }
  ],
  "bytecode": "0x6080604052600160005534801561001557600080fd5b50612378806100256000396000f3fe608060405234801561001057600080fd5b50600436106100935760003560e01c806383f958531161006657806383f958531461014c578063c22ef68e1461017c578063e10f28c7146101ac578063ee7e7c99146101ca578063f8bafa70146101e657610093565b80632777259b1461009857806342af31d7146100c95780636c87b826146100f957806379ae025714610130575b600080fd5b6100b260048036038101906100ad919061160c565b610202565b6040516100c092919061197e565b60405180910390f35b6100e360048036038101906100de91906119e1565b61073f565b6040516100f09190611a30565b60405180910390f35b610113600480360381019061010e9190611a4b565b610770565b604051610127989796959493929190611afe565b60405180910390f35b61014a60048036038101906101459190611a4b565b61094d565b005b6101666004803603810190610161919061160c565b6109ac565b6040516101739190611b8a565b60405180910390f35b61019660048036038101906101919190611a4b565b610d8f565b6040516101a39190611c63565b60405180910390f35b6101b4611032565b6040516101c19190611c85565b60405180910390f35b6101e460048036038101906101df9190611d64565b6110c7565b005b61020060048036038101906101fb9190611e33565b611432565b005b6060806000600260008573ffffffffffffffffffffffffffffffffffffffff1673ffffffffffffffffffffffffffffffffffffffff16815260200190815260200160002080548060200260200160405190810160405280929190818152602001828054801561029057602002820191906000526020600020905b81548152602001906001019080831161027c575b505050505090506000815167ffffffffffffffff8111156102b4576102b3611e73565b5b6040519080825280602002602001820160405280156102e25781602001602082028036833780820191505090505b5090506000825167ffffffffffffffff81111561030257610301611e73565b5b60405190808252806020026020018201604052801561033b57816020015b610328611517565b8152602001906001900390816103205790505b5090506000805b84518110156106885760008582815181106103605761035f611ea2565b5b602002602001015190506001600082815260200190815260200160002060040160089054906101000a900460ff16156106745760016000828152602001908152602001600020604051806101000160405290816000820160009054906101000a900473ffffffffffffffffffffffffffffffffffffffff1673ffffffffffffffffffffffffffffffffffffffff1673ffffffffffffffffffffffffffffffffffffffff16815260200160018201805461041890611f00565b80601f016020809104026020016040519081016040528092919081815260200182805461044490611f00565b80156104915780601f1061046657610100808354040283529160200191610491565b820191906000526020600020905b81548152906001019060200180831161047457829003601f168201915b505050505081526020016002820180546104aa90611f00565b80601f01602080910402602001604051908101604052809291908181526020018280546104d690611f00565b80156105235780601f106104f857610100808354040283529160200191610523565b820191906000526020600020905b81548152906001019060200180831161050657829003601f168201915b505050505081526020016003820160009054906101000a90046fffffffffffffffffffffffffffffffff166fffffffffffffffffffffffffffffffff166fffffffffffffffffffffffffffffffff1681526020016003820160109054906101000a90046fffffffffffffffffffffffffffffffff166fffffffffffffffffffffffffffffffff166fffffffffffffffffffffffffffffffff1681526020016004820160009054906101000a900463ffffffff1663ffffffff1663ffffffff1681526020016004820160049054906101000a900463ffffffff1663ffffffff1663ffffffff1681526020016004820160089054906101000a900460ff16151515158152505084848151811061063a57610639611ea2565b5b60200260200101819052508085848151811061065957610658611ea2565b5b602002602001018181525050828061067090611f60565b9350505b50808061068090611f60565b915050610342565b5060008167ffffffffffffffff8111156106a5576106a4611e73565b5b6040519080825280602002602001820160405280156106d35781602001602082028036833780820191505090505b50905060005b8281101561072e578481815181106106f4576106f3611ea2565b5b602002602001015182828151811061070f5761070e611ea2565b5b602002602001018181525050808061072690611f60565b9150506106d9565b508281965096505050505050915091565b6002602052816000526040600020818154811061075b57600080fd5b90600052602060002001600091509150505481565b60016020528060005260406000206000915090508060000160009054906101000a900473ffffffffffffffffffffffffffffffffffffffff16908060010180546107b990611f00565b80601f01602080910402602001604051908101604052809291908181526020018280546107e590611f00565b80156108325780601f1061080757610100808354040283529160200191610832565b820191906000526020600020905b81548152906001019060200180831161081557829003601f168201915b50505050509080600201805461084790611f00565b80601f016020809104026020016040519081016040528092919081815260200182805461087390611f00565b80156108c05780601f10610895576101008083540402835291602001916108c0565b820191906000526020600020905b8154815290600101906020018083116108a357829003601f168201915b5050505050908060030160009054906101000a90046fffffffffffffffffffffffffffffffff16908060030160109054906101000a90046fffffffffffffffffffffffffffffffff16908060040160009054906101000a900463ffffffff16908060040160049054906101000a900463ffffffff16908060040160089054906101000a900460ff16905088565b60006001600083815260200190815260200160002060040160086101000a81548160ff021916908315150217905550807f6c1a4e746947a5049a6693a4875a10617826c8361c631cac61717e141185fdd260405160405180910390a250565b60606000600260008473ffffffffffffffffffffffffffffffffffffffff1673ffffffffffffffffffffffffffffffffffffffff168152602001908152602001600020805480602002602001604051908101604052809291908181526020018280548015610a3957602002820191906000526020600020905b815481526020019060010190808311610a25575b505050505090506000815167ffffffffffffffff811115610a5d57610a5c611e73565b5b604051908082528060200260200182016040528015610a9657816020015b610a83611517565b815260200190600190039081610a7b5790505b50905060005b8251811015610d845760016000848381518110610abc57610abb611ea2565b5b60200260200101518152602001908152602001600020604051806101000160405290816000820160009054906101000a900473ffffffffffffffffffffffffffffffffffffffff1673ffffffffffffffffffffffffffffffffffffffff1673ffffffffffffffffffffffffffffffffffffffff168152602001600182018054610b4490611f00565b80601f0160208091040260200160405190810160405280929190818152602001828054610b7090611f00565b8015610bbd5780601f10610b9257610100808354040283529160200191610bbd565b820191906000526020600020905b815481529060010190602001808311610ba057829003601f168201915b50505050508152602001600282018054610bd690611f00565b80601f0160208091040260200160405190810160405280929190818152602001828054610c0290611f00565b8015610c4f5780601f10610c2457610100808354040283529160200191610c4f565b820191906000526020600020905b815481529060010190602001808311610c3257829003601f168201915b505050505081526020016003820160009054906101000a90046fffffffffffffffffffffffffffffffff166fffffffffffffffffffffffffffffffff166fffffffffffffffffffffffffffffffff1681526020016003820160109054906101000a90046fffffffffffffffffffffffffffffffff166fffffffffffffffffffffffffffffffff166fffffffffffffffffffffffffffffffff1681526020016004820160009054906101000a900463ffffffff1663ffffffff1663ffffffff1681526020016004820160049054906101000a900463ffffffff1663ffffffff1663ffffffff1681526020016004820160089054906101000a900460ff161515151581525050828281518110610d6657610d65611ea2565b5b60200260200101819052508080610d7c90611f60565b915050610a9c565b508092505050919050565b610d97611517565b60016000838152602001908152602001600020604051806101000160405290816000820160009054906101000a900473ffffffffffffffffffffffffffffffffffffffff1673ffffffffffffffffffffffffffffffffffffffff1673ffffffffffffffffffffffffffffffffffffffff168152602001600182018054610e1c90611f00565b80601f0160208091040260200160405190810160405280929190818152602001828054610e4890611f00565b8015610e955780601f10610e6a57610100808354040283529160200191610e95565b820191906000526020600020905b815481529060010190602001808311610e7857829003601f168201915b50505050508152602001600282018054610eae90611f00565b80601f0160208091040260200160405190810160405280929190818152602001828054610eda90611f00565b8015610f275780601f10610efc57610100808354040283529160200191610f27565b820191906000526020600020905b815481529060010190602001808311610f0a57829003601f168201915b505050505081526020016003820160009054906101000a90046fffffffffffffffffffffffffffffffff166fffffffffffffffffffffffffffffffff166fffffffffffffffffffffffffffffffff1681526020016003820160109054906101000a90046fffffffffffffffffffffffffffffffff166fffffffffffffffffffffffffffffffff166fffffffffffffffffffffffffffffffff1681526020016004820160009054906101000a900463ffffffff1663ffffffff1663ffffffff1681526020016004820160049054906101000a900463ffffffff1663ffffffff1663ffffffff1681526020016004820160089054906101000a900460ff1615151515815250509050919050565b6060600260003373ffffffffffffffffffffffffffffffffffffffff1673ffffffffffffffffffffffffffffffffffffffff1681526020019081526020016000208054806020026020016040519081016040528092919081815260200182805480156110bd57602002820191906000526020600020905b8154815260200190600101908083116110a9575b5050505050905090565b6040518061010001604052803373ffffffffffffffffffffffffffffffffffffffff16815260200189898080601f016020809104026020016040519081016040528093929190818152602001838380828437600081840152601f19601f82011690508083019250505050505050815260200187878080601f016020809104026020016040519081016040528093929190818152602001838380828437600081840152601f19601f820116905080830192505050505050508152602001856fffffffffffffffffffffffffffffffff168152602001846fffffffffffffffffffffffffffffffff1681526020018363ffffffff1681526020018263ffffffff16815260200160011515815250600160008054815260200190815260200160002060008201518160000160006101000a81548173ffffffffffffffffffffffffffffffffffffffff021916908373ffffffffffffffffffffffffffffffffffffffff16021790555060208201518160010190816112429190612154565b5060408201518160020190816112589190612154565b5060608201518160030160006101000a8154816fffffffffffffffffffffffffffffffff02191690836fffffffffffffffffffffffffffffffff16021790555060808201518160030160106101000a8154816fffffffffffffffffffffffffffffffff02191690836fffffffffffffffffffffffffffffffff16021790555060a08201518160040160006101000a81548163ffffffff021916908363ffffffff16021790555060c08201518160040160046101000a81548163ffffffff021916908363ffffffff16021790555060e08201518160040160086101000a81548160ff021916908315150217905550905050600260003373ffffffffffffffffffffffffffffffffffffffff1673ffffffffffffffffffffffffffffffffffffffff16815260200190815260200160002060005490806001815401808255809150506001900390600052602060002001600090919091909150553373ffffffffffffffffffffffffffffffffffffffff166000547fb544b666bf20d30fc9acbc75aee55e5847e8f95a49aa5d36b6dab734f0cbb3038a8a8a8a8a8a8a8a4260405161140999989796959493929190612262565b60405180910390a360008081548092919061142390611f60565b91905055505050505050505050565b806001600084815260200190815260200160002060030160008282829054906101000a90046fffffffffffffffffffffffffffffffff1661147391906122e3565b92506101000a8154816fffffffffffffffffffffffffffffffff02191690836fffffffffffffffffffffffffffffffff160217905550817f1f3d301eca9b893fb3ae34f526f7b346cfe3086be67884ce1e652593c91668d66001600085815260200190815260200160002060030160009054906101000a90046fffffffffffffffffffffffffffffffff1660405161150b9190612327565b60405180910390a25050565b604051806101000160405280600073ffffffffffffffffffffffffffffffffffffffff168152602001606081526020016060815260200160006fffffffffffffffffffffffffffffffff16815260200160006fffffffffffffffffffffffffffffffff168152602001600063ffffffff168152602001600063ffffffff1681526020016000151581525090565b600080fd5b600080fd5b600073ffffffffffffffffffffffffffffffffffffffff82169050919050565b60006115d9826115ae565b9050919050565b6115e9816115ce565b81146115f457600080fd5b50565b600081359050611606816115e0565b92915050565b600060208284031215611622576116216115a4565b5b6000611630848285016115f7565b91505092915050565b600081519050919050565b600082825260208201905092915050565b6000819050602082019050919050565b61166e816115ce565b82525050565b600081519050919050565b600082825260208201905092915050565b60005b838110156116ae578082015181840152602081019050611693565b60008484015250505050565b6000601f19601f8301169050919050565b60006116d682611674565b6116e0818561167f565b93506116f0818560208601611690565b6116f9816116ba565b840191505092915050565b60006fffffffffffffffffffffffffffffffff82169050919050565b61172981611704565b82525050565b600063ffffffff82169050919050565b6117488161172f565b82525050565b60008115159050919050565b6117638161174e565b82525050565b6000610100830160008301516117826000860182611665565b506020830151848203602086015261179a82826116cb565b915050604083015184820360408601526117b482826116cb565b91505060608301516117c96060860182611720565b5060808301516117dc6080860182611720565b5060a08301516117ef60a086018261173f565b5060c083015161180260c086018261173f565b5060e083015161181560e086018261175a565b508091505092915050565b600061182c8383611769565b905092915050565b6000602082019050919050565b600061184c82611639565b6118568185611644565b93508360208202850161186885611655565b8060005b858110156118a457848403895281516118858582611820565b945061189083611834565b925060208a0199505060018101905061186c565b50829750879550505050505092915050565b600081519050919050565b600082825260208201905092915050565b6000819050602082019050919050565b6000819050919050565b6118f5816118e2565b82525050565b600061190783836118ec565b60208301905092915050565b6000602082019050919050565b600061192b826118b6565b61193581856118c1565b9350611940836118d2565b8060005b8381101561197157815161195888826118fb565b975061196383611913565b925050600181019050611944565b5085935050505092915050565b600060408201905081810360008301526119988185611841565b905081810360208301526119ac8184611920565b90509392505050565b6119be816118e2565b81146119c957600080fd5b50565b6000813590506119db816119b5565b92915050565b600080604083850312156119f8576119f76115a4565b5b6000611a06858286016115f7565b9250506020611a17858286016119cc565b9150509250929050565b611a2a816118e2565b82525050565b6000602082019050611a456000830184611a21565b92915050565b600060208284031215611a6157611a606115a4565b5b6000611a6f848285016119cc565b91505092915050565b611a81816115ce565b82525050565b600082825260208201905092915050565b6000611aa382611674565b611aad8185611a87565b9350611abd818560208601611690565b611ac6816116ba565b840191505092915050565b611ada81611704565b82525050565b611ae98161172f565b82525050565b611af88161174e565b82525050565b600061010082019050611b14600083018b611a78565b8181036020830152611b26818a611a98565b90508181036040830152611b3a8189611a98565b9050611b496060830188611ad1565b611b566080830187611ad1565b611b6360a0830186611ae0565b611b7060c0830185611ae0565b611b7d60e0830184611aef565b9998505050505050505050565b60006020820190508181036000830152611ba48184611841565b905092915050565b600061010083016000830151611bc56000860182611665565b5060208301518482036020860152611bdd82826116cb565b91505060408301518482036040860152611bf782826116cb565b9150506060830151611c0c6060860182611720565b506080830151611c1f6080860182611720565b5060a0830151611c3260a086018261173f565b5060c0830151611c4560c086018261173f565b5060e0830151611c5860e086018261175a565b508091505092915050565b60006020820190508181036000830152611c7d8184611bac565b905092915050565b60006020820190508181036000830152611c9f8184611920565b905092915050565b600080fd5b600080fd5b600080fd5b60008083601f840112611ccc57611ccb611ca7565b5b8235905067ffffffffffffffff811115611ce957611ce8611cac565b5b602083019150836001820283011115611d0557611d04611cb1565b5b9250929050565b611d1581611704565b8114611d2057600080fd5b50565b600081359050611d3281611d0c565b92915050565b611d418161172f565b8114611d4c57600080fd5b50565b600081359050611d5e81611d38565b92915050565b60008060008060008060008060c0898b031215611d8457611d836115a4565b5b600089013567ffffffffffffffff811115611da257611da16115a9565b5b611dae8b828c01611cb6565b9850985050602089013567ffffffffffffffff811115611dd157611dd06115a9565b5b611ddd8b828c01611cb6565b96509650506040611df08b828c01611d23565b9450506060611e018b828c01611d23565b9350506080611e128b828c01611d4f565b92505060a0611e238b828c01611d4f565b9150509295985092959890939650565b60008060408385031215611e4a57611e496115a4565b5b6000611e58858286016119cc565b9250506020611e6985828601611d23565b9150509250929050565b7f4e487b7100000000000000000000000000000000000000000000000000000000600052604160045260246000fd5b7f4e487b7100000000000000000000000000000000000000000000000000000000600052603260045260246000fd5b7f4e487b7100000000000000000000000000000000000000000000000000000000600052602260045260246000fd5b60006002820490506001821680611f1857607f821691505b602082108103611f2b57611f2a611ed1565b5b50919050565b7f4e487b7100000000000000000000000000000000000000000000000000000000600052601160045260246000fd5b6000611f6b826118e2565b91507fffffffffffffffffffffffffffffffffffffffffffffffffffffffffffffffff8203611f9d57611f9c611f31565b5b600182019050919050565b60008190508160005260206000209050919050565b60006020601f8301049050919050565b600082821b905092915050565b60006008830261200a7fffffffffffffffffffffffffffffffffffffffffffffffffffffffffffffffff82611fcd565b6120148683611fcd565b95508019841693508086168417925050509392505050565b6000819050919050565b600061205161204c612047846118e2565b61202c565b6118e2565b9050919050565b6000819050919050565b61206b83612036565b61207f61207782612058565b848454611fda565b825550505050565b600090565b612094612087565b61209f818484612062565b505050565b5b818110156120c3576120b860008261208c565b6001810190506120a5565b5050565b601f821115612108576120d981611fa8565b6120e284611fbd565b810160208510156120f1578190505b6121056120fd85611fbd565b8301826120a4565b50505b505050565b600082821c905092915050565b600061212b6000198460080261210d565b1980831691505092915050565b6000612144838361211a565b9150826002028217905092915050565b61215d82611674565b67ffffffffffffffff81111561217657612175611e73565b5b6121808254611f00565b61218b8282856120c7565b600060209050601f8311600181146121be57600084156121ac578287015190505b6121b68582612138565b86555061221e565b601f1984166121cc86611fa8565b60005b828110156121f4578489015182556001820191506020850194506020810190506121cf565b86831015612211578489015161220d601f89168261211a565b8355505b6001600288020188555050505b505050505050565b82818337600083830152505050565b60006122418385611a87565b935061224e838584612226565b612257836116ba565b840190509392505050565b600060e082019050818103600083015261227d818b8d612235565b9050818103602083015261229281898b612235565b90506122a16040830188611ad1565b6122ae6060830187611ad1565b6122bb6080830186611ae0565b6122c860a0830185611ae0565b6122d560c0830184611a21565b9a9950505050505050505050565b60006122ee82611704565b91506122f983611704565b925082820390506fffffffffffffffffffffffffffffffff81111561232157612320611f31565b5b92915050565b600060208201905061233c6000830184611ad1565b9291505056fea2646970667358221220b75560abca8ea3c4f00b01f66cb0503b00183bc42f6935b1ac42b970e4d677b164736f6c63430008120033",
  "linkReferences": {},
  "deployedLinkReferences": {}
}