{
  "_format": "hh-sol-artifact-1",
  "contractName": "supplierProduct",
  "sourceName": "contracts/supplierProduct.sol",
  "abi": [
    {
      "anonymous": false,
      "inputs": [
        {
          "indexed": true,
          "internalType": "uint256",
          "name": "_spid",
          "type": "uint256"
        },
        {
          "indexed": true,
          "internalType": "address",
          "name": "_address",
          "type": "address"
        },
        {
          "indexed": false,
          "internalType": "bytes",
          "name": "_name",
          "type": "bytes"
        },
        {
          "indexed": false,
          "internalType": "bytes",
          "name": "_description",
          "type": "bytes"
        },
        {
          "indexed": false,
          "internalType": "uint128",
          "name": "_unit",
          "type": "uint128"
        },
        {
          "indexed": false,
          "internalType": "uint128",
          "name": "_price",
          "type": "uint128"
        },
        {
          "indexed": false,
          "internalType": "uint32",
          "name": "_date",
          "type": "uint32"
        },
        {
          "indexed": false,
          "internalType": "uint32",
          "name": "_expiryDate",
          "type": "uint32"
        },
        {
          "indexed": false,
          "internalType": "uint256",
          "name": "_timeAdded",
          "type": "uint256"
        }
      ],
      "name": "eventAddSupplierProduct",
      "type": "event"
    },
    {
      "anonymous": false,
      "inputs": [
        {
          "indexed": true,
          "internalType": "uint256",
          "name": "_spId",
          "type": "uint256"
        }
      ],
      "name": "eventDeleteSupplierProduct",
      "type": "event"
    },
    {
      "anonymous": false,
      "inputs": [
        {
          "indexed": true,
          "internalType": "uint256",
          "name": "_spId",
          "type": "uint256"
        },
        {
          "indexed": false,
          "internalType": "uint128",
          "name": "_quantity",
          "type": "uint128"
        }
      ],
      "name": "eventUpdateSupplierProductUints",
      "type": "event"
    },
    {
      "inputs": [
        {
          "internalType": "bytes",
          "name": "_name",
          "type": "bytes"
        },
        {
          "internalType": "bytes",
          "name": "_description",
          "type": "bytes"
        },
        {
          "internalType": "uint128",
          "name": "_unit",
          "type": "uint128"
        },
        {
          "internalType": "uint128",
          "name": "_price",
          "type": "uint128"
        },
        {
          "internalType": "uint32",
          "name": "_date",
          "type": "uint32"
        },
        {
          "internalType": "uint32",
          "name": "_expiryDate",
          "type": "uint32"
        }
      ],
      "name": "addSupplierProduct",
      "outputs": [],
      "stateMutability": "nonpayable",
      "type": "function"
    },
    {
      "inputs": [
        {
          "internalType": "uint256",
          "name": "_spId",
          "type": "uint256"
        }
      ],
      "name": "deleteSupplierProduct",
      "outputs": [],
      "stateMutability": "nonpayable",
      "type": "function"
    },
    {
      "inputs": [
        {
          "internalType": "address",
          "name": "_supplierAddress",
          "type": "address"
        }
      ],
      "name": "getAllProductsOfSupplier",
      "outputs": [
        {
          "components": [
            {
              "internalType": "address",
              "name": "supplierAddress",
              "type": "address"
            },
            {
              "internalType": "bytes",
              "name": "sp_name",
              "type": "bytes"
            },
            {
              "internalType": "bytes",
              "name": "sp_description",
              "type": "bytes"
            },
            {
              "internalType": "uint128",
              "name": "sp_unit",
              "type": "uint128"
            },
            {
              "internalType": "uint128",
              "name": "sp_price",
              "type": "uint128"
            },
            {
              "internalType": "uint32",
              "name": "sp_date",
              "type": "uint32"
            },
            {
              "internalType": "uint32",
              "name": "sp_expiryDate",
              "type": "uint32"
            },
            {
              "internalType": "bool",
              "name": "sp_status",
              "type": "bool"
            }
          ],
          "internalType": "struct ISupplierProduct.supplierProduct[]",
          "name": "",
          "type": "tuple[]"
        },
        {
          "internalType": "uint256[]",
          "name": "_productIds",
          "type": "uint256[]"
        }
      ],
      "stateMutability": "view",
      "type": "function"
    },
    {
      "inputs": [
        {
          "internalType": "uint256",
          "name": "_spId",
          "type": "uint256"
        }
      ],
      "name": "getSingleSupplierProduct",
      "outputs": [
        {
          "components": [
            {
              "internalType": "address",
              "name": "supplierAddress",
              "type": "address"
            },
            {
              "internalType": "bytes",
              "name": "sp_name",
              "type": "bytes"
            },
            {
              "internalType": "bytes",
              "name": "sp_description",
              "type": "bytes"
            },
            {
              "internalType": "uint128",
              "name": "sp_unit",
              "type": "uint128"
            },
            {
              "internalType": "uint128",
              "name": "sp_price",
              "type": "uint128"
            },
            {
              "internalType": "uint32",
              "name": "sp_date",
              "type": "uint32"
            },
            {
              "internalType": "uint32",
              "name": "sp_expiryDate",
              "type": "uint32"
            },
            {
              "internalType": "bool",
              "name": "sp_status",
              "type": "bool"
            }
          ],
          "internalType": "struct ISupplierProduct.supplierProduct",
          "name": "",
          "type": "tuple"
        }
      ],
      "stateMutability": "view",
      "type": "function"
    },
    {
      "inputs": [],
      "name": "getSupplierProductIds",
      "outputs": [
        {
          "internalType": "uint256[]",
          "name": "",
          "type": "uint256[]"
        }
      ],
      "stateMutability": "view",
      "type": "function"
    },
    {
      "inputs": [
        {
          "internalType": "address",
          "name": "",
          "type": "address"
        },
        {
          "internalType": "uint256",
          "name": "",
          "type": "uint256"
        }
      ],
      "name": "supplierAddressToproductsIdMapping",
      "outputs": [
        {
          "internalType": "uint256",
          "name": "",
          "type": "uint256"
        }
      ],
      "stateMutability": "view",
      "type": "function"
    },
    {
      "inputs": [
        {
          "internalType": "uint256",
          "name": "",
          "type": "uint256"
        }
      ],
      "name": "supplierProductsIdToStructMapping",
      "outputs": [
        {
          "internalType": "address",
          "name": "supplierAddress",
          "type": "address"
        },
        {
          "internalType": "bytes",
          "name": "sp_name",
          "type": "bytes"
        },
        {
          "internalType": "bytes",
          "name": "sp_description",
          "type": "bytes"
        },
        {
          "internalType": "uint128",
          "name": "sp_unit",
          "type": "uint128"
        },
        {
          "internalType": "uint128",
          "name": "sp_price",
          "type": "uint128"
        },
        {
          "internalType": "uint32",
          "name": "sp_date",
          "type": "uint32"
        },
        {
          "internalType": "uint32",
          "name": "sp_expiryDate",
          "type": "uint32"
        },
        {
          "internalType": "bool",
          "name": "sp_status",
          "type": "bool"
        }
      ],
      "stateMutability": "view",
      "type": "function"
    },
    {
      "inputs": [
        {
          "internalType": "uint256",
          "name": "_spId",
          "type": "uint256"
        },
        {
          "internalType": "uint128",
          "name": "_quantity",
          "type": "uint128"
        }
      ],
      "name": "updateSupplierProductUints",
      "outputs": [],
      "stateMutability": "nonpayable",
      "type": "function"
    }
  ],
  "bytecode": "0x6080604052600160005534801561001557600080fd5b50611de2806100256000396000f3fe608060405234801561001057600080fd5b50600436106100885760003560e01c8063c22ef68e1161005b578063c22ef68e14610141578063e10f28c714610171578063ee7e7c991461018f578063f8bafa70146101ab57610088565b806342af31d71461008d5780636c87b826146100bd57806379ae0257146100f457806383f9585314610110575b600080fd5b6100a760048036038101906100a291906110ce565b6101c7565b6040516100b4919061111d565b60405180910390f35b6100d760048036038101906100d29190611138565b6101f8565b6040516100eb989796959493929190611269565b60405180910390f35b61010e60048036038101906101099190611138565b6103d5565b005b61012a600480360381019061012591906112f5565b610434565b6040516101389291906115df565b60405180910390f35b61015b60048036038101906101569190611138565b61081b565b60405161016891906116cd565b60405180910390f35b610179610abe565b60405161018691906116ef565b60405180910390f35b6101a960048036038101906101a491906117ce565b610b53565b005b6101c560048036038101906101c0919061189d565b610ebe565b005b600260205281600052604060002081815481106101e357600080fd5b90600052602060002001600091509150505481565b60016020528060005260406000206000915090508060000160009054906101000a900473ffffffffffffffffffffffffffffffffffffffff16908060010180546102419061190c565b80601f016020809104026020016040519081016040528092919081815260200182805461026d9061190c565b80156102ba5780601f1061028f576101008083540402835291602001916102ba565b820191906000526020600020905b81548152906001019060200180831161029d57829003601f168201915b5050505050908060020180546102cf9061190c565b80601f01602080910402602001604051908101604052809291908181526020018280546102fb9061190c565b80156103485780601f1061031d57610100808354040283529160200191610348565b820191906000526020600020905b81548152906001019060200180831161032b57829003601f168201915b5050505050908060030160009054906101000a90046fffffffffffffffffffffffffffffffff16908060030160109054906101000a90046fffffffffffffffffffffffffffffffff16908060040160009054906101000a900463ffffffff16908060040160049054906101000a900463ffffffff16908060040160089054906101000a900460ff16905088565b60006001600083815260200190815260200160002060040160086101000a81548160ff021916908315150217905550807f6c1a4e746947a5049a6693a4875a10617826c8361c631cac61717e141185fdd260405160405180910390a250565b6060806000600260008573ffffffffffffffffffffffffffffffffffffffff1673ffffffffffffffffffffffffffffffffffffffff1681526020019081526020016000208054806020026020016040519081016040528092919081815260200182805480156104c257602002820191906000526020600020905b8154815260200190600101908083116104ae575b505050505090506000815167ffffffffffffffff8111156104e6576104e561193d565b5b60405190808252806020026020018201604052801561051f57816020015b61050c610fa3565b8152602001906001900390816105045790505b50905060005b825181101561080d57600160008483815181106105455761054461196c565b5b60200260200101518152602001908152602001600020604051806101000160405290816000820160009054906101000a900473ffffffffffffffffffffffffffffffffffffffff1673ffffffffffffffffffffffffffffffffffffffff1673ffffffffffffffffffffffffffffffffffffffff1681526020016001820180546105cd9061190c565b80601f01602080910402602001604051908101604052809291908181526020018280546105f99061190c565b80156106465780601f1061061b57610100808354040283529160200191610646565b820191906000526020600020905b81548152906001019060200180831161062957829003601f168201915b5050505050815260200160028201805461065f9061190c565b80601f016020809104026020016040519081016040528092919081815260200182805461068b9061190c565b80156106d85780601f106106ad576101008083540402835291602001916106d8565b820191906000526020600020905b8154815290600101906020018083116106bb57829003601f168201915b505050505081526020016003820160009054906101000a90046fffffffffffffffffffffffffffffffff166fffffffffffffffffffffffffffffffff166fffffffffffffffffffffffffffffffff1681526020016003820160109054906101000a90046fffffffffffffffffffffffffffffffff166fffffffffffffffffffffffffffffffff166fffffffffffffffffffffffffffffffff1681526020016004820160009054906101000a900463ffffffff1663ffffffff1663ffffffff1681526020016004820160049054906101000a900463ffffffff1663ffffffff1663ffffffff1681526020016004820160089054906101000a900460ff1615151515815250508282815181106107ef576107ee61196c565b5b60200260200101819052508080610805906119ca565b915050610525565b508082935093505050915091565b610823610fa3565b60016000838152602001908152602001600020604051806101000160405290816000820160009054906101000a900473ffffffffffffffffffffffffffffffffffffffff1673ffffffffffffffffffffffffffffffffffffffff1673ffffffffffffffffffffffffffffffffffffffff1681526020016001820180546108a89061190c565b80601f01602080910402602001604051908101604052809291908181526020018280546108d49061190c565b80156109215780601f106108f657610100808354040283529160200191610921565b820191906000526020600020905b81548152906001019060200180831161090457829003601f168201915b5050505050815260200160028201805461093a9061190c565b80601f01602080910402602001604051908101604052809291908181526020018280546109669061190c565b80156109b35780601f10610988576101008083540402835291602001916109b3565b820191906000526020600020905b81548152906001019060200180831161099657829003601f168201915b505050505081526020016003820160009054906101000a90046fffffffffffffffffffffffffffffffff166fffffffffffffffffffffffffffffffff166fffffffffffffffffffffffffffffffff1681526020016003820160109054906101000a90046fffffffffffffffffffffffffffffffff166fffffffffffffffffffffffffffffffff166fffffffffffffffffffffffffffffffff1681526020016004820160009054906101000a900463ffffffff1663ffffffff1663ffffffff1681526020016004820160049054906101000a900463ffffffff1663ffffffff1663ffffffff1681526020016004820160089054906101000a900460ff1615151515815250509050919050565b6060600260003373ffffffffffffffffffffffffffffffffffffffff1673ffffffffffffffffffffffffffffffffffffffff168152602001908152602001600020805480602002602001604051908101604052809291908181526020018280548015610b4957602002820191906000526020600020905b815481526020019060010190808311610b35575b5050505050905090565b6040518061010001604052803373ffffffffffffffffffffffffffffffffffffffff16815260200189898080601f016020809104026020016040519081016040528093929190818152602001838380828437600081840152601f19601f82011690508083019250505050505050815260200187878080601f016020809104026020016040519081016040528093929190818152602001838380828437600081840152601f19601f820116905080830192505050505050508152602001856fffffffffffffffffffffffffffffffff168152602001846fffffffffffffffffffffffffffffffff1681526020018363ffffffff1681526020018263ffffffff16815260200160011515815250600160008054815260200190815260200160002060008201518160000160006101000a81548173ffffffffffffffffffffffffffffffffffffffff021916908373ffffffffffffffffffffffffffffffffffffffff1602179055506020820151816001019081610cce9190611bbe565b506040820151816002019081610ce49190611bbe565b5060608201518160030160006101000a8154816fffffffffffffffffffffffffffffffff02191690836fffffffffffffffffffffffffffffffff16021790555060808201518160030160106101000a8154816fffffffffffffffffffffffffffffffff02191690836fffffffffffffffffffffffffffffffff16021790555060a08201518160040160006101000a81548163ffffffff021916908363ffffffff16021790555060c08201518160040160046101000a81548163ffffffff021916908363ffffffff16021790555060e08201518160040160086101000a81548160ff021916908315150217905550905050600260003373ffffffffffffffffffffffffffffffffffffffff1673ffffffffffffffffffffffffffffffffffffffff16815260200190815260200160002060005490806001815401808255809150506001900390600052602060002001600090919091909150553373ffffffffffffffffffffffffffffffffffffffff166000547fb544b666bf20d30fc9acbc75aee55e5847e8f95a49aa5d36b6dab734f0cbb3038a8a8a8a8a8a8a8a42604051610e9599989796959493929190611ccc565b60405180910390a3600080815480929190610eaf906119ca565b91905055505050505050505050565b806001600084815260200190815260200160002060030160008282829054906101000a90046fffffffffffffffffffffffffffffffff16610eff9190611d4d565b92506101000a8154816fffffffffffffffffffffffffffffffff02191690836fffffffffffffffffffffffffffffffff160217905550817f1f3d301eca9b893fb3ae34f526f7b346cfe3086be67884ce1e652593c91668d66001600085815260200190815260200160002060030160009054906101000a90046fffffffffffffffffffffffffffffffff16604051610f979190611d91565b60405180910390a25050565b604051806101000160405280600073ffffffffffffffffffffffffffffffffffffffff168152602001606081526020016060815260200160006fffffffffffffffffffffffffffffffff16815260200160006fffffffffffffffffffffffffffffffff168152602001600063ffffffff168152602001600063ffffffff1681526020016000151581525090565b600080fd5b600080fd5b600073ffffffffffffffffffffffffffffffffffffffff82169050919050565b60006110658261103a565b9050919050565b6110758161105a565b811461108057600080fd5b50565b6000813590506110928161106c565b92915050565b6000819050919050565b6110ab81611098565b81146110b657600080fd5b50565b6000813590506110c8816110a2565b92915050565b600080604083850312156110e5576110e4611030565b5b60006110f385828601611083565b9250506020611104858286016110b9565b9150509250929050565b61111781611098565b82525050565b6000602082019050611132600083018461110e565b92915050565b60006020828403121561114e5761114d611030565b5b600061115c848285016110b9565b91505092915050565b61116e8161105a565b82525050565b600081519050919050565b600082825260208201905092915050565b60005b838110156111ae578082015181840152602081019050611193565b60008484015250505050565b6000601f19601f8301169050919050565b60006111d682611174565b6111e0818561117f565b93506111f0818560208601611190565b6111f9816111ba565b840191505092915050565b60006fffffffffffffffffffffffffffffffff82169050919050565b61122981611204565b82525050565b600063ffffffff82169050919050565b6112488161122f565b82525050565b60008115159050919050565b6112638161124e565b82525050565b60006101008201905061127f600083018b611165565b8181036020830152611291818a6111cb565b905081810360408301526112a581896111cb565b90506112b46060830188611220565b6112c16080830187611220565b6112ce60a083018661123f565b6112db60c083018561123f565b6112e860e083018461125a565b9998505050505050505050565b60006020828403121561130b5761130a611030565b5b600061131984828501611083565b91505092915050565b600081519050919050565b600082825260208201905092915050565b6000819050602082019050919050565b6113578161105a565b82525050565b600082825260208201905092915050565b600061137982611174565b611383818561135d565b9350611393818560208601611190565b61139c816111ba565b840191505092915050565b6113b081611204565b82525050565b6113bf8161122f565b82525050565b6113ce8161124e565b82525050565b6000610100830160008301516113ed600086018261134e565b5060208301518482036020860152611405828261136e565b9150506040830151848203604086015261141f828261136e565b915050606083015161143460608601826113a7565b50608083015161144760808601826113a7565b5060a083015161145a60a08601826113b6565b5060c083015161146d60c08601826113b6565b5060e083015161148060e08601826113c5565b508091505092915050565b600061149783836113d4565b905092915050565b6000602082019050919050565b60006114b782611322565b6114c1818561132d565b9350836020820285016114d38561133e565b8060005b8581101561150f57848403895281516114f0858261148b565b94506114fb8361149f565b925060208a019950506001810190506114d7565b50829750879550505050505092915050565b600081519050919050565b600082825260208201905092915050565b6000819050602082019050919050565b61155681611098565b82525050565b6000611568838361154d565b60208301905092915050565b6000602082019050919050565b600061158c82611521565b611596818561152c565b93506115a18361153d565b8060005b838110156115d25781516115b9888261155c565b97506115c483611574565b9250506001810190506115a5565b5085935050505092915050565b600060408201905081810360008301526115f981856114ac565b9050818103602083015261160d8184611581565b90509392505050565b60006101008301600083015161162f600086018261134e565b5060208301518482036020860152611647828261136e565b91505060408301518482036040860152611661828261136e565b915050606083015161167660608601826113a7565b50608083015161168960808601826113a7565b5060a083015161169c60a08601826113b6565b5060c08301516116af60c08601826113b6565b5060e08301516116c260e08601826113c5565b508091505092915050565b600060208201905081810360008301526116e78184611616565b905092915050565b600060208201905081810360008301526117098184611581565b905092915050565b600080fd5b600080fd5b600080fd5b60008083601f84011261173657611735611711565b5b8235905067ffffffffffffffff81111561175357611752611716565b5b60208301915083600182028301111561176f5761176e61171b565b5b9250929050565b61177f81611204565b811461178a57600080fd5b50565b60008135905061179c81611776565b92915050565b6117ab8161122f565b81146117b657600080fd5b50565b6000813590506117c8816117a2565b92915050565b60008060008060008060008060c0898b0312156117ee576117ed611030565b5b600089013567ffffffffffffffff81111561180c5761180b611035565b5b6118188b828c01611720565b9850985050602089013567ffffffffffffffff81111561183b5761183a611035565b5b6118478b828c01611720565b9650965050604061185a8b828c0161178d565b945050606061186b8b828c0161178d565b935050608061187c8b828c016117b9565b92505060a061188d8b828c016117b9565b9150509295985092959890939650565b600080604083850312156118b4576118b3611030565b5b60006118c2858286016110b9565b92505060206118d38582860161178d565b9150509250929050565b7f4e487b7100000000000000000000000000000000000000000000000000000000600052602260045260246000fd5b6000600282049050600182168061192457607f821691505b602082108103611937576119366118dd565b5b50919050565b7f4e487b7100000000000000000000000000000000000000000000000000000000600052604160045260246000fd5b7f4e487b7100000000000000000000000000000000000000000000000000000000600052603260045260246000fd5b7f4e487b7100000000000000000000000000000000000000000000000000000000600052601160045260246000fd5b60006119d582611098565b91507fffffffffffffffffffffffffffffffffffffffffffffffffffffffffffffffff8203611a0757611a0661199b565b5b600182019050919050565b60008190508160005260206000209050919050565b60006020601f8301049050919050565b600082821b905092915050565b600060088302611a747fffffffffffffffffffffffffffffffffffffffffffffffffffffffffffffffff82611a37565b611a7e8683611a37565b95508019841693508086168417925050509392505050565b6000819050919050565b6000611abb611ab6611ab184611098565b611a96565b611098565b9050919050565b6000819050919050565b611ad583611aa0565b611ae9611ae182611ac2565b848454611a44565b825550505050565b600090565b611afe611af1565b611b09818484611acc565b505050565b5b81811015611b2d57611b22600082611af6565b600181019050611b0f565b5050565b601f821115611b7257611b4381611a12565b611b4c84611a27565b81016020851015611b5b578190505b611b6f611b6785611a27565b830182611b0e565b50505b505050565b600082821c905092915050565b6000611b9560001984600802611b77565b1980831691505092915050565b6000611bae8383611b84565b9150826002028217905092915050565b611bc782611174565b67ffffffffffffffff811115611be057611bdf61193d565b5b611bea825461190c565b611bf5828285611b31565b600060209050601f831160018114611c285760008415611c16578287015190505b611c208582611ba2565b865550611c88565b601f198416611c3686611a12565b60005b82811015611c5e57848901518255600182019150602085019450602081019050611c39565b86831015611c7b5784890151611c77601f891682611b84565b8355505b6001600288020188555050505b505050505050565b82818337600083830152505050565b6000611cab838561117f565b9350611cb8838584611c90565b611cc1836111ba565b840190509392505050565b600060e0820190508181036000830152611ce7818b8d611c9f565b90508181036020830152611cfc81898b611c9f565b9050611d0b6040830188611220565b611d186060830187611220565b611d25608083018661123f565b611d3260a083018561123f565b611d3f60c083018461110e565b9a9950505050505050505050565b6000611d5882611204565b9150611d6383611204565b925082820390506fffffffffffffffffffffffffffffffff811115611d8b57611d8a61199b565b5b92915050565b6000602082019050611da66000830184611220565b9291505056fea2646970667358221220b8f776ad6a708c9ec3833666503688d6a4391175deaec01da7034abfa596d1d464736f6c63430008120033",
  "linkReferences": {},
  "deployedLinkReferences": {}
}