{
  "_format": "hh-sol-artifact-1",
  "contractName": "supplierProduct",
  "sourceName": "contracts/supplierProduct.sol",
  "abi": [
    {
      "inputs": [
        {
          "internalType": "address",
          "name": "_udAddress",
          "type": "address"
        }
      ],
      "stateMutability": "nonpayable",
      "type": "constructor"
    },
    {
      "anonymous": false,
      "inputs": [
        {
          "indexed": true,
          "internalType": "uint256",
          "name": "_spid",
          "type": "uint256"
        },
        {
          "indexed": true,
          "internalType": "address",
          "name": "_address",
          "type": "address"
        },
        {
          "indexed": false,
          "internalType": "bytes",
          "name": "_name",
          "type": "bytes"
        },
        {
          "indexed": false,
          "internalType": "bytes",
          "name": "_description",
          "type": "bytes"
        },
        {
          "indexed": false,
          "internalType": "uint128",
          "name": "_unit",
          "type": "uint128"
        },
        {
          "indexed": false,
          "internalType": "uint128",
          "name": "_price",
          "type": "uint128"
        },
        {
          "indexed": false,
          "internalType": "uint32",
          "name": "_date",
          "type": "uint32"
        },
        {
          "indexed": false,
          "internalType": "uint32",
          "name": "_expiryDate",
          "type": "uint32"
        },
        {
          "indexed": false,
          "internalType": "uint256",
          "name": "_timeAdded",
          "type": "uint256"
        }
      ],
      "name": "eventAddSupplierProduct",
      "type": "event"
    },
    {
      "anonymous": false,
      "inputs": [
        {
          "indexed": true,
          "internalType": "uint256",
          "name": "_spId",
          "type": "uint256"
        }
      ],
      "name": "eventDeleteSupplierProduct",
      "type": "event"
    },
    {
      "anonymous": false,
      "inputs": [
        {
          "indexed": true,
          "internalType": "uint256",
          "name": "_spId",
          "type": "uint256"
        },
        {
          "indexed": false,
          "internalType": "uint128",
          "name": "_quantity",
          "type": "uint128"
        }
      ],
      "name": "eventUpdateSupplierProductUints",
      "type": "event"
    },
    {
      "inputs": [
        {
          "internalType": "bytes",
          "name": "_name",
          "type": "bytes"
        },
        {
          "internalType": "bytes",
          "name": "_description",
          "type": "bytes"
        },
        {
          "internalType": "uint128",
          "name": "_unit",
          "type": "uint128"
        },
        {
          "internalType": "uint128",
          "name": "_price",
          "type": "uint128"
        },
        {
          "internalType": "uint32",
          "name": "_date",
          "type": "uint32"
        },
        {
          "internalType": "uint32",
          "name": "_expiryDate",
          "type": "uint32"
        }
      ],
      "name": "addSupplierProduct",
      "outputs": [],
      "stateMutability": "nonpayable",
      "type": "function"
    },
    {
      "inputs": [
        {
          "internalType": "address",
          "name": "_ownerAddress",
          "type": "address"
        }
      ],
      "name": "changeOwner",
      "outputs": [],
      "stateMutability": "nonpayable",
      "type": "function"
    },
    {
      "inputs": [
        {
          "internalType": "address",
          "name": "_udAddress",
          "type": "address"
        }
      ],
      "name": "changeUdAddress",
      "outputs": [],
      "stateMutability": "nonpayable",
      "type": "function"
    },
    {
      "inputs": [
        {
          "internalType": "uint256",
          "name": "_spId",
          "type": "uint256"
        }
      ],
      "name": "deleteSupplierProduct",
      "outputs": [],
      "stateMutability": "nonpayable",
      "type": "function"
    },
    {
      "inputs": [
        {
          "internalType": "address",
          "name": "_supplierAddress",
          "type": "address"
        }
      ],
      "name": "getAllActiveProductsOfSupplier",
      "outputs": [
        {
          "components": [
            {
              "internalType": "address",
              "name": "supplierAddress",
              "type": "address"
            },
            {
              "internalType": "bytes",
              "name": "sp_name",
              "type": "bytes"
            },
            {
              "internalType": "bytes",
              "name": "sp_description",
              "type": "bytes"
            },
            {
              "internalType": "uint128",
              "name": "sp_unit",
              "type": "uint128"
            },
            {
              "internalType": "uint128",
              "name": "sp_price",
              "type": "uint128"
            },
            {
              "internalType": "uint32",
              "name": "sp_date",
              "type": "uint32"
            },
            {
              "internalType": "uint32",
              "name": "sp_expiryDate",
              "type": "uint32"
            },
            {
              "internalType": "bool",
              "name": "sp_status",
              "type": "bool"
            }
          ],
          "internalType": "struct ISupplierProduct.supplierProduct[]",
          "name": "",
          "type": "tuple[]"
        },
        {
          "internalType": "uint256[]",
          "name": "",
          "type": "uint256[]"
        }
      ],
      "stateMutability": "view",
      "type": "function"
    },
    {
      "inputs": [
        {
          "internalType": "address",
          "name": "_supplierAddress",
          "type": "address"
        }
      ],
      "name": "getAllProductsOfSupplier",
      "outputs": [
        {
          "components": [
            {
              "internalType": "address",
              "name": "supplierAddress",
              "type": "address"
            },
            {
              "internalType": "bytes",
              "name": "sp_name",
              "type": "bytes"
            },
            {
              "internalType": "bytes",
              "name": "sp_description",
              "type": "bytes"
            },
            {
              "internalType": "uint128",
              "name": "sp_unit",
              "type": "uint128"
            },
            {
              "internalType": "uint128",
              "name": "sp_price",
              "type": "uint128"
            },
            {
              "internalType": "uint32",
              "name": "sp_date",
              "type": "uint32"
            },
            {
              "internalType": "uint32",
              "name": "sp_expiryDate",
              "type": "uint32"
            },
            {
              "internalType": "bool",
              "name": "sp_status",
              "type": "bool"
            }
          ],
          "internalType": "struct ISupplierProduct.supplierProduct[]",
          "name": "",
          "type": "tuple[]"
        },
        {
          "internalType": "uint256[]",
          "name": "_productIds",
          "type": "uint256[]"
        }
      ],
      "stateMutability": "view",
      "type": "function"
    },
    {
      "inputs": [
        {
          "internalType": "uint256",
          "name": "_spId",
          "type": "uint256"
        }
      ],
      "name": "getSingleSupplierProduct",
      "outputs": [
        {
          "components": [
            {
              "internalType": "address",
              "name": "supplierAddress",
              "type": "address"
            },
            {
              "internalType": "bytes",
              "name": "sp_name",
              "type": "bytes"
            },
            {
              "internalType": "bytes",
              "name": "sp_description",
              "type": "bytes"
            },
            {
              "internalType": "uint128",
              "name": "sp_unit",
              "type": "uint128"
            },
            {
              "internalType": "uint128",
              "name": "sp_price",
              "type": "uint128"
            },
            {
              "internalType": "uint32",
              "name": "sp_date",
              "type": "uint32"
            },
            {
              "internalType": "uint32",
              "name": "sp_expiryDate",
              "type": "uint32"
            },
            {
              "internalType": "bool",
              "name": "sp_status",
              "type": "bool"
            }
          ],
          "internalType": "struct ISupplierProduct.supplierProduct",
          "name": "",
          "type": "tuple"
        }
      ],
      "stateMutability": "view",
      "type": "function"
    },
    {
      "inputs": [
        {
          "internalType": "address",
          "name": "_address",
          "type": "address"
        }
      ],
      "name": "getSpIdsByAddress",
      "outputs": [
        {
          "internalType": "uint256[]",
          "name": "",
          "type": "uint256[]"
        }
      ],
      "stateMutability": "view",
      "type": "function"
    },
    {
      "inputs": [],
      "name": "getSupplierProductIds",
      "outputs": [
        {
          "internalType": "uint256[]",
          "name": "",
          "type": "uint256[]"
        }
      ],
      "stateMutability": "view",
      "type": "function"
    },
    {
      "inputs": [
        {
          "internalType": "address",
          "name": "",
          "type": "address"
        },
        {
          "internalType": "uint256",
          "name": "",
          "type": "uint256"
        }
      ],
      "name": "supplierAddressToproductsIdMapping",
      "outputs": [
        {
          "internalType": "uint256",
          "name": "",
          "type": "uint256"
        }
      ],
      "stateMutability": "view",
      "type": "function"
    },
    {
      "inputs": [
        {
          "internalType": "uint256",
          "name": "",
          "type": "uint256"
        }
      ],
      "name": "supplierProductsIdToStructMapping",
      "outputs": [
        {
          "internalType": "address",
          "name": "supplierAddress",
          "type": "address"
        },
        {
          "internalType": "bytes",
          "name": "sp_name",
          "type": "bytes"
        },
        {
          "internalType": "bytes",
          "name": "sp_description",
          "type": "bytes"
        },
        {
          "internalType": "uint128",
          "name": "sp_unit",
          "type": "uint128"
        },
        {
          "internalType": "uint128",
          "name": "sp_price",
          "type": "uint128"
        },
        {
          "internalType": "uint32",
          "name": "sp_date",
          "type": "uint32"
        },
        {
          "internalType": "uint32",
          "name": "sp_expiryDate",
          "type": "uint32"
        },
        {
          "internalType": "bool",
          "name": "sp_status",
          "type": "bool"
        }
      ],
      "stateMutability": "view",
      "type": "function"
    },
    {
      "inputs": [
        {
          "internalType": "uint256",
          "name": "_spId",
          "type": "uint256"
        },
        {
          "internalType": "uint128",
          "name": "_quantity",
          "type": "uint128"
        }
      ],
      "name": "updateSupplierProductUints",
      "outputs": [],
      "stateMutability": "nonpayable",
      "type": "function"
    }
  ],
  "bytecode": "0x608060405260016002553480156200001657600080fd5b5060405162002de638038062002de683398181016040528101906200003c91906200012e565b33600160006101000a81548173ffffffffffffffffffffffffffffffffffffffff021916908373ffffffffffffffffffffffffffffffffffffffff160217905550806000806101000a81548173ffffffffffffffffffffffffffffffffffffffff021916908373ffffffffffffffffffffffffffffffffffffffff1602179055505062000160565b600080fd5b600073ffffffffffffffffffffffffffffffffffffffff82169050919050565b6000620000f682620000c9565b9050919050565b6200010881620000e9565b81146200011457600080fd5b50565b6000815190506200012881620000fd565b92915050565b600060208284031215620001475762000146620000c4565b5b6000620001578482850162000117565b91505092915050565b612c7680620001706000396000f3fe608060405234801561001057600080fd5b50600436106100b45760003560e01c806383f958531161007157806383f95853146101b9578063a6f9dae1146101ea578063c22ef68e14610206578063e10f28c714610236578063ee7e7c9914610254578063f8bafa7014610270576100b4565b80630f65ae38146100b957806311517205146100d55780632777259b1461010557806342af31d7146101365780636c87b8261461016657806379ae02571461019d575b600080fd5b6100d360048036038101906100ce9190611b17565b61028c565b005b6100ef60048036038101906100ea9190611b17565b61035f565b6040516100fc9190611c0c565b60405180910390f35b61011f600480360381019061011a9190611b17565b6103f6565b60405161012d929190611eab565b60405180910390f35b610150600480360381019061014b9190611f0e565b610933565b60405161015d9190611f5d565b60405180910390f35b610180600480360381019061017b9190611f78565b610964565b60405161019498979695949392919061202b565b60405180910390f35b6101b760048036038101906101b29190611f78565b610b41565b005b6101d360048036038101906101ce9190611b17565b610c39565b6040516101e1929190611eab565b60405180910390f35b61020460048036038101906101ff9190611b17565b611020565b005b610220600480360381019061021b9190611f78565b6110f4565b60405161022d919061216e565b60405180910390f35b61023e611397565b60405161024b9190611c0c565b60405180910390f35b61026e6004803603810190610269919061224d565b61142c565b005b61028a6004803603810190610285919061231c565b61189a565b005b600160009054906101000a900473ffffffffffffffffffffffffffffffffffffffff1673ffffffffffffffffffffffffffffffffffffffff163373ffffffffffffffffffffffffffffffffffffffff161461031c576040517f08c379a0000000000000000000000000000000000000000000000000000000008152600401610313906123b9565b60405180910390fd5b806000806101000a81548173ffffffffffffffffffffffffffffffffffffffff021916908373ffffffffffffffffffffffffffffffffffffffff16021790555050565b6060600460008373ffffffffffffffffffffffffffffffffffffffff1673ffffffffffffffffffffffffffffffffffffffff1681526020019081526020016000208054806020026020016040519081016040528092919081815260200182805480156103ea57602002820191906000526020600020905b8154815260200190600101908083116103d6575b50505050509050919050565b6060806000600460008573ffffffffffffffffffffffffffffffffffffffff1673ffffffffffffffffffffffffffffffffffffffff16815260200190815260200160002080548060200260200160405190810160405280929190818152602001828054801561048457602002820191906000526020600020905b815481526020019060010190808311610470575b505050505090506000815167ffffffffffffffff8111156104a8576104a76123d9565b5b6040519080825280602002602001820160405280156104d65781602001602082028036833780820191505090505b5090506000825167ffffffffffffffff8111156104f6576104f56123d9565b5b60405190808252806020026020018201604052801561052f57816020015b61051c611a18565b8152602001906001900390816105145790505b5090506000805b845181101561087c57600085828151811061055457610553612408565b5b602002602001015190506003600082815260200190815260200160002060040160089054906101000a900460ff16156108685760036000828152602001908152602001600020604051806101000160405290816000820160009054906101000a900473ffffffffffffffffffffffffffffffffffffffff1673ffffffffffffffffffffffffffffffffffffffff1673ffffffffffffffffffffffffffffffffffffffff16815260200160018201805461060c90612466565b80601f016020809104026020016040519081016040528092919081815260200182805461063890612466565b80156106855780601f1061065a57610100808354040283529160200191610685565b820191906000526020600020905b81548152906001019060200180831161066857829003601f168201915b5050505050815260200160028201805461069e90612466565b80601f01602080910402602001604051908101604052809291908181526020018280546106ca90612466565b80156107175780601f106106ec57610100808354040283529160200191610717565b820191906000526020600020905b8154815290600101906020018083116106fa57829003601f168201915b505050505081526020016003820160009054906101000a90046fffffffffffffffffffffffffffffffff166fffffffffffffffffffffffffffffffff166fffffffffffffffffffffffffffffffff1681526020016003820160109054906101000a90046fffffffffffffffffffffffffffffffff166fffffffffffffffffffffffffffffffff166fffffffffffffffffffffffffffffffff1681526020016004820160009054906101000a900463ffffffff1663ffffffff1663ffffffff1681526020016004820160049054906101000a900463ffffffff1663ffffffff1663ffffffff1681526020016004820160089054906101000a900460ff16151515158152505084848151811061082e5761082d612408565b5b60200260200101819052508085848151811061084d5761084c612408565b5b6020026020010181815250508280610864906124c6565b9350505b508080610874906124c6565b915050610536565b5060008167ffffffffffffffff811115610899576108986123d9565b5b6040519080825280602002602001820160405280156108c75781602001602082028036833780820191505090505b50905060005b82811015610922578481815181106108e8576108e7612408565b5b602002602001015182828151811061090357610902612408565b5b602002602001018181525050808061091a906124c6565b9150506108cd565b508281965096505050505050915091565b6004602052816000526040600020818154811061094f57600080fd5b90600052602060002001600091509150505481565b60036020528060005260406000206000915090508060000160009054906101000a900473ffffffffffffffffffffffffffffffffffffffff16908060010180546109ad90612466565b80601f01602080910402602001604051908101604052809291908181526020018280546109d990612466565b8015610a265780601f106109fb57610100808354040283529160200191610a26565b820191906000526020600020905b815481529060010190602001808311610a0957829003601f168201915b505050505090806002018054610a3b90612466565b80601f0160208091040260200160405190810160405280929190818152602001828054610a6790612466565b8015610ab45780601f10610a8957610100808354040283529160200191610ab4565b820191906000526020600020905b815481529060010190602001808311610a9757829003601f168201915b5050505050908060030160009054906101000a90046fffffffffffffffffffffffffffffffff16908060030160109054906101000a90046fffffffffffffffffffffffffffffffff16908060040160009054906101000a900463ffffffff16908060040160049054906101000a900463ffffffff16908060040160089054906101000a900460ff16905088565b6000610b4b611397565b90506000805b8251811015610b975783838281518110610b6e57610b6d612408565b5b602002602001015103610b845760019150610b97565b8080610b8f906124c6565b915050610b51565b5080610bd8576040517f08c379a0000000000000000000000000000000000000000000000000000000008152600401610bcf9061255a565b60405180910390fd5b60006003600085815260200190815260200160002060040160086101000a81548160ff021916908315150217905550827f6c1a4e746947a5049a6693a4875a10617826c8361c631cac61717e141185fdd260405160405180910390a2505050565b6060806000600460008573ffffffffffffffffffffffffffffffffffffffff1673ffffffffffffffffffffffffffffffffffffffff168152602001908152602001600020805480602002602001604051908101604052809291908181526020018280548015610cc757602002820191906000526020600020905b815481526020019060010190808311610cb3575b505050505090506000815167ffffffffffffffff811115610ceb57610cea6123d9565b5b604051908082528060200260200182016040528015610d2457816020015b610d11611a18565b815260200190600190039081610d095790505b50905060005b82518110156110125760036000848381518110610d4a57610d49612408565b5b60200260200101518152602001908152602001600020604051806101000160405290816000820160009054906101000a900473ffffffffffffffffffffffffffffffffffffffff1673ffffffffffffffffffffffffffffffffffffffff1673ffffffffffffffffffffffffffffffffffffffff168152602001600182018054610dd290612466565b80601f0160208091040260200160405190810160405280929190818152602001828054610dfe90612466565b8015610e4b5780601f10610e2057610100808354040283529160200191610e4b565b820191906000526020600020905b815481529060010190602001808311610e2e57829003601f168201915b50505050508152602001600282018054610e6490612466565b80601f0160208091040260200160405190810160405280929190818152602001828054610e9090612466565b8015610edd5780601f10610eb257610100808354040283529160200191610edd565b820191906000526020600020905b815481529060010190602001808311610ec057829003601f168201915b505050505081526020016003820160009054906101000a90046fffffffffffffffffffffffffffffffff166fffffffffffffffffffffffffffffffff166fffffffffffffffffffffffffffffffff1681526020016003820160109054906101000a90046fffffffffffffffffffffffffffffffff166fffffffffffffffffffffffffffffffff166fffffffffffffffffffffffffffffffff1681526020016004820160009054906101000a900463ffffffff1663ffffffff1663ffffffff1681526020016004820160049054906101000a900463ffffffff1663ffffffff1663ffffffff1681526020016004820160089054906101000a900460ff161515151581525050828281518110610ff457610ff3612408565b5b6020026020010181905250808061100a906124c6565b915050610d2a565b508082935093505050915091565b600160009054906101000a900473ffffffffffffffffffffffffffffffffffffffff1673ffffffffffffffffffffffffffffffffffffffff163373ffffffffffffffffffffffffffffffffffffffff16146110b0576040517f08c379a00000000000000000000000000000000000000000000000000000000081526004016110a7906123b9565b60405180910390fd5b80600160006101000a81548173ffffffffffffffffffffffffffffffffffffffff021916908373ffffffffffffffffffffffffffffffffffffffff16021790555050565b6110fc611a18565b60036000838152602001908152602001600020604051806101000160405290816000820160009054906101000a900473ffffffffffffffffffffffffffffffffffffffff1673ffffffffffffffffffffffffffffffffffffffff1673ffffffffffffffffffffffffffffffffffffffff16815260200160018201805461118190612466565b80601f01602080910402602001604051908101604052809291908181526020018280546111ad90612466565b80156111fa5780601f106111cf576101008083540402835291602001916111fa565b820191906000526020600020905b8154815290600101906020018083116111dd57829003601f168201915b5050505050815260200160028201805461121390612466565b80601f016020809104026020016040519081016040528092919081815260200182805461123f90612466565b801561128c5780601f106112615761010080835404028352916020019161128c565b820191906000526020600020905b81548152906001019060200180831161126f57829003601f168201915b505050505081526020016003820160009054906101000a90046fffffffffffffffffffffffffffffffff166fffffffffffffffffffffffffffffffff166fffffffffffffffffffffffffffffffff1681526020016003820160109054906101000a90046fffffffffffffffffffffffffffffffff166fffffffffffffffffffffffffffffffff166fffffffffffffffffffffffffffffffff1681526020016004820160009054906101000a900463ffffffff1663ffffffff1663ffffffff1681526020016004820160049054906101000a900463ffffffff1663ffffffff1663ffffffff1681526020016004820160089054906101000a900460ff1615151515815250509050919050565b6060600460003373ffffffffffffffffffffffffffffffffffffffff1673ffffffffffffffffffffffffffffffffffffffff16815260200190815260200160002080548060200260200160405190810160405280929190818152602001828054801561142257602002820191906000526020600020905b81548152602001906001019080831161140e575b5050505050905090565b60008060009054906101000a900473ffffffffffffffffffffffffffffffffffffffff1673ffffffffffffffffffffffffffffffffffffffff166335852541336040518263ffffffff1660e01b8152600401611488919061257a565b600060405180830381865afa1580156114a5573d6000803e3d6000fd5b505050506040513d6000823e3d601f19601f820116820180604052508101906114ce91906127c2565b90506000816000015160028111156114e9576114e861280b565b5b60ff161461152c576040517f08c379a000000000000000000000000000000000000000000000000000000000815260040161152390612886565b60405180910390fd5b6040518061010001604052803373ffffffffffffffffffffffffffffffffffffffff1681526020018a8a8080601f016020809104026020016040519081016040528093929190818152602001838380828437600081840152601f19601f82011690508083019250505050505050815260200188888080601f016020809104026020016040519081016040528093929190818152602001838380828437600081840152601f19601f820116905080830192505050505050508152602001866fffffffffffffffffffffffffffffffff168152602001856fffffffffffffffffffffffffffffffff1681526020018463ffffffff1681526020018363ffffffff1681526020016001151581525060036000600254815260200190815260200160002060008201518160000160006101000a81548173ffffffffffffffffffffffffffffffffffffffff021916908373ffffffffffffffffffffffffffffffffffffffff16021790555060208201518160010190816116a89190612a52565b5060408201518160020190816116be9190612a52565b5060608201518160030160006101000a8154816fffffffffffffffffffffffffffffffff02191690836fffffffffffffffffffffffffffffffff16021790555060808201518160030160106101000a8154816fffffffffffffffffffffffffffffffff02191690836fffffffffffffffffffffffffffffffff16021790555060a08201518160040160006101000a81548163ffffffff021916908363ffffffff16021790555060c08201518160040160046101000a81548163ffffffff021916908363ffffffff16021790555060e08201518160040160086101000a81548160ff021916908315150217905550905050600460003373ffffffffffffffffffffffffffffffffffffffff1673ffffffffffffffffffffffffffffffffffffffff16815260200190815260200160002060025490806001815401808255809150506001900390600052602060002001600090919091909150553373ffffffffffffffffffffffffffffffffffffffff166002547fb544b666bf20d30fc9acbc75aee55e5847e8f95a49aa5d36b6dab734f0cbb3038b8b8b8b8b8b8b8b4260405161186f99989796959493929190612b60565b60405180910390a36002600081548092919061188a906124c6565b9190505550505050505050505050565b60006118a4611397565b90506000805b82518110156118f057848382815181106118c7576118c6612408565b5b6020026020010151036118dd57600191506118f0565b80806118e8906124c6565b9150506118aa565b5080611931576040517f08c379a00000000000000000000000000000000000000000000000000000000081526004016119289061255a565b60405180910390fd5b826003600086815260200190815260200160002060030160008282829054906101000a90046fffffffffffffffffffffffffffffffff166119729190612be1565b92506101000a8154816fffffffffffffffffffffffffffffffff02191690836fffffffffffffffffffffffffffffffff160217905550837f1f3d301eca9b893fb3ae34f526f7b346cfe3086be67884ce1e652593c91668d66003600087815260200190815260200160002060030160009054906101000a90046fffffffffffffffffffffffffffffffff16604051611a0a9190612c25565b60405180910390a250505050565b604051806101000160405280600073ffffffffffffffffffffffffffffffffffffffff168152602001606081526020016060815260200160006fffffffffffffffffffffffffffffffff16815260200160006fffffffffffffffffffffffffffffffff168152602001600063ffffffff168152602001600063ffffffff1681526020016000151581525090565b6000604051905090565b600080fd5b600080fd5b600073ffffffffffffffffffffffffffffffffffffffff82169050919050565b6000611ae482611ab9565b9050919050565b611af481611ad9565b8114611aff57600080fd5b50565b600081359050611b1181611aeb565b92915050565b600060208284031215611b2d57611b2c611aaf565b5b6000611b3b84828501611b02565b91505092915050565b600081519050919050565b600082825260208201905092915050565b6000819050602082019050919050565b6000819050919050565b611b8381611b70565b82525050565b6000611b958383611b7a565b60208301905092915050565b6000602082019050919050565b6000611bb982611b44565b611bc38185611b4f565b9350611bce83611b60565b8060005b83811015611bff578151611be68882611b89565b9750611bf183611ba1565b925050600181019050611bd2565b5085935050505092915050565b60006020820190508181036000830152611c268184611bae565b905092915050565b600081519050919050565b600082825260208201905092915050565b6000819050602082019050919050565b611c6381611ad9565b82525050565b600081519050919050565b600082825260208201905092915050565b60005b83811015611ca3578082015181840152602081019050611c88565b60008484015250505050565b6000601f19601f8301169050919050565b6000611ccb82611c69565b611cd58185611c74565b9350611ce5818560208601611c85565b611cee81611caf565b840191505092915050565b60006fffffffffffffffffffffffffffffffff82169050919050565b611d1e81611cf9565b82525050565b600063ffffffff82169050919050565b611d3d81611d24565b82525050565b60008115159050919050565b611d5881611d43565b82525050565b600061010083016000830151611d776000860182611c5a565b5060208301518482036020860152611d8f8282611cc0565b91505060408301518482036040860152611da98282611cc0565b9150506060830151611dbe6060860182611d15565b506080830151611dd16080860182611d15565b5060a0830151611de460a0860182611d34565b5060c0830151611df760c0860182611d34565b5060e0830151611e0a60e0860182611d4f565b508091505092915050565b6000611e218383611d5e565b905092915050565b6000602082019050919050565b6000611e4182611c2e565b611e4b8185611c39565b935083602082028501611e5d85611c4a565b8060005b85811015611e995784840389528151611e7a8582611e15565b9450611e8583611e29565b925060208a01995050600181019050611e61565b50829750879550505050505092915050565b60006040820190508181036000830152611ec58185611e36565b90508181036020830152611ed98184611bae565b90509392505050565b611eeb81611b70565b8114611ef657600080fd5b50565b600081359050611f0881611ee2565b92915050565b60008060408385031215611f2557611f24611aaf565b5b6000611f3385828601611b02565b9250506020611f4485828601611ef9565b9150509250929050565b611f5781611b70565b82525050565b6000602082019050611f726000830184611f4e565b92915050565b600060208284031215611f8e57611f8d611aaf565b5b6000611f9c84828501611ef9565b91505092915050565b611fae81611ad9565b82525050565b600082825260208201905092915050565b6000611fd082611c69565b611fda8185611fb4565b9350611fea818560208601611c85565b611ff381611caf565b840191505092915050565b61200781611cf9565b82525050565b61201681611d24565b82525050565b61202581611d43565b82525050565b600061010082019050612041600083018b611fa5565b8181036020830152612053818a611fc5565b905081810360408301526120678189611fc5565b90506120766060830188611ffe565b6120836080830187611ffe565b61209060a083018661200d565b61209d60c083018561200d565b6120aa60e083018461201c565b9998505050505050505050565b6000610100830160008301516120d06000860182611c5a565b50602083015184820360208601526120e88282611cc0565b915050604083015184820360408601526121028282611cc0565b91505060608301516121176060860182611d15565b50608083015161212a6080860182611d15565b5060a083015161213d60a0860182611d34565b5060c083015161215060c0860182611d34565b5060e083015161216360e0860182611d4f565b508091505092915050565b6000602082019050818103600083015261218881846120b7565b905092915050565b600080fd5b600080fd5b600080fd5b60008083601f8401126121b5576121b4612190565b5b8235905067ffffffffffffffff8111156121d2576121d1612195565b5b6020830191508360018202830111156121ee576121ed61219a565b5b9250929050565b6121fe81611cf9565b811461220957600080fd5b50565b60008135905061221b816121f5565b92915050565b61222a81611d24565b811461223557600080fd5b50565b60008135905061224781612221565b92915050565b60008060008060008060008060c0898b03121561226d5761226c611aaf565b5b600089013567ffffffffffffffff81111561228b5761228a611ab4565b5b6122978b828c0161219f565b9850985050602089013567ffffffffffffffff8111156122ba576122b9611ab4565b5b6122c68b828c0161219f565b965096505060406122d98b828c0161220c565b94505060606122ea8b828c0161220c565b93505060806122fb8b828c01612238565b92505060a061230c8b828c01612238565b9150509295985092959890939650565b6000806040838503121561233357612332611aaf565b5b600061234185828601611ef9565b92505060206123528582860161220c565b9150509250929050565b600082825260208201905092915050565b7f4e6f74206f776e65720000000000000000000000000000000000000000000000600082015250565b60006123a360098361235c565b91506123ae8261236d565b602082019050919050565b600060208201905081810360008301526123d281612396565b9050919050565b7f4e487b7100000000000000000000000000000000000000000000000000000000600052604160045260246000fd5b7f4e487b7100000000000000000000000000000000000000000000000000000000600052603260045260246000fd5b7f4e487b7100000000000000000000000000000000000000000000000000000000600052602260045260246000fd5b6000600282049050600182168061247e57607f821691505b60208210810361249157612490612437565b5b50919050565b7f4e487b7100000000000000000000000000000000000000000000000000000000600052601160045260246000fd5b60006124d182611b70565b91507fffffffffffffffffffffffffffffffffffffffffffffffffffffffffffffffff820361250357612502612497565b5b600182019050919050565b7f50726f64756374206e6f74206f776e656420627920796f750000000000000000600082015250565b600061254460188361235c565b915061254f8261250e565b602082019050919050565b6000602082019050818103600083015261257381612537565b9050919050565b600060208201905061258f6000830184611fa5565b92915050565b600080fd5b6125a382611caf565b810181811067ffffffffffffffff821117156125c2576125c16123d9565b5b80604052505050565b60006125d5611aa5565b90506125e1828261259a565b919050565b600080fd5b600381106125f857600080fd5b50565b60008151905061260a816125eb565b92915050565b600080fd5b600067ffffffffffffffff8211156126305761262f6123d9565b5b61263982611caf565b9050602081019050919050565b600061265961265484612615565b6125cb565b90508281526020810184848401111561267557612674612610565b5b612680848285611c85565b509392505050565b600082601f83011261269d5761269c612190565b5b81516126ad848260208601612646565b91505092915050565b6126bf81611d43565b81146126ca57600080fd5b50565b6000815190506126dc816126b6565b92915050565b600060a082840312156126f8576126f7612595565b5b61270260a06125cb565b90506000612712848285016125fb565b600083015250602082015167ffffffffffffffff811115612736576127356125e6565b5b61274284828501612688565b602083015250604082015167ffffffffffffffff811115612766576127656125e6565b5b61277284828501612688565b604083015250606082015167ffffffffffffffff811115612796576127956125e6565b5b6127a284828501612688565b60608301525060806127b6848285016126cd565b60808301525092915050565b6000602082840312156127d8576127d7611aaf565b5b600082015167ffffffffffffffff8111156127f6576127f5611ab4565b5b612802848285016126e2565b91505092915050565b7f4e487b7100000000000000000000000000000000000000000000000000000000600052602160045260246000fd5b7f4f6e6c7920537570706c6965722063616e206164642070726f64756374730000600082015250565b6000612870601e8361235c565b915061287b8261283a565b602082019050919050565b6000602082019050818103600083015261289f81612863565b9050919050565b60008190508160005260206000209050919050565b60006020601f8301049050919050565b600082821b905092915050565b6000600883026129087fffffffffffffffffffffffffffffffffffffffffffffffffffffffffffffffff826128cb565b61291286836128cb565b95508019841693508086168417925050509392505050565b6000819050919050565b600061294f61294a61294584611b70565b61292a565b611b70565b9050919050565b6000819050919050565b61296983612934565b61297d61297582612956565b8484546128d8565b825550505050565b600090565b612992612985565b61299d818484612960565b505050565b5b818110156129c1576129b660008261298a565b6001810190506129a3565b5050565b601f821115612a06576129d7816128a6565b6129e0846128bb565b810160208510156129ef578190505b612a036129fb856128bb565b8301826129a2565b50505b505050565b600082821c905092915050565b6000612a2960001984600802612a0b565b1980831691505092915050565b6000612a428383612a18565b9150826002028217905092915050565b612a5b82611c69565b67ffffffffffffffff811115612a7457612a736123d9565b5b612a7e8254612466565b612a898282856129c5565b600060209050601f831160018114612abc5760008415612aaa578287015190505b612ab48582612a36565b865550612b1c565b601f198416612aca866128a6565b60005b82811015612af257848901518255600182019150602085019450602081019050612acd565b86831015612b0f5784890151612b0b601f891682612a18565b8355505b6001600288020188555050505b505050505050565b82818337600083830152505050565b6000612b3f8385611fb4565b9350612b4c838584612b24565b612b5583611caf565b840190509392505050565b600060e0820190508181036000830152612b7b818b8d612b33565b90508181036020830152612b9081898b612b33565b9050612b9f6040830188611ffe565b612bac6060830187611ffe565b612bb9608083018661200d565b612bc660a083018561200d565b612bd360c0830184611f4e565b9a9950505050505050505050565b6000612bec82611cf9565b9150612bf783611cf9565b925082820390506fffffffffffffffffffffffffffffffff811115612c1f57612c1e612497565b5b92915050565b6000602082019050612c3a6000830184611ffe565b9291505056fea264697066735822122071d47fc22fa2cc5a6227db43ac9818a7e4b9e8a95470a0df8e47f8931b75daae64736f6c63430008120033",
  "linkReferences": {},
  "deployedLinkReferences": {}
}