{
  "_format": "hh-sol-artifact-1",
  "contractName": "supplierProduct",
  "sourceName": "contracts/supplierProduct.sol",
  "abi": [
    {
      "inputs": [
        {
          "internalType": "address",
          "name": "_udAddress",
          "type": "address"
        }
      ],
      "stateMutability": "nonpayable",
      "type": "constructor"
    },
    {
      "anonymous": false,
      "inputs": [
        {
          "indexed": true,
          "internalType": "uint256",
          "name": "_spid",
          "type": "uint256"
        },
        {
          "indexed": true,
          "internalType": "address",
          "name": "_address",
          "type": "address"
        },
        {
          "indexed": false,
          "internalType": "bytes",
          "name": "_name",
          "type": "bytes"
        },
        {
          "indexed": false,
          "internalType": "bytes",
          "name": "_description",
          "type": "bytes"
        },
        {
          "indexed": false,
          "internalType": "uint128",
          "name": "_unit",
          "type": "uint128"
        },
        {
          "indexed": false,
          "internalType": "uint128",
          "name": "_price",
          "type": "uint128"
        },
        {
          "indexed": false,
          "internalType": "uint32",
          "name": "_date",
          "type": "uint32"
        },
        {
          "indexed": false,
          "internalType": "uint32",
          "name": "_expiryDate",
          "type": "uint32"
        },
        {
          "indexed": false,
          "internalType": "uint256",
          "name": "_timeAdded",
          "type": "uint256"
        }
      ],
      "name": "eventAddSupplierProduct",
      "type": "event"
    },
    {
      "anonymous": false,
      "inputs": [
        {
          "indexed": true,
          "internalType": "uint256",
          "name": "_spId",
          "type": "uint256"
        }
      ],
      "name": "eventDeleteSupplierProduct",
      "type": "event"
    },
    {
      "anonymous": false,
      "inputs": [
        {
          "indexed": true,
          "internalType": "uint256",
          "name": "_spId",
          "type": "uint256"
        },
        {
          "indexed": false,
          "internalType": "uint128",
          "name": "_quantity",
          "type": "uint128"
        }
      ],
      "name": "eventUpdateSupplierProductUints",
      "type": "event"
    },
    {
      "inputs": [
        {
          "internalType": "bytes",
          "name": "_name",
          "type": "bytes"
        },
        {
          "internalType": "bytes",
          "name": "_description",
          "type": "bytes"
        },
        {
          "internalType": "uint128",
          "name": "_unit",
          "type": "uint128"
        },
        {
          "internalType": "uint128",
          "name": "_price",
          "type": "uint128"
        },
        {
          "internalType": "uint32",
          "name": "_date",
          "type": "uint32"
        },
        {
          "internalType": "uint32",
          "name": "_expiryDate",
          "type": "uint32"
        }
      ],
      "name": "addSupplierProduct",
      "outputs": [],
      "stateMutability": "nonpayable",
      "type": "function"
    },
    {
      "inputs": [
        {
          "internalType": "address",
          "name": "_ownerAddress",
          "type": "address"
        }
      ],
      "name": "changeOwner",
      "outputs": [],
      "stateMutability": "nonpayable",
      "type": "function"
    },
    {
      "inputs": [
        {
          "internalType": "address",
          "name": "_udAddress",
          "type": "address"
        }
      ],
      "name": "changeUdAddress",
      "outputs": [],
      "stateMutability": "nonpayable",
      "type": "function"
    },
    {
      "inputs": [
        {
          "internalType": "uint256",
          "name": "_spId",
          "type": "uint256"
        }
      ],
      "name": "deleteSupplierProduct",
      "outputs": [],
      "stateMutability": "nonpayable",
      "type": "function"
    },
    {
      "inputs": [
        {
          "internalType": "address",
          "name": "_supplierAddress",
          "type": "address"
        }
      ],
      "name": "getAllActiveProductsOfSupplier",
      "outputs": [
        {
          "components": [
            {
              "internalType": "address",
              "name": "supplierAddress",
              "type": "address"
            },
            {
              "internalType": "bytes",
              "name": "sp_name",
              "type": "bytes"
            },
            {
              "internalType": "bytes",
              "name": "sp_description",
              "type": "bytes"
            },
            {
              "internalType": "uint128",
              "name": "sp_unit",
              "type": "uint128"
            },
            {
              "internalType": "uint128",
              "name": "sp_price",
              "type": "uint128"
            },
            {
              "internalType": "uint32",
              "name": "sp_date",
              "type": "uint32"
            },
            {
              "internalType": "uint32",
              "name": "sp_expiryDate",
              "type": "uint32"
            },
            {
              "internalType": "bool",
              "name": "sp_status",
              "type": "bool"
            }
          ],
          "internalType": "struct ISupplierProduct.supplierProduct[]",
          "name": "",
          "type": "tuple[]"
        },
        {
          "internalType": "uint256[]",
          "name": "",
          "type": "uint256[]"
        }
      ],
      "stateMutability": "view",
      "type": "function"
    },
    {
      "inputs": [
        {
          "internalType": "address",
          "name": "_supplierAddress",
          "type": "address"
        }
      ],
      "name": "getAllProductsOfSupplier",
      "outputs": [
        {
          "components": [
            {
              "internalType": "address",
              "name": "supplierAddress",
              "type": "address"
            },
            {
              "internalType": "bytes",
              "name": "sp_name",
              "type": "bytes"
            },
            {
              "internalType": "bytes",
              "name": "sp_description",
              "type": "bytes"
            },
            {
              "internalType": "uint128",
              "name": "sp_unit",
              "type": "uint128"
            },
            {
              "internalType": "uint128",
              "name": "sp_price",
              "type": "uint128"
            },
            {
              "internalType": "uint32",
              "name": "sp_date",
              "type": "uint32"
            },
            {
              "internalType": "uint32",
              "name": "sp_expiryDate",
              "type": "uint32"
            },
            {
              "internalType": "bool",
              "name": "sp_status",
              "type": "bool"
            }
          ],
          "internalType": "struct ISupplierProduct.supplierProduct[]",
          "name": "",
          "type": "tuple[]"
        },
        {
          "internalType": "uint256[]",
          "name": "_productIds",
          "type": "uint256[]"
        }
      ],
      "stateMutability": "view",
      "type": "function"
    },
    {
      "inputs": [
        {
          "internalType": "uint256",
          "name": "_spId",
          "type": "uint256"
        }
      ],
      "name": "getSingleSupplierProduct",
      "outputs": [
        {
          "components": [
            {
              "internalType": "address",
              "name": "supplierAddress",
              "type": "address"
            },
            {
              "internalType": "bytes",
              "name": "sp_name",
              "type": "bytes"
            },
            {
              "internalType": "bytes",
              "name": "sp_description",
              "type": "bytes"
            },
            {
              "internalType": "uint128",
              "name": "sp_unit",
              "type": "uint128"
            },
            {
              "internalType": "uint128",
              "name": "sp_price",
              "type": "uint128"
            },
            {
              "internalType": "uint32",
              "name": "sp_date",
              "type": "uint32"
            },
            {
              "internalType": "uint32",
              "name": "sp_expiryDate",
              "type": "uint32"
            },
            {
              "internalType": "bool",
              "name": "sp_status",
              "type": "bool"
            }
          ],
          "internalType": "struct ISupplierProduct.supplierProduct",
          "name": "",
          "type": "tuple"
        }
      ],
      "stateMutability": "view",
      "type": "function"
    },
    {
      "inputs": [
        {
          "internalType": "address",
          "name": "_address",
          "type": "address"
        }
      ],
      "name": "getSpIdsByAddress",
      "outputs": [
        {
          "internalType": "uint256[]",
          "name": "",
          "type": "uint256[]"
        }
      ],
      "stateMutability": "view",
      "type": "function"
    },
    {
      "inputs": [],
      "name": "getSupplierProductIds",
      "outputs": [
        {
          "internalType": "uint256[]",
          "name": "",
          "type": "uint256[]"
        }
      ],
      "stateMutability": "view",
      "type": "function"
    },
    {
      "inputs": [
        {
          "internalType": "address",
          "name": "",
          "type": "address"
        },
        {
          "internalType": "uint256",
          "name": "",
          "type": "uint256"
        }
      ],
      "name": "supplierAddressToproductsIdMapping",
      "outputs": [
        {
          "internalType": "uint256",
          "name": "",
          "type": "uint256"
        }
      ],
      "stateMutability": "view",
      "type": "function"
    },
    {
      "inputs": [
        {
          "internalType": "uint256",
          "name": "",
          "type": "uint256"
        }
      ],
      "name": "supplierProductsIdToStructMapping",
      "outputs": [
        {
          "internalType": "address",
          "name": "supplierAddress",
          "type": "address"
        },
        {
          "internalType": "bytes",
          "name": "sp_name",
          "type": "bytes"
        },
        {
          "internalType": "bytes",
          "name": "sp_description",
          "type": "bytes"
        },
        {
          "internalType": "uint128",
          "name": "sp_unit",
          "type": "uint128"
        },
        {
          "internalType": "uint128",
          "name": "sp_price",
          "type": "uint128"
        },
        {
          "internalType": "uint32",
          "name": "sp_date",
          "type": "uint32"
        },
        {
          "internalType": "uint32",
          "name": "sp_expiryDate",
          "type": "uint32"
        },
        {
          "internalType": "bool",
          "name": "sp_status",
          "type": "bool"
        }
      ],
      "stateMutability": "view",
      "type": "function"
    },
    {
      "inputs": [
        {
          "internalType": "uint256",
          "name": "_spId",
          "type": "uint256"
        },
        {
          "internalType": "uint128",
          "name": "_quantity",
          "type": "uint128"
        },
        {
          "internalType": "address",
          "name": "_supplierAddress",
          "type": "address"
        }
      ],
      "name": "updateSupplierProductUints",
      "outputs": [],
      "stateMutability": "nonpayable",
      "type": "function"
    }
  ],
  "bytecode": "0x608060405260016002553480156200001657600080fd5b5060405162002dfb38038062002dfb83398181016040528101906200003c91906200012e565b33600160006101000a81548173ffffffffffffffffffffffffffffffffffffffff021916908373ffffffffffffffffffffffffffffffffffffffff160217905550806000806101000a81548173ffffffffffffffffffffffffffffffffffffffff021916908373ffffffffffffffffffffffffffffffffffffffff1602179055505062000160565b600080fd5b600073ffffffffffffffffffffffffffffffffffffffff82169050919050565b6000620000f682620000c9565b9050919050565b6200010881620000e9565b81146200011457600080fd5b50565b6000815190506200012881620000fd565b92915050565b600060208284031215620001475762000146620000c4565b5b6000620001578482850162000117565b91505092915050565b612c8b80620001706000396000f3fe608060405234801561001057600080fd5b50600436106100b45760003560e01c806383f958531161007157806383f95853146101b9578063a6f9dae1146101ea578063c22ef68e14610206578063dc1c796314610236578063e10f28c714610252578063ee7e7c9914610270576100b4565b80630f65ae38146100b957806311517205146100d55780632777259b1461010557806342af31d7146101365780636c87b8261461016657806379ae02571461019d575b600080fd5b6100d360048036038101906100ce9190611b19565b61028c565b005b6100ef60048036038101906100ea9190611b19565b61035f565b6040516100fc9190611c0e565b60405180910390f35b61011f600480360381019061011a9190611b19565b6103f6565b60405161012d929190611ead565b60405180910390f35b610150600480360381019061014b9190611f10565b610933565b60405161015d9190611f5f565b60405180910390f35b610180600480360381019061017b9190611f7a565b610964565b60405161019498979695949392919061202d565b60405180910390f35b6101b760048036038101906101b29190611f7a565b610b41565b005b6101d360048036038101906101ce9190611b19565b610c39565b6040516101e1929190611ead565b60405180910390f35b61020460048036038101906101ff9190611b19565b611020565b005b610220600480360381019061021b9190611f7a565b6110f4565b60405161022d9190612170565b60405180910390f35b610250600480360381019061024b91906121be565b611397565b005b61025a611517565b6040516102679190611c0e565b60405180910390f35b61028a600480360381019061028591906122a2565b6115ac565b005b600160009054906101000a900473ffffffffffffffffffffffffffffffffffffffff1673ffffffffffffffffffffffffffffffffffffffff163373ffffffffffffffffffffffffffffffffffffffff161461031c576040517f08c379a0000000000000000000000000000000000000000000000000000000008152600401610313906123ce565b60405180910390fd5b806000806101000a81548173ffffffffffffffffffffffffffffffffffffffff021916908373ffffffffffffffffffffffffffffffffffffffff16021790555050565b6060600460008373ffffffffffffffffffffffffffffffffffffffff1673ffffffffffffffffffffffffffffffffffffffff1681526020019081526020016000208054806020026020016040519081016040528092919081815260200182805480156103ea57602002820191906000526020600020905b8154815260200190600101908083116103d6575b50505050509050919050565b6060806000600460008573ffffffffffffffffffffffffffffffffffffffff1673ffffffffffffffffffffffffffffffffffffffff16815260200190815260200160002080548060200260200160405190810160405280929190818152602001828054801561048457602002820191906000526020600020905b815481526020019060010190808311610470575b505050505090506000815167ffffffffffffffff8111156104a8576104a76123ee565b5b6040519080825280602002602001820160405280156104d65781602001602082028036833780820191505090505b5090506000825167ffffffffffffffff8111156104f6576104f56123ee565b5b60405190808252806020026020018201604052801561052f57816020015b61051c611a1a565b8152602001906001900390816105145790505b5090506000805b845181101561087c5760008582815181106105545761055361241d565b5b602002602001015190506003600082815260200190815260200160002060040160089054906101000a900460ff16156108685760036000828152602001908152602001600020604051806101000160405290816000820160009054906101000a900473ffffffffffffffffffffffffffffffffffffffff1673ffffffffffffffffffffffffffffffffffffffff1673ffffffffffffffffffffffffffffffffffffffff16815260200160018201805461060c9061247b565b80601f01602080910402602001604051908101604052809291908181526020018280546106389061247b565b80156106855780601f1061065a57610100808354040283529160200191610685565b820191906000526020600020905b81548152906001019060200180831161066857829003601f168201915b5050505050815260200160028201805461069e9061247b565b80601f01602080910402602001604051908101604052809291908181526020018280546106ca9061247b565b80156107175780601f106106ec57610100808354040283529160200191610717565b820191906000526020600020905b8154815290600101906020018083116106fa57829003601f168201915b505050505081526020016003820160009054906101000a90046fffffffffffffffffffffffffffffffff166fffffffffffffffffffffffffffffffff166fffffffffffffffffffffffffffffffff1681526020016003820160109054906101000a90046fffffffffffffffffffffffffffffffff166fffffffffffffffffffffffffffffffff166fffffffffffffffffffffffffffffffff1681526020016004820160009054906101000a900463ffffffff1663ffffffff1663ffffffff1681526020016004820160049054906101000a900463ffffffff1663ffffffff1663ffffffff1681526020016004820160089054906101000a900460ff16151515158152505084848151811061082e5761082d61241d565b5b60200260200101819052508085848151811061084d5761084c61241d565b5b6020026020010181815250508280610864906124db565b9350505b508080610874906124db565b915050610536565b5060008167ffffffffffffffff811115610899576108986123ee565b5b6040519080825280602002602001820160405280156108c75781602001602082028036833780820191505090505b50905060005b82811015610922578481815181106108e8576108e761241d565b5b60200260200101518282815181106109035761090261241d565b5b602002602001018181525050808061091a906124db565b9150506108cd565b508281965096505050505050915091565b6004602052816000526040600020818154811061094f57600080fd5b90600052602060002001600091509150505481565b60036020528060005260406000206000915090508060000160009054906101000a900473ffffffffffffffffffffffffffffffffffffffff16908060010180546109ad9061247b565b80601f01602080910402602001604051908101604052809291908181526020018280546109d99061247b565b8015610a265780601f106109fb57610100808354040283529160200191610a26565b820191906000526020600020905b815481529060010190602001808311610a0957829003601f168201915b505050505090806002018054610a3b9061247b565b80601f0160208091040260200160405190810160405280929190818152602001828054610a679061247b565b8015610ab45780601f10610a8957610100808354040283529160200191610ab4565b820191906000526020600020905b815481529060010190602001808311610a9757829003601f168201915b5050505050908060030160009054906101000a90046fffffffffffffffffffffffffffffffff16908060030160109054906101000a90046fffffffffffffffffffffffffffffffff16908060040160009054906101000a900463ffffffff16908060040160049054906101000a900463ffffffff16908060040160089054906101000a900460ff16905088565b6000610b4b611517565b90506000805b8251811015610b975783838281518110610b6e57610b6d61241d565b5b602002602001015103610b845760019150610b97565b8080610b8f906124db565b915050610b51565b5080610bd8576040517f08c379a0000000000000000000000000000000000000000000000000000000008152600401610bcf9061256f565b60405180910390fd5b60006003600085815260200190815260200160002060040160086101000a81548160ff021916908315150217905550827f6c1a4e746947a5049a6693a4875a10617826c8361c631cac61717e141185fdd260405160405180910390a2505050565b6060806000600460008573ffffffffffffffffffffffffffffffffffffffff1673ffffffffffffffffffffffffffffffffffffffff168152602001908152602001600020805480602002602001604051908101604052809291908181526020018280548015610cc757602002820191906000526020600020905b815481526020019060010190808311610cb3575b505050505090506000815167ffffffffffffffff811115610ceb57610cea6123ee565b5b604051908082528060200260200182016040528015610d2457816020015b610d11611a1a565b815260200190600190039081610d095790505b50905060005b82518110156110125760036000848381518110610d4a57610d4961241d565b5b60200260200101518152602001908152602001600020604051806101000160405290816000820160009054906101000a900473ffffffffffffffffffffffffffffffffffffffff1673ffffffffffffffffffffffffffffffffffffffff1673ffffffffffffffffffffffffffffffffffffffff168152602001600182018054610dd29061247b565b80601f0160208091040260200160405190810160405280929190818152602001828054610dfe9061247b565b8015610e4b5780601f10610e2057610100808354040283529160200191610e4b565b820191906000526020600020905b815481529060010190602001808311610e2e57829003601f168201915b50505050508152602001600282018054610e649061247b565b80601f0160208091040260200160405190810160405280929190818152602001828054610e909061247b565b8015610edd5780601f10610eb257610100808354040283529160200191610edd565b820191906000526020600020905b815481529060010190602001808311610ec057829003601f168201915b505050505081526020016003820160009054906101000a90046fffffffffffffffffffffffffffffffff166fffffffffffffffffffffffffffffffff166fffffffffffffffffffffffffffffffff1681526020016003820160109054906101000a90046fffffffffffffffffffffffffffffffff166fffffffffffffffffffffffffffffffff166fffffffffffffffffffffffffffffffff1681526020016004820160009054906101000a900463ffffffff1663ffffffff1663ffffffff1681526020016004820160049054906101000a900463ffffffff1663ffffffff1663ffffffff1681526020016004820160089054906101000a900460ff161515151581525050828281518110610ff457610ff361241d565b5b6020026020010181905250808061100a906124db565b915050610d2a565b508082935093505050915091565b600160009054906101000a900473ffffffffffffffffffffffffffffffffffffffff1673ffffffffffffffffffffffffffffffffffffffff163373ffffffffffffffffffffffffffffffffffffffff16146110b0576040517f08c379a00000000000000000000000000000000000000000000000000000000081526004016110a7906123ce565b60405180910390fd5b80600160006101000a81548173ffffffffffffffffffffffffffffffffffffffff021916908373ffffffffffffffffffffffffffffffffffffffff16021790555050565b6110fc611a1a565b60036000838152602001908152602001600020604051806101000160405290816000820160009054906101000a900473ffffffffffffffffffffffffffffffffffffffff1673ffffffffffffffffffffffffffffffffffffffff1673ffffffffffffffffffffffffffffffffffffffff1681526020016001820180546111819061247b565b80601f01602080910402602001604051908101604052809291908181526020018280546111ad9061247b565b80156111fa5780601f106111cf576101008083540402835291602001916111fa565b820191906000526020600020905b8154815290600101906020018083116111dd57829003601f168201915b505050505081526020016002820180546112139061247b565b80601f016020809104026020016040519081016040528092919081815260200182805461123f9061247b565b801561128c5780601f106112615761010080835404028352916020019161128c565b820191906000526020600020905b81548152906001019060200180831161126f57829003601f168201915b505050505081526020016003820160009054906101000a90046fffffffffffffffffffffffffffffffff166fffffffffffffffffffffffffffffffff166fffffffffffffffffffffffffffffffff1681526020016003820160109054906101000a90046fffffffffffffffffffffffffffffffff166fffffffffffffffffffffffffffffffff166fffffffffffffffffffffffffffffffff1681526020016004820160009054906101000a900463ffffffff1663ffffffff1663ffffffff1681526020016004820160049054906101000a900463ffffffff1663ffffffff1663ffffffff1681526020016004820160089054906101000a900460ff1615151515815250509050919050565b60006113a28261035f565b90506000805b82518110156113ee57858382815181106113c5576113c461241d565b5b6020026020010151036113db57600191506113ee565b80806113e6906124db565b9150506113a8565b508061142f576040517f08c379a00000000000000000000000000000000000000000000000000000000081526004016114269061256f565b60405180910390fd5b836003600087815260200190815260200160002060030160008282829054906101000a90046fffffffffffffffffffffffffffffffff16611470919061258f565b92506101000a8154816fffffffffffffffffffffffffffffffff02191690836fffffffffffffffffffffffffffffffff160217905550847f1f3d301eca9b893fb3ae34f526f7b346cfe3086be67884ce1e652593c91668d66003600088815260200190815260200160002060030160009054906101000a90046fffffffffffffffffffffffffffffffff1660405161150891906125d3565b60405180910390a25050505050565b6060600460003373ffffffffffffffffffffffffffffffffffffffff1673ffffffffffffffffffffffffffffffffffffffff1681526020019081526020016000208054806020026020016040519081016040528092919081815260200182805480156115a257602002820191906000526020600020905b81548152602001906001019080831161158e575b5050505050905090565b60008060009054906101000a900473ffffffffffffffffffffffffffffffffffffffff1673ffffffffffffffffffffffffffffffffffffffff166335852541336040518263ffffffff1660e01b815260040161160891906125ee565b600060405180830381865afa158015611625573d6000803e3d6000fd5b505050506040513d6000823e3d601f19601f8201168201806040525081019061164e9190612836565b90506000816000015160028111156116695761166861287f565b5b60ff16146116ac576040517f08c379a00000000000000000000000000000000000000000000000000000000081526004016116a3906128fa565b60405180910390fd5b6040518061010001604052803373ffffffffffffffffffffffffffffffffffffffff1681526020018a8a8080601f016020809104026020016040519081016040528093929190818152602001838380828437600081840152601f19601f82011690508083019250505050505050815260200188888080601f016020809104026020016040519081016040528093929190818152602001838380828437600081840152601f19601f820116905080830192505050505050508152602001866fffffffffffffffffffffffffffffffff168152602001856fffffffffffffffffffffffffffffffff1681526020018463ffffffff1681526020018363ffffffff1681526020016001151581525060036000600254815260200190815260200160002060008201518160000160006101000a81548173ffffffffffffffffffffffffffffffffffffffff021916908373ffffffffffffffffffffffffffffffffffffffff16021790555060208201518160010190816118289190612ac6565b50604082015181600201908161183e9190612ac6565b5060608201518160030160006101000a8154816fffffffffffffffffffffffffffffffff02191690836fffffffffffffffffffffffffffffffff16021790555060808201518160030160106101000a8154816fffffffffffffffffffffffffffffffff02191690836fffffffffffffffffffffffffffffffff16021790555060a08201518160040160006101000a81548163ffffffff021916908363ffffffff16021790555060c08201518160040160046101000a81548163ffffffff021916908363ffffffff16021790555060e08201518160040160086101000a81548160ff021916908315150217905550905050600460003373ffffffffffffffffffffffffffffffffffffffff1673ffffffffffffffffffffffffffffffffffffffff16815260200190815260200160002060025490806001815401808255809150506001900390600052602060002001600090919091909150553373ffffffffffffffffffffffffffffffffffffffff166002547fb544b666bf20d30fc9acbc75aee55e5847e8f95a49aa5d36b6dab734f0cbb3038b8b8b8b8b8b8b8b426040516119ef99989796959493929190612bd4565b60405180910390a360026000815480929190611a0a906124db565b9190505550505050505050505050565b604051806101000160405280600073ffffffffffffffffffffffffffffffffffffffff168152602001606081526020016060815260200160006fffffffffffffffffffffffffffffffff16815260200160006fffffffffffffffffffffffffffffffff168152602001600063ffffffff168152602001600063ffffffff1681526020016000151581525090565b6000604051905090565b600080fd5b600080fd5b600073ffffffffffffffffffffffffffffffffffffffff82169050919050565b6000611ae682611abb565b9050919050565b611af681611adb565b8114611b0157600080fd5b50565b600081359050611b1381611aed565b92915050565b600060208284031215611b2f57611b2e611ab1565b5b6000611b3d84828501611b04565b91505092915050565b600081519050919050565b600082825260208201905092915050565b6000819050602082019050919050565b6000819050919050565b611b8581611b72565b82525050565b6000611b978383611b7c565b60208301905092915050565b6000602082019050919050565b6000611bbb82611b46565b611bc58185611b51565b9350611bd083611b62565b8060005b83811015611c01578151611be88882611b8b565b9750611bf383611ba3565b925050600181019050611bd4565b5085935050505092915050565b60006020820190508181036000830152611c288184611bb0565b905092915050565b600081519050919050565b600082825260208201905092915050565b6000819050602082019050919050565b611c6581611adb565b82525050565b600081519050919050565b600082825260208201905092915050565b60005b83811015611ca5578082015181840152602081019050611c8a565b60008484015250505050565b6000601f19601f8301169050919050565b6000611ccd82611c6b565b611cd78185611c76565b9350611ce7818560208601611c87565b611cf081611cb1565b840191505092915050565b60006fffffffffffffffffffffffffffffffff82169050919050565b611d2081611cfb565b82525050565b600063ffffffff82169050919050565b611d3f81611d26565b82525050565b60008115159050919050565b611d5a81611d45565b82525050565b600061010083016000830151611d796000860182611c5c565b5060208301518482036020860152611d918282611cc2565b91505060408301518482036040860152611dab8282611cc2565b9150506060830151611dc06060860182611d17565b506080830151611dd36080860182611d17565b5060a0830151611de660a0860182611d36565b5060c0830151611df960c0860182611d36565b5060e0830151611e0c60e0860182611d51565b508091505092915050565b6000611e238383611d60565b905092915050565b6000602082019050919050565b6000611e4382611c30565b611e4d8185611c3b565b935083602082028501611e5f85611c4c565b8060005b85811015611e9b5784840389528151611e7c8582611e17565b9450611e8783611e2b565b925060208a01995050600181019050611e63565b50829750879550505050505092915050565b60006040820190508181036000830152611ec78185611e38565b90508181036020830152611edb8184611bb0565b90509392505050565b611eed81611b72565b8114611ef857600080fd5b50565b600081359050611f0a81611ee4565b92915050565b60008060408385031215611f2757611f26611ab1565b5b6000611f3585828601611b04565b9250506020611f4685828601611efb565b9150509250929050565b611f5981611b72565b82525050565b6000602082019050611f746000830184611f50565b92915050565b600060208284031215611f9057611f8f611ab1565b5b6000611f9e84828501611efb565b91505092915050565b611fb081611adb565b82525050565b600082825260208201905092915050565b6000611fd282611c6b565b611fdc8185611fb6565b9350611fec818560208601611c87565b611ff581611cb1565b840191505092915050565b61200981611cfb565b82525050565b61201881611d26565b82525050565b61202781611d45565b82525050565b600061010082019050612043600083018b611fa7565b8181036020830152612055818a611fc7565b905081810360408301526120698189611fc7565b90506120786060830188612000565b6120856080830187612000565b61209260a083018661200f565b61209f60c083018561200f565b6120ac60e083018461201e565b9998505050505050505050565b6000610100830160008301516120d26000860182611c5c565b50602083015184820360208601526120ea8282611cc2565b915050604083015184820360408601526121048282611cc2565b91505060608301516121196060860182611d17565b50608083015161212c6080860182611d17565b5060a083015161213f60a0860182611d36565b5060c083015161215260c0860182611d36565b5060e083015161216560e0860182611d51565b508091505092915050565b6000602082019050818103600083015261218a81846120b9565b905092915050565b61219b81611cfb565b81146121a657600080fd5b50565b6000813590506121b881612192565b92915050565b6000806000606084860312156121d7576121d6611ab1565b5b60006121e586828701611efb565b93505060206121f6868287016121a9565b925050604061220786828701611b04565b9150509250925092565b600080fd5b600080fd5b600080fd5b60008083601f84011261223657612235612211565b5b8235905067ffffffffffffffff81111561225357612252612216565b5b60208301915083600182028301111561226f5761226e61221b565b5b9250929050565b61227f81611d26565b811461228a57600080fd5b50565b60008135905061229c81612276565b92915050565b60008060008060008060008060c0898b0312156122c2576122c1611ab1565b5b600089013567ffffffffffffffff8111156122e0576122df611ab6565b5b6122ec8b828c01612220565b9850985050602089013567ffffffffffffffff81111561230f5761230e611ab6565b5b61231b8b828c01612220565b9650965050604061232e8b828c016121a9565b945050606061233f8b828c016121a9565b93505060806123508b828c0161228d565b92505060a06123618b828c0161228d565b9150509295985092959890939650565b600082825260208201905092915050565b7f4e6f74206f776e65720000000000000000000000000000000000000000000000600082015250565b60006123b8600983612371565b91506123c382612382565b602082019050919050565b600060208201905081810360008301526123e7816123ab565b9050919050565b7f4e487b7100000000000000000000000000000000000000000000000000000000600052604160045260246000fd5b7f4e487b7100000000000000000000000000000000000000000000000000000000600052603260045260246000fd5b7f4e487b7100000000000000000000000000000000000000000000000000000000600052602260045260246000fd5b6000600282049050600182168061249357607f821691505b6020821081036124a6576124a561244c565b5b50919050565b7f4e487b7100000000000000000000000000000000000000000000000000000000600052601160045260246000fd5b60006124e682611b72565b91507fffffffffffffffffffffffffffffffffffffffffffffffffffffffffffffffff8203612518576125176124ac565b5b600182019050919050565b7f50726f64756374206e6f74206f776e656420627920796f750000000000000000600082015250565b6000612559601883612371565b915061256482612523565b602082019050919050565b600060208201905081810360008301526125888161254c565b9050919050565b600061259a82611cfb565b91506125a583611cfb565b925082820390506fffffffffffffffffffffffffffffffff8111156125cd576125cc6124ac565b5b92915050565b60006020820190506125e86000830184612000565b92915050565b60006020820190506126036000830184611fa7565b92915050565b600080fd5b61261782611cb1565b810181811067ffffffffffffffff82111715612636576126356123ee565b5b80604052505050565b6000612649611aa7565b9050612655828261260e565b919050565b600080fd5b6003811061266c57600080fd5b50565b60008151905061267e8161265f565b92915050565b600080fd5b600067ffffffffffffffff8211156126a4576126a36123ee565b5b6126ad82611cb1565b9050602081019050919050565b60006126cd6126c884612689565b61263f565b9050828152602081018484840111156126e9576126e8612684565b5b6126f4848285611c87565b509392505050565b600082601f83011261271157612710612211565b5b81516127218482602086016126ba565b91505092915050565b61273381611d45565b811461273e57600080fd5b50565b6000815190506127508161272a565b92915050565b600060a0828403121561276c5761276b612609565b5b61277660a061263f565b905060006127868482850161266f565b600083015250602082015167ffffffffffffffff8111156127aa576127a961265a565b5b6127b6848285016126fc565b602083015250604082015167ffffffffffffffff8111156127da576127d961265a565b5b6127e6848285016126fc565b604083015250606082015167ffffffffffffffff81111561280a5761280961265a565b5b612816848285016126fc565b606083015250608061282a84828501612741565b60808301525092915050565b60006020828403121561284c5761284b611ab1565b5b600082015167ffffffffffffffff81111561286a57612869611ab6565b5b61287684828501612756565b91505092915050565b7f4e487b7100000000000000000000000000000000000000000000000000000000600052602160045260246000fd5b7f4f6e6c7920537570706c6965722063616e206164642070726f64756374730000600082015250565b60006128e4601e83612371565b91506128ef826128ae565b602082019050919050565b60006020820190508181036000830152612913816128d7565b9050919050565b60008190508160005260206000209050919050565b60006020601f8301049050919050565b600082821b905092915050565b60006008830261297c7fffffffffffffffffffffffffffffffffffffffffffffffffffffffffffffffff8261293f565b612986868361293f565b95508019841693508086168417925050509392505050565b6000819050919050565b60006129c36129be6129b984611b72565b61299e565b611b72565b9050919050565b6000819050919050565b6129dd836129a8565b6129f16129e9826129ca565b84845461294c565b825550505050565b600090565b612a066129f9565b612a118184846129d4565b505050565b5b81811015612a3557612a2a6000826129fe565b600181019050612a17565b5050565b601f821115612a7a57612a4b8161291a565b612a548461292f565b81016020851015612a63578190505b612a77612a6f8561292f565b830182612a16565b50505b505050565b600082821c905092915050565b6000612a9d60001984600802612a7f565b1980831691505092915050565b6000612ab68383612a8c565b9150826002028217905092915050565b612acf82611c6b565b67ffffffffffffffff811115612ae857612ae76123ee565b5b612af2825461247b565b612afd828285612a39565b600060209050601f831160018114612b305760008415612b1e578287015190505b612b288582612aaa565b865550612b90565b601f198416612b3e8661291a565b60005b82811015612b6657848901518255600182019150602085019450602081019050612b41565b86831015612b835784890151612b7f601f891682612a8c565b8355505b6001600288020188555050505b505050505050565b82818337600083830152505050565b6000612bb38385611fb6565b9350612bc0838584612b98565b612bc983611cb1565b840190509392505050565b600060e0820190508181036000830152612bef818b8d612ba7565b90508181036020830152612c0481898b612ba7565b9050612c136040830188612000565b612c206060830187612000565b612c2d608083018661200f565b612c3a60a083018561200f565b612c4760c0830184611f50565b9a995050505050505050505056fea2646970667358221220b5d924eeac05df0bbdaaa97cefea7b6080aed76938a9725ba07a35cdd2d8b05364736f6c63430008120033",
  "linkReferences": {},
  "deployedLinkReferences": {}
}