{
  "_format": "hh-sol-artifact-1",
  "contractName": "supplierManufacturer",
  "sourceName": "contracts/supplierManufacturer.sol",
  "abi": [
    {
      "anonymous": false,
      "inputs": [
        {
          "indexed": false,
          "internalType": "uint32",
          "name": "_arrivalTime",
          "type": "uint32"
        }
      ],
      "name": "eventArrivalTime",
      "type": "event"
    },
    {
      "anonymous": false,
      "inputs": [
        {
          "indexed": true,
          "internalType": "uint256",
          "name": "_smId",
          "type": "uint256"
        },
        {
          "indexed": true,
          "internalType": "uint256",
          "name": "_spId",
          "type": "uint256"
        },
        {
          "indexed": false,
          "internalType": "address",
          "name": "_supplierAddress",
          "type": "address"
        },
        {
          "indexed": false,
          "internalType": "address",
          "name": "_manufacturerAddress",
          "type": "address"
        },
        {
          "indexed": false,
          "internalType": "uint32",
          "name": "_dispatchTime",
          "type": "uint32"
        }
      ],
      "name": "eventSupplierManufacturerTransfer",
      "type": "event"
    },
    {
      "inputs": [
        {
          "internalType": "address",
          "name": "_manufacturerAddress",
          "type": "address"
        }
      ],
      "name": "getAllSmIdForManufacturer",
      "outputs": [
        {
          "components": [
            {
              "internalType": "uint256",
              "name": "spId",
              "type": "uint256"
            },
            {
              "internalType": "address",
              "name": "supplierAddress",
              "type": "address"
            },
            {
              "internalType": "address",
              "name": "manufacturerAddress",
              "type": "address"
            },
            {
              "internalType": "uint32",
              "name": "dispatchTime",
              "type": "uint32"
            },
            {
              "internalType": "uint32",
              "name": "arrivalTime",
              "type": "uint32"
            }
          ],
          "internalType": "struct ISupplierManufacturer.supplierManufacturer[]",
          "name": "",
          "type": "tuple[]"
        }
      ],
      "stateMutability": "view",
      "type": "function"
    },
    {
      "inputs": [
        {
          "internalType": "address",
          "name": "_manufacturerAddress",
          "type": "address"
        }
      ],
      "name": "getManufacturerRequests",
      "outputs": [
        {
          "components": [
            {
              "internalType": "uint256",
              "name": "spId",
              "type": "uint256"
            },
            {
              "internalType": "address",
              "name": "supplierAddress",
              "type": "address"
            },
            {
              "internalType": "address",
              "name": "manufacturerAddress",
              "type": "address"
            },
            {
              "internalType": "uint256",
              "name": "quantity",
              "type": "uint256"
            }
          ],
          "internalType": "struct ISupplierManufacturer.requestDetails[]",
          "name": "",
          "type": "tuple[]"
        }
      ],
      "stateMutability": "view",
      "type": "function"
    },
    {
      "inputs": [
        {
          "internalType": "uint256",
          "name": "_smId",
          "type": "uint256"
        }
      ],
      "name": "getProduct",
      "outputs": [
        {
          "components": [
            {
              "internalType": "uint256",
              "name": "spId",
              "type": "uint256"
            },
            {
              "internalType": "address",
              "name": "supplierAddress",
              "type": "address"
            },
            {
              "internalType": "address",
              "name": "manufacturerAddress",
              "type": "address"
            },
            {
              "internalType": "uint32",
              "name": "dispatchTime",
              "type": "uint32"
            },
            {
              "internalType": "uint32",
              "name": "arrivalTime",
              "type": "uint32"
            }
          ],
          "internalType": "struct ISupplierManufacturer.supplierManufacturer",
          "name": "",
          "type": "tuple"
        }
      ],
      "stateMutability": "view",
      "type": "function"
    },
    {
      "inputs": [
        {
          "internalType": "address",
          "name": "_supplierAddress",
          "type": "address"
        }
      ],
      "name": "getSupplierRequests",
      "outputs": [
        {
          "components": [
            {
              "internalType": "uint256",
              "name": "spId",
              "type": "uint256"
            },
            {
              "internalType": "address",
              "name": "supplierAddress",
              "type": "address"
            },
            {
              "internalType": "address",
              "name": "manufacturerAddress",
              "type": "address"
            },
            {
              "internalType": "uint256",
              "name": "quantity",
              "type": "uint256"
            }
          ],
          "internalType": "struct ISupplierManufacturer.requestDetails[]",
          "name": "",
          "type": "tuple[]"
        }
      ],
      "stateMutability": "view",
      "type": "function"
    },
    {
      "inputs": [
        {
          "internalType": "address",
          "name": "",
          "type": "address"
        },
        {
          "internalType": "uint256",
          "name": "",
          "type": "uint256"
        }
      ],
      "name": "manufacturerToRequestMapping",
      "outputs": [
        {
          "internalType": "uint256",
          "name": "",
          "type": "uint256"
        }
      ],
      "stateMutability": "view",
      "type": "function"
    },
    {
      "inputs": [
        {
          "internalType": "address",
          "name": "",
          "type": "address"
        },
        {
          "internalType": "uint256",
          "name": "",
          "type": "uint256"
        }
      ],
      "name": "manufacturerTosmIdMapping",
      "outputs": [
        {
          "internalType": "uint256",
          "name": "",
          "type": "uint256"
        }
      ],
      "stateMutability": "view",
      "type": "function"
    },
    {
      "inputs": [
        {
          "internalType": "uint256",
          "name": "_smId",
          "type": "uint256"
        }
      ],
      "name": "receiveProduct",
      "outputs": [],
      "stateMutability": "nonpayable",
      "type": "function"
    },
    {
      "inputs": [],
      "name": "reqId",
      "outputs": [
        {
          "internalType": "uint256",
          "name": "",
          "type": "uint256"
        }
      ],
      "stateMutability": "view",
      "type": "function"
    },
    {
      "inputs": [
        {
          "internalType": "uint256",
          "name": "",
          "type": "uint256"
        }
      ],
      "name": "reqIdToDetailsMapping",
      "outputs": [
        {
          "internalType": "uint256",
          "name": "spId",
          "type": "uint256"
        },
        {
          "internalType": "address",
          "name": "supplierAddress",
          "type": "address"
        },
        {
          "internalType": "address",
          "name": "manufacturerAddress",
          "type": "address"
        },
        {
          "internalType": "uint256",
          "name": "quantity",
          "type": "uint256"
        }
      ],
      "stateMutability": "view",
      "type": "function"
    },
    {
      "inputs": [
        {
          "internalType": "uint256",
          "name": "_spId",
          "type": "uint256"
        },
        {
          "internalType": "address",
          "name": "_supplierAddress",
          "type": "address"
        },
        {
          "internalType": "uint256",
          "name": "_quantity",
          "type": "uint256"
        }
      ],
      "name": "requestproduct",
      "outputs": [],
      "stateMutability": "nonpayable",
      "type": "function"
    },
    {
      "inputs": [],
      "name": "smId",
      "outputs": [
        {
          "internalType": "uint256",
          "name": "",
          "type": "uint256"
        }
      ],
      "stateMutability": "view",
      "type": "function"
    },
    {
      "inputs": [
        {
          "internalType": "uint256",
          "name": "",
          "type": "uint256"
        }
      ],
      "name": "smIdToStructMapping",
      "outputs": [
        {
          "internalType": "uint256",
          "name": "spId",
          "type": "uint256"
        },
        {
          "internalType": "address",
          "name": "supplierAddress",
          "type": "address"
        },
        {
          "internalType": "address",
          "name": "manufacturerAddress",
          "type": "address"
        },
        {
          "internalType": "uint32",
          "name": "dispatchTime",
          "type": "uint32"
        },
        {
          "internalType": "uint32",
          "name": "arrivalTime",
          "type": "uint32"
        }
      ],
      "stateMutability": "view",
      "type": "function"
    },
    {
      "inputs": [
        {
          "internalType": "address",
          "name": "",
          "type": "address"
        },
        {
          "internalType": "uint256",
          "name": "",
          "type": "uint256"
        }
      ],
      "name": "supplierToRequestMapping",
      "outputs": [
        {
          "internalType": "uint256",
          "name": "",
          "type": "uint256"
        }
      ],
      "stateMutability": "view",
      "type": "function"
    },
    {
      "inputs": [
        {
          "internalType": "uint256",
          "name": "_spId",
          "type": "uint256"
        },
        {
          "internalType": "address",
          "name": "_supplierAddress",
          "type": "address"
        },
        {
          "internalType": "address",
          "name": "_manufacturerAddress",
          "type": "address"
        },
        {
          "internalType": "uint32",
          "name": "_dispatchTime",
          "type": "uint32"
        }
      ],
      "name": "transferProduct",
      "outputs": [],
      "stateMutability": "nonpayable",
      "type": "function"
    }
  ],
  "bytecode": "0x608060405260016000556001805534801561001957600080fd5b50611989806100296000396000f3fe608060405234801561001057600080fd5b50600436106100ea5760003560e01c806364e62e931161008c5780637f0b7a22116100665780637f0b7a22146102815780638997ce4e146102b4578063b9db15b4146102d2578063ec02181a14610302576100ea565b806364e62e93146101f157806369dc50541461022157806370b775a014610251576100ea565b80631001f30f116100c85780631001f30f1461015957806329d78328146101895780634f2e635a146101a557806353e8f55a146101d5576100ea565b8063029e2fe4146100ef57806302c0c7a91461010d578063055498bd1461013d575b600080fd5b6100f7610336565b604051610104919061122d565b60405180910390f35b610127600480360381019061012291906112d7565b61033c565b604051610134919061122d565b60405180910390f35b61015760048036038101906101529190611353565b61036d565b005b610173600480360381019061016e91906112d7565b61058e565b604051610180919061122d565b60405180910390f35b6101a3600480360381019061019e91906113ba565b6105bf565b005b6101bf60048036038101906101ba91906113e7565b61062e565b6040516101cc9190611536565b60405180910390f35b6101ef60048036038101906101ea9190611558565b61085c565b005b61020b600480360381019061020691906113e7565b610a50565b6040516102189190611536565b60405180910390f35b61023b600480360381019061023691906112d7565b610c7e565b604051610248919061122d565b60405180910390f35b61026b600480360381019061026691906113e7565b610caf565b60405161027891906116d1565b60405180910390f35b61029b600480360381019061029691906113ba565b610f1e565b6040516102ab9493929190611702565b60405180910390f35b6102bc610f8e565b6040516102c9919061122d565b60405180910390f35b6102ec60048036038101906102e791906113ba565b610f94565b6040516102f991906117af565b60405180910390f35b61031c600480360381019061031791906113ba565b6110c3565b60405161032d9594939291906117d9565b60405180910390f35b60005481565b6004602052816000526040600020818154811061035857600080fd5b90600052602060002001600091509150505481565b6040518060a001604052808581526020018473ffffffffffffffffffffffffffffffffffffffff1681526020018373ffffffffffffffffffffffffffffffffffffffff1681526020018263ffffffff168152602001600063ffffffff1681525060026000805481526020019081526020016000206000820151816000015560208201518160010160006101000a81548173ffffffffffffffffffffffffffffffffffffffff021916908373ffffffffffffffffffffffffffffffffffffffff16021790555060408201518160020160006101000a81548173ffffffffffffffffffffffffffffffffffffffff021916908373ffffffffffffffffffffffffffffffffffffffff16021790555060608201518160020160146101000a81548163ffffffff021916908363ffffffff16021790555060808201518160020160186101000a81548163ffffffff021916908363ffffffff160217905550905050600660008373ffffffffffffffffffffffffffffffffffffffff1673ffffffffffffffffffffffffffffffffffffffff1681526020019081526020016000206000549080600181540180825580915050600190039060005260206000200160009091909190915055836000547f6abc5964a9f8c02bee56a206f75c7526ea67f5abd5cbbe939c60d4a489607e498585856040516105699392919061182c565b60405180910390a360008081548092919061058390611892565b919050555050505050565b600660205281600052604060002081815481106105aa57600080fd5b90600052602060002001600091509150505481565b426002600083815260200190815260200160002060020160186101000a81548163ffffffff021916908363ffffffff1602179055507f64e64e323422dcfed18a892f84596ccf7cc94b1952625f3cc82e6461b529fff14260405161062391906118da565b60405180910390a150565b6060600060015467ffffffffffffffff81111561064e5761064d6118f5565b5b60405190808252806020026020018201604052801561068757816020015b610674611159565b81526020019060019003908161066c5790505b5090506000600560008573ffffffffffffffffffffffffffffffffffffffff1673ffffffffffffffffffffffffffffffffffffffff16815260200190815260200160002080548060200260200160405190810160405280929190818152602001828054801561071557602002820191906000526020600020905b815481526020019060010190808311610701575b5050505050905060005b8151811015610851576003600083838151811061073f5761073e611924565b5b60200260200101518152602001908152602001600020604051806080016040529081600082015481526020016001820160009054906101000a900473ffffffffffffffffffffffffffffffffffffffff1673ffffffffffffffffffffffffffffffffffffffff1673ffffffffffffffffffffffffffffffffffffffff1681526020016002820160009054906101000a900473ffffffffffffffffffffffffffffffffffffffff1673ffffffffffffffffffffffffffffffffffffffff1673ffffffffffffffffffffffffffffffffffffffff16815260200160038201548152505083828151811061083357610832611924565b5b6020026020010181905250808061084990611892565b91505061071f565b508192505050919050565b60405180608001604052808481526020018373ffffffffffffffffffffffffffffffffffffffff1681526020013373ffffffffffffffffffffffffffffffffffffffff168152602001828152506003600060015481526020019081526020016000206000820151816000015560208201518160010160006101000a81548173ffffffffffffffffffffffffffffffffffffffff021916908373ffffffffffffffffffffffffffffffffffffffff16021790555060408201518160020160006101000a81548173ffffffffffffffffffffffffffffffffffffffff021916908373ffffffffffffffffffffffffffffffffffffffff16021790555060608201518160030155905050600460008373ffffffffffffffffffffffffffffffffffffffff1673ffffffffffffffffffffffffffffffffffffffff1681526020019081526020016000206001549080600181540180825580915050600190039060005260206000200160009091909190915055600560003373ffffffffffffffffffffffffffffffffffffffff1673ffffffffffffffffffffffffffffffffffffffff168152602001908152602001600020600154908060018154018082558091505060019003906000526020600020016000909190919091505560016000815480929190610a4690611892565b9190505550505050565b6060600060015467ffffffffffffffff811115610a7057610a6f6118f5565b5b604051908082528060200260200182016040528015610aa957816020015b610a96611159565b815260200190600190039081610a8e5790505b5090506000600460008573ffffffffffffffffffffffffffffffffffffffff1673ffffffffffffffffffffffffffffffffffffffff168152602001908152602001600020805480602002602001604051908101604052809291908181526020018280548015610b3757602002820191906000526020600020905b815481526020019060010190808311610b23575b5050505050905060005b8151811015610c735760036000838381518110610b6157610b60611924565b5b60200260200101518152602001908152602001600020604051806080016040529081600082015481526020016001820160009054906101000a900473ffffffffffffffffffffffffffffffffffffffff1673ffffffffffffffffffffffffffffffffffffffff1673ffffffffffffffffffffffffffffffffffffffff1681526020016002820160009054906101000a900473ffffffffffffffffffffffffffffffffffffffff1673ffffffffffffffffffffffffffffffffffffffff1673ffffffffffffffffffffffffffffffffffffffff168152602001600382015481525050838281518110610c5557610c54611924565b5b60200260200101819052508080610c6b90611892565b915050610b41565b508192505050919050565b60056020528160005260406000208181548110610c9a57600080fd5b90600052602060002001600091509150505481565b60606000600660008473ffffffffffffffffffffffffffffffffffffffff1673ffffffffffffffffffffffffffffffffffffffff168152602001908152602001600020805480602002602001604051908101604052809291908181526020018280548015610d3c57602002820191906000526020600020905b815481526020019060010190808311610d28575b505050505090506000815167ffffffffffffffff811115610d6057610d5f6118f5565b5b604051908082528060200260200182016040528015610d9957816020015b610d866111ad565b815260200190600190039081610d7e5790505b50905060005b8251811015610f135760026000848381518110610dbf57610dbe611924565b5b602002602001015181526020019081526020016000206040518060a0016040529081600082015481526020016001820160009054906101000a900473ffffffffffffffffffffffffffffffffffffffff1673ffffffffffffffffffffffffffffffffffffffff1673ffffffffffffffffffffffffffffffffffffffff1681526020016002820160009054906101000a900473ffffffffffffffffffffffffffffffffffffffff1673ffffffffffffffffffffffffffffffffffffffff1673ffffffffffffffffffffffffffffffffffffffff1681526020016002820160149054906101000a900463ffffffff1663ffffffff1663ffffffff1681526020016002820160189054906101000a900463ffffffff1663ffffffff1663ffffffff1681525050828281518110610ef557610ef4611924565b5b60200260200101819052508080610f0b90611892565b915050610d9f565b508092505050919050565b60036020528060005260406000206000915090508060000154908060010160009054906101000a900473ffffffffffffffffffffffffffffffffffffffff16908060020160009054906101000a900473ffffffffffffffffffffffffffffffffffffffff16908060030154905084565b60015481565b610f9c6111ad565b600260008381526020019081526020016000206040518060a0016040529081600082015481526020016001820160009054906101000a900473ffffffffffffffffffffffffffffffffffffffff1673ffffffffffffffffffffffffffffffffffffffff1673ffffffffffffffffffffffffffffffffffffffff1681526020016002820160009054906101000a900473ffffffffffffffffffffffffffffffffffffffff1673ffffffffffffffffffffffffffffffffffffffff1673ffffffffffffffffffffffffffffffffffffffff1681526020016002820160149054906101000a900463ffffffff1663ffffffff1663ffffffff1681526020016002820160189054906101000a900463ffffffff1663ffffffff1663ffffffff16815250509050919050565b60026020528060005260406000206000915090508060000154908060010160009054906101000a900473ffffffffffffffffffffffffffffffffffffffff16908060020160009054906101000a900473ffffffffffffffffffffffffffffffffffffffff16908060020160149054906101000a900463ffffffff16908060020160189054906101000a900463ffffffff16905085565b604051806080016040528060008152602001600073ffffffffffffffffffffffffffffffffffffffff168152602001600073ffffffffffffffffffffffffffffffffffffffff168152602001600081525090565b6040518060a0016040528060008152602001600073ffffffffffffffffffffffffffffffffffffffff168152602001600073ffffffffffffffffffffffffffffffffffffffff168152602001600063ffffffff168152602001600063ffffffff1681525090565b6000819050919050565b61122781611214565b82525050565b6000602082019050611242600083018461121e565b92915050565b600080fd5b600073ffffffffffffffffffffffffffffffffffffffff82169050919050565b60006112788261124d565b9050919050565b6112888161126d565b811461129357600080fd5b50565b6000813590506112a58161127f565b92915050565b6112b481611214565b81146112bf57600080fd5b50565b6000813590506112d1816112ab565b92915050565b600080604083850312156112ee576112ed611248565b5b60006112fc85828601611296565b925050602061130d858286016112c2565b9150509250929050565b600063ffffffff82169050919050565b61133081611317565b811461133b57600080fd5b50565b60008135905061134d81611327565b92915050565b6000806000806080858703121561136d5761136c611248565b5b600061137b878288016112c2565b945050602061138c87828801611296565b935050604061139d87828801611296565b92505060606113ae8782880161133e565b91505092959194509250565b6000602082840312156113d0576113cf611248565b5b60006113de848285016112c2565b91505092915050565b6000602082840312156113fd576113fc611248565b5b600061140b84828501611296565b91505092915050565b600081519050919050565b600082825260208201905092915050565b6000819050602082019050919050565b61144981611214565b82525050565b6114588161126d565b82525050565b6080820160008201516114746000850182611440565b506020820151611487602085018261144f565b50604082015161149a604085018261144f565b5060608201516114ad6060850182611440565b50505050565b60006114bf838361145e565b60808301905092915050565b6000602082019050919050565b60006114e382611414565b6114ed818561141f565b93506114f883611430565b8060005b8381101561152957815161151088826114b3565b975061151b836114cb565b9250506001810190506114fc565b5085935050505092915050565b6000602082019050818103600083015261155081846114d8565b905092915050565b60008060006060848603121561157157611570611248565b5b600061157f868287016112c2565b935050602061159086828701611296565b92505060406115a1868287016112c2565b9150509250925092565b600081519050919050565b600082825260208201905092915050565b6000819050602082019050919050565b6115e081611317565b82525050565b60a0820160008201516115fc6000850182611440565b50602082015161160f602085018261144f565b506040820151611622604085018261144f565b50606082015161163560608501826115d7565b50608082015161164860808501826115d7565b50505050565b600061165a83836115e6565b60a08301905092915050565b6000602082019050919050565b600061167e826115ab565b61168881856115b6565b9350611693836115c7565b8060005b838110156116c45781516116ab888261164e565b97506116b683611666565b925050600181019050611697565b5085935050505092915050565b600060208201905081810360008301526116eb8184611673565b905092915050565b6116fc8161126d565b82525050565b6000608082019050611717600083018761121e565b61172460208301866116f3565b61173160408301856116f3565b61173e606083018461121e565b95945050505050565b60a08201600082015161175d6000850182611440565b506020820151611770602085018261144f565b506040820151611783604085018261144f565b50606082015161179660608501826115d7565b5060808201516117a960808501826115d7565b50505050565b600060a0820190506117c46000830184611747565b92915050565b6117d381611317565b82525050565b600060a0820190506117ee600083018861121e565b6117fb60208301876116f3565b61180860408301866116f3565b61181560608301856117ca565b61182260808301846117ca565b9695505050505050565b600060608201905061184160008301866116f3565b61184e60208301856116f3565b61185b60408301846117ca565b949350505050565b7f4e487b7100000000000000000000000000000000000000000000000000000000600052601160045260246000fd5b600061189d82611214565b91507fffffffffffffffffffffffffffffffffffffffffffffffffffffffffffffffff82036118cf576118ce611863565b5b600182019050919050565b60006020820190506118ef60008301846117ca565b92915050565b7f4e487b7100000000000000000000000000000000000000000000000000000000600052604160045260246000fd5b7f4e487b7100000000000000000000000000000000000000000000000000000000600052603260045260246000fdfea2646970667358221220f3cfe419c8a79e4717813bba59beb995ee2d9549e346d5145a1aa953a712a4ae64736f6c63430008120033",
  "linkReferences": {},
  "deployedLinkReferences": {}
}