{
  "_format": "hh-sol-artifact-1",
  "contractName": "supplierManufacturer",
  "sourceName": "contracts/supplierManufacturer.sol",
  "abi": [
    {
      "inputs": [
        {
          "internalType": "address",
          "name": "_udAddress",
          "type": "address"
        },
        {
          "internalType": "address",
          "name": "_spAddress",
          "type": "address"
        }
      ],
      "stateMutability": "nonpayable",
      "type": "constructor"
    },
    {
      "anonymous": false,
      "inputs": [
        {
          "indexed": false,
          "internalType": "uint32",
          "name": "_arrivalTime",
          "type": "uint32"
        }
      ],
      "name": "eventArrivalTime",
      "type": "event"
    },
    {
      "anonymous": false,
      "inputs": [
        {
          "indexed": true,
          "internalType": "uint256",
          "name": "_smId",
          "type": "uint256"
        },
        {
          "indexed": true,
          "internalType": "uint256",
          "name": "_spId",
          "type": "uint256"
        },
        {
          "indexed": false,
          "internalType": "address",
          "name": "_supplierAddress",
          "type": "address"
        },
        {
          "indexed": false,
          "internalType": "address",
          "name": "_manufacturerAddress",
          "type": "address"
        },
        {
          "indexed": false,
          "internalType": "uint32",
          "name": "_dispatchTime",
          "type": "uint32"
        }
      ],
      "name": "eventSupplierManufacturerTransfer",
      "type": "event"
    },
    {
      "inputs": [
        {
          "internalType": "address",
          "name": "_ownerAddress",
          "type": "address"
        }
      ],
      "name": "changeOwner",
      "outputs": [],
      "stateMutability": "nonpayable",
      "type": "function"
    },
    {
      "inputs": [
        {
          "internalType": "address",
          "name": "_spAddress",
          "type": "address"
        }
      ],
      "name": "changeSpAddress",
      "outputs": [],
      "stateMutability": "nonpayable",
      "type": "function"
    },
    {
      "inputs": [
        {
          "internalType": "address",
          "name": "_udAddress",
          "type": "address"
        }
      ],
      "name": "changeUdAddress",
      "outputs": [],
      "stateMutability": "nonpayable",
      "type": "function"
    },
    {
      "inputs": [
        {
          "internalType": "address",
          "name": "_manufacturerAddress",
          "type": "address"
        }
      ],
      "name": "getAllSmIdForManufacturer",
      "outputs": [
        {
          "components": [
            {
              "internalType": "uint256",
              "name": "smId",
              "type": "uint256"
            },
            {
              "internalType": "uint256",
              "name": "spId",
              "type": "uint256"
            },
            {
              "internalType": "address",
              "name": "supplierAddress",
              "type": "address"
            },
            {
              "internalType": "address",
              "name": "manufacturerAddress",
              "type": "address"
            },
            {
              "internalType": "uint32",
              "name": "dispatchTime",
              "type": "uint32"
            },
            {
              "internalType": "uint32",
              "name": "arrivalTime",
              "type": "uint32"
            },
            {
              "internalType": "uint32",
              "name": "quantity",
              "type": "uint32"
            },
            {
              "internalType": "uint32",
              "name": "currentQuantity",
              "type": "uint32"
            },
            {
              "internalType": "enum ISupplierManufacturer.transferStatus",
              "name": "status",
              "type": "uint8"
            }
          ],
          "internalType": "struct ISupplierManufacturer.supplierManufacturer[]",
          "name": "",
          "type": "tuple[]"
        }
      ],
      "stateMutability": "view",
      "type": "function"
    },
    {
      "inputs": [
        {
          "internalType": "address",
          "name": "_supplierAddress",
          "type": "address"
        }
      ],
      "name": "getAllSmIdForSupplier",
      "outputs": [
        {
          "components": [
            {
              "internalType": "uint256",
              "name": "smId",
              "type": "uint256"
            },
            {
              "internalType": "uint256",
              "name": "spId",
              "type": "uint256"
            },
            {
              "internalType": "address",
              "name": "supplierAddress",
              "type": "address"
            },
            {
              "internalType": "address",
              "name": "manufacturerAddress",
              "type": "address"
            },
            {
              "internalType": "uint32",
              "name": "dispatchTime",
              "type": "uint32"
            },
            {
              "internalType": "uint32",
              "name": "arrivalTime",
              "type": "uint32"
            },
            {
              "internalType": "uint32",
              "name": "quantity",
              "type": "uint32"
            },
            {
              "internalType": "uint32",
              "name": "currentQuantity",
              "type": "uint32"
            },
            {
              "internalType": "enum ISupplierManufacturer.transferStatus",
              "name": "status",
              "type": "uint8"
            }
          ],
          "internalType": "struct ISupplierManufacturer.supplierManufacturer[]",
          "name": "",
          "type": "tuple[]"
        }
      ],
      "stateMutability": "view",
      "type": "function"
    },
    {
      "inputs": [],
      "name": "getAllSupplierAddresses",
      "outputs": [
        {
          "internalType": "address[]",
          "name": "",
          "type": "address[]"
        }
      ],
      "stateMutability": "view",
      "type": "function"
    },
    {
      "inputs": [
        {
          "internalType": "uint256",
          "name": "_smId",
          "type": "uint256"
        }
      ],
      "name": "getSmDetails",
      "outputs": [
        {
          "components": [
            {
              "internalType": "uint256",
              "name": "smId",
              "type": "uint256"
            },
            {
              "internalType": "uint256",
              "name": "spId",
              "type": "uint256"
            },
            {
              "internalType": "address",
              "name": "supplierAddress",
              "type": "address"
            },
            {
              "internalType": "address",
              "name": "manufacturerAddress",
              "type": "address"
            },
            {
              "internalType": "uint32",
              "name": "dispatchTime",
              "type": "uint32"
            },
            {
              "internalType": "uint32",
              "name": "arrivalTime",
              "type": "uint32"
            },
            {
              "internalType": "uint32",
              "name": "quantity",
              "type": "uint32"
            },
            {
              "internalType": "uint32",
              "name": "currentQuantity",
              "type": "uint32"
            },
            {
              "internalType": "enum ISupplierManufacturer.transferStatus",
              "name": "status",
              "type": "uint8"
            }
          ],
          "internalType": "struct ISupplierManufacturer.supplierManufacturer",
          "name": "",
          "type": "tuple"
        }
      ],
      "stateMutability": "view",
      "type": "function"
    },
    {
      "inputs": [
        {
          "internalType": "address",
          "name": "",
          "type": "address"
        },
        {
          "internalType": "uint256",
          "name": "",
          "type": "uint256"
        }
      ],
      "name": "manufacturerTosmIdMapping",
      "outputs": [
        {
          "internalType": "uint256",
          "name": "",
          "type": "uint256"
        }
      ],
      "stateMutability": "view",
      "type": "function"
    },
    {
      "inputs": [
        {
          "internalType": "uint256",
          "name": "_smId",
          "type": "uint256"
        }
      ],
      "name": "receiveProduct",
      "outputs": [],
      "stateMutability": "nonpayable",
      "type": "function"
    },
    {
      "inputs": [],
      "name": "reqId",
      "outputs": [
        {
          "internalType": "uint256",
          "name": "",
          "type": "uint256"
        }
      ],
      "stateMutability": "view",
      "type": "function"
    },
    {
      "inputs": [
        {
          "internalType": "uint256",
          "name": "_spId",
          "type": "uint256"
        },
        {
          "internalType": "uint32",
          "name": "_quantity",
          "type": "uint32"
        },
        {
          "internalType": "address",
          "name": "_supplierAddress",
          "type": "address"
        }
      ],
      "name": "requestProduct",
      "outputs": [],
      "stateMutability": "nonpayable",
      "type": "function"
    },
    {
      "inputs": [],
      "name": "smId",
      "outputs": [
        {
          "internalType": "uint256",
          "name": "",
          "type": "uint256"
        }
      ],
      "stateMutability": "view",
      "type": "function"
    },
    {
      "inputs": [
        {
          "internalType": "uint256",
          "name": "",
          "type": "uint256"
        }
      ],
      "name": "smIdToStructMapping",
      "outputs": [
        {
          "internalType": "uint256",
          "name": "smId",
          "type": "uint256"
        },
        {
          "internalType": "uint256",
          "name": "spId",
          "type": "uint256"
        },
        {
          "internalType": "address",
          "name": "supplierAddress",
          "type": "address"
        },
        {
          "internalType": "address",
          "name": "manufacturerAddress",
          "type": "address"
        },
        {
          "internalType": "uint32",
          "name": "dispatchTime",
          "type": "uint32"
        },
        {
          "internalType": "uint32",
          "name": "arrivalTime",
          "type": "uint32"
        },
        {
          "internalType": "uint32",
          "name": "quantity",
          "type": "uint32"
        },
        {
          "internalType": "uint32",
          "name": "currentQuantity",
          "type": "uint32"
        },
        {
          "internalType": "enum ISupplierManufacturer.transferStatus",
          "name": "status",
          "type": "uint8"
        }
      ],
      "stateMutability": "view",
      "type": "function"
    },
    {
      "inputs": [
        {
          "internalType": "address",
          "name": "",
          "type": "address"
        },
        {
          "internalType": "uint256",
          "name": "",
          "type": "uint256"
        }
      ],
      "name": "supplierTosmIdMapping",
      "outputs": [
        {
          "internalType": "uint256",
          "name": "",
          "type": "uint256"
        }
      ],
      "stateMutability": "view",
      "type": "function"
    },
    {
      "inputs": [
        {
          "internalType": "uint256",
          "name": "_spId",
          "type": "uint256"
        },
        {
          "internalType": "address",
          "name": "_manufacturerAddress",
          "type": "address"
        },
        {
          "internalType": "uint32",
          "name": "_quantity",
          "type": "uint32"
        },
        {
          "internalType": "uint32",
          "name": "_currentQuantity",
          "type": "uint32"
        }
      ],
      "name": "transferProduct",
      "outputs": [],
      "stateMutability": "nonpayable",
      "type": "function"
    }
  ],
  "bytecode": "0x60806040526001600055600180553480156200001a57600080fd5b506040516200296b3803806200296b833981810160405281019062000040919062000175565b33600460006101000a81548173ffffffffffffffffffffffffffffffffffffffff021916908373ffffffffffffffffffffffffffffffffffffffff16021790555081600260006101000a81548173ffffffffffffffffffffffffffffffffffffffff021916908373ffffffffffffffffffffffffffffffffffffffff16021790555080600360006101000a81548173ffffffffffffffffffffffffffffffffffffffff021916908373ffffffffffffffffffffffffffffffffffffffff1602179055505050620001bc565b600080fd5b600073ffffffffffffffffffffffffffffffffffffffff82169050919050565b60006200013d8262000110565b9050919050565b6200014f8162000130565b81146200015b57600080fd5b50565b6000815190506200016f8162000144565b92915050565b600080604083850312156200018f576200018e6200010b565b5b60006200019f858286016200015e565b9250506020620001b2858286016200015e565b9150509250929050565b61279f80620001cc6000396000f3fe608060405234801561001057600080fd5b50600436106100f55760003560e01c806397910e7711610097578063c7bbd67e11610066578063c7bbd67e14610282578063ca0d1bb5146102a0578063ec02181a146102bc578063f192a2e7146102f4576100f5565b806397910e77146101fe578063a4ac44bf1461022e578063a6f9dae11461024a578063b5dafe8314610266576100f5565b806329d78328116100d357806329d783281461016457806370b775a0146101805780637cfc10c0146101b05780638997ce4e146101e0576100f5565b8063029e2fe4146100fa5780630f65ae38146101185780631001f30f14610134575b600080fd5b610102610324565b60405161010f91906118b8565b60405180910390f35b610132600480360381019061012d9190611945565b61032a565b005b61014e6004803603810190610149919061199e565b6103fe565b60405161015b91906118b8565b60405180910390f35b61017e600480360381019061017991906119de565b61042f565b005b61019a60048036038101906101959190611945565b6105df565b6040516101a79190611c26565b60405180910390f35b6101ca60048036038101906101c591906119de565b6108e0565b6040516101d79190611cff565b60405180910390f35b6101e8610aa1565b6040516101f591906118b8565b60405180910390f35b61021860048036038101906102139190611945565b610aa7565b6040516102259190611c26565b60405180910390f35b61024860048036038101906102439190611d47565b610da8565b005b610264600480360381019061025f9190611945565b6111b8565b005b610280600480360381019061027b9190611d9a565b61128c565b005b61028a611580565b6040516102979190611eb0565b60405180910390f35b6102ba60048036038101906102b59190611945565b61161d565b005b6102d660048036038101906102d191906119de565b6116f1565b6040516102eb99989796959493929190611eff565b60405180910390f35b61030e6004803603810190610309919061199e565b6117cc565b60405161031b91906118b8565b60405180910390f35b60005481565b600460009054906101000a900473ffffffffffffffffffffffffffffffffffffffff1673ffffffffffffffffffffffffffffffffffffffff163373ffffffffffffffffffffffffffffffffffffffff16146103ba576040517f08c379a00000000000000000000000000000000000000000000000000000000081526004016103b190611fe9565b60405180910390fd5b80600260006101000a81548173ffffffffffffffffffffffffffffffffffffffff021916908373ffffffffffffffffffffffffffffffffffffffff16021790555050565b6006602052816000526040600020818154811061041a57600080fd5b90600052602060002001600091509150505481565b6000600260009054906101000a900473ffffffffffffffffffffffffffffffffffffffff1673ffffffffffffffffffffffffffffffffffffffff166335852541336040518263ffffffff1660e01b815260040161048c9190612009565b600060405180830381865afa1580156104a9573d6000803e3d6000fd5b505050506040513d6000823e3d601f19601f820116820180604052508101906104d291906122cc565b90506001816000015160028111156104ed576104ec611a74565b5b60ff1614610530576040517f08c379a000000000000000000000000000000000000000000000000000000000815260040161052790612387565b60405180910390fd5b426005600084815260200190815260200160002060030160186101000a81548163ffffffff021916908363ffffffff16021790555060036005600084815260200190815260200160002060040160046101000a81548160ff0219169083600381111561059f5761059e611a74565b5b02179055507f64e64e323422dcfed18a892f84596ccf7cc94b1952625f3cc82e6461b529fff1426040516105d391906123a7565b60405180910390a15050565b60606000600660008473ffffffffffffffffffffffffffffffffffffffff1673ffffffffffffffffffffffffffffffffffffffff16815260200190815260200160002080548060200260200160405190810160405280929190818152602001828054801561066c57602002820191906000526020600020905b815481526020019060010190808311610658575b505050505090506000815167ffffffffffffffff8111156106905761068f61203a565b5b6040519080825280602002602001820160405280156106c957816020015b6106b66117fd565b8152602001906001900390816106ae5790505b50905060005b82518110156108d557600560008483815181106106ef576106ee6123c2565b5b602002602001015181526020019081526020016000206040518061012001604052908160008201548152602001600182015481526020016002820160009054906101000a900473ffffffffffffffffffffffffffffffffffffffff1673ffffffffffffffffffffffffffffffffffffffff1673ffffffffffffffffffffffffffffffffffffffff1681526020016003820160009054906101000a900473ffffffffffffffffffffffffffffffffffffffff1673ffffffffffffffffffffffffffffffffffffffff1673ffffffffffffffffffffffffffffffffffffffff1681526020016003820160149054906101000a900463ffffffff1663ffffffff1663ffffffff1681526020016003820160189054906101000a900463ffffffff1663ffffffff1663ffffffff16815260200160038201601c9054906101000a900463ffffffff1663ffffffff1663ffffffff1681526020016004820160009054906101000a900463ffffffff1663ffffffff1663ffffffff1681526020016004820160049054906101000a900460ff16600381111561088e5761088d611a74565b5b60038111156108a05761089f611a74565b5b815250508282815181106108b7576108b66123c2565b5b602002602001018190525080806108cd90612420565b9150506106cf565b508092505050919050565b6108e86117fd565b600560008381526020019081526020016000206040518061012001604052908160008201548152602001600182015481526020016002820160009054906101000a900473ffffffffffffffffffffffffffffffffffffffff1673ffffffffffffffffffffffffffffffffffffffff1673ffffffffffffffffffffffffffffffffffffffff1681526020016003820160009054906101000a900473ffffffffffffffffffffffffffffffffffffffff1673ffffffffffffffffffffffffffffffffffffffff1673ffffffffffffffffffffffffffffffffffffffff1681526020016003820160149054906101000a900463ffffffff1663ffffffff1663ffffffff1681526020016003820160189054906101000a900463ffffffff1663ffffffff1663ffffffff16815260200160038201601c9054906101000a900463ffffffff1663ffffffff1663ffffffff1681526020016004820160009054906101000a900463ffffffff1663ffffffff1663ffffffff1681526020016004820160049054906101000a900460ff166003811115610a8457610a83611a74565b5b6003811115610a9657610a95611a74565b5b815250509050919050565b60015481565b60606000600760008473ffffffffffffffffffffffffffffffffffffffff1673ffffffffffffffffffffffffffffffffffffffff168152602001908152602001600020805480602002602001604051908101604052809291908181526020018280548015610b3457602002820191906000526020600020905b815481526020019060010190808311610b20575b505050505090506000815167ffffffffffffffff811115610b5857610b5761203a565b5b604051908082528060200260200182016040528015610b9157816020015b610b7e6117fd565b815260200190600190039081610b765790505b50905060005b8251811015610d9d5760056000848381518110610bb757610bb66123c2565b5b602002602001015181526020019081526020016000206040518061012001604052908160008201548152602001600182015481526020016002820160009054906101000a900473ffffffffffffffffffffffffffffffffffffffff1673ffffffffffffffffffffffffffffffffffffffff1673ffffffffffffffffffffffffffffffffffffffff1681526020016003820160009054906101000a900473ffffffffffffffffffffffffffffffffffffffff1673ffffffffffffffffffffffffffffffffffffffff1673ffffffffffffffffffffffffffffffffffffffff1681526020016003820160149054906101000a900463ffffffff1663ffffffff1663ffffffff1681526020016003820160189054906101000a900463ffffffff1663ffffffff1663ffffffff16815260200160038201601c9054906101000a900463ffffffff1663ffffffff1663ffffffff1681526020016004820160009054906101000a900463ffffffff1663ffffffff1663ffffffff1681526020016004820160049054906101000a900460ff166003811115610d5657610d55611a74565b5b6003811115610d6857610d67611a74565b5b81525050828281518110610d7f57610d7e6123c2565b5b60200260200101819052508080610d9590612420565b915050610b97565b508092505050919050565b6000600260009054906101000a900473ffffffffffffffffffffffffffffffffffffffff1673ffffffffffffffffffffffffffffffffffffffff166335852541336040518263ffffffff1660e01b8152600401610e059190612009565b600060405180830381865afa158015610e22573d6000803e3d6000fd5b505050506040513d6000823e3d601f19601f82011682018060405250810190610e4b91906122cc565b9050600181600001516002811115610e6657610e65611a74565b5b60ff1614610ea9576040517f08c379a0000000000000000000000000000000000000000000000000000000008152600401610ea0906124da565b60405180910390fd5b60405180610120016040528060005481526020018581526020018373ffffffffffffffffffffffffffffffffffffffff1681526020013373ffffffffffffffffffffffffffffffffffffffff168152602001600063ffffffff168152602001600063ffffffff1681526020018463ffffffff168152602001600063ffffffff16815260200160016003811115610f4257610f41611a74565b5b8152506005600080548152602001908152602001600020600082015181600001556020820151816001015560408201518160020160006101000a81548173ffffffffffffffffffffffffffffffffffffffff021916908373ffffffffffffffffffffffffffffffffffffffff16021790555060608201518160030160006101000a81548173ffffffffffffffffffffffffffffffffffffffff021916908373ffffffffffffffffffffffffffffffffffffffff16021790555060808201518160030160146101000a81548163ffffffff021916908363ffffffff16021790555060a08201518160030160186101000a81548163ffffffff021916908363ffffffff16021790555060c082015181600301601c6101000a81548163ffffffff021916908363ffffffff16021790555060e08201518160040160006101000a81548163ffffffff021916908363ffffffff1602179055506101008201518160040160046101000a81548160ff021916908360038111156110c3576110c2611a74565b5b0217905550905050600660003373ffffffffffffffffffffffffffffffffffffffff1673ffffffffffffffffffffffffffffffffffffffff1681526020019081526020016000206000549080600181540180825580915050600190039060005260206000200160009091909190915055600760003373ffffffffffffffffffffffffffffffffffffffff1673ffffffffffffffffffffffffffffffffffffffff16815260200190815260200160002060005490806001815401808255809150506001900390600052602060002001600090919091909150556000808154809291906111ad90612420565b919050555050505050565b600460009054906101000a900473ffffffffffffffffffffffffffffffffffffffff1673ffffffffffffffffffffffffffffffffffffffff163373ffffffffffffffffffffffffffffffffffffffff1614611248576040517f08c379a000000000000000000000000000000000000000000000000000000000815260040161123f90611fe9565b60405180910390fd5b80600460006101000a81548173ffffffffffffffffffffffffffffffffffffffff021916908373ffffffffffffffffffffffffffffffffffffffff16021790555050565b6000600260009054906101000a900473ffffffffffffffffffffffffffffffffffffffff1673ffffffffffffffffffffffffffffffffffffffff166335852541336040518263ffffffff1660e01b81526004016112e99190612009565b600060405180830381865afa158015611306573d6000803e3d6000fd5b505050506040513d6000823e3d601f19601f8201168201806040525081019061132f91906122cc565b905060008160000151600281111561134a57611349611a74565b5b60ff161461138d576040517f08c379a00000000000000000000000000000000000000000000000000000000081526004016113849061256c565b60405180910390fd5b8460056000805481526020019081526020016000206001018190555033600560008054815260200190815260200160002060020160006101000a81548173ffffffffffffffffffffffffffffffffffffffff021916908373ffffffffffffffffffffffffffffffffffffffff16021790555042600560008054815260200190815260200160002060030160146101000a81548163ffffffff021916908363ffffffff16021790555081600560008054815260200190815260200160002060040160006101000a81548163ffffffff021916908363ffffffff1602179055506002600560008054815260200190815260200160002060040160046101000a81548160ff021916908360038111156114a6576114a5611a74565b5b0217905550846000547f6abc5964a9f8c02bee56a206f75c7526ea67f5abd5cbbe939c60d4a489607e493387426040516114e29392919061258c565b60405180910390a3600360009054906101000a900473ffffffffffffffffffffffffffffffffffffffff1673ffffffffffffffffffffffffffffffffffffffff1663f8bafa7086856040518363ffffffff1660e01b815260040161154792919061261a565b600060405180830381600087803b15801561156157600080fd5b505af1158015611575573d6000803e3d6000fd5b505050505050505050565b6060600260009054906101000a900473ffffffffffffffffffffffffffffffffffffffff1673ffffffffffffffffffffffffffffffffffffffff1663c7bbd67e6040518163ffffffff1660e01b8152600401600060405180830381865afa1580156115ef573d6000803e3d6000fd5b505050506040513d6000823e3d601f19601f820116820180604052508101906116189190612720565b905090565b600460009054906101000a900473ffffffffffffffffffffffffffffffffffffffff1673ffffffffffffffffffffffffffffffffffffffff163373ffffffffffffffffffffffffffffffffffffffff16146116ad576040517f08c379a00000000000000000000000000000000000000000000000000000000081526004016116a490611fe9565b60405180910390fd5b80600360006101000a81548173ffffffffffffffffffffffffffffffffffffffff021916908373ffffffffffffffffffffffffffffffffffffffff16021790555050565b60056020528060005260406000206000915090508060000154908060010154908060020160009054906101000a900473ffffffffffffffffffffffffffffffffffffffff16908060030160009054906101000a900473ffffffffffffffffffffffffffffffffffffffff16908060030160149054906101000a900463ffffffff16908060030160189054906101000a900463ffffffff169080600301601c9054906101000a900463ffffffff16908060040160009054906101000a900463ffffffff16908060040160049054906101000a900460ff16905089565b600760205281600052604060002081815481106117e857600080fd5b90600052602060002001600091509150505481565b6040518061012001604052806000815260200160008152602001600073ffffffffffffffffffffffffffffffffffffffff168152602001600073ffffffffffffffffffffffffffffffffffffffff168152602001600063ffffffff168152602001600063ffffffff168152602001600063ffffffff168152602001600063ffffffff1681526020016000600381111561189957611898611a74565b5b81525090565b6000819050919050565b6118b28161189f565b82525050565b60006020820190506118cd60008301846118a9565b92915050565b6000604051905090565b600080fd5b600080fd5b600073ffffffffffffffffffffffffffffffffffffffff82169050919050565b6000611912826118e7565b9050919050565b61192281611907565b811461192d57600080fd5b50565b60008135905061193f81611919565b92915050565b60006020828403121561195b5761195a6118dd565b5b600061196984828501611930565b91505092915050565b61197b8161189f565b811461198657600080fd5b50565b60008135905061199881611972565b92915050565b600080604083850312156119b5576119b46118dd565b5b60006119c385828601611930565b92505060206119d485828601611989565b9150509250929050565b6000602082840312156119f4576119f36118dd565b5b6000611a0284828501611989565b91505092915050565b600081519050919050565b600082825260208201905092915050565b6000819050602082019050919050565b611a408161189f565b82525050565b611a4f81611907565b82525050565b600063ffffffff82169050919050565b611a6e81611a55565b82525050565b7f4e487b7100000000000000000000000000000000000000000000000000000000600052602160045260246000fd5b60048110611ab457611ab3611a74565b5b50565b6000819050611ac582611aa3565b919050565b6000611ad582611ab7565b9050919050565b611ae581611aca565b82525050565b61012082016000820151611b026000850182611a37565b506020820151611b156020850182611a37565b506040820151611b286040850182611a46565b506060820151611b3b6060850182611a46565b506080820151611b4e6080850182611a65565b5060a0820151611b6160a0850182611a65565b5060c0820151611b7460c0850182611a65565b5060e0820151611b8760e0850182611a65565b50610100820151611b9c610100850182611adc565b50505050565b6000611bae8383611aeb565b6101208301905092915050565b6000602082019050919050565b6000611bd382611a0b565b611bdd8185611a16565b9350611be883611a27565b8060005b83811015611c19578151611c008882611ba2565b9750611c0b83611bbb565b925050600181019050611bec565b5085935050505092915050565b60006020820190508181036000830152611c408184611bc8565b905092915050565b61012082016000820151611c5f6000850182611a37565b506020820151611c726020850182611a37565b506040820151611c856040850182611a46565b506060820151611c986060850182611a46565b506080820151611cab6080850182611a65565b5060a0820151611cbe60a0850182611a65565b5060c0820151611cd160c0850182611a65565b5060e0820151611ce460e0850182611a65565b50610100820151611cf9610100850182611adc565b50505050565b600061012082019050611d156000830184611c48565b92915050565b611d2481611a55565b8114611d2f57600080fd5b50565b600081359050611d4181611d1b565b92915050565b600080600060608486031215611d6057611d5f6118dd565b5b6000611d6e86828701611989565b9350506020611d7f86828701611d32565b9250506040611d9086828701611930565b9150509250925092565b60008060008060808587031215611db457611db36118dd565b5b6000611dc287828801611989565b9450506020611dd387828801611930565b9350506040611de487828801611d32565b9250506060611df587828801611d32565b91505092959194509250565b600081519050919050565b600082825260208201905092915050565b6000819050602082019050919050565b6000611e398383611a46565b60208301905092915050565b6000602082019050919050565b6000611e5d82611e01565b611e678185611e0c565b9350611e7283611e1d565b8060005b83811015611ea3578151611e8a8882611e2d565b9750611e9583611e45565b925050600181019050611e76565b5085935050505092915050565b60006020820190508181036000830152611eca8184611e52565b905092915050565b611edb81611907565b82525050565b611eea81611a55565b82525050565b611ef981611aca565b82525050565b600061012082019050611f15600083018c6118a9565b611f22602083018b6118a9565b611f2f604083018a611ed2565b611f3c6060830189611ed2565b611f496080830188611ee1565b611f5660a0830187611ee1565b611f6360c0830186611ee1565b611f7060e0830185611ee1565b611f7e610100830184611ef0565b9a9950505050505050505050565b600082825260208201905092915050565b7f4e6f74206f776e65720000000000000000000000000000000000000000000000600082015250565b6000611fd3600983611f8c565b9150611fde82611f9d565b602082019050919050565b6000602082019050818103600083015261200281611fc6565b9050919050565b600060208201905061201e6000830184611ed2565b92915050565b600080fd5b6000601f19601f8301169050919050565b7f4e487b7100000000000000000000000000000000000000000000000000000000600052604160045260246000fd5b61207282612029565b810181811067ffffffffffffffff821117156120915761209061203a565b5b80604052505050565b60006120a46118d3565b90506120b08282612069565b919050565b600080fd5b600381106120c757600080fd5b50565b6000815190506120d9816120ba565b92915050565b600080fd5b600080fd5b600067ffffffffffffffff8211156121045761210361203a565b5b61210d82612029565b9050602081019050919050565b60005b8381101561213857808201518184015260208101905061211d565b60008484015250505050565b6000612157612152846120e9565b61209a565b905082815260208101848484011115612173576121726120e4565b5b61217e84828561211a565b509392505050565b600082601f83011261219b5761219a6120df565b5b81516121ab848260208601612144565b91505092915050565b60008115159050919050565b6121c9816121b4565b81146121d457600080fd5b50565b6000815190506121e6816121c0565b92915050565b600060a0828403121561220257612201612024565b5b61220c60a061209a565b9050600061221c848285016120ca565b600083015250602082015167ffffffffffffffff8111156122405761223f6120b5565b5b61224c84828501612186565b602083015250604082015167ffffffffffffffff8111156122705761226f6120b5565b5b61227c84828501612186565b604083015250606082015167ffffffffffffffff8111156122a05761229f6120b5565b5b6122ac84828501612186565b60608301525060806122c0848285016121d7565b60808301525092915050565b6000602082840312156122e2576122e16118dd565b5b600082015167ffffffffffffffff811115612300576122ff6118e2565b5b61230c848285016121ec565b91505092915050565b7f4f6e6c79204d616e7566616374757265722063616e2061636b6e6f776c65646760008201527f6520726563656976652070726f64756374000000000000000000000000000000602082015250565b6000612371603183611f8c565b915061237c82612315565b604082019050919050565b600060208201905081810360008301526123a081612364565b9050919050565b60006020820190506123bc6000830184611ee1565b92915050565b7f4e487b7100000000000000000000000000000000000000000000000000000000600052603260045260246000fd5b7f4e487b7100000000000000000000000000000000000000000000000000000000600052601160045260246000fd5b600061242b8261189f565b91507fffffffffffffffffffffffffffffffffffffffffffffffffffffffffffffffff820361245d5761245c6123f1565b5b600182019050919050565b7f4f6e6c79204d616e7566616374757265722063616e205265717565737420707260008201527f6f64756374000000000000000000000000000000000000000000000000000000602082015250565b60006124c4602583611f8c565b91506124cf82612468565b604082019050919050565b600060208201905081810360008301526124f3816124b7565b9050919050565b7f4f6e6c7920537570706c6965722063616e205472616e736665722070726f647560008201527f6374000000000000000000000000000000000000000000000000000000000000602082015250565b6000612556602283611f8c565b9150612561826124fa565b604082019050919050565b6000602082019050818103600083015261258581612549565b9050919050565b60006060820190506125a16000830186611ed2565b6125ae6020830185611ed2565b6125bb6040830184611ee1565b949350505050565b60006fffffffffffffffffffffffffffffffff82169050919050565b6000819050919050565b60006126046125ff6125fa84611a55565b6125df565b6125c3565b9050919050565b612614816125e9565b82525050565b600060408201905061262f60008301856118a9565b61263c602083018461260b565b9392505050565b600067ffffffffffffffff82111561265e5761265d61203a565b5b602082029050602081019050919050565b600080fd5b60008151905061268381611919565b92915050565b600061269c61269784612643565b61209a565b905080838252602082019050602084028301858111156126bf576126be61266f565b5b835b818110156126e857806126d48882612674565b8452602084019350506020810190506126c1565b5050509392505050565b600082601f830112612707576127066120df565b5b8151612717848260208601612689565b91505092915050565b600060208284031215612736576127356118dd565b5b600082015167ffffffffffffffff811115612754576127536118e2565b5b612760848285016126f2565b9150509291505056fea2646970667358221220e09856a322536b2ef7fcbb50d0756ac3310cdeda04028897af22dcc994541e9b64736f6c63430008120033",
  "linkReferences": {},
  "deployedLinkReferences": {}
}