{
  "_format": "hh-sol-artifact-1",
  "contractName": "supplierManufacturer",
  "sourceName": "contracts/supplierManufacturer.sol",
  "abi": [
    {
      "inputs": [
        {
          "internalType": "address",
          "name": "_udAddress",
          "type": "address"
        },
        {
          "internalType": "address",
          "name": "_spAddress",
          "type": "address"
        }
      ],
      "stateMutability": "nonpayable",
      "type": "constructor"
    },
    {
      "anonymous": false,
      "inputs": [
        {
          "indexed": false,
          "internalType": "uint32",
          "name": "_arrivalTime",
          "type": "uint32"
        }
      ],
      "name": "eventArrivalTime",
      "type": "event"
    },
    {
      "anonymous": false,
      "inputs": [
        {
          "indexed": true,
          "internalType": "uint256",
          "name": "_smId",
          "type": "uint256"
        },
        {
          "indexed": true,
          "internalType": "uint256",
          "name": "_spId",
          "type": "uint256"
        },
        {
          "indexed": false,
          "internalType": "address",
          "name": "_supplierAddress",
          "type": "address"
        },
        {
          "indexed": false,
          "internalType": "address",
          "name": "_manufacturerAddress",
          "type": "address"
        },
        {
          "indexed": false,
          "internalType": "uint32",
          "name": "_dispatchTime",
          "type": "uint32"
        }
      ],
      "name": "eventSupplierManufacturerTransfer",
      "type": "event"
    },
    {
      "inputs": [
        {
          "internalType": "address",
          "name": "_ownerAddress",
          "type": "address"
        }
      ],
      "name": "changeOwner",
      "outputs": [],
      "stateMutability": "nonpayable",
      "type": "function"
    },
    {
      "inputs": [
        {
          "internalType": "address",
          "name": "_spAddress",
          "type": "address"
        }
      ],
      "name": "changeSpAddress",
      "outputs": [],
      "stateMutability": "nonpayable",
      "type": "function"
    },
    {
      "inputs": [
        {
          "internalType": "address",
          "name": "_udAddress",
          "type": "address"
        }
      ],
      "name": "changeUdAddress",
      "outputs": [],
      "stateMutability": "nonpayable",
      "type": "function"
    },
    {
      "inputs": [
        {
          "internalType": "address",
          "name": "_manufacturerAddress",
          "type": "address"
        }
      ],
      "name": "getAllSmIdForManufacturer",
      "outputs": [
        {
          "components": [
            {
              "internalType": "uint256",
              "name": "smId",
              "type": "uint256"
            },
            {
              "internalType": "uint256",
              "name": "spId",
              "type": "uint256"
            },
            {
              "internalType": "address",
              "name": "supplierAddress",
              "type": "address"
            },
            {
              "internalType": "address",
              "name": "manufacturerAddress",
              "type": "address"
            },
            {
              "internalType": "uint32",
              "name": "dispatchTime",
              "type": "uint32"
            },
            {
              "internalType": "uint32",
              "name": "arrivalTime",
              "type": "uint32"
            },
            {
              "internalType": "uint32",
              "name": "quantity",
              "type": "uint32"
            },
            {
              "internalType": "uint32",
              "name": "currentQuantity",
              "type": "uint32"
            },
            {
              "internalType": "enum ISupplierManufacturer.transferStatus",
              "name": "status",
              "type": "uint8"
            }
          ],
          "internalType": "struct ISupplierManufacturer.supplierManufacturer[]",
          "name": "",
          "type": "tuple[]"
        }
      ],
      "stateMutability": "view",
      "type": "function"
    },
    {
      "inputs": [
        {
          "internalType": "address",
          "name": "_manufacturerAddress",
          "type": "address"
        }
      ],
      "name": "getAllSmIdForManufacturerWithproductDetails",
      "outputs": [
        {
          "components": [
            {
              "components": [
                {
                  "internalType": "uint256",
                  "name": "smId",
                  "type": "uint256"
                },
                {
                  "internalType": "uint256",
                  "name": "spId",
                  "type": "uint256"
                },
                {
                  "internalType": "address",
                  "name": "supplierAddress",
                  "type": "address"
                },
                {
                  "internalType": "address",
                  "name": "manufacturerAddress",
                  "type": "address"
                },
                {
                  "internalType": "uint32",
                  "name": "dispatchTime",
                  "type": "uint32"
                },
                {
                  "internalType": "uint32",
                  "name": "arrivalTime",
                  "type": "uint32"
                },
                {
                  "internalType": "uint32",
                  "name": "quantity",
                  "type": "uint32"
                },
                {
                  "internalType": "uint32",
                  "name": "currentQuantity",
                  "type": "uint32"
                },
                {
                  "internalType": "enum ISupplierManufacturer.transferStatus",
                  "name": "status",
                  "type": "uint8"
                }
              ],
              "internalType": "struct ISupplierManufacturer.supplierManufacturer",
              "name": "smDetails",
              "type": "tuple"
            },
            {
              "components": [
                {
                  "internalType": "address",
                  "name": "supplierAddress",
                  "type": "address"
                },
                {
                  "internalType": "bytes",
                  "name": "sp_name",
                  "type": "bytes"
                },
                {
                  "internalType": "bytes",
                  "name": "sp_description",
                  "type": "bytes"
                },
                {
                  "internalType": "uint128",
                  "name": "sp_unit",
                  "type": "uint128"
                },
                {
                  "internalType": "uint128",
                  "name": "sp_price",
                  "type": "uint128"
                },
                {
                  "internalType": "uint32",
                  "name": "sp_date",
                  "type": "uint32"
                },
                {
                  "internalType": "uint32",
                  "name": "sp_expiryDate",
                  "type": "uint32"
                },
                {
                  "internalType": "bool",
                  "name": "sp_status",
                  "type": "bool"
                }
              ],
              "internalType": "struct ISupplierProduct.supplierProduct",
              "name": "spDetails",
              "type": "tuple"
            },
            {
              "components": [
                {
                  "internalType": "enum IUserDetails.userType",
                  "name": "userType",
                  "type": "uint8"
                },
                {
                  "internalType": "bytes",
                  "name": "userName",
                  "type": "bytes"
                },
                {
                  "internalType": "bytes",
                  "name": "userPhysicalAddress",
                  "type": "bytes"
                },
                {
                  "internalType": "bytes",
                  "name": "userImage",
                  "type": "bytes"
                },
                {
                  "internalType": "bool",
                  "name": "userStatus",
                  "type": "bool"
                }
              ],
              "internalType": "struct IUserDetails.userDetails",
              "name": "uDetails",
              "type": "tuple"
            }
          ],
          "internalType": "struct supplierManufacturer.supplierManufacturerWithProduct[]",
          "name": "",
          "type": "tuple[]"
        }
      ],
      "stateMutability": "view",
      "type": "function"
    },
    {
      "inputs": [
        {
          "internalType": "address",
          "name": "_supplierAddress",
          "type": "address"
        }
      ],
      "name": "getAllSmIdForSupplier",
      "outputs": [
        {
          "components": [
            {
              "internalType": "uint256",
              "name": "smId",
              "type": "uint256"
            },
            {
              "internalType": "uint256",
              "name": "spId",
              "type": "uint256"
            },
            {
              "internalType": "address",
              "name": "supplierAddress",
              "type": "address"
            },
            {
              "internalType": "address",
              "name": "manufacturerAddress",
              "type": "address"
            },
            {
              "internalType": "uint32",
              "name": "dispatchTime",
              "type": "uint32"
            },
            {
              "internalType": "uint32",
              "name": "arrivalTime",
              "type": "uint32"
            },
            {
              "internalType": "uint32",
              "name": "quantity",
              "type": "uint32"
            },
            {
              "internalType": "uint32",
              "name": "currentQuantity",
              "type": "uint32"
            },
            {
              "internalType": "enum ISupplierManufacturer.transferStatus",
              "name": "status",
              "type": "uint8"
            }
          ],
          "internalType": "struct ISupplierManufacturer.supplierManufacturer[]",
          "name": "",
          "type": "tuple[]"
        }
      ],
      "stateMutability": "view",
      "type": "function"
    },
    {
      "inputs": [
        {
          "internalType": "address",
          "name": "_supplierAddress",
          "type": "address"
        }
      ],
      "name": "getAllSmIdForSupplierWithproductDetails",
      "outputs": [
        {
          "components": [
            {
              "components": [
                {
                  "internalType": "uint256",
                  "name": "smId",
                  "type": "uint256"
                },
                {
                  "internalType": "uint256",
                  "name": "spId",
                  "type": "uint256"
                },
                {
                  "internalType": "address",
                  "name": "supplierAddress",
                  "type": "address"
                },
                {
                  "internalType": "address",
                  "name": "manufacturerAddress",
                  "type": "address"
                },
                {
                  "internalType": "uint32",
                  "name": "dispatchTime",
                  "type": "uint32"
                },
                {
                  "internalType": "uint32",
                  "name": "arrivalTime",
                  "type": "uint32"
                },
                {
                  "internalType": "uint32",
                  "name": "quantity",
                  "type": "uint32"
                },
                {
                  "internalType": "uint32",
                  "name": "currentQuantity",
                  "type": "uint32"
                },
                {
                  "internalType": "enum ISupplierManufacturer.transferStatus",
                  "name": "status",
                  "type": "uint8"
                }
              ],
              "internalType": "struct ISupplierManufacturer.supplierManufacturer",
              "name": "smDetails",
              "type": "tuple"
            },
            {
              "components": [
                {
                  "internalType": "address",
                  "name": "supplierAddress",
                  "type": "address"
                },
                {
                  "internalType": "bytes",
                  "name": "sp_name",
                  "type": "bytes"
                },
                {
                  "internalType": "bytes",
                  "name": "sp_description",
                  "type": "bytes"
                },
                {
                  "internalType": "uint128",
                  "name": "sp_unit",
                  "type": "uint128"
                },
                {
                  "internalType": "uint128",
                  "name": "sp_price",
                  "type": "uint128"
                },
                {
                  "internalType": "uint32",
                  "name": "sp_date",
                  "type": "uint32"
                },
                {
                  "internalType": "uint32",
                  "name": "sp_expiryDate",
                  "type": "uint32"
                },
                {
                  "internalType": "bool",
                  "name": "sp_status",
                  "type": "bool"
                }
              ],
              "internalType": "struct ISupplierProduct.supplierProduct",
              "name": "spDetails",
              "type": "tuple"
            },
            {
              "components": [
                {
                  "internalType": "enum IUserDetails.userType",
                  "name": "userType",
                  "type": "uint8"
                },
                {
                  "internalType": "bytes",
                  "name": "userName",
                  "type": "bytes"
                },
                {
                  "internalType": "bytes",
                  "name": "userPhysicalAddress",
                  "type": "bytes"
                },
                {
                  "internalType": "bytes",
                  "name": "userImage",
                  "type": "bytes"
                },
                {
                  "internalType": "bool",
                  "name": "userStatus",
                  "type": "bool"
                }
              ],
              "internalType": "struct IUserDetails.userDetails",
              "name": "uDetails",
              "type": "tuple"
            }
          ],
          "internalType": "struct supplierManufacturer.supplierManufacturerWithProduct[]",
          "name": "",
          "type": "tuple[]"
        }
      ],
      "stateMutability": "view",
      "type": "function"
    },
    {
      "inputs": [
        {
          "internalType": "uint256[]",
          "name": "_smIdData",
          "type": "uint256[]"
        }
      ],
      "name": "getAllSmIdForSupplierWithproductDetailsWithId",
      "outputs": [
        {
          "components": [
            {
              "components": [
                {
                  "internalType": "uint256",
                  "name": "smId",
                  "type": "uint256"
                },
                {
                  "internalType": "uint256",
                  "name": "spId",
                  "type": "uint256"
                },
                {
                  "internalType": "address",
                  "name": "supplierAddress",
                  "type": "address"
                },
                {
                  "internalType": "address",
                  "name": "manufacturerAddress",
                  "type": "address"
                },
                {
                  "internalType": "uint32",
                  "name": "dispatchTime",
                  "type": "uint32"
                },
                {
                  "internalType": "uint32",
                  "name": "arrivalTime",
                  "type": "uint32"
                },
                {
                  "internalType": "uint32",
                  "name": "quantity",
                  "type": "uint32"
                },
                {
                  "internalType": "uint32",
                  "name": "currentQuantity",
                  "type": "uint32"
                },
                {
                  "internalType": "enum ISupplierManufacturer.transferStatus",
                  "name": "status",
                  "type": "uint8"
                }
              ],
              "internalType": "struct ISupplierManufacturer.supplierManufacturer",
              "name": "smDetails",
              "type": "tuple"
            },
            {
              "components": [
                {
                  "internalType": "address",
                  "name": "supplierAddress",
                  "type": "address"
                },
                {
                  "internalType": "bytes",
                  "name": "sp_name",
                  "type": "bytes"
                },
                {
                  "internalType": "bytes",
                  "name": "sp_description",
                  "type": "bytes"
                },
                {
                  "internalType": "uint128",
                  "name": "sp_unit",
                  "type": "uint128"
                },
                {
                  "internalType": "uint128",
                  "name": "sp_price",
                  "type": "uint128"
                },
                {
                  "internalType": "uint32",
                  "name": "sp_date",
                  "type": "uint32"
                },
                {
                  "internalType": "uint32",
                  "name": "sp_expiryDate",
                  "type": "uint32"
                },
                {
                  "internalType": "bool",
                  "name": "sp_status",
                  "type": "bool"
                }
              ],
              "internalType": "struct ISupplierProduct.supplierProduct",
              "name": "spDetails",
              "type": "tuple"
            },
            {
              "components": [
                {
                  "internalType": "enum IUserDetails.userType",
                  "name": "userType",
                  "type": "uint8"
                },
                {
                  "internalType": "bytes",
                  "name": "userName",
                  "type": "bytes"
                },
                {
                  "internalType": "bytes",
                  "name": "userPhysicalAddress",
                  "type": "bytes"
                },
                {
                  "internalType": "bytes",
                  "name": "userImage",
                  "type": "bytes"
                },
                {
                  "internalType": "bool",
                  "name": "userStatus",
                  "type": "bool"
                }
              ],
              "internalType": "struct IUserDetails.userDetails",
              "name": "uDetails",
              "type": "tuple"
            }
          ],
          "internalType": "struct supplierManufacturer.supplierManufacturerWithProduct[]",
          "name": "",
          "type": "tuple[]"
        }
      ],
      "stateMutability": "view",
      "type": "function"
    },
    {
      "inputs": [],
      "name": "getAllSupplierAddresses",
      "outputs": [
        {
          "internalType": "address[]",
          "name": "",
          "type": "address[]"
        }
      ],
      "stateMutability": "view",
      "type": "function"
    },
    {
      "inputs": [
        {
          "internalType": "uint256",
          "name": "_smId",
          "type": "uint256"
        }
      ],
      "name": "getSmDetails",
      "outputs": [
        {
          "components": [
            {
              "internalType": "uint256",
              "name": "smId",
              "type": "uint256"
            },
            {
              "internalType": "uint256",
              "name": "spId",
              "type": "uint256"
            },
            {
              "internalType": "address",
              "name": "supplierAddress",
              "type": "address"
            },
            {
              "internalType": "address",
              "name": "manufacturerAddress",
              "type": "address"
            },
            {
              "internalType": "uint32",
              "name": "dispatchTime",
              "type": "uint32"
            },
            {
              "internalType": "uint32",
              "name": "arrivalTime",
              "type": "uint32"
            },
            {
              "internalType": "uint32",
              "name": "quantity",
              "type": "uint32"
            },
            {
              "internalType": "uint32",
              "name": "currentQuantity",
              "type": "uint32"
            },
            {
              "internalType": "enum ISupplierManufacturer.transferStatus",
              "name": "status",
              "type": "uint8"
            }
          ],
          "internalType": "struct ISupplierManufacturer.supplierManufacturer",
          "name": "",
          "type": "tuple"
        }
      ],
      "stateMutability": "view",
      "type": "function"
    },
    {
      "inputs": [
        {
          "internalType": "address",
          "name": "",
          "type": "address"
        },
        {
          "internalType": "uint256",
          "name": "",
          "type": "uint256"
        }
      ],
      "name": "manufacturerTosmIdMapping",
      "outputs": [
        {
          "internalType": "uint256",
          "name": "",
          "type": "uint256"
        }
      ],
      "stateMutability": "view",
      "type": "function"
    },
    {
      "inputs": [
        {
          "internalType": "uint256",
          "name": "_smId",
          "type": "uint256"
        }
      ],
      "name": "receiveProduct",
      "outputs": [],
      "stateMutability": "nonpayable",
      "type": "function"
    },
    {
      "inputs": [],
      "name": "reqId",
      "outputs": [
        {
          "internalType": "uint256",
          "name": "",
          "type": "uint256"
        }
      ],
      "stateMutability": "view",
      "type": "function"
    },
    {
      "inputs": [
        {
          "internalType": "uint256",
          "name": "_spId",
          "type": "uint256"
        },
        {
          "internalType": "uint32",
          "name": "_quantity",
          "type": "uint32"
        },
        {
          "internalType": "address",
          "name": "_supplierAddress",
          "type": "address"
        }
      ],
      "name": "requestProduct",
      "outputs": [],
      "stateMutability": "nonpayable",
      "type": "function"
    },
    {
      "inputs": [],
      "name": "smId",
      "outputs": [
        {
          "internalType": "uint256",
          "name": "",
          "type": "uint256"
        }
      ],
      "stateMutability": "view",
      "type": "function"
    },
    {
      "inputs": [
        {
          "internalType": "uint256",
          "name": "",
          "type": "uint256"
        }
      ],
      "name": "smIdToStructMapping",
      "outputs": [
        {
          "internalType": "uint256",
          "name": "smId",
          "type": "uint256"
        },
        {
          "internalType": "uint256",
          "name": "spId",
          "type": "uint256"
        },
        {
          "internalType": "address",
          "name": "supplierAddress",
          "type": "address"
        },
        {
          "internalType": "address",
          "name": "manufacturerAddress",
          "type": "address"
        },
        {
          "internalType": "uint32",
          "name": "dispatchTime",
          "type": "uint32"
        },
        {
          "internalType": "uint32",
          "name": "arrivalTime",
          "type": "uint32"
        },
        {
          "internalType": "uint32",
          "name": "quantity",
          "type": "uint32"
        },
        {
          "internalType": "uint32",
          "name": "currentQuantity",
          "type": "uint32"
        },
        {
          "internalType": "enum ISupplierManufacturer.transferStatus",
          "name": "status",
          "type": "uint8"
        }
      ],
      "stateMutability": "view",
      "type": "function"
    },
    {
      "inputs": [
        {
          "internalType": "address",
          "name": "",
          "type": "address"
        },
        {
          "internalType": "uint256",
          "name": "",
          "type": "uint256"
        }
      ],
      "name": "supplierTosmIdMapping",
      "outputs": [
        {
          "internalType": "uint256",
          "name": "",
          "type": "uint256"
        }
      ],
      "stateMutability": "view",
      "type": "function"
    },
    {
      "inputs": [
        {
          "internalType": "uint256",
          "name": "_smId",
          "type": "uint256"
        },
        {
          "internalType": "address",
          "name": "_manufacturerAddress",
          "type": "address"
        },
        {
          "internalType": "uint32",
          "name": "_quantity",
          "type": "uint32"
        },
        {
          "internalType": "uint32",
          "name": "_currentQuantity",
          "type": "uint32"
        }
      ],
      "name": "transferProduct",
      "outputs": [],
      "stateMutability": "nonpayable",
      "type": "function"
    }
  ],
  "bytecode": "0x60806040526001600055600180553480156200001a57600080fd5b506040516200419038038062004190833981810160405281019062000040919062000175565b33600460006101000a81548173ffffffffffffffffffffffffffffffffffffffff021916908373ffffffffffffffffffffffffffffffffffffffff16021790555081600260006101000a81548173ffffffffffffffffffffffffffffffffffffffff021916908373ffffffffffffffffffffffffffffffffffffffff16021790555080600360006101000a81548173ffffffffffffffffffffffffffffffffffffffff021916908373ffffffffffffffffffffffffffffffffffffffff1602179055505050620001bc565b600080fd5b600073ffffffffffffffffffffffffffffffffffffffff82169050919050565b60006200013d8262000110565b9050919050565b6200014f8162000130565b81146200015b57600080fd5b50565b6000815190506200016f8162000144565b92915050565b600080604083850312156200018f576200018e6200010b565b5b60006200019f858286016200015e565b9250506020620001b2858286016200015e565b9150509250929050565b613fc480620001cc6000396000f3fe608060405234801561001057600080fd5b50600436106101165760003560e01c806397910e77116100a2578063c04bc39211610071578063c04bc39214610303578063c7bbd67e14610333578063ca0d1bb514610351578063ec02181a1461036d578063f192a2e7146103a557610116565b806397910e771461027f578063a4ac44bf146102af578063a6f9dae1146102cb578063b5dafe83146102e757610116565b806329d78328116100e957806329d78328146101b55780634e6afd2c146101d157806370b775a0146102015780637cfc10c0146102315780638997ce4e1461026157610116565b8063029e2fe41461011b5780630f65ae38146101395780631001f30f146101555780632002f6db14610185575b600080fd5b6101236103d5565b60405161013091906129a2565b60405180910390f35b610153600480360381019061014e9190612a2f565b6103db565b005b61016f600480360381019061016a9190612a88565b6104af565b60405161017c91906129a2565b60405180910390f35b61019f600480360381019061019a9190612a2f565b6104e0565b6040516101ac9190612fa8565b60405180910390f35b6101cf60048036038101906101ca9190612fca565b6109af565b005b6101eb60048036038101906101e6919061313f565b610b5f565b6040516101f89190612fa8565b60405180910390f35b61021b60048036038101906102169190612a2f565b610f9b565b6040516102289190613238565b60405180910390f35b61024b60048036038101906102469190612fca565b61129c565b6040516102589190613311565b60405180910390f35b61026961145d565b60405161027691906129a2565b60405180910390f35b61029960048036038101906102949190612a2f565b611463565b6040516102a69190613238565b60405180910390f35b6102c960048036038101906102c49190613359565b611764565b005b6102e560048036038101906102e09190612a2f565b611b74565b005b61030160048036038101906102fc91906133ac565b611c48565b005b61031d60048036038101906103189190612a2f565b612098565b60405161032a9190612fa8565b60405180910390f35b61033b612567565b60405161034891906134c2565b60405180910390f35b61036b60048036038101906103669190612a2f565b612604565b005b61038760048036038101906103829190612fca565b6126d8565b60405161039c99989796959493929190613511565b60405180910390f35b6103bf60048036038101906103ba9190612a88565b6127b3565b6040516103cc91906129a2565b60405180910390f35b60005481565b600460009054906101000a900473ffffffffffffffffffffffffffffffffffffffff1673ffffffffffffffffffffffffffffffffffffffff163373ffffffffffffffffffffffffffffffffffffffff161461046b576040517f08c379a0000000000000000000000000000000000000000000000000000000008152600401610462906135fb565b60405180910390fd5b80600260006101000a81548173ffffffffffffffffffffffffffffffffffffffff021916908373ffffffffffffffffffffffffffffffffffffffff16021790555050565b600660205281600052604060002081815481106104cb57600080fd5b90600052602060002001600091509150505481565b60606000600760008473ffffffffffffffffffffffffffffffffffffffff1673ffffffffffffffffffffffffffffffffffffffff16815260200190815260200160002080548060200260200160405190810160405280929190818152602001828054801561056d57602002820191906000526020600020905b815481526020019060010190808311610559575b505050505090506000815167ffffffffffffffff81111561059157610590612ffc565b5b6040519080825280602002602001820160405280156105ca57816020015b6105b76127e4565b8152602001906001900390816105af5790505b50905060005b82518110156109a457600560008483815181106105f0576105ef61361b565b5b602002602001015181526020019081526020016000206040518061012001604052908160008201548152602001600182015481526020016002820160009054906101000a900473ffffffffffffffffffffffffffffffffffffffff1673ffffffffffffffffffffffffffffffffffffffff1673ffffffffffffffffffffffffffffffffffffffff1681526020016003820160009054906101000a900473ffffffffffffffffffffffffffffffffffffffff1673ffffffffffffffffffffffffffffffffffffffff1673ffffffffffffffffffffffffffffffffffffffff1681526020016003820160149054906101000a900463ffffffff1663ffffffff1663ffffffff1681526020016003820160189054906101000a900463ffffffff1663ffffffff1663ffffffff16815260200160038201601c9054906101000a900463ffffffff1663ffffffff1663ffffffff1681526020016004820160009054906101000a900463ffffffff1663ffffffff1663ffffffff1681526020016004820160049054906101000a900460ff16600381111561078f5761078e612b31565b5b60038111156107a1576107a0612b31565b5b815250508282815181106107b8576107b761361b565b5b602002602001015160000181905250600360009054906101000a900473ffffffffffffffffffffffffffffffffffffffff1673ffffffffffffffffffffffffffffffffffffffff1663c22ef68e8383815181106108185761081761361b565b5b602002602001015160000151602001516040518263ffffffff1660e01b815260040161084491906129a2565b600060405180830381865afa158015610861573d6000803e3d6000fd5b505050506040513d6000823e3d601f19601f8201168201806040525081019061088a919061387e565b82828151811061089d5761089c61361b565b5b602002602001015160200181905250600260009054906101000a900473ffffffffffffffffffffffffffffffffffffffff1673ffffffffffffffffffffffffffffffffffffffff1663358525418383815181106108fd576108fc61361b565b5b602002602001015160000151606001516040518263ffffffff1660e01b815260040161092991906138c7565b600060405180830381865afa158015610946573d6000803e3d6000fd5b505050506040513d6000823e3d601f19601f8201168201806040525081019061096f91906139e7565b8282815181106109825761098161361b565b5b602002602001015160400181905250808061099c90613a5f565b9150506105d0565b508092505050919050565b6000600260009054906101000a900473ffffffffffffffffffffffffffffffffffffffff1673ffffffffffffffffffffffffffffffffffffffff166335852541336040518263ffffffff1660e01b8152600401610a0c91906138c7565b600060405180830381865afa158015610a29573d6000803e3d6000fd5b505050506040513d6000823e3d601f19601f82011682018060405250810190610a5291906139e7565b9050600181600001516002811115610a6d57610a6c612b31565b5b60ff1614610ab0576040517f08c379a0000000000000000000000000000000000000000000000000000000008152600401610aa790613b19565b60405180910390fd5b426005600084815260200190815260200160002060030160186101000a81548163ffffffff021916908363ffffffff16021790555060036005600084815260200190815260200160002060040160046101000a81548160ff02191690836003811115610b1f57610b1e612b31565b5b02179055507f64e64e323422dcfed18a892f84596ccf7cc94b1952625f3cc82e6461b529fff142604051610b539190613b39565b60405180910390a15050565b60606000825167ffffffffffffffff811115610b7e57610b7d612ffc565b5b604051908082528060200260200182016040528015610bb757816020015b610ba46127e4565b815260200190600190039081610b9c5790505b50905060005b8351811015610f915760056000858381518110610bdd57610bdc61361b565b5b602002602001015181526020019081526020016000206040518061012001604052908160008201548152602001600182015481526020016002820160009054906101000a900473ffffffffffffffffffffffffffffffffffffffff1673ffffffffffffffffffffffffffffffffffffffff1673ffffffffffffffffffffffffffffffffffffffff1681526020016003820160009054906101000a900473ffffffffffffffffffffffffffffffffffffffff1673ffffffffffffffffffffffffffffffffffffffff1673ffffffffffffffffffffffffffffffffffffffff1681526020016003820160149054906101000a900463ffffffff1663ffffffff1663ffffffff1681526020016003820160189054906101000a900463ffffffff1663ffffffff1663ffffffff16815260200160038201601c9054906101000a900463ffffffff1663ffffffff1663ffffffff1681526020016004820160009054906101000a900463ffffffff1663ffffffff1663ffffffff1681526020016004820160049054906101000a900460ff166003811115610d7c57610d7b612b31565b5b6003811115610d8e57610d8d612b31565b5b81525050828281518110610da557610da461361b565b5b602002602001015160000181905250600360009054906101000a900473ffffffffffffffffffffffffffffffffffffffff1673ffffffffffffffffffffffffffffffffffffffff1663c22ef68e838381518110610e0557610e0461361b565b5b602002602001015160000151602001516040518263ffffffff1660e01b8152600401610e3191906129a2565b600060405180830381865afa158015610e4e573d6000803e3d6000fd5b505050506040513d6000823e3d601f19601f82011682018060405250810190610e77919061387e565b828281518110610e8a57610e8961361b565b5b602002602001015160200181905250600260009054906101000a900473ffffffffffffffffffffffffffffffffffffffff1673ffffffffffffffffffffffffffffffffffffffff166335852541838381518110610eea57610ee961361b565b5b602002602001015160000151604001516040518263ffffffff1660e01b8152600401610f1691906138c7565b600060405180830381865afa158015610f33573d6000803e3d6000fd5b505050506040513d6000823e3d601f19601f82011682018060405250810190610f5c91906139e7565b828281518110610f6f57610f6e61361b565b5b6020026020010151604001819052508080610f8990613a5f565b915050610bbd565b5080915050919050565b60606000600660008473ffffffffffffffffffffffffffffffffffffffff1673ffffffffffffffffffffffffffffffffffffffff16815260200190815260200160002080548060200260200160405190810160405280929190818152602001828054801561102857602002820191906000526020600020905b815481526020019060010190808311611014575b505050505090506000815167ffffffffffffffff81111561104c5761104b612ffc565b5b60405190808252806020026020018201604052801561108557816020015b611072612817565b81526020019060019003908161106a5790505b50905060005b825181101561129157600560008483815181106110ab576110aa61361b565b5b602002602001015181526020019081526020016000206040518061012001604052908160008201548152602001600182015481526020016002820160009054906101000a900473ffffffffffffffffffffffffffffffffffffffff1673ffffffffffffffffffffffffffffffffffffffff1673ffffffffffffffffffffffffffffffffffffffff1681526020016003820160009054906101000a900473ffffffffffffffffffffffffffffffffffffffff1673ffffffffffffffffffffffffffffffffffffffff1673ffffffffffffffffffffffffffffffffffffffff1681526020016003820160149054906101000a900463ffffffff1663ffffffff1663ffffffff1681526020016003820160189054906101000a900463ffffffff1663ffffffff1663ffffffff16815260200160038201601c9054906101000a900463ffffffff1663ffffffff1663ffffffff1681526020016004820160009054906101000a900463ffffffff1663ffffffff1663ffffffff1681526020016004820160049054906101000a900460ff16600381111561124a57611249612b31565b5b600381111561125c5761125b612b31565b5b815250508282815181106112735761127261361b565b5b6020026020010181905250808061128990613a5f565b91505061108b565b508092505050919050565b6112a4612817565b600560008381526020019081526020016000206040518061012001604052908160008201548152602001600182015481526020016002820160009054906101000a900473ffffffffffffffffffffffffffffffffffffffff1673ffffffffffffffffffffffffffffffffffffffff1673ffffffffffffffffffffffffffffffffffffffff1681526020016003820160009054906101000a900473ffffffffffffffffffffffffffffffffffffffff1673ffffffffffffffffffffffffffffffffffffffff1673ffffffffffffffffffffffffffffffffffffffff1681526020016003820160149054906101000a900463ffffffff1663ffffffff1663ffffffff1681526020016003820160189054906101000a900463ffffffff1663ffffffff1663ffffffff16815260200160038201601c9054906101000a900463ffffffff1663ffffffff1663ffffffff1681526020016004820160009054906101000a900463ffffffff1663ffffffff1663ffffffff1681526020016004820160049054906101000a900460ff1660038111156114405761143f612b31565b5b600381111561145257611451612b31565b5b815250509050919050565b60015481565b60606000600760008473ffffffffffffffffffffffffffffffffffffffff1673ffffffffffffffffffffffffffffffffffffffff1681526020019081526020016000208054806020026020016040519081016040528092919081815260200182805480156114f057602002820191906000526020600020905b8154815260200190600101908083116114dc575b505050505090506000815167ffffffffffffffff81111561151457611513612ffc565b5b60405190808252806020026020018201604052801561154d57816020015b61153a612817565b8152602001906001900390816115325790505b50905060005b825181101561175957600560008483815181106115735761157261361b565b5b602002602001015181526020019081526020016000206040518061012001604052908160008201548152602001600182015481526020016002820160009054906101000a900473ffffffffffffffffffffffffffffffffffffffff1673ffffffffffffffffffffffffffffffffffffffff1673ffffffffffffffffffffffffffffffffffffffff1681526020016003820160009054906101000a900473ffffffffffffffffffffffffffffffffffffffff1673ffffffffffffffffffffffffffffffffffffffff1673ffffffffffffffffffffffffffffffffffffffff1681526020016003820160149054906101000a900463ffffffff1663ffffffff1663ffffffff1681526020016003820160189054906101000a900463ffffffff1663ffffffff1663ffffffff16815260200160038201601c9054906101000a900463ffffffff1663ffffffff1663ffffffff1681526020016004820160009054906101000a900463ffffffff1663ffffffff1663ffffffff1681526020016004820160049054906101000a900460ff16600381111561171257611711612b31565b5b600381111561172457611723612b31565b5b8152505082828151811061173b5761173a61361b565b5b6020026020010181905250808061175190613a5f565b915050611553565b508092505050919050565b6000600260009054906101000a900473ffffffffffffffffffffffffffffffffffffffff1673ffffffffffffffffffffffffffffffffffffffff166335852541336040518263ffffffff1660e01b81526004016117c191906138c7565b600060405180830381865afa1580156117de573d6000803e3d6000fd5b505050506040513d6000823e3d601f19601f8201168201806040525081019061180791906139e7565b905060018160000151600281111561182257611821612b31565b5b60ff1614611865576040517f08c379a000000000000000000000000000000000000000000000000000000000815260040161185c90613bc6565b60405180910390fd5b60405180610120016040528060005481526020018581526020018373ffffffffffffffffffffffffffffffffffffffff1681526020013373ffffffffffffffffffffffffffffffffffffffff168152602001600063ffffffff168152602001600063ffffffff1681526020018463ffffffff168152602001600063ffffffff168152602001600160038111156118fe576118fd612b31565b5b8152506005600080548152602001908152602001600020600082015181600001556020820151816001015560408201518160020160006101000a81548173ffffffffffffffffffffffffffffffffffffffff021916908373ffffffffffffffffffffffffffffffffffffffff16021790555060608201518160030160006101000a81548173ffffffffffffffffffffffffffffffffffffffff021916908373ffffffffffffffffffffffffffffffffffffffff16021790555060808201518160030160146101000a81548163ffffffff021916908363ffffffff16021790555060a08201518160030160186101000a81548163ffffffff021916908363ffffffff16021790555060c082015181600301601c6101000a81548163ffffffff021916908363ffffffff16021790555060e08201518160040160006101000a81548163ffffffff021916908363ffffffff1602179055506101008201518160040160046101000a81548160ff02191690836003811115611a7f57611a7e612b31565b5b0217905550905050600660003373ffffffffffffffffffffffffffffffffffffffff1673ffffffffffffffffffffffffffffffffffffffff1681526020019081526020016000206000549080600181540180825580915050600190039060005260206000200160009091909190915055600760008373ffffffffffffffffffffffffffffffffffffffff1673ffffffffffffffffffffffffffffffffffffffff1681526020019081526020016000206000549080600181540180825580915050600190039060005260206000200160009091909190915055600080815480929190611b6990613a5f565b919050555050505050565b600460009054906101000a900473ffffffffffffffffffffffffffffffffffffffff1673ffffffffffffffffffffffffffffffffffffffff163373ffffffffffffffffffffffffffffffffffffffff1614611c04576040517f08c379a0000000000000000000000000000000000000000000000000000000008152600401611bfb906135fb565b60405180910390fd5b80600460006101000a81548173ffffffffffffffffffffffffffffffffffffffff021916908373ffffffffffffffffffffffffffffffffffffffff16021790555050565b6000600260009054906101000a900473ffffffffffffffffffffffffffffffffffffffff1673ffffffffffffffffffffffffffffffffffffffff166335852541336040518263ffffffff1660e01b8152600401611ca591906138c7565b600060405180830381865afa158015611cc2573d6000803e3d6000fd5b505050506040513d6000823e3d601f19601f82011682018060405250810190611ceb91906139e7565b9050600081600001516002811115611d0657611d05612b31565b5b60ff1614611d49576040517f08c379a0000000000000000000000000000000000000000000000000000000008152600401611d4090613c58565b60405180910390fd5b60003390506000600360009054906101000a900473ffffffffffffffffffffffffffffffffffffffff1673ffffffffffffffffffffffffffffffffffffffff166311517205836040518263ffffffff1660e01b8152600401611dab91906138c7565b600060405180830381865afa158015611dc8573d6000803e3d6000fd5b505050506040513d6000823e3d601f19601f82011682018060405250810190611df19190613d24565b90506000805b8251811015611e5357600560008a815260200190815260200160002060010154838281518110611e2a57611e2961361b565b5b602002602001015103611e405760019150611e53565b8080611e4b90613a5f565b915050611df7565b5080611e94576040517f08c379a0000000000000000000000000000000000000000000000000000000008152600401611e8b90613db9565b60405180910390fd5b33600560008a815260200190815260200160002060020160006101000a81548173ffffffffffffffffffffffffffffffffffffffff021916908373ffffffffffffffffffffffffffffffffffffffff16021790555042600560008a815260200190815260200160002060030160146101000a81548163ffffffff021916908363ffffffff16021790555084600560008a815260200190815260200160002060040160006101000a81548163ffffffff021916908363ffffffff1602179055506002600560008a815260200190815260200160002060040160046101000a81548160ff02191690836003811115611f8d57611f8c612b31565b5b021790555060056000898152602001908152602001600020600101546000547f6abc5964a9f8c02bee56a206f75c7526ea67f5abd5cbbe939c60d4a489607e49338a42604051611fdf93929190613dd9565b60405180910390a3600360009054906101000a900473ffffffffffffffffffffffffffffffffffffffff1673ffffffffffffffffffffffffffffffffffffffff1663dc1c7963600560008b81526020019081526020016000206001015488866040518463ffffffff1660e01b815260040161205c93929190613e4b565b600060405180830381600087803b15801561207657600080fd5b505af115801561208a573d6000803e3d6000fd5b505050505050505050505050565b60606000600660008473ffffffffffffffffffffffffffffffffffffffff1673ffffffffffffffffffffffffffffffffffffffff16815260200190815260200160002080548060200260200160405190810160405280929190818152602001828054801561212557602002820191906000526020600020905b815481526020019060010190808311612111575b505050505090506000815167ffffffffffffffff81111561214957612148612ffc565b5b60405190808252806020026020018201604052801561218257816020015b61216f6127e4565b8152602001906001900390816121675790505b50905060005b825181101561255c57600560008483815181106121a8576121a761361b565b5b602002602001015181526020019081526020016000206040518061012001604052908160008201548152602001600182015481526020016002820160009054906101000a900473ffffffffffffffffffffffffffffffffffffffff1673ffffffffffffffffffffffffffffffffffffffff1673ffffffffffffffffffffffffffffffffffffffff1681526020016003820160009054906101000a900473ffffffffffffffffffffffffffffffffffffffff1673ffffffffffffffffffffffffffffffffffffffff1673ffffffffffffffffffffffffffffffffffffffff1681526020016003820160149054906101000a900463ffffffff1663ffffffff1663ffffffff1681526020016003820160189054906101000a900463ffffffff1663ffffffff1663ffffffff16815260200160038201601c9054906101000a900463ffffffff1663ffffffff1663ffffffff1681526020016004820160009054906101000a900463ffffffff1663ffffffff1663ffffffff1681526020016004820160049054906101000a900460ff16600381111561234757612346612b31565b5b600381111561235957612358612b31565b5b815250508282815181106123705761236f61361b565b5b602002602001015160000181905250600360009054906101000a900473ffffffffffffffffffffffffffffffffffffffff1673ffffffffffffffffffffffffffffffffffffffff1663c22ef68e8383815181106123d0576123cf61361b565b5b602002602001015160000151602001516040518263ffffffff1660e01b81526004016123fc91906129a2565b600060405180830381865afa158015612419573d6000803e3d6000fd5b505050506040513d6000823e3d601f19601f82011682018060405250810190612442919061387e565b8282815181106124555761245461361b565b5b602002602001015160200181905250600260009054906101000a900473ffffffffffffffffffffffffffffffffffffffff1673ffffffffffffffffffffffffffffffffffffffff1663358525418383815181106124b5576124b461361b565b5b602002602001015160000151604001516040518263ffffffff1660e01b81526004016124e191906138c7565b600060405180830381865afa1580156124fe573d6000803e3d6000fd5b505050506040513d6000823e3d601f19601f8201168201806040525081019061252791906139e7565b82828151811061253a5761253961361b565b5b602002602001015160400181905250808061255490613a5f565b915050612188565b508092505050919050565b6060600260009054906101000a900473ffffffffffffffffffffffffffffffffffffffff1673ffffffffffffffffffffffffffffffffffffffff1663c7bbd67e6040518163ffffffff1660e01b8152600401600060405180830381865afa1580156125d6573d6000803e3d6000fd5b505050506040513d6000823e3d601f19601f820116820180604052508101906125ff9190613f45565b905090565b600460009054906101000a900473ffffffffffffffffffffffffffffffffffffffff1673ffffffffffffffffffffffffffffffffffffffff163373ffffffffffffffffffffffffffffffffffffffff1614612694576040517f08c379a000000000000000000000000000000000000000000000000000000000815260040161268b906135fb565b60405180910390fd5b80600360006101000a81548173ffffffffffffffffffffffffffffffffffffffff021916908373ffffffffffffffffffffffffffffffffffffffff16021790555050565b60056020528060005260406000206000915090508060000154908060010154908060020160009054906101000a900473ffffffffffffffffffffffffffffffffffffffff16908060030160009054906101000a900473ffffffffffffffffffffffffffffffffffffffff16908060030160149054906101000a900463ffffffff16908060030160189054906101000a900463ffffffff169080600301601c9054906101000a900463ffffffff16908060040160009054906101000a900463ffffffff16908060040160049054906101000a900460ff16905089565b600760205281600052604060002081815481106127cf57600080fd5b90600052602060002001600091509150505481565b60405180606001604052806127f7612817565b81526020016128046128b9565b8152602001612811612946565b81525090565b6040518061012001604052806000815260200160008152602001600073ffffffffffffffffffffffffffffffffffffffff168152602001600073ffffffffffffffffffffffffffffffffffffffff168152602001600063ffffffff168152602001600063ffffffff168152602001600063ffffffff168152602001600063ffffffff168152602001600060038111156128b3576128b2612b31565b5b81525090565b604051806101000160405280600073ffffffffffffffffffffffffffffffffffffffff168152602001606081526020016060815260200160006fffffffffffffffffffffffffffffffff16815260200160006fffffffffffffffffffffffffffffffff168152602001600063ffffffff168152602001600063ffffffff1681526020016000151581525090565b6040518060a001604052806000600281111561296557612964612b31565b5b81526020016060815260200160608152602001606081526020016000151581525090565b6000819050919050565b61299c81612989565b82525050565b60006020820190506129b76000830184612993565b92915050565b6000604051905090565b600080fd5b600080fd5b600073ffffffffffffffffffffffffffffffffffffffff82169050919050565b60006129fc826129d1565b9050919050565b612a0c816129f1565b8114612a1757600080fd5b50565b600081359050612a2981612a03565b92915050565b600060208284031215612a4557612a446129c7565b5b6000612a5384828501612a1a565b91505092915050565b612a6581612989565b8114612a7057600080fd5b50565b600081359050612a8281612a5c565b92915050565b60008060408385031215612a9f57612a9e6129c7565b5b6000612aad85828601612a1a565b9250506020612abe85828601612a73565b9150509250929050565b600081519050919050565b600082825260208201905092915050565b6000819050602082019050919050565b612afd81612989565b82525050565b612b0c816129f1565b82525050565b600063ffffffff82169050919050565b612b2b81612b12565b82525050565b7f4e487b7100000000000000000000000000000000000000000000000000000000600052602160045260246000fd5b60048110612b7157612b70612b31565b5b50565b6000819050612b8282612b60565b919050565b6000612b9282612b74565b9050919050565b612ba281612b87565b82525050565b61012082016000820151612bbf6000850182612af4565b506020820151612bd26020850182612af4565b506040820151612be56040850182612b03565b506060820151612bf86060850182612b03565b506080820151612c0b6080850182612b22565b5060a0820151612c1e60a0850182612b22565b5060c0820151612c3160c0850182612b22565b5060e0820151612c4460e0850182612b22565b50610100820151612c59610100850182612b99565b50505050565b600081519050919050565b600082825260208201905092915050565b60005b83811015612c99578082015181840152602081019050612c7e565b60008484015250505050565b6000601f19601f8301169050919050565b6000612cc182612c5f565b612ccb8185612c6a565b9350612cdb818560208601612c7b565b612ce481612ca5565b840191505092915050565b60006fffffffffffffffffffffffffffffffff82169050919050565b612d1481612cef565b82525050565b60008115159050919050565b612d2f81612d1a565b82525050565b600061010083016000830151612d4e6000860182612b03565b5060208301518482036020860152612d668282612cb6565b91505060408301518482036040860152612d808282612cb6565b9150506060830151612d956060860182612d0b565b506080830151612da86080860182612d0b565b5060a0830151612dbb60a0860182612b22565b5060c0830151612dce60c0860182612b22565b5060e0830151612de160e0860182612d26565b508091505092915050565b60038110612dfd57612dfc612b31565b5b50565b6000819050612e0e82612dec565b919050565b6000612e1e82612e00565b9050919050565b612e2e81612e13565b82525050565b600060a083016000830151612e4c6000860182612e25565b5060208301518482036020860152612e648282612cb6565b91505060408301518482036040860152612e7e8282612cb6565b91505060608301518482036060860152612e988282612cb6565b9150506080830151612ead6080860182612d26565b508091505092915050565b600061016083016000830151612ed16000860182612ba8565b506020830151848203610120860152612eea8282612d35565b9150506040830151848203610140860152612f058282612e34565b9150508091505092915050565b6000612f1e8383612eb8565b905092915050565b6000602082019050919050565b6000612f3e82612ac8565b612f488185612ad3565b935083602082028501612f5a85612ae4565b8060005b85811015612f965784840389528151612f778582612f12565b9450612f8283612f26565b925060208a01995050600181019050612f5e565b50829750879550505050505092915050565b60006020820190508181036000830152612fc28184612f33565b905092915050565b600060208284031215612fe057612fdf6129c7565b5b6000612fee84828501612a73565b91505092915050565b600080fd5b7f4e487b7100000000000000000000000000000000000000000000000000000000600052604160045260246000fd5b61303482612ca5565b810181811067ffffffffffffffff8211171561305357613052612ffc565b5b80604052505050565b60006130666129bd565b9050613072828261302b565b919050565b600067ffffffffffffffff82111561309257613091612ffc565b5b602082029050602081019050919050565b600080fd5b60006130bb6130b684613077565b61305c565b905080838252602082019050602084028301858111156130de576130dd6130a3565b5b835b8181101561310757806130f38882612a73565b8452602084019350506020810190506130e0565b5050509392505050565b600082601f83011261312657613125612ff7565b5b81356131368482602086016130a8565b91505092915050565b600060208284031215613155576131546129c7565b5b600082013567ffffffffffffffff811115613173576131726129cc565b5b61317f84828501613111565b91505092915050565b600081519050919050565b600082825260208201905092915050565b6000819050602082019050919050565b60006131c08383612ba8565b6101208301905092915050565b6000602082019050919050565b60006131e582613188565b6131ef8185613193565b93506131fa836131a4565b8060005b8381101561322b57815161321288826131b4565b975061321d836131cd565b9250506001810190506131fe565b5085935050505092915050565b6000602082019050818103600083015261325281846131da565b905092915050565b610120820160008201516132716000850182612af4565b5060208201516132846020850182612af4565b5060408201516132976040850182612b03565b5060608201516132aa6060850182612b03565b5060808201516132bd6080850182612b22565b5060a08201516132d060a0850182612b22565b5060c08201516132e360c0850182612b22565b5060e08201516132f660e0850182612b22565b5061010082015161330b610100850182612b99565b50505050565b600061012082019050613327600083018461325a565b92915050565b61333681612b12565b811461334157600080fd5b50565b6000813590506133538161332d565b92915050565b600080600060608486031215613372576133716129c7565b5b600061338086828701612a73565b935050602061339186828701613344565b92505060406133a286828701612a1a565b9150509250925092565b600080600080608085870312156133c6576133c56129c7565b5b60006133d487828801612a73565b94505060206133e587828801612a1a565b93505060406133f687828801613344565b925050606061340787828801613344565b91505092959194509250565b600081519050919050565b600082825260208201905092915050565b6000819050602082019050919050565b600061344b8383612b03565b60208301905092915050565b6000602082019050919050565b600061346f82613413565b613479818561341e565b93506134848361342f565b8060005b838110156134b557815161349c888261343f565b97506134a783613457565b925050600181019050613488565b5085935050505092915050565b600060208201905081810360008301526134dc8184613464565b905092915050565b6134ed816129f1565b82525050565b6134fc81612b12565b82525050565b61350b81612b87565b82525050565b600061012082019050613527600083018c612993565b613534602083018b612993565b613541604083018a6134e4565b61354e60608301896134e4565b61355b60808301886134f3565b61356860a08301876134f3565b61357560c08301866134f3565b61358260e08301856134f3565b613590610100830184613502565b9a9950505050505050505050565b600082825260208201905092915050565b7f4e6f74206f776e65720000000000000000000000000000000000000000000000600082015250565b60006135e560098361359e565b91506135f0826135af565b602082019050919050565b60006020820190508181036000830152613614816135d8565b9050919050565b7f4e487b7100000000000000000000000000000000000000000000000000000000600052603260045260246000fd5b600080fd5b600080fd5b60008151905061366381612a03565b92915050565b600080fd5b600067ffffffffffffffff82111561368957613688612ffc565b5b61369282612ca5565b9050602081019050919050565b60006136b26136ad8461366e565b61305c565b9050828152602081018484840111156136ce576136cd613669565b5b6136d9848285612c7b565b509392505050565b600082601f8301126136f6576136f5612ff7565b5b815161370684826020860161369f565b91505092915050565b61371881612cef565b811461372357600080fd5b50565b6000815190506137358161370f565b92915050565b60008151905061374a8161332d565b92915050565b61375981612d1a565b811461376457600080fd5b50565b60008151905061377681613750565b92915050565b600061010082840312156137935761379261364a565b5b61379e61010061305c565b905060006137ae84828501613654565b600083015250602082015167ffffffffffffffff8111156137d2576137d161364f565b5b6137de848285016136e1565b602083015250604082015167ffffffffffffffff8111156138025761380161364f565b5b61380e848285016136e1565b604083015250606061382284828501613726565b606083015250608061383684828501613726565b60808301525060a061384a8482850161373b565b60a08301525060c061385e8482850161373b565b60c08301525060e061387284828501613767565b60e08301525092915050565b600060208284031215613894576138936129c7565b5b600082015167ffffffffffffffff8111156138b2576138b16129cc565b5b6138be8482850161377c565b91505092915050565b60006020820190506138dc60008301846134e4565b92915050565b600381106138ef57600080fd5b50565b600081519050613901816138e2565b92915050565b600060a0828403121561391d5761391c61364a565b5b61392760a061305c565b90506000613937848285016138f2565b600083015250602082015167ffffffffffffffff81111561395b5761395a61364f565b5b613967848285016136e1565b602083015250604082015167ffffffffffffffff81111561398b5761398a61364f565b5b613997848285016136e1565b604083015250606082015167ffffffffffffffff8111156139bb576139ba61364f565b5b6139c7848285016136e1565b60608301525060806139db84828501613767565b60808301525092915050565b6000602082840312156139fd576139fc6129c7565b5b600082015167ffffffffffffffff811115613a1b57613a1a6129cc565b5b613a2784828501613907565b91505092915050565b7f4e487b7100000000000000000000000000000000000000000000000000000000600052601160045260246000fd5b6000613a6a82612989565b91507fffffffffffffffffffffffffffffffffffffffffffffffffffffffffffffffff8203613a9c57613a9b613a30565b5b600182019050919050565b7f4f6e6c79204d616e7566616374757265722063616e2061636b6e6f776c65646760008201527f6520726563656976652070726f64756374000000000000000000000000000000602082015250565b6000613b0360318361359e565b9150613b0e82613aa7565b604082019050919050565b60006020820190508181036000830152613b3281613af6565b9050919050565b6000602082019050613b4e60008301846134f3565b92915050565b7f4f6e6c79204d616e7566616374757265722063616e205265717565737420707260008201527f6f64756374000000000000000000000000000000000000000000000000000000602082015250565b6000613bb060258361359e565b9150613bbb82613b54565b604082019050919050565b60006020820190508181036000830152613bdf81613ba3565b9050919050565b7f4f6e6c7920537570706c6965722063616e205472616e736665722070726f647560008201527f6374000000000000000000000000000000000000000000000000000000000000602082015250565b6000613c4260228361359e565b9150613c4d82613be6565b604082019050919050565b60006020820190508181036000830152613c7181613c35565b9050919050565b600081519050613c8781612a5c565b92915050565b6000613ca0613c9b84613077565b61305c565b90508083825260208201905060208402830185811115613cc357613cc26130a3565b5b835b81811015613cec5780613cd88882613c78565b845260208401935050602081019050613cc5565b5050509392505050565b600082601f830112613d0b57613d0a612ff7565b5b8151613d1b848260208601613c8d565b91505092915050565b600060208284031215613d3a57613d396129c7565b5b600082015167ffffffffffffffff811115613d5857613d576129cc565b5b613d6484828501613cf6565b91505092915050565b7f50726f64756374206e6f74206f776e656420627920796f750000000000000000600082015250565b6000613da360188361359e565b9150613dae82613d6d565b602082019050919050565b60006020820190508181036000830152613dd281613d96565b9050919050565b6000606082019050613dee60008301866134e4565b613dfb60208301856134e4565b613e0860408301846134f3565b949350505050565b6000819050919050565b6000613e35613e30613e2b84612b12565b613e10565b612cef565b9050919050565b613e4581613e1a565b82525050565b6000606082019050613e606000830186612993565b613e6d6020830185613e3c565b613e7a60408301846134e4565b949350505050565b600067ffffffffffffffff821115613e9d57613e9c612ffc565b5b602082029050602081019050919050565b6000613ec1613ebc84613e82565b61305c565b90508083825260208201905060208402830185811115613ee457613ee36130a3565b5b835b81811015613f0d5780613ef98882613654565b845260208401935050602081019050613ee6565b5050509392505050565b600082601f830112613f2c57613f2b612ff7565b5b8151613f3c848260208601613eae565b91505092915050565b600060208284031215613f5b57613f5a6129c7565b5b600082015167ffffffffffffffff811115613f7957613f786129cc565b5b613f8584828501613f17565b9150509291505056fea2646970667358221220e74c60bd9f02ae22d7f7d37f156a2c174d9e466c1a8bd950c0bf0e4792cedddb64736f6c63430008120033",
  "linkReferences": {},
  "deployedLinkReferences": {}
}