{
  "_format": "hh-sol-artifact-1",
  "contractName": "supplierManufacturer",
  "sourceName": "contracts/supplierManufacturer.sol",
  "abi": [
    {
      "inputs": [
        {
          "internalType": "address",
          "name": "_udAddress",
          "type": "address"
        },
        {
          "internalType": "address",
          "name": "_spAddress",
          "type": "address"
        }
      ],
      "stateMutability": "nonpayable",
      "type": "constructor"
    },
    {
      "anonymous": false,
      "inputs": [
        {
          "indexed": false,
          "internalType": "uint32",
          "name": "_arrivalTime",
          "type": "uint32"
        }
      ],
      "name": "eventArrivalTime",
      "type": "event"
    },
    {
      "anonymous": false,
      "inputs": [
        {
          "indexed": true,
          "internalType": "uint256",
          "name": "_smId",
          "type": "uint256"
        },
        {
          "indexed": true,
          "internalType": "uint256",
          "name": "_spId",
          "type": "uint256"
        },
        {
          "indexed": false,
          "internalType": "address",
          "name": "_supplierAddress",
          "type": "address"
        },
        {
          "indexed": false,
          "internalType": "address",
          "name": "_manufacturerAddress",
          "type": "address"
        },
        {
          "indexed": false,
          "internalType": "uint32",
          "name": "_dispatchTime",
          "type": "uint32"
        }
      ],
      "name": "eventSupplierManufacturerTransfer",
      "type": "event"
    },
    {
      "inputs": [
        {
          "internalType": "address",
          "name": "_ownerAddress",
          "type": "address"
        }
      ],
      "name": "changeOwner",
      "outputs": [],
      "stateMutability": "nonpayable",
      "type": "function"
    },
    {
      "inputs": [
        {
          "internalType": "address",
          "name": "_spAddress",
          "type": "address"
        }
      ],
      "name": "changeSpAddress",
      "outputs": [],
      "stateMutability": "nonpayable",
      "type": "function"
    },
    {
      "inputs": [
        {
          "internalType": "address",
          "name": "_udAddress",
          "type": "address"
        }
      ],
      "name": "changeUdAddress",
      "outputs": [],
      "stateMutability": "nonpayable",
      "type": "function"
    },
    {
      "inputs": [
        {
          "internalType": "address",
          "name": "_manufacturerAddress",
          "type": "address"
        }
      ],
      "name": "getAllSmIdForManufacturer",
      "outputs": [
        {
          "components": [
            {
              "internalType": "uint256",
              "name": "smId",
              "type": "uint256"
            },
            {
              "internalType": "uint256",
              "name": "spId",
              "type": "uint256"
            },
            {
              "internalType": "address",
              "name": "supplierAddress",
              "type": "address"
            },
            {
              "internalType": "address",
              "name": "manufacturerAddress",
              "type": "address"
            },
            {
              "internalType": "uint32",
              "name": "dispatchTime",
              "type": "uint32"
            },
            {
              "internalType": "uint32",
              "name": "arrivalTime",
              "type": "uint32"
            },
            {
              "internalType": "uint32",
              "name": "quantity",
              "type": "uint32"
            },
            {
              "internalType": "uint32",
              "name": "currentQuantity",
              "type": "uint32"
            },
            {
              "internalType": "enum ISupplierManufacturer.transferStatus",
              "name": "status",
              "type": "uint8"
            }
          ],
          "internalType": "struct ISupplierManufacturer.supplierManufacturer[]",
          "name": "",
          "type": "tuple[]"
        }
      ],
      "stateMutability": "view",
      "type": "function"
    },
    {
      "inputs": [
        {
          "internalType": "address",
          "name": "_manufacturerAddress",
          "type": "address"
        }
      ],
      "name": "getAllSmIdForManufacturerWithproductDetails",
      "outputs": [
        {
          "components": [
            {
              "components": [
                {
                  "internalType": "uint256",
                  "name": "smId",
                  "type": "uint256"
                },
                {
                  "internalType": "uint256",
                  "name": "spId",
                  "type": "uint256"
                },
                {
                  "internalType": "address",
                  "name": "supplierAddress",
                  "type": "address"
                },
                {
                  "internalType": "address",
                  "name": "manufacturerAddress",
                  "type": "address"
                },
                {
                  "internalType": "uint32",
                  "name": "dispatchTime",
                  "type": "uint32"
                },
                {
                  "internalType": "uint32",
                  "name": "arrivalTime",
                  "type": "uint32"
                },
                {
                  "internalType": "uint32",
                  "name": "quantity",
                  "type": "uint32"
                },
                {
                  "internalType": "uint32",
                  "name": "currentQuantity",
                  "type": "uint32"
                },
                {
                  "internalType": "enum ISupplierManufacturer.transferStatus",
                  "name": "status",
                  "type": "uint8"
                }
              ],
              "internalType": "struct ISupplierManufacturer.supplierManufacturer",
              "name": "smDetails",
              "type": "tuple"
            },
            {
              "components": [
                {
                  "internalType": "address",
                  "name": "supplierAddress",
                  "type": "address"
                },
                {
                  "internalType": "bytes",
                  "name": "sp_name",
                  "type": "bytes"
                },
                {
                  "internalType": "bytes",
                  "name": "sp_description",
                  "type": "bytes"
                },
                {
                  "internalType": "uint128",
                  "name": "sp_unit",
                  "type": "uint128"
                },
                {
                  "internalType": "uint128",
                  "name": "sp_price",
                  "type": "uint128"
                },
                {
                  "internalType": "uint32",
                  "name": "sp_date",
                  "type": "uint32"
                },
                {
                  "internalType": "uint32",
                  "name": "sp_expiryDate",
                  "type": "uint32"
                },
                {
                  "internalType": "bool",
                  "name": "sp_status",
                  "type": "bool"
                }
              ],
              "internalType": "struct ISupplierProduct.supplierProduct",
              "name": "spDetails",
              "type": "tuple"
            },
            {
              "components": [
                {
                  "internalType": "enum IUserDetails.userType",
                  "name": "userType",
                  "type": "uint8"
                },
                {
                  "internalType": "bytes",
                  "name": "userName",
                  "type": "bytes"
                },
                {
                  "internalType": "bytes",
                  "name": "userPhysicalAddress",
                  "type": "bytes"
                },
                {
                  "internalType": "bytes",
                  "name": "userImage",
                  "type": "bytes"
                },
                {
                  "internalType": "bool",
                  "name": "userStatus",
                  "type": "bool"
                }
              ],
              "internalType": "struct IUserDetails.userDetails",
              "name": "uDetails",
              "type": "tuple"
            }
          ],
          "internalType": "struct supplierManufacturer.supplierManufacturerWithProduct[]",
          "name": "",
          "type": "tuple[]"
        }
      ],
      "stateMutability": "view",
      "type": "function"
    },
    {
      "inputs": [
        {
          "internalType": "address",
          "name": "_supplierAddress",
          "type": "address"
        }
      ],
      "name": "getAllSmIdForSupplier",
      "outputs": [
        {
          "components": [
            {
              "internalType": "uint256",
              "name": "smId",
              "type": "uint256"
            },
            {
              "internalType": "uint256",
              "name": "spId",
              "type": "uint256"
            },
            {
              "internalType": "address",
              "name": "supplierAddress",
              "type": "address"
            },
            {
              "internalType": "address",
              "name": "manufacturerAddress",
              "type": "address"
            },
            {
              "internalType": "uint32",
              "name": "dispatchTime",
              "type": "uint32"
            },
            {
              "internalType": "uint32",
              "name": "arrivalTime",
              "type": "uint32"
            },
            {
              "internalType": "uint32",
              "name": "quantity",
              "type": "uint32"
            },
            {
              "internalType": "uint32",
              "name": "currentQuantity",
              "type": "uint32"
            },
            {
              "internalType": "enum ISupplierManufacturer.transferStatus",
              "name": "status",
              "type": "uint8"
            }
          ],
          "internalType": "struct ISupplierManufacturer.supplierManufacturer[]",
          "name": "",
          "type": "tuple[]"
        }
      ],
      "stateMutability": "view",
      "type": "function"
    },
    {
      "inputs": [
        {
          "internalType": "address",
          "name": "_supplierAddress",
          "type": "address"
        }
      ],
      "name": "getAllSmIdForSupplierWithproductDetails",
      "outputs": [
        {
          "components": [
            {
              "components": [
                {
                  "internalType": "uint256",
                  "name": "smId",
                  "type": "uint256"
                },
                {
                  "internalType": "uint256",
                  "name": "spId",
                  "type": "uint256"
                },
                {
                  "internalType": "address",
                  "name": "supplierAddress",
                  "type": "address"
                },
                {
                  "internalType": "address",
                  "name": "manufacturerAddress",
                  "type": "address"
                },
                {
                  "internalType": "uint32",
                  "name": "dispatchTime",
                  "type": "uint32"
                },
                {
                  "internalType": "uint32",
                  "name": "arrivalTime",
                  "type": "uint32"
                },
                {
                  "internalType": "uint32",
                  "name": "quantity",
                  "type": "uint32"
                },
                {
                  "internalType": "uint32",
                  "name": "currentQuantity",
                  "type": "uint32"
                },
                {
                  "internalType": "enum ISupplierManufacturer.transferStatus",
                  "name": "status",
                  "type": "uint8"
                }
              ],
              "internalType": "struct ISupplierManufacturer.supplierManufacturer",
              "name": "smDetails",
              "type": "tuple"
            },
            {
              "components": [
                {
                  "internalType": "address",
                  "name": "supplierAddress",
                  "type": "address"
                },
                {
                  "internalType": "bytes",
                  "name": "sp_name",
                  "type": "bytes"
                },
                {
                  "internalType": "bytes",
                  "name": "sp_description",
                  "type": "bytes"
                },
                {
                  "internalType": "uint128",
                  "name": "sp_unit",
                  "type": "uint128"
                },
                {
                  "internalType": "uint128",
                  "name": "sp_price",
                  "type": "uint128"
                },
                {
                  "internalType": "uint32",
                  "name": "sp_date",
                  "type": "uint32"
                },
                {
                  "internalType": "uint32",
                  "name": "sp_expiryDate",
                  "type": "uint32"
                },
                {
                  "internalType": "bool",
                  "name": "sp_status",
                  "type": "bool"
                }
              ],
              "internalType": "struct ISupplierProduct.supplierProduct",
              "name": "spDetails",
              "type": "tuple"
            },
            {
              "components": [
                {
                  "internalType": "enum IUserDetails.userType",
                  "name": "userType",
                  "type": "uint8"
                },
                {
                  "internalType": "bytes",
                  "name": "userName",
                  "type": "bytes"
                },
                {
                  "internalType": "bytes",
                  "name": "userPhysicalAddress",
                  "type": "bytes"
                },
                {
                  "internalType": "bytes",
                  "name": "userImage",
                  "type": "bytes"
                },
                {
                  "internalType": "bool",
                  "name": "userStatus",
                  "type": "bool"
                }
              ],
              "internalType": "struct IUserDetails.userDetails",
              "name": "uDetails",
              "type": "tuple"
            }
          ],
          "internalType": "struct supplierManufacturer.supplierManufacturerWithProduct[]",
          "name": "",
          "type": "tuple[]"
        }
      ],
      "stateMutability": "view",
      "type": "function"
    },
    {
      "inputs": [],
      "name": "getAllSupplierAddresses",
      "outputs": [
        {
          "internalType": "address[]",
          "name": "",
          "type": "address[]"
        }
      ],
      "stateMutability": "view",
      "type": "function"
    },
    {
      "inputs": [
        {
          "internalType": "uint256",
          "name": "_smId",
          "type": "uint256"
        }
      ],
      "name": "getSmDetails",
      "outputs": [
        {
          "components": [
            {
              "internalType": "uint256",
              "name": "smId",
              "type": "uint256"
            },
            {
              "internalType": "uint256",
              "name": "spId",
              "type": "uint256"
            },
            {
              "internalType": "address",
              "name": "supplierAddress",
              "type": "address"
            },
            {
              "internalType": "address",
              "name": "manufacturerAddress",
              "type": "address"
            },
            {
              "internalType": "uint32",
              "name": "dispatchTime",
              "type": "uint32"
            },
            {
              "internalType": "uint32",
              "name": "arrivalTime",
              "type": "uint32"
            },
            {
              "internalType": "uint32",
              "name": "quantity",
              "type": "uint32"
            },
            {
              "internalType": "uint32",
              "name": "currentQuantity",
              "type": "uint32"
            },
            {
              "internalType": "enum ISupplierManufacturer.transferStatus",
              "name": "status",
              "type": "uint8"
            }
          ],
          "internalType": "struct ISupplierManufacturer.supplierManufacturer",
          "name": "",
          "type": "tuple"
        }
      ],
      "stateMutability": "view",
      "type": "function"
    },
    {
      "inputs": [
        {
          "internalType": "address",
          "name": "",
          "type": "address"
        },
        {
          "internalType": "uint256",
          "name": "",
          "type": "uint256"
        }
      ],
      "name": "manufacturerTosmIdMapping",
      "outputs": [
        {
          "internalType": "uint256",
          "name": "",
          "type": "uint256"
        }
      ],
      "stateMutability": "view",
      "type": "function"
    },
    {
      "inputs": [
        {
          "internalType": "uint256",
          "name": "_smId",
          "type": "uint256"
        }
      ],
      "name": "receiveProduct",
      "outputs": [],
      "stateMutability": "nonpayable",
      "type": "function"
    },
    {
      "inputs": [],
      "name": "reqId",
      "outputs": [
        {
          "internalType": "uint256",
          "name": "",
          "type": "uint256"
        }
      ],
      "stateMutability": "view",
      "type": "function"
    },
    {
      "inputs": [
        {
          "internalType": "uint256",
          "name": "_spId",
          "type": "uint256"
        },
        {
          "internalType": "uint32",
          "name": "_quantity",
          "type": "uint32"
        },
        {
          "internalType": "address",
          "name": "_supplierAddress",
          "type": "address"
        }
      ],
      "name": "requestProduct",
      "outputs": [],
      "stateMutability": "nonpayable",
      "type": "function"
    },
    {
      "inputs": [],
      "name": "smId",
      "outputs": [
        {
          "internalType": "uint256",
          "name": "",
          "type": "uint256"
        }
      ],
      "stateMutability": "view",
      "type": "function"
    },
    {
      "inputs": [
        {
          "internalType": "uint256",
          "name": "",
          "type": "uint256"
        }
      ],
      "name": "smIdToStructMapping",
      "outputs": [
        {
          "internalType": "uint256",
          "name": "smId",
          "type": "uint256"
        },
        {
          "internalType": "uint256",
          "name": "spId",
          "type": "uint256"
        },
        {
          "internalType": "address",
          "name": "supplierAddress",
          "type": "address"
        },
        {
          "internalType": "address",
          "name": "manufacturerAddress",
          "type": "address"
        },
        {
          "internalType": "uint32",
          "name": "dispatchTime",
          "type": "uint32"
        },
        {
          "internalType": "uint32",
          "name": "arrivalTime",
          "type": "uint32"
        },
        {
          "internalType": "uint32",
          "name": "quantity",
          "type": "uint32"
        },
        {
          "internalType": "uint32",
          "name": "currentQuantity",
          "type": "uint32"
        },
        {
          "internalType": "enum ISupplierManufacturer.transferStatus",
          "name": "status",
          "type": "uint8"
        }
      ],
      "stateMutability": "view",
      "type": "function"
    },
    {
      "inputs": [
        {
          "internalType": "address",
          "name": "",
          "type": "address"
        },
        {
          "internalType": "uint256",
          "name": "",
          "type": "uint256"
        }
      ],
      "name": "supplierTosmIdMapping",
      "outputs": [
        {
          "internalType": "uint256",
          "name": "",
          "type": "uint256"
        }
      ],
      "stateMutability": "view",
      "type": "function"
    },
    {
      "inputs": [
        {
          "internalType": "uint256",
          "name": "_smId",
          "type": "uint256"
        },
        {
          "internalType": "address",
          "name": "_manufacturerAddress",
          "type": "address"
        },
        {
          "internalType": "uint32",
          "name": "_quantity",
          "type": "uint32"
        },
        {
          "internalType": "uint32",
          "name": "_currentQuantity",
          "type": "uint32"
        }
      ],
      "name": "transferProduct",
      "outputs": [],
      "stateMutability": "nonpayable",
      "type": "function"
    }
  ],
  "bytecode": "0x60806040526001600055600180553480156200001a57600080fd5b5060405162003c3938038062003c39833981810160405281019062000040919062000175565b33600460006101000a81548173ffffffffffffffffffffffffffffffffffffffff021916908373ffffffffffffffffffffffffffffffffffffffff16021790555081600260006101000a81548173ffffffffffffffffffffffffffffffffffffffff021916908373ffffffffffffffffffffffffffffffffffffffff16021790555080600360006101000a81548173ffffffffffffffffffffffffffffffffffffffff021916908373ffffffffffffffffffffffffffffffffffffffff1602179055505050620001bc565b600080fd5b600073ffffffffffffffffffffffffffffffffffffffff82169050919050565b60006200013d8262000110565b9050919050565b6200014f8162000130565b81146200015b57600080fd5b50565b6000815190506200016f8162000144565b92915050565b600080604083850312156200018f576200018e6200010b565b5b60006200019f858286016200015e565b9250506020620001b2858286016200015e565b9150509250929050565b613a6d80620001cc6000396000f3fe608060405234801561001057600080fd5b506004361061010b5760003560e01c806397910e77116100a2578063c04bc39211610071578063c04bc392146102c8578063c7bbd67e146102f8578063ca0d1bb514610316578063ec02181a14610332578063f192a2e71461036a5761010b565b806397910e7714610244578063a4ac44bf14610274578063a6f9dae114610290578063b5dafe83146102ac5761010b565b806329d78328116100de57806329d78328146101aa57806370b775a0146101c65780637cfc10c0146101f65780638997ce4e146102265761010b565b8063029e2fe4146101105780630f65ae381461012e5780631001f30f1461014a5780632002f6db1461017a575b600080fd5b61011861039a565b604051610125919061252b565b60405180910390f35b610148600480360381019061014391906125b8565b6103a0565b005b610164600480360381019061015f9190612611565b610474565b604051610171919061252b565b60405180910390f35b610194600480360381019061018f91906125b8565b6104a5565b6040516101a19190612b31565b60405180910390f35b6101c460048036038101906101bf9190612b53565b610974565b005b6101e060048036038101906101db91906125b8565b610b24565b6040516101ed9190612c30565b60405180910390f35b610210600480360381019061020b9190612b53565b610e25565b60405161021d9190612d09565b60405180910390f35b61022e610fe6565b60405161023b919061252b565b60405180910390f35b61025e600480360381019061025991906125b8565b610fec565b60405161026b9190612c30565b60405180910390f35b61028e60048036038101906102899190612d51565b6112ed565b005b6102aa60048036038101906102a591906125b8565b6116fd565b005b6102c660048036038101906102c19190612da4565b6117d1565b005b6102e260048036038101906102dd91906125b8565b611c21565b6040516102ef9190612b31565b60405180910390f35b6103006120f0565b60405161030d9190612eba565b60405180910390f35b610330600480360381019061032b91906125b8565b61218d565b005b61034c60048036038101906103479190612b53565b612261565b60405161036199989796959493929190612f09565b60405180910390f35b610384600480360381019061037f9190612611565b61233c565b604051610391919061252b565b60405180910390f35b60005481565b600460009054906101000a900473ffffffffffffffffffffffffffffffffffffffff1673ffffffffffffffffffffffffffffffffffffffff163373ffffffffffffffffffffffffffffffffffffffff1614610430576040517f08c379a000000000000000000000000000000000000000000000000000000000815260040161042790612ff3565b60405180910390fd5b80600260006101000a81548173ffffffffffffffffffffffffffffffffffffffff021916908373ffffffffffffffffffffffffffffffffffffffff16021790555050565b6006602052816000526040600020818154811061049057600080fd5b90600052602060002001600091509150505481565b60606000600760008473ffffffffffffffffffffffffffffffffffffffff1673ffffffffffffffffffffffffffffffffffffffff16815260200190815260200160002080548060200260200160405190810160405280929190818152602001828054801561053257602002820191906000526020600020905b81548152602001906001019080831161051e575b505050505090506000815167ffffffffffffffff81111561055657610555613013565b5b60405190808252806020026020018201604052801561058f57816020015b61057c61236d565b8152602001906001900390816105745790505b50905060005b825181101561096957600560008483815181106105b5576105b4613042565b5b602002602001015181526020019081526020016000206040518061012001604052908160008201548152602001600182015481526020016002820160009054906101000a900473ffffffffffffffffffffffffffffffffffffffff1673ffffffffffffffffffffffffffffffffffffffff1673ffffffffffffffffffffffffffffffffffffffff1681526020016003820160009054906101000a900473ffffffffffffffffffffffffffffffffffffffff1673ffffffffffffffffffffffffffffffffffffffff1673ffffffffffffffffffffffffffffffffffffffff1681526020016003820160149054906101000a900463ffffffff1663ffffffff1663ffffffff1681526020016003820160189054906101000a900463ffffffff1663ffffffff1663ffffffff16815260200160038201601c9054906101000a900463ffffffff1663ffffffff1663ffffffff1681526020016004820160009054906101000a900463ffffffff1663ffffffff1663ffffffff1681526020016004820160049054906101000a900460ff166003811115610754576107536126ba565b5b6003811115610766576107656126ba565b5b8152505082828151811061077d5761077c613042565b5b602002602001015160000181905250600360009054906101000a900473ffffffffffffffffffffffffffffffffffffffff1673ffffffffffffffffffffffffffffffffffffffff1663c22ef68e8383815181106107dd576107dc613042565b5b602002602001015160000151602001516040518263ffffffff1660e01b8152600401610809919061252b565b600060405180830381865afa158015610826573d6000803e3d6000fd5b505050506040513d6000823e3d601f19601f8201168201806040525081019061084f91906132f6565b82828151811061086257610861613042565b5b602002602001015160200181905250600260009054906101000a900473ffffffffffffffffffffffffffffffffffffffff1673ffffffffffffffffffffffffffffffffffffffff1663358525418383815181106108c2576108c1613042565b5b602002602001015160000151606001516040518263ffffffff1660e01b81526004016108ee919061333f565b600060405180830381865afa15801561090b573d6000803e3d6000fd5b505050506040513d6000823e3d601f19601f82011682018060405250810190610934919061345f565b82828151811061094757610946613042565b5b6020026020010151604001819052508080610961906134d7565b915050610595565b508092505050919050565b6000600260009054906101000a900473ffffffffffffffffffffffffffffffffffffffff1673ffffffffffffffffffffffffffffffffffffffff166335852541336040518263ffffffff1660e01b81526004016109d1919061333f565b600060405180830381865afa1580156109ee573d6000803e3d6000fd5b505050506040513d6000823e3d601f19601f82011682018060405250810190610a17919061345f565b9050600181600001516002811115610a3257610a316126ba565b5b60ff1614610a75576040517f08c379a0000000000000000000000000000000000000000000000000000000008152600401610a6c90613591565b60405180910390fd5b426005600084815260200190815260200160002060030160186101000a81548163ffffffff021916908363ffffffff16021790555060036005600084815260200190815260200160002060040160046101000a81548160ff02191690836003811115610ae457610ae36126ba565b5b02179055507f64e64e323422dcfed18a892f84596ccf7cc94b1952625f3cc82e6461b529fff142604051610b1891906135b1565b60405180910390a15050565b60606000600660008473ffffffffffffffffffffffffffffffffffffffff1673ffffffffffffffffffffffffffffffffffffffff168152602001908152602001600020805480602002602001604051908101604052809291908181526020018280548015610bb157602002820191906000526020600020905b815481526020019060010190808311610b9d575b505050505090506000815167ffffffffffffffff811115610bd557610bd4613013565b5b604051908082528060200260200182016040528015610c0e57816020015b610bfb6123a0565b815260200190600190039081610bf35790505b50905060005b8251811015610e1a5760056000848381518110610c3457610c33613042565b5b602002602001015181526020019081526020016000206040518061012001604052908160008201548152602001600182015481526020016002820160009054906101000a900473ffffffffffffffffffffffffffffffffffffffff1673ffffffffffffffffffffffffffffffffffffffff1673ffffffffffffffffffffffffffffffffffffffff1681526020016003820160009054906101000a900473ffffffffffffffffffffffffffffffffffffffff1673ffffffffffffffffffffffffffffffffffffffff1673ffffffffffffffffffffffffffffffffffffffff1681526020016003820160149054906101000a900463ffffffff1663ffffffff1663ffffffff1681526020016003820160189054906101000a900463ffffffff1663ffffffff1663ffffffff16815260200160038201601c9054906101000a900463ffffffff1663ffffffff1663ffffffff1681526020016004820160009054906101000a900463ffffffff1663ffffffff1663ffffffff1681526020016004820160049054906101000a900460ff166003811115610dd357610dd26126ba565b5b6003811115610de557610de46126ba565b5b81525050828281518110610dfc57610dfb613042565b5b60200260200101819052508080610e12906134d7565b915050610c14565b508092505050919050565b610e2d6123a0565b600560008381526020019081526020016000206040518061012001604052908160008201548152602001600182015481526020016002820160009054906101000a900473ffffffffffffffffffffffffffffffffffffffff1673ffffffffffffffffffffffffffffffffffffffff1673ffffffffffffffffffffffffffffffffffffffff1681526020016003820160009054906101000a900473ffffffffffffffffffffffffffffffffffffffff1673ffffffffffffffffffffffffffffffffffffffff1673ffffffffffffffffffffffffffffffffffffffff1681526020016003820160149054906101000a900463ffffffff1663ffffffff1663ffffffff1681526020016003820160189054906101000a900463ffffffff1663ffffffff1663ffffffff16815260200160038201601c9054906101000a900463ffffffff1663ffffffff1663ffffffff1681526020016004820160009054906101000a900463ffffffff1663ffffffff1663ffffffff1681526020016004820160049054906101000a900460ff166003811115610fc957610fc86126ba565b5b6003811115610fdb57610fda6126ba565b5b815250509050919050565b60015481565b60606000600760008473ffffffffffffffffffffffffffffffffffffffff1673ffffffffffffffffffffffffffffffffffffffff16815260200190815260200160002080548060200260200160405190810160405280929190818152602001828054801561107957602002820191906000526020600020905b815481526020019060010190808311611065575b505050505090506000815167ffffffffffffffff81111561109d5761109c613013565b5b6040519080825280602002602001820160405280156110d657816020015b6110c36123a0565b8152602001906001900390816110bb5790505b50905060005b82518110156112e257600560008483815181106110fc576110fb613042565b5b602002602001015181526020019081526020016000206040518061012001604052908160008201548152602001600182015481526020016002820160009054906101000a900473ffffffffffffffffffffffffffffffffffffffff1673ffffffffffffffffffffffffffffffffffffffff1673ffffffffffffffffffffffffffffffffffffffff1681526020016003820160009054906101000a900473ffffffffffffffffffffffffffffffffffffffff1673ffffffffffffffffffffffffffffffffffffffff1673ffffffffffffffffffffffffffffffffffffffff1681526020016003820160149054906101000a900463ffffffff1663ffffffff1663ffffffff1681526020016003820160189054906101000a900463ffffffff1663ffffffff1663ffffffff16815260200160038201601c9054906101000a900463ffffffff1663ffffffff1663ffffffff1681526020016004820160009054906101000a900463ffffffff1663ffffffff1663ffffffff1681526020016004820160049054906101000a900460ff16600381111561129b5761129a6126ba565b5b60038111156112ad576112ac6126ba565b5b815250508282815181106112c4576112c3613042565b5b602002602001018190525080806112da906134d7565b9150506110dc565b508092505050919050565b6000600260009054906101000a900473ffffffffffffffffffffffffffffffffffffffff1673ffffffffffffffffffffffffffffffffffffffff166335852541336040518263ffffffff1660e01b815260040161134a919061333f565b600060405180830381865afa158015611367573d6000803e3d6000fd5b505050506040513d6000823e3d601f19601f82011682018060405250810190611390919061345f565b90506001816000015160028111156113ab576113aa6126ba565b5b60ff16146113ee576040517f08c379a00000000000000000000000000000000000000000000000000000000081526004016113e59061363e565b60405180910390fd5b60405180610120016040528060005481526020018581526020018373ffffffffffffffffffffffffffffffffffffffff1681526020013373ffffffffffffffffffffffffffffffffffffffff168152602001600063ffffffff168152602001600063ffffffff1681526020018463ffffffff168152602001600063ffffffff16815260200160016003811115611487576114866126ba565b5b8152506005600080548152602001908152602001600020600082015181600001556020820151816001015560408201518160020160006101000a81548173ffffffffffffffffffffffffffffffffffffffff021916908373ffffffffffffffffffffffffffffffffffffffff16021790555060608201518160030160006101000a81548173ffffffffffffffffffffffffffffffffffffffff021916908373ffffffffffffffffffffffffffffffffffffffff16021790555060808201518160030160146101000a81548163ffffffff021916908363ffffffff16021790555060a08201518160030160186101000a81548163ffffffff021916908363ffffffff16021790555060c082015181600301601c6101000a81548163ffffffff021916908363ffffffff16021790555060e08201518160040160006101000a81548163ffffffff021916908363ffffffff1602179055506101008201518160040160046101000a81548160ff02191690836003811115611608576116076126ba565b5b0217905550905050600660003373ffffffffffffffffffffffffffffffffffffffff1673ffffffffffffffffffffffffffffffffffffffff1681526020019081526020016000206000549080600181540180825580915050600190039060005260206000200160009091909190915055600760008373ffffffffffffffffffffffffffffffffffffffff1673ffffffffffffffffffffffffffffffffffffffff16815260200190815260200160002060005490806001815401808255809150506001900390600052602060002001600090919091909150556000808154809291906116f2906134d7565b919050555050505050565b600460009054906101000a900473ffffffffffffffffffffffffffffffffffffffff1673ffffffffffffffffffffffffffffffffffffffff163373ffffffffffffffffffffffffffffffffffffffff161461178d576040517f08c379a000000000000000000000000000000000000000000000000000000000815260040161178490612ff3565b60405180910390fd5b80600460006101000a81548173ffffffffffffffffffffffffffffffffffffffff021916908373ffffffffffffffffffffffffffffffffffffffff16021790555050565b6000600260009054906101000a900473ffffffffffffffffffffffffffffffffffffffff1673ffffffffffffffffffffffffffffffffffffffff166335852541336040518263ffffffff1660e01b815260040161182e919061333f565b600060405180830381865afa15801561184b573d6000803e3d6000fd5b505050506040513d6000823e3d601f19601f82011682018060405250810190611874919061345f565b905060008160000151600281111561188f5761188e6126ba565b5b60ff16146118d2576040517f08c379a00000000000000000000000000000000000000000000000000000000081526004016118c9906136d0565b60405180910390fd5b60003390506000600360009054906101000a900473ffffffffffffffffffffffffffffffffffffffff1673ffffffffffffffffffffffffffffffffffffffff166311517205836040518263ffffffff1660e01b8152600401611934919061333f565b600060405180830381865afa158015611951573d6000803e3d6000fd5b505050506040513d6000823e3d601f19601f8201168201806040525081019061197a91906137cd565b90506000805b82518110156119dc57600560008a8152602001908152602001600020600101548382815181106119b3576119b2613042565b5b6020026020010151036119c957600191506119dc565b80806119d4906134d7565b915050611980565b5080611a1d576040517f08c379a0000000000000000000000000000000000000000000000000000000008152600401611a1490613862565b60405180910390fd5b33600560008a815260200190815260200160002060020160006101000a81548173ffffffffffffffffffffffffffffffffffffffff021916908373ffffffffffffffffffffffffffffffffffffffff16021790555042600560008a815260200190815260200160002060030160146101000a81548163ffffffff021916908363ffffffff16021790555084600560008a815260200190815260200160002060040160006101000a81548163ffffffff021916908363ffffffff1602179055506002600560008a815260200190815260200160002060040160046101000a81548160ff02191690836003811115611b1657611b156126ba565b5b021790555060056000898152602001908152602001600020600101546000547f6abc5964a9f8c02bee56a206f75c7526ea67f5abd5cbbe939c60d4a489607e49338a42604051611b6893929190613882565b60405180910390a3600360009054906101000a900473ffffffffffffffffffffffffffffffffffffffff1673ffffffffffffffffffffffffffffffffffffffff1663dc1c7963600560008b81526020019081526020016000206001015488866040518463ffffffff1660e01b8152600401611be5939291906138f4565b600060405180830381600087803b158015611bff57600080fd5b505af1158015611c13573d6000803e3d6000fd5b505050505050505050505050565b60606000600660008473ffffffffffffffffffffffffffffffffffffffff1673ffffffffffffffffffffffffffffffffffffffff168152602001908152602001600020805480602002602001604051908101604052809291908181526020018280548015611cae57602002820191906000526020600020905b815481526020019060010190808311611c9a575b505050505090506000815167ffffffffffffffff811115611cd257611cd1613013565b5b604051908082528060200260200182016040528015611d0b57816020015b611cf861236d565b815260200190600190039081611cf05790505b50905060005b82518110156120e55760056000848381518110611d3157611d30613042565b5b602002602001015181526020019081526020016000206040518061012001604052908160008201548152602001600182015481526020016002820160009054906101000a900473ffffffffffffffffffffffffffffffffffffffff1673ffffffffffffffffffffffffffffffffffffffff1673ffffffffffffffffffffffffffffffffffffffff1681526020016003820160009054906101000a900473ffffffffffffffffffffffffffffffffffffffff1673ffffffffffffffffffffffffffffffffffffffff1673ffffffffffffffffffffffffffffffffffffffff1681526020016003820160149054906101000a900463ffffffff1663ffffffff1663ffffffff1681526020016003820160189054906101000a900463ffffffff1663ffffffff1663ffffffff16815260200160038201601c9054906101000a900463ffffffff1663ffffffff1663ffffffff1681526020016004820160009054906101000a900463ffffffff1663ffffffff1663ffffffff1681526020016004820160049054906101000a900460ff166003811115611ed057611ecf6126ba565b5b6003811115611ee257611ee16126ba565b5b81525050828281518110611ef957611ef8613042565b5b602002602001015160000181905250600360009054906101000a900473ffffffffffffffffffffffffffffffffffffffff1673ffffffffffffffffffffffffffffffffffffffff1663c22ef68e838381518110611f5957611f58613042565b5b602002602001015160000151602001516040518263ffffffff1660e01b8152600401611f85919061252b565b600060405180830381865afa158015611fa2573d6000803e3d6000fd5b505050506040513d6000823e3d601f19601f82011682018060405250810190611fcb91906132f6565b828281518110611fde57611fdd613042565b5b602002602001015160200181905250600260009054906101000a900473ffffffffffffffffffffffffffffffffffffffff1673ffffffffffffffffffffffffffffffffffffffff16633585254183838151811061203e5761203d613042565b5b602002602001015160000151604001516040518263ffffffff1660e01b815260040161206a919061333f565b600060405180830381865afa158015612087573d6000803e3d6000fd5b505050506040513d6000823e3d601f19601f820116820180604052508101906120b0919061345f565b8282815181106120c3576120c2613042565b5b60200260200101516040018190525080806120dd906134d7565b915050611d11565b508092505050919050565b6060600260009054906101000a900473ffffffffffffffffffffffffffffffffffffffff1673ffffffffffffffffffffffffffffffffffffffff1663c7bbd67e6040518163ffffffff1660e01b8152600401600060405180830381865afa15801561215f573d6000803e3d6000fd5b505050506040513d6000823e3d601f19601f8201168201806040525081019061218891906139ee565b905090565b600460009054906101000a900473ffffffffffffffffffffffffffffffffffffffff1673ffffffffffffffffffffffffffffffffffffffff163373ffffffffffffffffffffffffffffffffffffffff161461221d576040517f08c379a000000000000000000000000000000000000000000000000000000000815260040161221490612ff3565b60405180910390fd5b80600360006101000a81548173ffffffffffffffffffffffffffffffffffffffff021916908373ffffffffffffffffffffffffffffffffffffffff16021790555050565b60056020528060005260406000206000915090508060000154908060010154908060020160009054906101000a900473ffffffffffffffffffffffffffffffffffffffff16908060030160009054906101000a900473ffffffffffffffffffffffffffffffffffffffff16908060030160149054906101000a900463ffffffff16908060030160189054906101000a900463ffffffff169080600301601c9054906101000a900463ffffffff16908060040160009054906101000a900463ffffffff16908060040160049054906101000a900460ff16905089565b6007602052816000526040600020818154811061235857600080fd5b90600052602060002001600091509150505481565b60405180606001604052806123806123a0565b815260200161238d612442565b815260200161239a6124cf565b81525090565b6040518061012001604052806000815260200160008152602001600073ffffffffffffffffffffffffffffffffffffffff168152602001600073ffffffffffffffffffffffffffffffffffffffff168152602001600063ffffffff168152602001600063ffffffff168152602001600063ffffffff168152602001600063ffffffff1681526020016000600381111561243c5761243b6126ba565b5b81525090565b604051806101000160405280600073ffffffffffffffffffffffffffffffffffffffff168152602001606081526020016060815260200160006fffffffffffffffffffffffffffffffff16815260200160006fffffffffffffffffffffffffffffffff168152602001600063ffffffff168152602001600063ffffffff1681526020016000151581525090565b6040518060a00160405280600060028111156124ee576124ed6126ba565b5b81526020016060815260200160608152602001606081526020016000151581525090565b6000819050919050565b61252581612512565b82525050565b6000602082019050612540600083018461251c565b92915050565b6000604051905090565b600080fd5b600080fd5b600073ffffffffffffffffffffffffffffffffffffffff82169050919050565b60006125858261255a565b9050919050565b6125958161257a565b81146125a057600080fd5b50565b6000813590506125b28161258c565b92915050565b6000602082840312156125ce576125cd612550565b5b60006125dc848285016125a3565b91505092915050565b6125ee81612512565b81146125f957600080fd5b50565b60008135905061260b816125e5565b92915050565b6000806040838503121561262857612627612550565b5b6000612636858286016125a3565b9250506020612647858286016125fc565b9150509250929050565b600081519050919050565b600082825260208201905092915050565b6000819050602082019050919050565b61268681612512565b82525050565b6126958161257a565b82525050565b600063ffffffff82169050919050565b6126b48161269b565b82525050565b7f4e487b7100000000000000000000000000000000000000000000000000000000600052602160045260246000fd5b600481106126fa576126f96126ba565b5b50565b600081905061270b826126e9565b919050565b600061271b826126fd565b9050919050565b61272b81612710565b82525050565b61012082016000820151612748600085018261267d565b50602082015161275b602085018261267d565b50604082015161276e604085018261268c565b506060820151612781606085018261268c565b50608082015161279460808501826126ab565b5060a08201516127a760a08501826126ab565b5060c08201516127ba60c08501826126ab565b5060e08201516127cd60e08501826126ab565b506101008201516127e2610100850182612722565b50505050565b600081519050919050565b600082825260208201905092915050565b60005b83811015612822578082015181840152602081019050612807565b60008484015250505050565b6000601f19601f8301169050919050565b600061284a826127e8565b61285481856127f3565b9350612864818560208601612804565b61286d8161282e565b840191505092915050565b60006fffffffffffffffffffffffffffffffff82169050919050565b61289d81612878565b82525050565b60008115159050919050565b6128b8816128a3565b82525050565b6000610100830160008301516128d7600086018261268c565b50602083015184820360208601526128ef828261283f565b91505060408301518482036040860152612909828261283f565b915050606083015161291e6060860182612894565b5060808301516129316080860182612894565b5060a083015161294460a08601826126ab565b5060c083015161295760c08601826126ab565b5060e083015161296a60e08601826128af565b508091505092915050565b60038110612986576129856126ba565b5b50565b600081905061299782612975565b919050565b60006129a782612989565b9050919050565b6129b78161299c565b82525050565b600060a0830160008301516129d560008601826129ae565b50602083015184820360208601526129ed828261283f565b91505060408301518482036040860152612a07828261283f565b91505060608301518482036060860152612a21828261283f565b9150506080830151612a3660808601826128af565b508091505092915050565b600061016083016000830151612a5a6000860182612731565b506020830151848203610120860152612a7382826128be565b9150506040830151848203610140860152612a8e82826129bd565b9150508091505092915050565b6000612aa78383612a41565b905092915050565b6000602082019050919050565b6000612ac782612651565b612ad1818561265c565b935083602082028501612ae38561266d565b8060005b85811015612b1f5784840389528151612b008582612a9b565b9450612b0b83612aaf565b925060208a01995050600181019050612ae7565b50829750879550505050505092915050565b60006020820190508181036000830152612b4b8184612abc565b905092915050565b600060208284031215612b6957612b68612550565b5b6000612b77848285016125fc565b91505092915050565b600081519050919050565b600082825260208201905092915050565b6000819050602082019050919050565b6000612bb88383612731565b6101208301905092915050565b6000602082019050919050565b6000612bdd82612b80565b612be78185612b8b565b9350612bf283612b9c565b8060005b83811015612c23578151612c0a8882612bac565b9750612c1583612bc5565b925050600181019050612bf6565b5085935050505092915050565b60006020820190508181036000830152612c4a8184612bd2565b905092915050565b61012082016000820151612c69600085018261267d565b506020820151612c7c602085018261267d565b506040820151612c8f604085018261268c565b506060820151612ca2606085018261268c565b506080820151612cb560808501826126ab565b5060a0820151612cc860a08501826126ab565b5060c0820151612cdb60c08501826126ab565b5060e0820151612cee60e08501826126ab565b50610100820151612d03610100850182612722565b50505050565b600061012082019050612d1f6000830184612c52565b92915050565b612d2e8161269b565b8114612d3957600080fd5b50565b600081359050612d4b81612d25565b92915050565b600080600060608486031215612d6a57612d69612550565b5b6000612d78868287016125fc565b9350506020612d8986828701612d3c565b9250506040612d9a868287016125a3565b9150509250925092565b60008060008060808587031215612dbe57612dbd612550565b5b6000612dcc878288016125fc565b9450506020612ddd878288016125a3565b9350506040612dee87828801612d3c565b9250506060612dff87828801612d3c565b91505092959194509250565b600081519050919050565b600082825260208201905092915050565b6000819050602082019050919050565b6000612e43838361268c565b60208301905092915050565b6000602082019050919050565b6000612e6782612e0b565b612e718185612e16565b9350612e7c83612e27565b8060005b83811015612ead578151612e948882612e37565b9750612e9f83612e4f565b925050600181019050612e80565b5085935050505092915050565b60006020820190508181036000830152612ed48184612e5c565b905092915050565b612ee58161257a565b82525050565b612ef48161269b565b82525050565b612f0381612710565b82525050565b600061012082019050612f1f600083018c61251c565b612f2c602083018b61251c565b612f39604083018a612edc565b612f466060830189612edc565b612f536080830188612eeb565b612f6060a0830187612eeb565b612f6d60c0830186612eeb565b612f7a60e0830185612eeb565b612f88610100830184612efa565b9a9950505050505050505050565b600082825260208201905092915050565b7f4e6f74206f776e65720000000000000000000000000000000000000000000000600082015250565b6000612fdd600983612f96565b9150612fe882612fa7565b602082019050919050565b6000602082019050818103600083015261300c81612fd0565b9050919050565b7f4e487b7100000000000000000000000000000000000000000000000000000000600052604160045260246000fd5b7f4e487b7100000000000000000000000000000000000000000000000000000000600052603260045260246000fd5b600080fd5b61307f8261282e565b810181811067ffffffffffffffff8211171561309e5761309d613013565b5b80604052505050565b60006130b1612546565b90506130bd8282613076565b919050565b600080fd5b6000815190506130d68161258c565b92915050565b600080fd5b600080fd5b600067ffffffffffffffff82111561310157613100613013565b5b61310a8261282e565b9050602081019050919050565b600061312a613125846130e6565b6130a7565b905082815260208101848484011115613146576131456130e1565b5b613151848285612804565b509392505050565b600082601f83011261316e5761316d6130dc565b5b815161317e848260208601613117565b91505092915050565b61319081612878565b811461319b57600080fd5b50565b6000815190506131ad81613187565b92915050565b6000815190506131c281612d25565b92915050565b6131d1816128a3565b81146131dc57600080fd5b50565b6000815190506131ee816131c8565b92915050565b6000610100828403121561320b5761320a613071565b5b6132166101006130a7565b90506000613226848285016130c7565b600083015250602082015167ffffffffffffffff81111561324a576132496130c2565b5b61325684828501613159565b602083015250604082015167ffffffffffffffff81111561327a576132796130c2565b5b61328684828501613159565b604083015250606061329a8482850161319e565b60608301525060806132ae8482850161319e565b60808301525060a06132c2848285016131b3565b60a08301525060c06132d6848285016131b3565b60c08301525060e06132ea848285016131df565b60e08301525092915050565b60006020828403121561330c5761330b612550565b5b600082015167ffffffffffffffff81111561332a57613329612555565b5b613336848285016131f4565b91505092915050565b60006020820190506133546000830184612edc565b92915050565b6003811061336757600080fd5b50565b6000815190506133798161335a565b92915050565b600060a0828403121561339557613394613071565b5b61339f60a06130a7565b905060006133af8482850161336a565b600083015250602082015167ffffffffffffffff8111156133d3576133d26130c2565b5b6133df84828501613159565b602083015250604082015167ffffffffffffffff811115613403576134026130c2565b5b61340f84828501613159565b604083015250606082015167ffffffffffffffff811115613433576134326130c2565b5b61343f84828501613159565b6060830152506080613453848285016131df565b60808301525092915050565b60006020828403121561347557613474612550565b5b600082015167ffffffffffffffff81111561349357613492612555565b5b61349f8482850161337f565b91505092915050565b7f4e487b7100000000000000000000000000000000000000000000000000000000600052601160045260246000fd5b60006134e282612512565b91507fffffffffffffffffffffffffffffffffffffffffffffffffffffffffffffffff8203613514576135136134a8565b5b600182019050919050565b7f4f6e6c79204d616e7566616374757265722063616e2061636b6e6f776c65646760008201527f6520726563656976652070726f64756374000000000000000000000000000000602082015250565b600061357b603183612f96565b91506135868261351f565b604082019050919050565b600060208201905081810360008301526135aa8161356e565b9050919050565b60006020820190506135c66000830184612eeb565b92915050565b7f4f6e6c79204d616e7566616374757265722063616e205265717565737420707260008201527f6f64756374000000000000000000000000000000000000000000000000000000602082015250565b6000613628602583612f96565b9150613633826135cc565b604082019050919050565b600060208201905081810360008301526136578161361b565b9050919050565b7f4f6e6c7920537570706c6965722063616e205472616e736665722070726f647560008201527f6374000000000000000000000000000000000000000000000000000000000000602082015250565b60006136ba602283612f96565b91506136c58261365e565b604082019050919050565b600060208201905081810360008301526136e9816136ad565b9050919050565b600067ffffffffffffffff82111561370b5761370a613013565b5b602082029050602081019050919050565b600080fd5b600081519050613730816125e5565b92915050565b6000613749613744846136f0565b6130a7565b9050808382526020820190506020840283018581111561376c5761376b61371c565b5b835b8181101561379557806137818882613721565b84526020840193505060208101905061376e565b5050509392505050565b600082601f8301126137b4576137b36130dc565b5b81516137c4848260208601613736565b91505092915050565b6000602082840312156137e3576137e2612550565b5b600082015167ffffffffffffffff81111561380157613800612555565b5b61380d8482850161379f565b91505092915050565b7f50726f64756374206e6f74206f776e656420627920796f750000000000000000600082015250565b600061384c601883612f96565b915061385782613816565b602082019050919050565b6000602082019050818103600083015261387b8161383f565b9050919050565b60006060820190506138976000830186612edc565b6138a46020830185612edc565b6138b16040830184612eeb565b949350505050565b6000819050919050565b60006138de6138d96138d48461269b565b6138b9565b612878565b9050919050565b6138ee816138c3565b82525050565b6000606082019050613909600083018661251c565b61391660208301856138e5565b6139236040830184612edc565b949350505050565b600067ffffffffffffffff82111561394657613945613013565b5b602082029050602081019050919050565b600061396a6139658461392b565b6130a7565b9050808382526020820190506020840283018581111561398d5761398c61371c565b5b835b818110156139b657806139a288826130c7565b84526020840193505060208101905061398f565b5050509392505050565b600082601f8301126139d5576139d46130dc565b5b81516139e5848260208601613957565b91505092915050565b600060208284031215613a0457613a03612550565b5b600082015167ffffffffffffffff811115613a2257613a21612555565b5b613a2e848285016139c0565b9150509291505056fea26469706673582212204e89809cd2495237c297c1aa7b4106aa02568c602b45ecfcfab27bc7730a5ce764736f6c63430008120033",
  "linkReferences": {},
  "deployedLinkReferences": {}
}