{
  "_format": "hh-sol-artifact-1",
  "contractName": "supplierManufacturer",
  "sourceName": "contracts/supplierManufacturer.sol",
  "abi": [
    {
      "inputs": [
        {
          "internalType": "address",
          "name": "_udAddress",
          "type": "address"
        },
        {
          "internalType": "address",
          "name": "_spAddress",
          "type": "address"
        }
      ],
      "stateMutability": "nonpayable",
      "type": "constructor"
    },
    {
      "anonymous": false,
      "inputs": [
        {
          "indexed": false,
          "internalType": "uint32",
          "name": "_arrivalTime",
          "type": "uint32"
        }
      ],
      "name": "eventArrivalTime",
      "type": "event"
    },
    {
      "anonymous": false,
      "inputs": [
        {
          "indexed": true,
          "internalType": "uint256",
          "name": "_smId",
          "type": "uint256"
        },
        {
          "indexed": true,
          "internalType": "uint256",
          "name": "_spId",
          "type": "uint256"
        },
        {
          "indexed": false,
          "internalType": "address",
          "name": "_supplierAddress",
          "type": "address"
        },
        {
          "indexed": false,
          "internalType": "address",
          "name": "_manufacturerAddress",
          "type": "address"
        },
        {
          "indexed": false,
          "internalType": "uint32",
          "name": "_dispatchTime",
          "type": "uint32"
        }
      ],
      "name": "eventSupplierManufacturerTransfer",
      "type": "event"
    },
    {
      "inputs": [
        {
          "internalType": "address",
          "name": "_ownerAddress",
          "type": "address"
        }
      ],
      "name": "changeOwner",
      "outputs": [],
      "stateMutability": "nonpayable",
      "type": "function"
    },
    {
      "inputs": [
        {
          "internalType": "address",
          "name": "_spAddress",
          "type": "address"
        }
      ],
      "name": "changeSpAddress",
      "outputs": [],
      "stateMutability": "nonpayable",
      "type": "function"
    },
    {
      "inputs": [
        {
          "internalType": "address",
          "name": "_udAddress",
          "type": "address"
        }
      ],
      "name": "changeUdAddress",
      "outputs": [],
      "stateMutability": "nonpayable",
      "type": "function"
    },
    {
      "inputs": [
        {
          "internalType": "address",
          "name": "_manufacturerAddress",
          "type": "address"
        }
      ],
      "name": "getAllSmIdForManufacturer",
      "outputs": [
        {
          "components": [
            {
              "internalType": "uint256",
              "name": "smId",
              "type": "uint256"
            },
            {
              "internalType": "uint256",
              "name": "spId",
              "type": "uint256"
            },
            {
              "internalType": "address",
              "name": "supplierAddress",
              "type": "address"
            },
            {
              "internalType": "address",
              "name": "manufacturerAddress",
              "type": "address"
            },
            {
              "internalType": "uint32",
              "name": "dispatchTime",
              "type": "uint32"
            },
            {
              "internalType": "uint32",
              "name": "arrivalTime",
              "type": "uint32"
            },
            {
              "internalType": "uint32",
              "name": "quantity",
              "type": "uint32"
            },
            {
              "internalType": "uint32",
              "name": "currentQuantity",
              "type": "uint32"
            },
            {
              "internalType": "enum ISupplierManufacturer.transferStatus",
              "name": "status",
              "type": "uint8"
            }
          ],
          "internalType": "struct ISupplierManufacturer.supplierManufacturer[]",
          "name": "",
          "type": "tuple[]"
        }
      ],
      "stateMutability": "view",
      "type": "function"
    },
    {
      "inputs": [
        {
          "internalType": "address",
          "name": "_supplierAddress",
          "type": "address"
        }
      ],
      "name": "getAllSmIdForSupplier",
      "outputs": [
        {
          "components": [
            {
              "internalType": "uint256",
              "name": "smId",
              "type": "uint256"
            },
            {
              "internalType": "uint256",
              "name": "spId",
              "type": "uint256"
            },
            {
              "internalType": "address",
              "name": "supplierAddress",
              "type": "address"
            },
            {
              "internalType": "address",
              "name": "manufacturerAddress",
              "type": "address"
            },
            {
              "internalType": "uint32",
              "name": "dispatchTime",
              "type": "uint32"
            },
            {
              "internalType": "uint32",
              "name": "arrivalTime",
              "type": "uint32"
            },
            {
              "internalType": "uint32",
              "name": "quantity",
              "type": "uint32"
            },
            {
              "internalType": "uint32",
              "name": "currentQuantity",
              "type": "uint32"
            },
            {
              "internalType": "enum ISupplierManufacturer.transferStatus",
              "name": "status",
              "type": "uint8"
            }
          ],
          "internalType": "struct ISupplierManufacturer.supplierManufacturer[]",
          "name": "",
          "type": "tuple[]"
        }
      ],
      "stateMutability": "view",
      "type": "function"
    },
    {
      "inputs": [],
      "name": "getAllSupplierAddresses",
      "outputs": [
        {
          "internalType": "address[]",
          "name": "",
          "type": "address[]"
        }
      ],
      "stateMutability": "view",
      "type": "function"
    },
    {
      "inputs": [
        {
          "internalType": "uint256",
          "name": "_smId",
          "type": "uint256"
        }
      ],
      "name": "getSmDetails",
      "outputs": [
        {
          "components": [
            {
              "internalType": "uint256",
              "name": "smId",
              "type": "uint256"
            },
            {
              "internalType": "uint256",
              "name": "spId",
              "type": "uint256"
            },
            {
              "internalType": "address",
              "name": "supplierAddress",
              "type": "address"
            },
            {
              "internalType": "address",
              "name": "manufacturerAddress",
              "type": "address"
            },
            {
              "internalType": "uint32",
              "name": "dispatchTime",
              "type": "uint32"
            },
            {
              "internalType": "uint32",
              "name": "arrivalTime",
              "type": "uint32"
            },
            {
              "internalType": "uint32",
              "name": "quantity",
              "type": "uint32"
            },
            {
              "internalType": "uint32",
              "name": "currentQuantity",
              "type": "uint32"
            },
            {
              "internalType": "enum ISupplierManufacturer.transferStatus",
              "name": "status",
              "type": "uint8"
            }
          ],
          "internalType": "struct ISupplierManufacturer.supplierManufacturer",
          "name": "",
          "type": "tuple"
        }
      ],
      "stateMutability": "view",
      "type": "function"
    },
    {
      "inputs": [
        {
          "internalType": "address",
          "name": "",
          "type": "address"
        },
        {
          "internalType": "uint256",
          "name": "",
          "type": "uint256"
        }
      ],
      "name": "manufacturerTosmIdMapping",
      "outputs": [
        {
          "internalType": "uint256",
          "name": "",
          "type": "uint256"
        }
      ],
      "stateMutability": "view",
      "type": "function"
    },
    {
      "inputs": [
        {
          "internalType": "uint256",
          "name": "_smId",
          "type": "uint256"
        }
      ],
      "name": "receiveProduct",
      "outputs": [],
      "stateMutability": "nonpayable",
      "type": "function"
    },
    {
      "inputs": [],
      "name": "reqId",
      "outputs": [
        {
          "internalType": "uint256",
          "name": "",
          "type": "uint256"
        }
      ],
      "stateMutability": "view",
      "type": "function"
    },
    {
      "inputs": [
        {
          "internalType": "uint256",
          "name": "_spId",
          "type": "uint256"
        },
        {
          "internalType": "uint32",
          "name": "_quantity",
          "type": "uint32"
        },
        {
          "internalType": "address",
          "name": "_supplierAddress",
          "type": "address"
        }
      ],
      "name": "requestProduct",
      "outputs": [],
      "stateMutability": "nonpayable",
      "type": "function"
    },
    {
      "inputs": [],
      "name": "smId",
      "outputs": [
        {
          "internalType": "uint256",
          "name": "",
          "type": "uint256"
        }
      ],
      "stateMutability": "view",
      "type": "function"
    },
    {
      "inputs": [
        {
          "internalType": "uint256",
          "name": "",
          "type": "uint256"
        }
      ],
      "name": "smIdToStructMapping",
      "outputs": [
        {
          "internalType": "uint256",
          "name": "smId",
          "type": "uint256"
        },
        {
          "internalType": "uint256",
          "name": "spId",
          "type": "uint256"
        },
        {
          "internalType": "address",
          "name": "supplierAddress",
          "type": "address"
        },
        {
          "internalType": "address",
          "name": "manufacturerAddress",
          "type": "address"
        },
        {
          "internalType": "uint32",
          "name": "dispatchTime",
          "type": "uint32"
        },
        {
          "internalType": "uint32",
          "name": "arrivalTime",
          "type": "uint32"
        },
        {
          "internalType": "uint32",
          "name": "quantity",
          "type": "uint32"
        },
        {
          "internalType": "uint32",
          "name": "currentQuantity",
          "type": "uint32"
        },
        {
          "internalType": "enum ISupplierManufacturer.transferStatus",
          "name": "status",
          "type": "uint8"
        }
      ],
      "stateMutability": "view",
      "type": "function"
    },
    {
      "inputs": [
        {
          "internalType": "address",
          "name": "",
          "type": "address"
        },
        {
          "internalType": "uint256",
          "name": "",
          "type": "uint256"
        }
      ],
      "name": "supplierTosmIdMapping",
      "outputs": [
        {
          "internalType": "uint256",
          "name": "",
          "type": "uint256"
        }
      ],
      "stateMutability": "view",
      "type": "function"
    },
    {
      "inputs": [
        {
          "internalType": "uint256",
          "name": "_smId",
          "type": "uint256"
        },
        {
          "internalType": "address",
          "name": "_manufacturerAddress",
          "type": "address"
        },
        {
          "internalType": "uint32",
          "name": "_quantity",
          "type": "uint32"
        },
        {
          "internalType": "uint32",
          "name": "_currentQuantity",
          "type": "uint32"
        }
      ],
      "name": "transferProduct",
      "outputs": [],
      "stateMutability": "nonpayable",
      "type": "function"
    }
  ],
  "bytecode": "0x60806040526001600055600180553480156200001a57600080fd5b5060405162002c5238038062002c52833981810160405281019062000040919062000175565b33600460006101000a81548173ffffffffffffffffffffffffffffffffffffffff021916908373ffffffffffffffffffffffffffffffffffffffff16021790555081600260006101000a81548173ffffffffffffffffffffffffffffffffffffffff021916908373ffffffffffffffffffffffffffffffffffffffff16021790555080600360006101000a81548173ffffffffffffffffffffffffffffffffffffffff021916908373ffffffffffffffffffffffffffffffffffffffff1602179055505050620001bc565b600080fd5b600073ffffffffffffffffffffffffffffffffffffffff82169050919050565b60006200013d8262000110565b9050919050565b6200014f8162000130565b81146200015b57600080fd5b50565b6000815190506200016f8162000144565b92915050565b600080604083850312156200018f576200018e6200010b565b5b60006200019f858286016200015e565b9250506020620001b2858286016200015e565b9150509250929050565b612a8680620001cc6000396000f3fe608060405234801561001057600080fd5b50600436106100f55760003560e01c806397910e7711610097578063c7bbd67e11610066578063c7bbd67e14610282578063ca0d1bb5146102a0578063ec02181a146102bc578063f192a2e7146102f4576100f5565b806397910e77146101fe578063a4ac44bf1461022e578063a6f9dae11461024a578063b5dafe8314610266576100f5565b806329d78328116100d357806329d783281461016457806370b775a0146101805780637cfc10c0146101b05780638997ce4e146101e0576100f5565b8063029e2fe4146100fa5780630f65ae38146101185780631001f30f14610134575b600080fd5b610102610324565b60405161010f9190611a12565b60405180910390f35b610132600480360381019061012d9190611a9f565b61032a565b005b61014e60048036038101906101499190611af8565b6103fe565b60405161015b9190611a12565b60405180910390f35b61017e60048036038101906101799190611b38565b61042f565b005b61019a60048036038101906101959190611a9f565b6105df565b6040516101a79190611d80565b60405180910390f35b6101ca60048036038101906101c59190611b38565b6108e0565b6040516101d79190611e59565b60405180910390f35b6101e8610aa1565b6040516101f59190611a12565b60405180910390f35b61021860048036038101906102139190611a9f565b610aa7565b6040516102259190611d80565b60405180910390f35b61024860048036038101906102439190611ea1565b610da8565b005b610264600480360381019061025f9190611a9f565b6111b8565b005b610280600480360381019061027b9190611ef4565b61128c565b005b61028a6116da565b604051610297919061200a565b60405180910390f35b6102ba60048036038101906102b59190611a9f565b611777565b005b6102d660048036038101906102d19190611b38565b61184b565b6040516102eb99989796959493929190612059565b60405180910390f35b61030e60048036038101906103099190611af8565b611926565b60405161031b9190611a12565b60405180910390f35b60005481565b600460009054906101000a900473ffffffffffffffffffffffffffffffffffffffff1673ffffffffffffffffffffffffffffffffffffffff163373ffffffffffffffffffffffffffffffffffffffff16146103ba576040517f08c379a00000000000000000000000000000000000000000000000000000000081526004016103b190612143565b60405180910390fd5b80600260006101000a81548173ffffffffffffffffffffffffffffffffffffffff021916908373ffffffffffffffffffffffffffffffffffffffff16021790555050565b6006602052816000526040600020818154811061041a57600080fd5b90600052602060002001600091509150505481565b6000600260009054906101000a900473ffffffffffffffffffffffffffffffffffffffff1673ffffffffffffffffffffffffffffffffffffffff166335852541336040518263ffffffff1660e01b815260040161048c9190612163565b600060405180830381865afa1580156104a9573d6000803e3d6000fd5b505050506040513d6000823e3d601f19601f820116820180604052508101906104d29190612426565b90506001816000015160028111156104ed576104ec611bce565b5b60ff1614610530576040517f08c379a0000000000000000000000000000000000000000000000000000000008152600401610527906124e1565b60405180910390fd5b426005600084815260200190815260200160002060030160186101000a81548163ffffffff021916908363ffffffff16021790555060036005600084815260200190815260200160002060040160046101000a81548160ff0219169083600381111561059f5761059e611bce565b5b02179055507f64e64e323422dcfed18a892f84596ccf7cc94b1952625f3cc82e6461b529fff1426040516105d39190612501565b60405180910390a15050565b60606000600660008473ffffffffffffffffffffffffffffffffffffffff1673ffffffffffffffffffffffffffffffffffffffff16815260200190815260200160002080548060200260200160405190810160405280929190818152602001828054801561066c57602002820191906000526020600020905b815481526020019060010190808311610658575b505050505090506000815167ffffffffffffffff8111156106905761068f612194565b5b6040519080825280602002602001820160405280156106c957816020015b6106b6611957565b8152602001906001900390816106ae5790505b50905060005b82518110156108d557600560008483815181106106ef576106ee61251c565b5b602002602001015181526020019081526020016000206040518061012001604052908160008201548152602001600182015481526020016002820160009054906101000a900473ffffffffffffffffffffffffffffffffffffffff1673ffffffffffffffffffffffffffffffffffffffff1673ffffffffffffffffffffffffffffffffffffffff1681526020016003820160009054906101000a900473ffffffffffffffffffffffffffffffffffffffff1673ffffffffffffffffffffffffffffffffffffffff1673ffffffffffffffffffffffffffffffffffffffff1681526020016003820160149054906101000a900463ffffffff1663ffffffff1663ffffffff1681526020016003820160189054906101000a900463ffffffff1663ffffffff1663ffffffff16815260200160038201601c9054906101000a900463ffffffff1663ffffffff1663ffffffff1681526020016004820160009054906101000a900463ffffffff1663ffffffff1663ffffffff1681526020016004820160049054906101000a900460ff16600381111561088e5761088d611bce565b5b60038111156108a05761089f611bce565b5b815250508282815181106108b7576108b661251c565b5b602002602001018190525080806108cd9061257a565b9150506106cf565b508092505050919050565b6108e8611957565b600560008381526020019081526020016000206040518061012001604052908160008201548152602001600182015481526020016002820160009054906101000a900473ffffffffffffffffffffffffffffffffffffffff1673ffffffffffffffffffffffffffffffffffffffff1673ffffffffffffffffffffffffffffffffffffffff1681526020016003820160009054906101000a900473ffffffffffffffffffffffffffffffffffffffff1673ffffffffffffffffffffffffffffffffffffffff1673ffffffffffffffffffffffffffffffffffffffff1681526020016003820160149054906101000a900463ffffffff1663ffffffff1663ffffffff1681526020016003820160189054906101000a900463ffffffff1663ffffffff1663ffffffff16815260200160038201601c9054906101000a900463ffffffff1663ffffffff1663ffffffff1681526020016004820160009054906101000a900463ffffffff1663ffffffff1663ffffffff1681526020016004820160049054906101000a900460ff166003811115610a8457610a83611bce565b5b6003811115610a9657610a95611bce565b5b815250509050919050565b60015481565b60606000600760008473ffffffffffffffffffffffffffffffffffffffff1673ffffffffffffffffffffffffffffffffffffffff168152602001908152602001600020805480602002602001604051908101604052809291908181526020018280548015610b3457602002820191906000526020600020905b815481526020019060010190808311610b20575b505050505090506000815167ffffffffffffffff811115610b5857610b57612194565b5b604051908082528060200260200182016040528015610b9157816020015b610b7e611957565b815260200190600190039081610b765790505b50905060005b8251811015610d9d5760056000848381518110610bb757610bb661251c565b5b602002602001015181526020019081526020016000206040518061012001604052908160008201548152602001600182015481526020016002820160009054906101000a900473ffffffffffffffffffffffffffffffffffffffff1673ffffffffffffffffffffffffffffffffffffffff1673ffffffffffffffffffffffffffffffffffffffff1681526020016003820160009054906101000a900473ffffffffffffffffffffffffffffffffffffffff1673ffffffffffffffffffffffffffffffffffffffff1673ffffffffffffffffffffffffffffffffffffffff1681526020016003820160149054906101000a900463ffffffff1663ffffffff1663ffffffff1681526020016003820160189054906101000a900463ffffffff1663ffffffff1663ffffffff16815260200160038201601c9054906101000a900463ffffffff1663ffffffff1663ffffffff1681526020016004820160009054906101000a900463ffffffff1663ffffffff1663ffffffff1681526020016004820160049054906101000a900460ff166003811115610d5657610d55611bce565b5b6003811115610d6857610d67611bce565b5b81525050828281518110610d7f57610d7e61251c565b5b60200260200101819052508080610d959061257a565b915050610b97565b508092505050919050565b6000600260009054906101000a900473ffffffffffffffffffffffffffffffffffffffff1673ffffffffffffffffffffffffffffffffffffffff166335852541336040518263ffffffff1660e01b8152600401610e059190612163565b600060405180830381865afa158015610e22573d6000803e3d6000fd5b505050506040513d6000823e3d601f19601f82011682018060405250810190610e4b9190612426565b9050600181600001516002811115610e6657610e65611bce565b5b60ff1614610ea9576040517f08c379a0000000000000000000000000000000000000000000000000000000008152600401610ea090612634565b60405180910390fd5b60405180610120016040528060005481526020018581526020018373ffffffffffffffffffffffffffffffffffffffff1681526020013373ffffffffffffffffffffffffffffffffffffffff168152602001600063ffffffff168152602001600063ffffffff1681526020018463ffffffff168152602001600063ffffffff16815260200160016003811115610f4257610f41611bce565b5b8152506005600080548152602001908152602001600020600082015181600001556020820151816001015560408201518160020160006101000a81548173ffffffffffffffffffffffffffffffffffffffff021916908373ffffffffffffffffffffffffffffffffffffffff16021790555060608201518160030160006101000a81548173ffffffffffffffffffffffffffffffffffffffff021916908373ffffffffffffffffffffffffffffffffffffffff16021790555060808201518160030160146101000a81548163ffffffff021916908363ffffffff16021790555060a08201518160030160186101000a81548163ffffffff021916908363ffffffff16021790555060c082015181600301601c6101000a81548163ffffffff021916908363ffffffff16021790555060e08201518160040160006101000a81548163ffffffff021916908363ffffffff1602179055506101008201518160040160046101000a81548160ff021916908360038111156110c3576110c2611bce565b5b0217905550905050600660003373ffffffffffffffffffffffffffffffffffffffff1673ffffffffffffffffffffffffffffffffffffffff1681526020019081526020016000206000549080600181540180825580915050600190039060005260206000200160009091909190915055600760003373ffffffffffffffffffffffffffffffffffffffff1673ffffffffffffffffffffffffffffffffffffffff16815260200190815260200160002060005490806001815401808255809150506001900390600052602060002001600090919091909150556000808154809291906111ad9061257a565b919050555050505050565b600460009054906101000a900473ffffffffffffffffffffffffffffffffffffffff1673ffffffffffffffffffffffffffffffffffffffff163373ffffffffffffffffffffffffffffffffffffffff1614611248576040517f08c379a000000000000000000000000000000000000000000000000000000000815260040161123f90612143565b60405180910390fd5b80600460006101000a81548173ffffffffffffffffffffffffffffffffffffffff021916908373ffffffffffffffffffffffffffffffffffffffff16021790555050565b6000600260009054906101000a900473ffffffffffffffffffffffffffffffffffffffff1673ffffffffffffffffffffffffffffffffffffffff166335852541336040518263ffffffff1660e01b81526004016112e99190612163565b600060405180830381865afa158015611306573d6000803e3d6000fd5b505050506040513d6000823e3d601f19601f8201168201806040525081019061132f9190612426565b905060008160000151600281111561134a57611349611bce565b5b60ff161461138d576040517f08c379a0000000000000000000000000000000000000000000000000000000008152600401611384906126c6565b60405180910390fd5b60003390506000600360009054906101000a900473ffffffffffffffffffffffffffffffffffffffff1673ffffffffffffffffffffffffffffffffffffffff166311517205836040518263ffffffff1660e01b81526004016113ef9190612163565b600060405180830381865afa15801561140c573d6000803e3d6000fd5b505050506040513d6000823e3d601f19601f8201168201806040525081019061143591906127c3565b90506000805b825181101561149757600560008a81526020019081526020016000206001015483828151811061146e5761146d61251c565b5b6020026020010151036114845760019150611497565b808061148f9061257a565b91505061143b565b50806114d8576040517f08c379a00000000000000000000000000000000000000000000000000000000081526004016114cf90612858565b60405180910390fd5b33600560008a815260200190815260200160002060020160006101000a81548173ffffffffffffffffffffffffffffffffffffffff021916908373ffffffffffffffffffffffffffffffffffffffff16021790555042600560008a815260200190815260200160002060030160146101000a81548163ffffffff021916908363ffffffff16021790555084600560008a815260200190815260200160002060040160006101000a81548163ffffffff021916908363ffffffff1602179055506002600560008a815260200190815260200160002060040160046101000a81548160ff021916908360038111156115d1576115d0611bce565b5b021790555060056000898152602001908152602001600020600101546000547f6abc5964a9f8c02bee56a206f75c7526ea67f5abd5cbbe939c60d4a489607e49338a4260405161162393929190612878565b60405180910390a3600360009054906101000a900473ffffffffffffffffffffffffffffffffffffffff1673ffffffffffffffffffffffffffffffffffffffff1663f8bafa70600560008b815260200190815260200160002060010154886040518363ffffffff1660e01b815260040161169e929190612906565b600060405180830381600087803b1580156116b857600080fd5b505af11580156116cc573d6000803e3d6000fd5b505050505050505050505050565b6060600260009054906101000a900473ffffffffffffffffffffffffffffffffffffffff1673ffffffffffffffffffffffffffffffffffffffff1663c7bbd67e6040518163ffffffff1660e01b8152600401600060405180830381865afa158015611749573d6000803e3d6000fd5b505050506040513d6000823e3d601f19601f820116820180604052508101906117729190612a07565b905090565b600460009054906101000a900473ffffffffffffffffffffffffffffffffffffffff1673ffffffffffffffffffffffffffffffffffffffff163373ffffffffffffffffffffffffffffffffffffffff1614611807576040517f08c379a00000000000000000000000000000000000000000000000000000000081526004016117fe90612143565b60405180910390fd5b80600360006101000a81548173ffffffffffffffffffffffffffffffffffffffff021916908373ffffffffffffffffffffffffffffffffffffffff16021790555050565b60056020528060005260406000206000915090508060000154908060010154908060020160009054906101000a900473ffffffffffffffffffffffffffffffffffffffff16908060030160009054906101000a900473ffffffffffffffffffffffffffffffffffffffff16908060030160149054906101000a900463ffffffff16908060030160189054906101000a900463ffffffff169080600301601c9054906101000a900463ffffffff16908060040160009054906101000a900463ffffffff16908060040160049054906101000a900460ff16905089565b6007602052816000526040600020818154811061194257600080fd5b90600052602060002001600091509150505481565b6040518061012001604052806000815260200160008152602001600073ffffffffffffffffffffffffffffffffffffffff168152602001600073ffffffffffffffffffffffffffffffffffffffff168152602001600063ffffffff168152602001600063ffffffff168152602001600063ffffffff168152602001600063ffffffff168152602001600060038111156119f3576119f2611bce565b5b81525090565b6000819050919050565b611a0c816119f9565b82525050565b6000602082019050611a276000830184611a03565b92915050565b6000604051905090565b600080fd5b600080fd5b600073ffffffffffffffffffffffffffffffffffffffff82169050919050565b6000611a6c82611a41565b9050919050565b611a7c81611a61565b8114611a8757600080fd5b50565b600081359050611a9981611a73565b92915050565b600060208284031215611ab557611ab4611a37565b5b6000611ac384828501611a8a565b91505092915050565b611ad5816119f9565b8114611ae057600080fd5b50565b600081359050611af281611acc565b92915050565b60008060408385031215611b0f57611b0e611a37565b5b6000611b1d85828601611a8a565b9250506020611b2e85828601611ae3565b9150509250929050565b600060208284031215611b4e57611b4d611a37565b5b6000611b5c84828501611ae3565b91505092915050565b600081519050919050565b600082825260208201905092915050565b6000819050602082019050919050565b611b9a816119f9565b82525050565b611ba981611a61565b82525050565b600063ffffffff82169050919050565b611bc881611baf565b82525050565b7f4e487b7100000000000000000000000000000000000000000000000000000000600052602160045260246000fd5b60048110611c0e57611c0d611bce565b5b50565b6000819050611c1f82611bfd565b919050565b6000611c2f82611c11565b9050919050565b611c3f81611c24565b82525050565b61012082016000820151611c5c6000850182611b91565b506020820151611c6f6020850182611b91565b506040820151611c826040850182611ba0565b506060820151611c956060850182611ba0565b506080820151611ca86080850182611bbf565b5060a0820151611cbb60a0850182611bbf565b5060c0820151611cce60c0850182611bbf565b5060e0820151611ce160e0850182611bbf565b50610100820151611cf6610100850182611c36565b50505050565b6000611d088383611c45565b6101208301905092915050565b6000602082019050919050565b6000611d2d82611b65565b611d378185611b70565b9350611d4283611b81565b8060005b83811015611d73578151611d5a8882611cfc565b9750611d6583611d15565b925050600181019050611d46565b5085935050505092915050565b60006020820190508181036000830152611d9a8184611d22565b905092915050565b61012082016000820151611db96000850182611b91565b506020820151611dcc6020850182611b91565b506040820151611ddf6040850182611ba0565b506060820151611df26060850182611ba0565b506080820151611e056080850182611bbf565b5060a0820151611e1860a0850182611bbf565b5060c0820151611e2b60c0850182611bbf565b5060e0820151611e3e60e0850182611bbf565b50610100820151611e53610100850182611c36565b50505050565b600061012082019050611e6f6000830184611da2565b92915050565b611e7e81611baf565b8114611e8957600080fd5b50565b600081359050611e9b81611e75565b92915050565b600080600060608486031215611eba57611eb9611a37565b5b6000611ec886828701611ae3565b9350506020611ed986828701611e8c565b9250506040611eea86828701611a8a565b9150509250925092565b60008060008060808587031215611f0e57611f0d611a37565b5b6000611f1c87828801611ae3565b9450506020611f2d87828801611a8a565b9350506040611f3e87828801611e8c565b9250506060611f4f87828801611e8c565b91505092959194509250565b600081519050919050565b600082825260208201905092915050565b6000819050602082019050919050565b6000611f938383611ba0565b60208301905092915050565b6000602082019050919050565b6000611fb782611f5b565b611fc18185611f66565b9350611fcc83611f77565b8060005b83811015611ffd578151611fe48882611f87565b9750611fef83611f9f565b925050600181019050611fd0565b5085935050505092915050565b600060208201905081810360008301526120248184611fac565b905092915050565b61203581611a61565b82525050565b61204481611baf565b82525050565b61205381611c24565b82525050565b60006101208201905061206f600083018c611a03565b61207c602083018b611a03565b612089604083018a61202c565b612096606083018961202c565b6120a3608083018861203b565b6120b060a083018761203b565b6120bd60c083018661203b565b6120ca60e083018561203b565b6120d861010083018461204a565b9a9950505050505050505050565b600082825260208201905092915050565b7f4e6f74206f776e65720000000000000000000000000000000000000000000000600082015250565b600061212d6009836120e6565b9150612138826120f7565b602082019050919050565b6000602082019050818103600083015261215c81612120565b9050919050565b6000602082019050612178600083018461202c565b92915050565b600080fd5b6000601f19601f8301169050919050565b7f4e487b7100000000000000000000000000000000000000000000000000000000600052604160045260246000fd5b6121cc82612183565b810181811067ffffffffffffffff821117156121eb576121ea612194565b5b80604052505050565b60006121fe611a2d565b905061220a82826121c3565b919050565b600080fd5b6003811061222157600080fd5b50565b60008151905061223381612214565b92915050565b600080fd5b600080fd5b600067ffffffffffffffff82111561225e5761225d612194565b5b61226782612183565b9050602081019050919050565b60005b83811015612292578082015181840152602081019050612277565b60008484015250505050565b60006122b16122ac84612243565b6121f4565b9050828152602081018484840111156122cd576122cc61223e565b5b6122d8848285612274565b509392505050565b600082601f8301126122f5576122f4612239565b5b815161230584826020860161229e565b91505092915050565b60008115159050919050565b6123238161230e565b811461232e57600080fd5b50565b6000815190506123408161231a565b92915050565b600060a0828403121561235c5761235b61217e565b5b61236660a06121f4565b9050600061237684828501612224565b600083015250602082015167ffffffffffffffff81111561239a5761239961220f565b5b6123a6848285016122e0565b602083015250604082015167ffffffffffffffff8111156123ca576123c961220f565b5b6123d6848285016122e0565b604083015250606082015167ffffffffffffffff8111156123fa576123f961220f565b5b612406848285016122e0565b606083015250608061241a84828501612331565b60808301525092915050565b60006020828403121561243c5761243b611a37565b5b600082015167ffffffffffffffff81111561245a57612459611a3c565b5b61246684828501612346565b91505092915050565b7f4f6e6c79204d616e7566616374757265722063616e2061636b6e6f776c65646760008201527f6520726563656976652070726f64756374000000000000000000000000000000602082015250565b60006124cb6031836120e6565b91506124d68261246f565b604082019050919050565b600060208201905081810360008301526124fa816124be565b9050919050565b6000602082019050612516600083018461203b565b92915050565b7f4e487b7100000000000000000000000000000000000000000000000000000000600052603260045260246000fd5b7f4e487b7100000000000000000000000000000000000000000000000000000000600052601160045260246000fd5b6000612585826119f9565b91507fffffffffffffffffffffffffffffffffffffffffffffffffffffffffffffffff82036125b7576125b661254b565b5b600182019050919050565b7f4f6e6c79204d616e7566616374757265722063616e205265717565737420707260008201527f6f64756374000000000000000000000000000000000000000000000000000000602082015250565b600061261e6025836120e6565b9150612629826125c2565b604082019050919050565b6000602082019050818103600083015261264d81612611565b9050919050565b7f4f6e6c7920537570706c6965722063616e205472616e736665722070726f647560008201527f6374000000000000000000000000000000000000000000000000000000000000602082015250565b60006126b06022836120e6565b91506126bb82612654565b604082019050919050565b600060208201905081810360008301526126df816126a3565b9050919050565b600067ffffffffffffffff82111561270157612700612194565b5b602082029050602081019050919050565b600080fd5b60008151905061272681611acc565b92915050565b600061273f61273a846126e6565b6121f4565b9050808382526020820190506020840283018581111561276257612761612712565b5b835b8181101561278b57806127778882612717565b845260208401935050602081019050612764565b5050509392505050565b600082601f8301126127aa576127a9612239565b5b81516127ba84826020860161272c565b91505092915050565b6000602082840312156127d9576127d8611a37565b5b600082015167ffffffffffffffff8111156127f7576127f6611a3c565b5b61280384828501612795565b91505092915050565b7f50726f64756374206e6f74206f776e656420627920796f750000000000000000600082015250565b60006128426018836120e6565b915061284d8261280c565b602082019050919050565b6000602082019050818103600083015261287181612835565b9050919050565b600060608201905061288d600083018661202c565b61289a602083018561202c565b6128a7604083018461203b565b949350505050565b60006fffffffffffffffffffffffffffffffff82169050919050565b6000819050919050565b60006128f06128eb6128e684611baf565b6128cb565b6128af565b9050919050565b612900816128d5565b82525050565b600060408201905061291b6000830185611a03565b61292860208301846128f7565b9392505050565b600067ffffffffffffffff82111561294a57612949612194565b5b602082029050602081019050919050565b60008151905061296a81611a73565b92915050565b600061298361297e8461292f565b6121f4565b905080838252602082019050602084028301858111156129a6576129a5612712565b5b835b818110156129cf57806129bb888261295b565b8452602084019350506020810190506129a8565b5050509392505050565b600082601f8301126129ee576129ed612239565b5b81516129fe848260208601612970565b91505092915050565b600060208284031215612a1d57612a1c611a37565b5b600082015167ffffffffffffffff811115612a3b57612a3a611a3c565b5b612a47848285016129d9565b9150509291505056fea2646970667358221220886ec2f22bcf792f5e6297b8fc2f8f1c999b4f67c97e80f21a9e341f2e4299bd64736f6c63430008120033",
  "linkReferences": {},
  "deployedLinkReferences": {}
}