{
  "_format": "hh-sol-artifact-1",
  "contractName": "manufacturerDistributor",
  "sourceName": "contracts/manufacturerDistributor.sol",
  "abi": [
    {
      "anonymous": false,
      "inputs": [
        {
          "indexed": false,
          "internalType": "uint32",
          "name": "_arrivalTime",
          "type": "uint32"
        }
      ],
      "name": "eventArrivalTime",
      "type": "event"
    },
    {
      "anonymous": false,
      "inputs": [
        {
          "indexed": true,
          "internalType": "uint256",
          "name": "_mdId",
          "type": "uint256"
        },
        {
          "indexed": true,
          "internalType": "uint256",
          "name": "_mpId",
          "type": "uint256"
        },
        {
          "indexed": false,
          "internalType": "address",
          "name": "_manufacturerAddress",
          "type": "address"
        },
        {
          "indexed": false,
          "internalType": "address",
          "name": "_distributorAddress",
          "type": "address"
        },
        {
          "indexed": false,
          "internalType": "uint32",
          "name": "_dispatchTime",
          "type": "uint32"
        }
      ],
      "name": "eventManufacturerDistributorTransfer",
      "type": "event"
    },
    {
      "inputs": [
        {
          "internalType": "address",
          "name": "",
          "type": "address"
        },
        {
          "internalType": "uint256",
          "name": "",
          "type": "uint256"
        }
      ],
      "name": "distributorTosmIdMapping",
      "outputs": [
        {
          "internalType": "uint256",
          "name": "",
          "type": "uint256"
        }
      ],
      "stateMutability": "view",
      "type": "function"
    },
    {
      "inputs": [
        {
          "internalType": "address",
          "name": "_distributorAddress",
          "type": "address"
        }
      ],
      "name": "getAllmdIdForDistributor",
      "outputs": [
        {
          "components": [
            {
              "internalType": "uint256",
              "name": "mpId",
              "type": "uint256"
            },
            {
              "internalType": "address",
              "name": "m_address",
              "type": "address"
            },
            {
              "internalType": "address",
              "name": "d_address",
              "type": "address"
            },
            {
              "internalType": "uint32",
              "name": "dispatchTime",
              "type": "uint32"
            },
            {
              "internalType": "uint32",
              "name": "arrivalTime",
              "type": "uint32"
            }
          ],
          "internalType": "struct IManufacturerDistributor.manufacturerDistributor[]",
          "name": "",
          "type": "tuple[]"
        }
      ],
      "stateMutability": "view",
      "type": "function"
    },
    {
      "inputs": [
        {
          "internalType": "uint256",
          "name": "_mdid",
          "type": "uint256"
        }
      ],
      "name": "getProduct",
      "outputs": [
        {
          "components": [
            {
              "internalType": "uint256",
              "name": "mpId",
              "type": "uint256"
            },
            {
              "internalType": "address",
              "name": "m_address",
              "type": "address"
            },
            {
              "internalType": "address",
              "name": "d_address",
              "type": "address"
            },
            {
              "internalType": "uint32",
              "name": "dispatchTime",
              "type": "uint32"
            },
            {
              "internalType": "uint32",
              "name": "arrivalTime",
              "type": "uint32"
            }
          ],
          "internalType": "struct IManufacturerDistributor.manufacturerDistributor",
          "name": "",
          "type": "tuple"
        }
      ],
      "stateMutability": "view",
      "type": "function"
    },
    {
      "inputs": [],
      "name": "mdId",
      "outputs": [
        {
          "internalType": "uint256",
          "name": "",
          "type": "uint256"
        }
      ],
      "stateMutability": "view",
      "type": "function"
    },
    {
      "inputs": [
        {
          "internalType": "uint256",
          "name": "",
          "type": "uint256"
        }
      ],
      "name": "mdIdToStructMapping",
      "outputs": [
        {
          "internalType": "uint256",
          "name": "mpId",
          "type": "uint256"
        },
        {
          "internalType": "address",
          "name": "m_address",
          "type": "address"
        },
        {
          "internalType": "address",
          "name": "d_address",
          "type": "address"
        },
        {
          "internalType": "uint32",
          "name": "dispatchTime",
          "type": "uint32"
        },
        {
          "internalType": "uint32",
          "name": "arrivalTime",
          "type": "uint32"
        }
      ],
      "stateMutability": "view",
      "type": "function"
    },
    {
      "inputs": [
        {
          "internalType": "uint256",
          "name": "_mdId",
          "type": "uint256"
        }
      ],
      "name": "receiveProduct",
      "outputs": [],
      "stateMutability": "nonpayable",
      "type": "function"
    },
    {
      "inputs": [
        {
          "internalType": "uint256",
          "name": "_mpId",
          "type": "uint256"
        },
        {
          "internalType": "address",
          "name": "_manufacturerAddress",
          "type": "address"
        },
        {
          "internalType": "address",
          "name": "_distributorAddress",
          "type": "address"
        },
        {
          "internalType": "uint32",
          "name": "_dispatchTime",
          "type": "uint32"
        }
      ],
      "name": "transferproduct",
      "outputs": [],
      "stateMutability": "nonpayable",
      "type": "function"
    }
  ],
  "bytecode": "0x6080604052600160005534801561001557600080fd5b50610eb5806100256000396000f3fe608060405234801561001057600080fd5b506004361061007d5760003560e01c806346dadf381161005b57806346dadf38146100fe5780636e394ff51461011a578063b9db15b41461014e578063e3eba9041461017e5761007d565b806322bde9171461008257806329d78328146100b25780634387254d146100ce575b600080fd5b61009c60048036038101906100979190610997565b61019c565b6040516100a991906109e6565b60405180910390f35b6100cc60048036038101906100c79190610a01565b6101cd565b005b6100e860048036038101906100e39190610a2e565b61023c565b6040516100f59190610baf565b60405180910390f35b61011860048036038101906101139190610bfd565b6104ab565b005b610134600480360381019061012f9190610a01565b6106cc565b604051610145959493929190610c82565b60405180910390f35b61016860048036038101906101639190610a01565b610762565b6040516101759190610d3d565b60405180910390f35b610186610891565b60405161019391906109e6565b60405180910390f35b600260205281600052604060002081815481106101b857600080fd5b90600052602060002001600091509150505481565b426001600083815260200190815260200160002060020160186101000a81548163ffffffff021916908363ffffffff1602179055507f64e64e323422dcfed18a892f84596ccf7cc94b1952625f3cc82e6461b529fff1426040516102319190610d58565b60405180910390a150565b60606000600260008473ffffffffffffffffffffffffffffffffffffffff1673ffffffffffffffffffffffffffffffffffffffff1681526020019081526020016000208054806020026020016040519081016040528092919081815260200182805480156102c957602002820191906000526020600020905b8154815260200190600101908083116102b5575b505050505090506000815167ffffffffffffffff8111156102ed576102ec610d73565b5b60405190808252806020026020018201604052801561032657816020015b610313610897565b81526020019060019003908161030b5790505b50905060005b82518110156104a0576001600084838151811061034c5761034b610da2565b5b602002602001015181526020019081526020016000206040518060a0016040529081600082015481526020016001820160009054906101000a900473ffffffffffffffffffffffffffffffffffffffff1673ffffffffffffffffffffffffffffffffffffffff1673ffffffffffffffffffffffffffffffffffffffff1681526020016002820160009054906101000a900473ffffffffffffffffffffffffffffffffffffffff1673ffffffffffffffffffffffffffffffffffffffff1673ffffffffffffffffffffffffffffffffffffffff1681526020016002820160149054906101000a900463ffffffff1663ffffffff1663ffffffff1681526020016002820160189054906101000a900463ffffffff1663ffffffff1663ffffffff168152505082828151811061048257610481610da2565b5b6020026020010181905250808061049890610e00565b91505061032c565b508092505050919050565b6040518060a001604052808581526020018473ffffffffffffffffffffffffffffffffffffffff1681526020018373ffffffffffffffffffffffffffffffffffffffff1681526020018263ffffffff168152602001600063ffffffff1681525060016000805481526020019081526020016000206000820151816000015560208201518160010160006101000a81548173ffffffffffffffffffffffffffffffffffffffff021916908373ffffffffffffffffffffffffffffffffffffffff16021790555060408201518160020160006101000a81548173ffffffffffffffffffffffffffffffffffffffff021916908373ffffffffffffffffffffffffffffffffffffffff16021790555060608201518160020160146101000a81548163ffffffff021916908363ffffffff16021790555060808201518160020160186101000a81548163ffffffff021916908363ffffffff160217905550905050600260008373ffffffffffffffffffffffffffffffffffffffff1673ffffffffffffffffffffffffffffffffffffffff1681526020019081526020016000206000549080600181540180825580915050600190039060005260206000200160009091909190915055836000547f3d9c6d7fedf256315259fe8cb6863117af8f4a56f16c0767d72c06359e16e5338585856040516106a793929190610e48565b60405180910390a36000808154809291906106c190610e00565b919050555050505050565b60016020528060005260406000206000915090508060000154908060010160009054906101000a900473ffffffffffffffffffffffffffffffffffffffff16908060020160009054906101000a900473ffffffffffffffffffffffffffffffffffffffff16908060020160149054906101000a900463ffffffff16908060020160189054906101000a900463ffffffff16905085565b61076a610897565b600160008381526020019081526020016000206040518060a0016040529081600082015481526020016001820160009054906101000a900473ffffffffffffffffffffffffffffffffffffffff1673ffffffffffffffffffffffffffffffffffffffff1673ffffffffffffffffffffffffffffffffffffffff1681526020016002820160009054906101000a900473ffffffffffffffffffffffffffffffffffffffff1673ffffffffffffffffffffffffffffffffffffffff1673ffffffffffffffffffffffffffffffffffffffff1681526020016002820160149054906101000a900463ffffffff1663ffffffff1663ffffffff1681526020016002820160189054906101000a900463ffffffff1663ffffffff1663ffffffff16815250509050919050565b60005481565b6040518060a0016040528060008152602001600073ffffffffffffffffffffffffffffffffffffffff168152602001600073ffffffffffffffffffffffffffffffffffffffff168152602001600063ffffffff168152602001600063ffffffff1681525090565b600080fd5b600073ffffffffffffffffffffffffffffffffffffffff82169050919050565b600061092e82610903565b9050919050565b61093e81610923565b811461094957600080fd5b50565b60008135905061095b81610935565b92915050565b6000819050919050565b61097481610961565b811461097f57600080fd5b50565b6000813590506109918161096b565b92915050565b600080604083850312156109ae576109ad6108fe565b5b60006109bc8582860161094c565b92505060206109cd85828601610982565b9150509250929050565b6109e081610961565b82525050565b60006020820190506109fb60008301846109d7565b92915050565b600060208284031215610a1757610a166108fe565b5b6000610a2584828501610982565b91505092915050565b600060208284031215610a4457610a436108fe565b5b6000610a528482850161094c565b91505092915050565b600081519050919050565b600082825260208201905092915050565b6000819050602082019050919050565b610a9081610961565b82525050565b610a9f81610923565b82525050565b600063ffffffff82169050919050565b610abe81610aa5565b82525050565b60a082016000820151610ada6000850182610a87565b506020820151610aed6020850182610a96565b506040820151610b006040850182610a96565b506060820151610b136060850182610ab5565b506080820151610b266080850182610ab5565b50505050565b6000610b388383610ac4565b60a08301905092915050565b6000602082019050919050565b6000610b5c82610a5b565b610b668185610a66565b9350610b7183610a77565b8060005b83811015610ba2578151610b898882610b2c565b9750610b9483610b44565b925050600181019050610b75565b5085935050505092915050565b60006020820190508181036000830152610bc98184610b51565b905092915050565b610bda81610aa5565b8114610be557600080fd5b50565b600081359050610bf781610bd1565b92915050565b60008060008060808587031215610c1757610c166108fe565b5b6000610c2587828801610982565b9450506020610c368782880161094c565b9350506040610c478782880161094c565b9250506060610c5887828801610be8565b91505092959194509250565b610c6d81610923565b82525050565b610c7c81610aa5565b82525050565b600060a082019050610c9760008301886109d7565b610ca46020830187610c64565b610cb16040830186610c64565b610cbe6060830185610c73565b610ccb6080830184610c73565b9695505050505050565b60a082016000820151610ceb6000850182610a87565b506020820151610cfe6020850182610a96565b506040820151610d116040850182610a96565b506060820151610d246060850182610ab5565b506080820151610d376080850182610ab5565b50505050565b600060a082019050610d526000830184610cd5565b92915050565b6000602082019050610d6d6000830184610c73565b92915050565b7f4e487b7100000000000000000000000000000000000000000000000000000000600052604160045260246000fd5b7f4e487b7100000000000000000000000000000000000000000000000000000000600052603260045260246000fd5b7f4e487b7100000000000000000000000000000000000000000000000000000000600052601160045260246000fd5b6000610e0b82610961565b91507fffffffffffffffffffffffffffffffffffffffffffffffffffffffffffffffff8203610e3d57610e3c610dd1565b5b600182019050919050565b6000606082019050610e5d6000830186610c64565b610e6a6020830185610c64565b610e776040830184610c73565b94935050505056fea26469706673582212209f181f49f446f5c71fa1d11b9f6b705c03da341b58fa2732638ab30ed8305c9864736f6c63430008120033",
  "linkReferences": {},
  "deployedLinkReferences": {}
}