{
  "_format": "hh-sol-artifact-1",
  "contractName": "manufacturerDistributor",
  "sourceName": "contracts/manufacturerDistributor.sol",
  "abi": [
    {
      "inputs": [
        {
          "internalType": "address",
          "name": "_udAddress",
          "type": "address"
        },
        {
          "internalType": "address",
          "name": "_mpAddress",
          "type": "address"
        }
      ],
      "stateMutability": "nonpayable",
      "type": "constructor"
    },
    {
      "anonymous": false,
      "inputs": [
        {
          "indexed": false,
          "internalType": "uint32",
          "name": "_arrivalTime",
          "type": "uint32"
        }
      ],
      "name": "eventArrivalTime",
      "type": "event"
    },
    {
      "anonymous": false,
      "inputs": [
        {
          "indexed": true,
          "internalType": "uint256",
          "name": "_mdId",
          "type": "uint256"
        },
        {
          "indexed": true,
          "internalType": "uint256",
          "name": "_mpId",
          "type": "uint256"
        },
        {
          "indexed": false,
          "internalType": "address",
          "name": "_manufacturerAddress",
          "type": "address"
        },
        {
          "indexed": false,
          "internalType": "address",
          "name": "_distributorAddress",
          "type": "address"
        },
        {
          "indexed": false,
          "internalType": "uint32",
          "name": "_dispatchTime",
          "type": "uint32"
        }
      ],
      "name": "eventManufacturerDistributorTransfer",
      "type": "event"
    },
    {
      "inputs": [
        {
          "internalType": "address",
          "name": "_mpAddress",
          "type": "address"
        }
      ],
      "name": "changeMpAddress",
      "outputs": [],
      "stateMutability": "nonpayable",
      "type": "function"
    },
    {
      "inputs": [
        {
          "internalType": "address",
          "name": "_ownerAddress",
          "type": "address"
        }
      ],
      "name": "changeOwner",
      "outputs": [],
      "stateMutability": "nonpayable",
      "type": "function"
    },
    {
      "inputs": [
        {
          "internalType": "address",
          "name": "_udAddress",
          "type": "address"
        }
      ],
      "name": "changeUdAddress",
      "outputs": [],
      "stateMutability": "nonpayable",
      "type": "function"
    },
    {
      "inputs": [
        {
          "internalType": "address",
          "name": "",
          "type": "address"
        },
        {
          "internalType": "uint256",
          "name": "",
          "type": "uint256"
        }
      ],
      "name": "distributorTomdIdMapping",
      "outputs": [
        {
          "internalType": "uint256",
          "name": "",
          "type": "uint256"
        }
      ],
      "stateMutability": "view",
      "type": "function"
    },
    {
      "inputs": [
        {
          "internalType": "address",
          "name": "_distributorAddress",
          "type": "address"
        }
      ],
      "name": "getAllmdIdForDistributor",
      "outputs": [
        {
          "components": [
            {
              "internalType": "uint256",
              "name": "mdId",
              "type": "uint256"
            },
            {
              "internalType": "uint256",
              "name": "mpId",
              "type": "uint256"
            },
            {
              "internalType": "address",
              "name": "m_address",
              "type": "address"
            },
            {
              "internalType": "address",
              "name": "d_address",
              "type": "address"
            },
            {
              "internalType": "uint32",
              "name": "dispatchTime",
              "type": "uint32"
            },
            {
              "internalType": "uint32",
              "name": "arrivalTime",
              "type": "uint32"
            },
            {
              "internalType": "uint32",
              "name": "quantity",
              "type": "uint32"
            },
            {
              "internalType": "uint32",
              "name": "currentQuantity",
              "type": "uint32"
            },
            {
              "internalType": "enum IManufacturerDistributor.transferStatus",
              "name": "status",
              "type": "uint8"
            }
          ],
          "internalType": "struct IManufacturerDistributor.manufacturerDistributor[]",
          "name": "",
          "type": "tuple[]"
        }
      ],
      "stateMutability": "view",
      "type": "function"
    },
    {
      "inputs": [
        {
          "internalType": "uint256",
          "name": "_mdid",
          "type": "uint256"
        }
      ],
      "name": "getProduct",
      "outputs": [
        {
          "components": [
            {
              "internalType": "uint256",
              "name": "mdId",
              "type": "uint256"
            },
            {
              "internalType": "uint256",
              "name": "mpId",
              "type": "uint256"
            },
            {
              "internalType": "address",
              "name": "m_address",
              "type": "address"
            },
            {
              "internalType": "address",
              "name": "d_address",
              "type": "address"
            },
            {
              "internalType": "uint32",
              "name": "dispatchTime",
              "type": "uint32"
            },
            {
              "internalType": "uint32",
              "name": "arrivalTime",
              "type": "uint32"
            },
            {
              "internalType": "uint32",
              "name": "quantity",
              "type": "uint32"
            },
            {
              "internalType": "uint32",
              "name": "currentQuantity",
              "type": "uint32"
            },
            {
              "internalType": "enum IManufacturerDistributor.transferStatus",
              "name": "status",
              "type": "uint8"
            }
          ],
          "internalType": "struct IManufacturerDistributor.manufacturerDistributor",
          "name": "",
          "type": "tuple"
        }
      ],
      "stateMutability": "view",
      "type": "function"
    },
    {
      "inputs": [
        {
          "internalType": "address",
          "name": "",
          "type": "address"
        },
        {
          "internalType": "uint256",
          "name": "",
          "type": "uint256"
        }
      ],
      "name": "manufacturerTosmIdMapping",
      "outputs": [
        {
          "internalType": "uint256",
          "name": "",
          "type": "uint256"
        }
      ],
      "stateMutability": "view",
      "type": "function"
    },
    {
      "inputs": [],
      "name": "mdId",
      "outputs": [
        {
          "internalType": "uint256",
          "name": "",
          "type": "uint256"
        }
      ],
      "stateMutability": "view",
      "type": "function"
    },
    {
      "inputs": [
        {
          "internalType": "uint256",
          "name": "",
          "type": "uint256"
        }
      ],
      "name": "mdIdToStructMapping",
      "outputs": [
        {
          "internalType": "uint256",
          "name": "mdId",
          "type": "uint256"
        },
        {
          "internalType": "uint256",
          "name": "mpId",
          "type": "uint256"
        },
        {
          "internalType": "address",
          "name": "m_address",
          "type": "address"
        },
        {
          "internalType": "address",
          "name": "d_address",
          "type": "address"
        },
        {
          "internalType": "uint32",
          "name": "dispatchTime",
          "type": "uint32"
        },
        {
          "internalType": "uint32",
          "name": "arrivalTime",
          "type": "uint32"
        },
        {
          "internalType": "uint32",
          "name": "quantity",
          "type": "uint32"
        },
        {
          "internalType": "uint32",
          "name": "currentQuantity",
          "type": "uint32"
        },
        {
          "internalType": "enum IManufacturerDistributor.transferStatus",
          "name": "status",
          "type": "uint8"
        }
      ],
      "stateMutability": "view",
      "type": "function"
    },
    {
      "inputs": [
        {
          "internalType": "uint256",
          "name": "_mpId",
          "type": "uint256"
        },
        {
          "internalType": "uint256",
          "name": "_mdId",
          "type": "uint256"
        }
      ],
      "name": "receiveProduct",
      "outputs": [],
      "stateMutability": "nonpayable",
      "type": "function"
    },
    {
      "inputs": [
        {
          "internalType": "uint256",
          "name": "_mpId",
          "type": "uint256"
        },
        {
          "internalType": "uint32",
          "name": "_quantity",
          "type": "uint32"
        },
        {
          "internalType": "address",
          "name": "_manufacturerAddress",
          "type": "address"
        }
      ],
      "name": "requestProduct",
      "outputs": [],
      "stateMutability": "nonpayable",
      "type": "function"
    },
    {
      "inputs": [
        {
          "internalType": "uint256",
          "name": "_mpId",
          "type": "uint256"
        },
        {
          "internalType": "address",
          "name": "_distributorAddress",
          "type": "address"
        },
        {
          "internalType": "uint32",
          "name": "_quantity",
          "type": "uint32"
        }
      ],
      "name": "transferProduct",
      "outputs": [],
      "stateMutability": "nonpayable",
      "type": "function"
    }
  ],
  "bytecode": "0x608060405260016000553480156200001657600080fd5b506040516200237d3803806200237d83398181016040528101906200003c919062000171565b33600360006101000a81548173ffffffffffffffffffffffffffffffffffffffff021916908373ffffffffffffffffffffffffffffffffffffffff16021790555081600160006101000a81548173ffffffffffffffffffffffffffffffffffffffff021916908373ffffffffffffffffffffffffffffffffffffffff16021790555080600260006101000a81548173ffffffffffffffffffffffffffffffffffffffff021916908373ffffffffffffffffffffffffffffffffffffffff1602179055505050620001b8565b600080fd5b600073ffffffffffffffffffffffffffffffffffffffff82169050919050565b600062000139826200010c565b9050919050565b6200014b816200012c565b81146200015757600080fd5b50565b6000815190506200016b8162000140565b92915050565b600080604083850312156200018b576200018a62000107565b5b60006200019b858286016200015a565b9250506020620001ae858286016200015a565b9150509250929050565b6121b580620001c86000396000f3fe608060405234801561001057600080fd5b50600436106100b45760003560e01c80636e394ff5116100715780636e394ff51461019d57806387216897146101d5578063a4ac44bf146101f1578063a6f9dae11461020d578063b9db15b414610229578063e3eba90414610259576100b4565b80630f65ae38146100b95780631001f30f146100d5578063157e14cd1461010557806342f14383146101215780634387254d1461013d5780636793fc851461016d575b600080fd5b6100d360048036038101906100ce91906114c9565b610277565b005b6100ef60048036038101906100ea919061152c565b61034b565b6040516100fc919061157b565b60405180910390f35b61011f600480360381019061011a9190611596565b61037c565b005b61013b60048036038101906101369190611612565b610585565b005b610157600480360381019061015291906114c9565b610829565b6040516101649190611870565b60405180910390f35b6101876004803603810190610182919061152c565b610b2a565b604051610194919061157b565b60405180910390f35b6101b760048036038101906101b29190611892565b610b5b565b6040516101cc999897969594939291906118ec565b60405180910390f35b6101ef60048036038101906101ea91906114c9565b610c36565b005b61020b60048036038101906102069190611979565b610d0a565b005b610227600480360381019061022291906114c9565b61111a565b005b610243600480360381019061023e9190611892565b6111ee565b6040516102509190611a83565b60405180910390f35b6102616113af565b60405161026e919061157b565b60405180910390f35b600360009054906101000a900473ffffffffffffffffffffffffffffffffffffffff1673ffffffffffffffffffffffffffffffffffffffff163373ffffffffffffffffffffffffffffffffffffffff1614610307576040517f08c379a00000000000000000000000000000000000000000000000000000000081526004016102fe90611afc565b60405180910390fd5b80600160006101000a81548173ffffffffffffffffffffffffffffffffffffffff021916908373ffffffffffffffffffffffffffffffffffffffff16021790555050565b6006602052816000526040600020818154811061036757600080fd5b90600052602060002001600091509150505481565b6000600160009054906101000a900473ffffffffffffffffffffffffffffffffffffffff1673ffffffffffffffffffffffffffffffffffffffff166335852541336040518263ffffffff1660e01b81526004016103d99190611b1c565b600060405180830381865afa1580156103f6573d6000803e3d6000fd5b505050506040513d6000823e3d601f19601f8201168201806040525081019061041f9190611ddf565b905060028160000151600281111561043a576104396116be565b5b60ff161461047d576040517f08c379a000000000000000000000000000000000000000000000000000000000815260040161047490611e9a565b60405180910390fd5b600260009054906101000a900473ffffffffffffffffffffffffffffffffffffffff1673ffffffffffffffffffffffffffffffffffffffff1663cbd05c7d846040518263ffffffff1660e01b81526004016104d8919061157b565b600060405180830381600087803b1580156104f257600080fd5b505af1158015610506573d6000803e3d6000fd5b5050505060036004600084815260200190815260200160002060040160046101000a81548160ff02191690836003811115610544576105436116be565b5b02179055507f64e64e323422dcfed18a892f84596ccf7cc94b1952625f3cc82e6461b529fff1426040516105789190611eba565b60405180910390a1505050565b6000600160009054906101000a900473ffffffffffffffffffffffffffffffffffffffff1673ffffffffffffffffffffffffffffffffffffffff166335852541336040518263ffffffff1660e01b81526004016105e29190611b1c565b600060405180830381865afa1580156105ff573d6000803e3d6000fd5b505050506040513d6000823e3d601f19601f820116820180604052508101906106289190611ddf565b9050600181600001516002811115610643576106426116be565b5b60ff1614610686576040517f08c379a000000000000000000000000000000000000000000000000000000000815260040161067d90611f47565b60405180910390fd5b600260009054906101000a900473ffffffffffffffffffffffffffffffffffffffff1673ffffffffffffffffffffffffffffffffffffffff166302c0ad9085856040518363ffffffff1660e01b81526004016106e3929190611f67565b600060405180830381600087803b1580156106fd57600080fd5b505af1158015610711573d6000803e3d6000fd5b505050506002600460008054815260200190815260200160002060040160046101000a81548160ff021916908360038111156107505761074f6116be565b5b0217905550836000547f3d9c6d7fedf256315259fe8cb6863117af8f4a56f16c0767d72c06359e16e53333864260405161078c93929190611f90565b60405180910390a3600260009054906101000a900473ffffffffffffffffffffffffffffffffffffffff1673ffffffffffffffffffffffffffffffffffffffff1663d37889c685846040518363ffffffff1660e01b81526004016107f192919061201e565b600060405180830381600087803b15801561080b57600080fd5b505af115801561081f573d6000803e3d6000fd5b5050505050505050565b60606000600560008473ffffffffffffffffffffffffffffffffffffffff1673ffffffffffffffffffffffffffffffffffffffff1681526020019081526020016000208054806020026020016040519081016040528092919081815260200182805480156108b657602002820191906000526020600020905b8154815260200190600101908083116108a2575b505050505090506000815167ffffffffffffffff8111156108da576108d9611b4d565b5b60405190808252806020026020018201604052801561091357816020015b6109006113b5565b8152602001906001900390816108f85790505b50905060005b8251811015610b1f576004600084838151811061093957610938612047565b5b602002602001015181526020019081526020016000206040518061012001604052908160008201548152602001600182015481526020016002820160009054906101000a900473ffffffffffffffffffffffffffffffffffffffff1673ffffffffffffffffffffffffffffffffffffffff1673ffffffffffffffffffffffffffffffffffffffff1681526020016003820160009054906101000a900473ffffffffffffffffffffffffffffffffffffffff1673ffffffffffffffffffffffffffffffffffffffff1673ffffffffffffffffffffffffffffffffffffffff1681526020016003820160149054906101000a900463ffffffff1663ffffffff1663ffffffff1681526020016003820160189054906101000a900463ffffffff1663ffffffff1663ffffffff16815260200160038201601c9054906101000a900463ffffffff1663ffffffff1663ffffffff1681526020016004820160009054906101000a900463ffffffff1663ffffffff1663ffffffff1681526020016004820160049054906101000a900460ff166003811115610ad857610ad76116be565b5b6003811115610aea57610ae96116be565b5b81525050828281518110610b0157610b00612047565b5b60200260200101819052508080610b17906120a5565b915050610919565b508092505050919050565b60056020528160005260406000208181548110610b4657600080fd5b90600052602060002001600091509150505481565b60046020528060005260406000206000915090508060000154908060010154908060020160009054906101000a900473ffffffffffffffffffffffffffffffffffffffff16908060030160009054906101000a900473ffffffffffffffffffffffffffffffffffffffff16908060030160149054906101000a900463ffffffff16908060030160189054906101000a900463ffffffff169080600301601c9054906101000a900463ffffffff16908060040160009054906101000a900463ffffffff16908060040160049054906101000a900460ff16905089565b600360009054906101000a900473ffffffffffffffffffffffffffffffffffffffff1673ffffffffffffffffffffffffffffffffffffffff163373ffffffffffffffffffffffffffffffffffffffff1614610cc6576040517f08c379a0000000000000000000000000000000000000000000000000000000008152600401610cbd90611afc565b60405180910390fd5b80600260006101000a81548173ffffffffffffffffffffffffffffffffffffffff021916908373ffffffffffffffffffffffffffffffffffffffff16021790555050565b6000600160009054906101000a900473ffffffffffffffffffffffffffffffffffffffff1673ffffffffffffffffffffffffffffffffffffffff166335852541336040518263ffffffff1660e01b8152600401610d679190611b1c565b600060405180830381865afa158015610d84573d6000803e3d6000fd5b505050506040513d6000823e3d601f19601f82011682018060405250810190610dad9190611ddf565b9050600281600001516002811115610dc857610dc76116be565b5b60ff1614610e0b576040517f08c379a0000000000000000000000000000000000000000000000000000000008152600401610e029061215f565b60405180910390fd5b60405180610120016040528060005481526020018581526020018373ffffffffffffffffffffffffffffffffffffffff1681526020013373ffffffffffffffffffffffffffffffffffffffff168152602001600063ffffffff168152602001600063ffffffff1681526020018463ffffffff168152602001600063ffffffff16815260200160016003811115610ea457610ea36116be565b5b8152506004600080548152602001908152602001600020600082015181600001556020820151816001015560408201518160020160006101000a81548173ffffffffffffffffffffffffffffffffffffffff021916908373ffffffffffffffffffffffffffffffffffffffff16021790555060608201518160030160006101000a81548173ffffffffffffffffffffffffffffffffffffffff021916908373ffffffffffffffffffffffffffffffffffffffff16021790555060808201518160030160146101000a81548163ffffffff021916908363ffffffff16021790555060a08201518160030160186101000a81548163ffffffff021916908363ffffffff16021790555060c082015181600301601c6101000a81548163ffffffff021916908363ffffffff16021790555060e08201518160040160006101000a81548163ffffffff021916908363ffffffff1602179055506101008201518160040160046101000a81548160ff02191690836003811115611025576110246116be565b5b0217905550905050600560003373ffffffffffffffffffffffffffffffffffffffff1673ffffffffffffffffffffffffffffffffffffffff1681526020019081526020016000206000549080600181540180825580915050600190039060005260206000200160009091909190915055600660003373ffffffffffffffffffffffffffffffffffffffff1673ffffffffffffffffffffffffffffffffffffffff168152602001908152602001600020600054908060018154018082558091505060019003906000526020600020016000909190919091505560008081548092919061110f906120a5565b919050555050505050565b600360009054906101000a900473ffffffffffffffffffffffffffffffffffffffff1673ffffffffffffffffffffffffffffffffffffffff163373ffffffffffffffffffffffffffffffffffffffff16146111aa576040517f08c379a00000000000000000000000000000000000000000000000000000000081526004016111a190611afc565b60405180910390fd5b80600360006101000a81548173ffffffffffffffffffffffffffffffffffffffff021916908373ffffffffffffffffffffffffffffffffffffffff16021790555050565b6111f66113b5565b600460008381526020019081526020016000206040518061012001604052908160008201548152602001600182015481526020016002820160009054906101000a900473ffffffffffffffffffffffffffffffffffffffff1673ffffffffffffffffffffffffffffffffffffffff1673ffffffffffffffffffffffffffffffffffffffff1681526020016003820160009054906101000a900473ffffffffffffffffffffffffffffffffffffffff1673ffffffffffffffffffffffffffffffffffffffff1673ffffffffffffffffffffffffffffffffffffffff1681526020016003820160149054906101000a900463ffffffff1663ffffffff1663ffffffff1681526020016003820160189054906101000a900463ffffffff1663ffffffff1663ffffffff16815260200160038201601c9054906101000a900463ffffffff1663ffffffff1663ffffffff1681526020016004820160009054906101000a900463ffffffff1663ffffffff1663ffffffff1681526020016004820160049054906101000a900460ff166003811115611392576113916116be565b5b60038111156113a4576113a36116be565b5b815250509050919050565b60005481565b6040518061012001604052806000815260200160008152602001600073ffffffffffffffffffffffffffffffffffffffff168152602001600073ffffffffffffffffffffffffffffffffffffffff168152602001600063ffffffff168152602001600063ffffffff168152602001600063ffffffff168152602001600063ffffffff16815260200160006003811115611451576114506116be565b5b81525090565b6000604051905090565b600080fd5b600080fd5b600073ffffffffffffffffffffffffffffffffffffffff82169050919050565b60006114968261146b565b9050919050565b6114a68161148b565b81146114b157600080fd5b50565b6000813590506114c38161149d565b92915050565b6000602082840312156114df576114de611461565b5b60006114ed848285016114b4565b91505092915050565b6000819050919050565b611509816114f6565b811461151457600080fd5b50565b60008135905061152681611500565b92915050565b6000806040838503121561154357611542611461565b5b6000611551858286016114b4565b925050602061156285828601611517565b9150509250929050565b611575816114f6565b82525050565b6000602082019050611590600083018461156c565b92915050565b600080604083850312156115ad576115ac611461565b5b60006115bb85828601611517565b92505060206115cc85828601611517565b9150509250929050565b600063ffffffff82169050919050565b6115ef816115d6565b81146115fa57600080fd5b50565b60008135905061160c816115e6565b92915050565b60008060006060848603121561162b5761162a611461565b5b600061163986828701611517565b935050602061164a868287016114b4565b925050604061165b868287016115fd565b9150509250925092565b600081519050919050565b600082825260208201905092915050565b6000819050602082019050919050565b61169a816114f6565b82525050565b6116a98161148b565b82525050565b6116b8816115d6565b82525050565b7f4e487b7100000000000000000000000000000000000000000000000000000000600052602160045260246000fd5b600481106116fe576116fd6116be565b5b50565b600081905061170f826116ed565b919050565b600061171f82611701565b9050919050565b61172f81611714565b82525050565b6101208201600082015161174c6000850182611691565b50602082015161175f6020850182611691565b50604082015161177260408501826116a0565b50606082015161178560608501826116a0565b50608082015161179860808501826116af565b5060a08201516117ab60a08501826116af565b5060c08201516117be60c08501826116af565b5060e08201516117d160e08501826116af565b506101008201516117e6610100850182611726565b50505050565b60006117f88383611735565b6101208301905092915050565b6000602082019050919050565b600061181d82611665565b6118278185611670565b935061183283611681565b8060005b8381101561186357815161184a88826117ec565b975061185583611805565b925050600181019050611836565b5085935050505092915050565b6000602082019050818103600083015261188a8184611812565b905092915050565b6000602082840312156118a8576118a7611461565b5b60006118b684828501611517565b91505092915050565b6118c88161148b565b82525050565b6118d7816115d6565b82525050565b6118e681611714565b82525050565b600061012082019050611902600083018c61156c565b61190f602083018b61156c565b61191c604083018a6118bf565b61192960608301896118bf565b61193660808301886118ce565b61194360a08301876118ce565b61195060c08301866118ce565b61195d60e08301856118ce565b61196b6101008301846118dd565b9a9950505050505050505050565b60008060006060848603121561199257611991611461565b5b60006119a086828701611517565b93505060206119b1868287016115fd565b92505060406119c2868287016114b4565b9150509250925092565b610120820160008201516119e36000850182611691565b5060208201516119f66020850182611691565b506040820151611a0960408501826116a0565b506060820151611a1c60608501826116a0565b506080820151611a2f60808501826116af565b5060a0820151611a4260a08501826116af565b5060c0820151611a5560c08501826116af565b5060e0820151611a6860e08501826116af565b50610100820151611a7d610100850182611726565b50505050565b600061012082019050611a9960008301846119cc565b92915050565b600082825260208201905092915050565b7f4e6f74206f776e65720000000000000000000000000000000000000000000000600082015250565b6000611ae6600983611a9f565b9150611af182611ab0565b602082019050919050565b60006020820190508181036000830152611b1581611ad9565b9050919050565b6000602082019050611b3160008301846118bf565b92915050565b600080fd5b6000601f19601f8301169050919050565b7f4e487b7100000000000000000000000000000000000000000000000000000000600052604160045260246000fd5b611b8582611b3c565b810181811067ffffffffffffffff82111715611ba457611ba3611b4d565b5b80604052505050565b6000611bb7611457565b9050611bc38282611b7c565b919050565b600080fd5b60038110611bda57600080fd5b50565b600081519050611bec81611bcd565b92915050565b600080fd5b600080fd5b600067ffffffffffffffff821115611c1757611c16611b4d565b5b611c2082611b3c565b9050602081019050919050565b60005b83811015611c4b578082015181840152602081019050611c30565b60008484015250505050565b6000611c6a611c6584611bfc565b611bad565b905082815260208101848484011115611c8657611c85611bf7565b5b611c91848285611c2d565b509392505050565b600082601f830112611cae57611cad611bf2565b5b8151611cbe848260208601611c57565b91505092915050565b60008115159050919050565b611cdc81611cc7565b8114611ce757600080fd5b50565b600081519050611cf981611cd3565b92915050565b600060a08284031215611d1557611d14611b37565b5b611d1f60a0611bad565b90506000611d2f84828501611bdd565b600083015250602082015167ffffffffffffffff811115611d5357611d52611bc8565b5b611d5f84828501611c99565b602083015250604082015167ffffffffffffffff811115611d8357611d82611bc8565b5b611d8f84828501611c99565b604083015250606082015167ffffffffffffffff811115611db357611db2611bc8565b5b611dbf84828501611c99565b6060830152506080611dd384828501611cea565b60808301525092915050565b600060208284031215611df557611df4611461565b5b600082015167ffffffffffffffff811115611e1357611e12611466565b5b611e1f84828501611cff565b91505092915050565b7f4f6e6c79204469737472696275746f722063616e2061636b6e6f776c6564676560008201527f2072656365697665642070726f64756374000000000000000000000000000000602082015250565b6000611e84603183611a9f565b9150611e8f82611e28565b604082019050919050565b60006020820190508181036000830152611eb381611e77565b9050919050565b6000602082019050611ecf60008301846118ce565b92915050565b7f4f6e6c79206d616e7566616374757265722063616e205472616e73666572207060008201527f726f647563740000000000000000000000000000000000000000000000000000602082015250565b6000611f31602683611a9f565b9150611f3c82611ed5565b604082019050919050565b60006020820190508181036000830152611f6081611f24565b9050919050565b6000604082019050611f7c600083018561156c565b611f8960208301846118bf565b9392505050565b6000606082019050611fa560008301866118bf565b611fb260208301856118bf565b611fbf60408301846118ce565b949350505050565b60006fffffffffffffffffffffffffffffffff82169050919050565b6000819050919050565b6000612008612003611ffe846115d6565b611fe3565b611fc7565b9050919050565b61201881611fed565b82525050565b6000604082019050612033600083018561156c565b612040602083018461200f565b9392505050565b7f4e487b7100000000000000000000000000000000000000000000000000000000600052603260045260246000fd5b7f4e487b7100000000000000000000000000000000000000000000000000000000600052601160045260246000fd5b60006120b0826114f6565b91507fffffffffffffffffffffffffffffffffffffffffffffffffffffffffffffffff82036120e2576120e1612076565b5b600182019050919050565b7f4f6e6c79204469737472696275746f722063616e20526571756573742070726f60008201527f6475637400000000000000000000000000000000000000000000000000000000602082015250565b6000612149602483611a9f565b9150612154826120ed565b604082019050919050565b600060208201905081810360008301526121788161213c565b905091905056fea2646970667358221220e49ba34f81f7ef55ce83624c888c65040a0fd09c1b7c5e1fc959148a261529f764736f6c63430008120033",
  "linkReferences": {},
  "deployedLinkReferences": {}
}