{
  "_format": "hh-sol-artifact-1",
  "contractName": "manufacturerDistributor",
  "sourceName": "contracts/manufacturerDistributor.sol",
  "abi": [
    {
      "inputs": [
        {
          "internalType": "address",
          "name": "_udAddress",
          "type": "address"
        },
        {
          "internalType": "address",
          "name": "_mpAddress",
          "type": "address"
        }
      ],
      "stateMutability": "nonpayable",
      "type": "constructor"
    },
    {
      "anonymous": false,
      "inputs": [
        {
          "indexed": false,
          "internalType": "uint32",
          "name": "_arrivalTime",
          "type": "uint32"
        }
      ],
      "name": "eventArrivalTime",
      "type": "event"
    },
    {
      "anonymous": false,
      "inputs": [
        {
          "indexed": true,
          "internalType": "uint256",
          "name": "_mdId",
          "type": "uint256"
        },
        {
          "indexed": true,
          "internalType": "uint256",
          "name": "_mpId",
          "type": "uint256"
        },
        {
          "indexed": false,
          "internalType": "address",
          "name": "_manufacturerAddress",
          "type": "address"
        },
        {
          "indexed": false,
          "internalType": "address",
          "name": "_distributorAddress",
          "type": "address"
        },
        {
          "indexed": false,
          "internalType": "uint32",
          "name": "_dispatchTime",
          "type": "uint32"
        }
      ],
      "name": "eventManufacturerDistributorTransfer",
      "type": "event"
    },
    {
      "inputs": [
        {
          "internalType": "address",
          "name": "_mpAddress",
          "type": "address"
        }
      ],
      "name": "changeMpAddress",
      "outputs": [],
      "stateMutability": "nonpayable",
      "type": "function"
    },
    {
      "inputs": [
        {
          "internalType": "address",
          "name": "_ownerAddress",
          "type": "address"
        }
      ],
      "name": "changeOwner",
      "outputs": [],
      "stateMutability": "nonpayable",
      "type": "function"
    },
    {
      "inputs": [
        {
          "internalType": "address",
          "name": "_udAddress",
          "type": "address"
        }
      ],
      "name": "changeUdAddress",
      "outputs": [],
      "stateMutability": "nonpayable",
      "type": "function"
    },
    {
      "inputs": [
        {
          "internalType": "address",
          "name": "",
          "type": "address"
        },
        {
          "internalType": "uint256",
          "name": "",
          "type": "uint256"
        }
      ],
      "name": "distributorTomdIdMapping",
      "outputs": [
        {
          "internalType": "uint256",
          "name": "",
          "type": "uint256"
        }
      ],
      "stateMutability": "view",
      "type": "function"
    },
    {
      "inputs": [
        {
          "internalType": "address",
          "name": "_distributorAddress",
          "type": "address"
        }
      ],
      "name": "getAllmdIdForDistributor",
      "outputs": [
        {
          "components": [
            {
              "components": [
                {
                  "internalType": "uint256",
                  "name": "mdId",
                  "type": "uint256"
                },
                {
                  "internalType": "uint256",
                  "name": "mpId",
                  "type": "uint256"
                },
                {
                  "internalType": "address",
                  "name": "m_address",
                  "type": "address"
                },
                {
                  "internalType": "address",
                  "name": "d_address",
                  "type": "address"
                },
                {
                  "internalType": "uint32",
                  "name": "dispatchTime",
                  "type": "uint32"
                },
                {
                  "internalType": "uint32",
                  "name": "arrivalTime",
                  "type": "uint32"
                },
                {
                  "internalType": "uint32",
                  "name": "quantity",
                  "type": "uint32"
                },
                {
                  "internalType": "uint32",
                  "name": "currentQuantity",
                  "type": "uint32"
                },
                {
                  "internalType": "enum IManufacturerDistributor.transferStatus",
                  "name": "status",
                  "type": "uint8"
                }
              ],
              "internalType": "struct IManufacturerDistributor.manufacturerDistributor",
              "name": "mdDetails",
              "type": "tuple"
            },
            {
              "components": [
                {
                  "internalType": "address[]",
                  "name": "supplierAddress",
                  "type": "address[]"
                },
                {
                  "internalType": "uint256[]",
                  "name": "smId",
                  "type": "uint256[]"
                },
                {
                  "internalType": "address",
                  "name": "manufacturerAddress",
                  "type": "address"
                },
                {
                  "internalType": "bytes",
                  "name": "mp_name",
                  "type": "bytes"
                },
                {
                  "internalType": "bytes",
                  "name": "mp_description",
                  "type": "bytes"
                },
                {
                  "internalType": "uint128",
                  "name": "mp_unit",
                  "type": "uint128"
                },
                {
                  "internalType": "uint128",
                  "name": "mp_price",
                  "type": "uint128"
                },
                {
                  "internalType": "uint32",
                  "name": "mp_date",
                  "type": "uint32"
                },
                {
                  "internalType": "uint32",
                  "name": "mp_expiryDate",
                  "type": "uint32"
                },
                {
                  "internalType": "bool",
                  "name": "mp_status",
                  "type": "bool"
                },
                {
                  "internalType": "address",
                  "name": "distributorAddress",
                  "type": "address"
                },
                {
                  "internalType": "uint32",
                  "name": "dispatchTime",
                  "type": "uint32"
                },
                {
                  "internalType": "uint32",
                  "name": "arrivalTime",
                  "type": "uint32"
                }
              ],
              "internalType": "struct IManufacturerProduct.manufacturerProduct",
              "name": "mpDetails",
              "type": "tuple"
            },
            {
              "components": [
                {
                  "internalType": "enum IUserDetails.userType",
                  "name": "userType",
                  "type": "uint8"
                },
                {
                  "internalType": "bytes",
                  "name": "userName",
                  "type": "bytes"
                },
                {
                  "internalType": "bytes",
                  "name": "userPhysicalAddress",
                  "type": "bytes"
                },
                {
                  "internalType": "bytes",
                  "name": "userImage",
                  "type": "bytes"
                },
                {
                  "internalType": "bool",
                  "name": "userStatus",
                  "type": "bool"
                }
              ],
              "internalType": "struct IUserDetails.userDetails",
              "name": "uDetails",
              "type": "tuple"
            }
          ],
          "internalType": "struct manufacturerDistributor.manufacturerDistributorWithDetails[]",
          "name": "",
          "type": "tuple[]"
        }
      ],
      "stateMutability": "view",
      "type": "function"
    },
    {
      "inputs": [
        {
          "internalType": "address",
          "name": "_manufacturerAddress",
          "type": "address"
        }
      ],
      "name": "getAllmdIdForManufacturer",
      "outputs": [
        {
          "components": [
            {
              "components": [
                {
                  "internalType": "uint256",
                  "name": "mdId",
                  "type": "uint256"
                },
                {
                  "internalType": "uint256",
                  "name": "mpId",
                  "type": "uint256"
                },
                {
                  "internalType": "address",
                  "name": "m_address",
                  "type": "address"
                },
                {
                  "internalType": "address",
                  "name": "d_address",
                  "type": "address"
                },
                {
                  "internalType": "uint32",
                  "name": "dispatchTime",
                  "type": "uint32"
                },
                {
                  "internalType": "uint32",
                  "name": "arrivalTime",
                  "type": "uint32"
                },
                {
                  "internalType": "uint32",
                  "name": "quantity",
                  "type": "uint32"
                },
                {
                  "internalType": "uint32",
                  "name": "currentQuantity",
                  "type": "uint32"
                },
                {
                  "internalType": "enum IManufacturerDistributor.transferStatus",
                  "name": "status",
                  "type": "uint8"
                }
              ],
              "internalType": "struct IManufacturerDistributor.manufacturerDistributor",
              "name": "mdDetails",
              "type": "tuple"
            },
            {
              "components": [
                {
                  "internalType": "address[]",
                  "name": "supplierAddress",
                  "type": "address[]"
                },
                {
                  "internalType": "uint256[]",
                  "name": "smId",
                  "type": "uint256[]"
                },
                {
                  "internalType": "address",
                  "name": "manufacturerAddress",
                  "type": "address"
                },
                {
                  "internalType": "bytes",
                  "name": "mp_name",
                  "type": "bytes"
                },
                {
                  "internalType": "bytes",
                  "name": "mp_description",
                  "type": "bytes"
                },
                {
                  "internalType": "uint128",
                  "name": "mp_unit",
                  "type": "uint128"
                },
                {
                  "internalType": "uint128",
                  "name": "mp_price",
                  "type": "uint128"
                },
                {
                  "internalType": "uint32",
                  "name": "mp_date",
                  "type": "uint32"
                },
                {
                  "internalType": "uint32",
                  "name": "mp_expiryDate",
                  "type": "uint32"
                },
                {
                  "internalType": "bool",
                  "name": "mp_status",
                  "type": "bool"
                },
                {
                  "internalType": "address",
                  "name": "distributorAddress",
                  "type": "address"
                },
                {
                  "internalType": "uint32",
                  "name": "dispatchTime",
                  "type": "uint32"
                },
                {
                  "internalType": "uint32",
                  "name": "arrivalTime",
                  "type": "uint32"
                }
              ],
              "internalType": "struct IManufacturerProduct.manufacturerProduct",
              "name": "mpDetails",
              "type": "tuple"
            },
            {
              "components": [
                {
                  "internalType": "enum IUserDetails.userType",
                  "name": "userType",
                  "type": "uint8"
                },
                {
                  "internalType": "bytes",
                  "name": "userName",
                  "type": "bytes"
                },
                {
                  "internalType": "bytes",
                  "name": "userPhysicalAddress",
                  "type": "bytes"
                },
                {
                  "internalType": "bytes",
                  "name": "userImage",
                  "type": "bytes"
                },
                {
                  "internalType": "bool",
                  "name": "userStatus",
                  "type": "bool"
                }
              ],
              "internalType": "struct IUserDetails.userDetails",
              "name": "uDetails",
              "type": "tuple"
            }
          ],
          "internalType": "struct manufacturerDistributor.manufacturerDistributorWithDetails[]",
          "name": "",
          "type": "tuple[]"
        }
      ],
      "stateMutability": "view",
      "type": "function"
    },
    {
      "inputs": [
        {
          "internalType": "uint256",
          "name": "_mdid",
          "type": "uint256"
        }
      ],
      "name": "getProduct",
      "outputs": [
        {
          "components": [
            {
              "internalType": "uint256",
              "name": "mdId",
              "type": "uint256"
            },
            {
              "internalType": "uint256",
              "name": "mpId",
              "type": "uint256"
            },
            {
              "internalType": "address",
              "name": "m_address",
              "type": "address"
            },
            {
              "internalType": "address",
              "name": "d_address",
              "type": "address"
            },
            {
              "internalType": "uint32",
              "name": "dispatchTime",
              "type": "uint32"
            },
            {
              "internalType": "uint32",
              "name": "arrivalTime",
              "type": "uint32"
            },
            {
              "internalType": "uint32",
              "name": "quantity",
              "type": "uint32"
            },
            {
              "internalType": "uint32",
              "name": "currentQuantity",
              "type": "uint32"
            },
            {
              "internalType": "enum IManufacturerDistributor.transferStatus",
              "name": "status",
              "type": "uint8"
            }
          ],
          "internalType": "struct IManufacturerDistributor.manufacturerDistributor",
          "name": "",
          "type": "tuple"
        }
      ],
      "stateMutability": "view",
      "type": "function"
    },
    {
      "inputs": [
        {
          "internalType": "address",
          "name": "",
          "type": "address"
        },
        {
          "internalType": "uint256",
          "name": "",
          "type": "uint256"
        }
      ],
      "name": "manufacturerTosmIdMapping",
      "outputs": [
        {
          "internalType": "uint256",
          "name": "",
          "type": "uint256"
        }
      ],
      "stateMutability": "view",
      "type": "function"
    },
    {
      "inputs": [],
      "name": "mdId",
      "outputs": [
        {
          "internalType": "uint256",
          "name": "",
          "type": "uint256"
        }
      ],
      "stateMutability": "view",
      "type": "function"
    },
    {
      "inputs": [
        {
          "internalType": "uint256",
          "name": "",
          "type": "uint256"
        }
      ],
      "name": "mdIdToStructMapping",
      "outputs": [
        {
          "internalType": "uint256",
          "name": "mdId",
          "type": "uint256"
        },
        {
          "internalType": "uint256",
          "name": "mpId",
          "type": "uint256"
        },
        {
          "internalType": "address",
          "name": "m_address",
          "type": "address"
        },
        {
          "internalType": "address",
          "name": "d_address",
          "type": "address"
        },
        {
          "internalType": "uint32",
          "name": "dispatchTime",
          "type": "uint32"
        },
        {
          "internalType": "uint32",
          "name": "arrivalTime",
          "type": "uint32"
        },
        {
          "internalType": "uint32",
          "name": "quantity",
          "type": "uint32"
        },
        {
          "internalType": "uint32",
          "name": "currentQuantity",
          "type": "uint32"
        },
        {
          "internalType": "enum IManufacturerDistributor.transferStatus",
          "name": "status",
          "type": "uint8"
        }
      ],
      "stateMutability": "view",
      "type": "function"
    },
    {
      "inputs": [
        {
          "internalType": "uint256",
          "name": "_mpId",
          "type": "uint256"
        },
        {
          "internalType": "uint256",
          "name": "_mdId",
          "type": "uint256"
        }
      ],
      "name": "receiveProduct",
      "outputs": [],
      "stateMutability": "nonpayable",
      "type": "function"
    },
    {
      "inputs": [
        {
          "internalType": "uint256",
          "name": "_mpId",
          "type": "uint256"
        },
        {
          "internalType": "uint32",
          "name": "_quantity",
          "type": "uint32"
        },
        {
          "internalType": "address",
          "name": "_manufacturerAddress",
          "type": "address"
        }
      ],
      "name": "requestProduct",
      "outputs": [],
      "stateMutability": "nonpayable",
      "type": "function"
    },
    {
      "inputs": [
        {
          "internalType": "uint256",
          "name": "_mdId",
          "type": "uint256"
        },
        {
          "internalType": "uint256",
          "name": "_mpId",
          "type": "uint256"
        },
        {
          "internalType": "address",
          "name": "_distributorAddress",
          "type": "address"
        },
        {
          "internalType": "uint32",
          "name": "_quantity",
          "type": "uint32"
        }
      ],
      "name": "transferProduct",
      "outputs": [],
      "stateMutability": "nonpayable",
      "type": "function"
    }
  ],
  "bytecode": "0x608060405260016000553480156200001657600080fd5b50604051620033dd380380620033dd83398181016040528101906200003c919062000171565b33600360006101000a81548173ffffffffffffffffffffffffffffffffffffffff021916908373ffffffffffffffffffffffffffffffffffffffff16021790555081600160006101000a81548173ffffffffffffffffffffffffffffffffffffffff021916908373ffffffffffffffffffffffffffffffffffffffff16021790555080600260006101000a81548173ffffffffffffffffffffffffffffffffffffffff021916908373ffffffffffffffffffffffffffffffffffffffff1602179055505050620001b8565b600080fd5b600073ffffffffffffffffffffffffffffffffffffffff82169050919050565b600062000139826200010c565b9050919050565b6200014b816200012c565b81146200015757600080fd5b50565b6000815190506200016b8162000140565b92915050565b600080604083850312156200018b576200018a62000107565b5b60006200019b858286016200015a565b9250506020620001ae858286016200015a565b9150509250929050565b61321580620001c86000396000f3fe608060405234801561001057600080fd5b50600436106100cf5760003560e01c8063872168971161008c578063a6f9dae111610066578063a6f9dae11461023c578063b9db15b414610258578063d5a1140414610288578063e3eba904146102a4576100cf565b806387216897146101d457806396fccba4146101f0578063a4ac44bf14610220576100cf565b80630f65ae38146100d45780631001f30f146100f0578063157e14cd146101205780634387254d1461013c5780636793fc851461016c5780636e394ff51461019c575b600080fd5b6100ee60048036038101906100e99190611cf7565b6102c2565b005b61010a60048036038101906101059190611d5a565b610396565b6040516101179190611da9565b60405180910390f35b61013a60048036038101906101359190611dc4565b6103c7565b005b61015660048036038101906101519190611cf7565b6105d0565b60405161016391906124b9565b60405180910390f35b61018660048036038101906101819190611d5a565b610a9f565b6040516101939190611da9565b60405180910390f35b6101b660048036038101906101b191906124db565b610ad0565b6040516101cb99989796959493929190612535565b60405180910390f35b6101ee60048036038101906101e99190611cf7565b610bab565b005b61020a60048036038101906102059190611cf7565b610c7f565b60405161021791906124b9565b60405180910390f35b61023a600480360381019061023591906125ee565b61114e565b005b61025660048036038101906102519190611cf7565b61155e565b005b610272600480360381019061026d91906124db565b611632565b60405161027f91906126f8565b60405180910390f35b6102a2600480360381019061029d9190612714565b6117f3565b005b6102ac611a95565b6040516102b99190611da9565b60405180910390f35b600360009054906101000a900473ffffffffffffffffffffffffffffffffffffffff1673ffffffffffffffffffffffffffffffffffffffff163373ffffffffffffffffffffffffffffffffffffffff1614610352576040517f08c379a0000000000000000000000000000000000000000000000000000000008152600401610349906127d8565b60405180910390fd5b80600160006101000a81548173ffffffffffffffffffffffffffffffffffffffff021916908373ffffffffffffffffffffffffffffffffffffffff16021790555050565b600660205281600052604060002081815481106103b257600080fd5b90600052602060002001600091509150505481565b6000600160009054906101000a900473ffffffffffffffffffffffffffffffffffffffff1673ffffffffffffffffffffffffffffffffffffffff166335852541336040518263ffffffff1660e01b815260040161042491906127f8565b600060405180830381865afa158015610441573d6000803e3d6000fd5b505050506040513d6000823e3d601f19601f8201168201806040525081019061046a9190612a74565b905060028160000151600281111561048557610484611e6d565b5b60ff16146104c8576040517f08c379a00000000000000000000000000000000000000000000000000000000081526004016104bf90612b2f565b60405180910390fd5b600260009054906101000a900473ffffffffffffffffffffffffffffffffffffffff1673ffffffffffffffffffffffffffffffffffffffff1663cbd05c7d846040518263ffffffff1660e01b81526004016105239190611da9565b600060405180830381600087803b15801561053d57600080fd5b505af1158015610551573d6000803e3d6000fd5b5050505060036004600084815260200190815260200160002060040160046101000a81548160ff0219169083600381111561058f5761058e611e6d565b5b02179055507f64e64e323422dcfed18a892f84596ccf7cc94b1952625f3cc82e6461b529fff1426040516105c39190612b4f565b60405180910390a1505050565b60606000600560008473ffffffffffffffffffffffffffffffffffffffff1673ffffffffffffffffffffffffffffffffffffffff16815260200190815260200160002080548060200260200160405190810160405280929190818152602001828054801561065d57602002820191906000526020600020905b815481526020019060010190808311610649575b505050505090506000815167ffffffffffffffff81111561068157610680612818565b5b6040519080825280602002602001820160405280156106ba57816020015b6106a7611a9b565b81526020019060019003908161069f5790505b50905060005b8251811015610a9457600460008483815181106106e0576106df612b6a565b5b602002602001015181526020019081526020016000206040518061012001604052908160008201548152602001600182015481526020016002820160009054906101000a900473ffffffffffffffffffffffffffffffffffffffff1673ffffffffffffffffffffffffffffffffffffffff1673ffffffffffffffffffffffffffffffffffffffff1681526020016003820160009054906101000a900473ffffffffffffffffffffffffffffffffffffffff1673ffffffffffffffffffffffffffffffffffffffff1673ffffffffffffffffffffffffffffffffffffffff1681526020016003820160149054906101000a900463ffffffff1663ffffffff1663ffffffff1681526020016003820160189054906101000a900463ffffffff1663ffffffff1663ffffffff16815260200160038201601c9054906101000a900463ffffffff1663ffffffff1663ffffffff1681526020016004820160009054906101000a900463ffffffff1663ffffffff1663ffffffff1681526020016004820160049054906101000a900460ff16600381111561087f5761087e611e6d565b5b600381111561089157610890611e6d565b5b815250508282815181106108a8576108a7612b6a565b5b602002602001015160000181905250600260009054906101000a900473ffffffffffffffffffffffffffffffffffffffff1673ffffffffffffffffffffffffffffffffffffffff1663f6a989f883838151811061090857610907612b6a565b5b602002602001015160000151602001516040518263ffffffff1660e01b81526004016109349190611da9565b600060405180830381865afa158015610951573d6000803e3d6000fd5b505050506040513d6000823e3d601f19601f8201168201806040525081019061097a9190612f37565b82828151811061098d5761098c612b6a565b5b602002602001015160200181905250600160009054906101000a900473ffffffffffffffffffffffffffffffffffffffff1673ffffffffffffffffffffffffffffffffffffffff1663358525418383815181106109ed576109ec612b6a565b5b602002602001015160000151606001516040518263ffffffff1660e01b8152600401610a1991906127f8565b600060405180830381865afa158015610a36573d6000803e3d6000fd5b505050506040513d6000823e3d601f19601f82011682018060405250810190610a5f9190612a74565b828281518110610a7257610a71612b6a565b5b6020026020010151604001819052508080610a8c90612faf565b9150506106c0565b508092505050919050565b60056020528160005260406000208181548110610abb57600080fd5b90600052602060002001600091509150505481565b60046020528060005260406000206000915090508060000154908060010154908060020160009054906101000a900473ffffffffffffffffffffffffffffffffffffffff16908060030160009054906101000a900473ffffffffffffffffffffffffffffffffffffffff16908060030160149054906101000a900463ffffffff16908060030160189054906101000a900463ffffffff169080600301601c9054906101000a900463ffffffff16908060040160009054906101000a900463ffffffff16908060040160049054906101000a900460ff16905089565b600360009054906101000a900473ffffffffffffffffffffffffffffffffffffffff1673ffffffffffffffffffffffffffffffffffffffff163373ffffffffffffffffffffffffffffffffffffffff1614610c3b576040517f08c379a0000000000000000000000000000000000000000000000000000000008152600401610c32906127d8565b60405180910390fd5b80600260006101000a81548173ffffffffffffffffffffffffffffffffffffffff021916908373ffffffffffffffffffffffffffffffffffffffff16021790555050565b60606000600560008473ffffffffffffffffffffffffffffffffffffffff1673ffffffffffffffffffffffffffffffffffffffff168152602001908152602001600020805480602002602001604051908101604052809291908181526020018280548015610d0c57602002820191906000526020600020905b815481526020019060010190808311610cf8575b505050505090506000815167ffffffffffffffff811115610d3057610d2f612818565b5b604051908082528060200260200182016040528015610d6957816020015b610d56611a9b565b815260200190600190039081610d4e5790505b50905060005b82518110156111435760046000848381518110610d8f57610d8e612b6a565b5b602002602001015181526020019081526020016000206040518061012001604052908160008201548152602001600182015481526020016002820160009054906101000a900473ffffffffffffffffffffffffffffffffffffffff1673ffffffffffffffffffffffffffffffffffffffff1673ffffffffffffffffffffffffffffffffffffffff1681526020016003820160009054906101000a900473ffffffffffffffffffffffffffffffffffffffff1673ffffffffffffffffffffffffffffffffffffffff1673ffffffffffffffffffffffffffffffffffffffff1681526020016003820160149054906101000a900463ffffffff1663ffffffff1663ffffffff1681526020016003820160189054906101000a900463ffffffff1663ffffffff1663ffffffff16815260200160038201601c9054906101000a900463ffffffff1663ffffffff1663ffffffff1681526020016004820160009054906101000a900463ffffffff1663ffffffff1663ffffffff1681526020016004820160049054906101000a900460ff166003811115610f2e57610f2d611e6d565b5b6003811115610f4057610f3f611e6d565b5b81525050828281518110610f5757610f56612b6a565b5b602002602001015160000181905250600260009054906101000a900473ffffffffffffffffffffffffffffffffffffffff1673ffffffffffffffffffffffffffffffffffffffff1663f6a989f8838381518110610fb757610fb6612b6a565b5b602002602001015160000151602001516040518263ffffffff1660e01b8152600401610fe39190611da9565b600060405180830381865afa158015611000573d6000803e3d6000fd5b505050506040513d6000823e3d601f19601f820116820180604052508101906110299190612f37565b82828151811061103c5761103b612b6a565b5b602002602001015160200181905250600160009054906101000a900473ffffffffffffffffffffffffffffffffffffffff1673ffffffffffffffffffffffffffffffffffffffff16633585254183838151811061109c5761109b612b6a565b5b602002602001015160000151604001516040518263ffffffff1660e01b81526004016110c891906127f8565b600060405180830381865afa1580156110e5573d6000803e3d6000fd5b505050506040513d6000823e3d601f19601f8201168201806040525081019061110e9190612a74565b82828151811061112157611120612b6a565b5b602002602001015160400181905250808061113b90612faf565b915050610d6f565b508092505050919050565b6000600160009054906101000a900473ffffffffffffffffffffffffffffffffffffffff1673ffffffffffffffffffffffffffffffffffffffff166335852541336040518263ffffffff1660e01b81526004016111ab91906127f8565b600060405180830381865afa1580156111c8573d6000803e3d6000fd5b505050506040513d6000823e3d601f19601f820116820180604052508101906111f19190612a74565b905060028160000151600281111561120c5761120b611e6d565b5b60ff161461124f576040517f08c379a000000000000000000000000000000000000000000000000000000000815260040161124690613069565b60405180910390fd5b60405180610120016040528060005481526020018581526020018373ffffffffffffffffffffffffffffffffffffffff1681526020013373ffffffffffffffffffffffffffffffffffffffff168152602001600063ffffffff168152602001600063ffffffff1681526020018463ffffffff168152602001600063ffffffff168152602001600160038111156112e8576112e7611e6d565b5b8152506004600080548152602001908152602001600020600082015181600001556020820151816001015560408201518160020160006101000a81548173ffffffffffffffffffffffffffffffffffffffff021916908373ffffffffffffffffffffffffffffffffffffffff16021790555060608201518160030160006101000a81548173ffffffffffffffffffffffffffffffffffffffff021916908373ffffffffffffffffffffffffffffffffffffffff16021790555060808201518160030160146101000a81548163ffffffff021916908363ffffffff16021790555060a08201518160030160186101000a81548163ffffffff021916908363ffffffff16021790555060c082015181600301601c6101000a81548163ffffffff021916908363ffffffff16021790555060e08201518160040160006101000a81548163ffffffff021916908363ffffffff1602179055506101008201518160040160046101000a81548160ff0219169083600381111561146957611468611e6d565b5b0217905550905050600560003373ffffffffffffffffffffffffffffffffffffffff1673ffffffffffffffffffffffffffffffffffffffff1681526020019081526020016000206000549080600181540180825580915050600190039060005260206000200160009091909190915055600660003373ffffffffffffffffffffffffffffffffffffffff1673ffffffffffffffffffffffffffffffffffffffff168152602001908152602001600020600054908060018154018082558091505060019003906000526020600020016000909190919091505560008081548092919061155390612faf565b919050555050505050565b600360009054906101000a900473ffffffffffffffffffffffffffffffffffffffff1673ffffffffffffffffffffffffffffffffffffffff163373ffffffffffffffffffffffffffffffffffffffff16146115ee576040517f08c379a00000000000000000000000000000000000000000000000000000000081526004016115e5906127d8565b60405180910390fd5b80600360006101000a81548173ffffffffffffffffffffffffffffffffffffffff021916908373ffffffffffffffffffffffffffffffffffffffff16021790555050565b61163a611ace565b600460008381526020019081526020016000206040518061012001604052908160008201548152602001600182015481526020016002820160009054906101000a900473ffffffffffffffffffffffffffffffffffffffff1673ffffffffffffffffffffffffffffffffffffffff1673ffffffffffffffffffffffffffffffffffffffff1681526020016003820160009054906101000a900473ffffffffffffffffffffffffffffffffffffffff1673ffffffffffffffffffffffffffffffffffffffff1673ffffffffffffffffffffffffffffffffffffffff1681526020016003820160149054906101000a900463ffffffff1663ffffffff1663ffffffff1681526020016003820160189054906101000a900463ffffffff1663ffffffff1663ffffffff16815260200160038201601c9054906101000a900463ffffffff1663ffffffff1663ffffffff1681526020016004820160009054906101000a900463ffffffff1663ffffffff1663ffffffff1681526020016004820160049054906101000a900460ff1660038111156117d6576117d5611e6d565b5b60038111156117e8576117e7611e6d565b5b815250509050919050565b6000600160009054906101000a900473ffffffffffffffffffffffffffffffffffffffff1673ffffffffffffffffffffffffffffffffffffffff166335852541336040518263ffffffff1660e01b815260040161185091906127f8565b600060405180830381865afa15801561186d573d6000803e3d6000fd5b505050506040513d6000823e3d601f19601f820116820180604052508101906118969190612a74565b90506001816000015160028111156118b1576118b0611e6d565b5b60ff16146118f4576040517f08c379a00000000000000000000000000000000000000000000000000000000081526004016118eb906130fb565b60405180910390fd5b600260009054906101000a900473ffffffffffffffffffffffffffffffffffffffff1673ffffffffffffffffffffffffffffffffffffffff166302c0ad9085856040518363ffffffff1660e01b815260040161195192919061311b565b600060405180830381600087803b15801561196b57600080fd5b505af115801561197f573d6000803e3d6000fd5b5050505060026004600087815260200190815260200160002060040160046101000a81548160ff021916908360038111156119bd576119bc611e6d565b5b021790555083857f3d9c6d7fedf256315259fe8cb6863117af8f4a56f16c0767d72c06359e16e5333386426040516119f793929190613144565b60405180910390a3600260009054906101000a900473ffffffffffffffffffffffffffffffffffffffff1673ffffffffffffffffffffffffffffffffffffffff1663d37889c685846040518363ffffffff1660e01b8152600401611a5c9291906131b6565b600060405180830381600087803b158015611a7657600080fd5b505af1158015611a8a573d6000803e3d6000fd5b505050505050505050565b60005481565b6040518060600160405280611aae611ace565b8152602001611abb611b70565b8152602001611ac8611c42565b81525090565b6040518061012001604052806000815260200160008152602001600073ffffffffffffffffffffffffffffffffffffffff168152602001600073ffffffffffffffffffffffffffffffffffffffff168152602001600063ffffffff168152602001600063ffffffff168152602001600063ffffffff168152602001600063ffffffff16815260200160006003811115611b6a57611b69611e6d565b5b81525090565b604051806101a001604052806060815260200160608152602001600073ffffffffffffffffffffffffffffffffffffffff168152602001606081526020016060815260200160006fffffffffffffffffffffffffffffffff16815260200160006fffffffffffffffffffffffffffffffff168152602001600063ffffffff168152602001600063ffffffff168152602001600015158152602001600073ffffffffffffffffffffffffffffffffffffffff168152602001600063ffffffff168152602001600063ffffffff1681525090565b6040518060a0016040528060006002811115611c6157611c60611e6d565b5b81526020016060815260200160608152602001606081526020016000151581525090565b6000604051905090565b600080fd5b600080fd5b600073ffffffffffffffffffffffffffffffffffffffff82169050919050565b6000611cc482611c99565b9050919050565b611cd481611cb9565b8114611cdf57600080fd5b50565b600081359050611cf181611ccb565b92915050565b600060208284031215611d0d57611d0c611c8f565b5b6000611d1b84828501611ce2565b91505092915050565b6000819050919050565b611d3781611d24565b8114611d4257600080fd5b50565b600081359050611d5481611d2e565b92915050565b60008060408385031215611d7157611d70611c8f565b5b6000611d7f85828601611ce2565b9250506020611d9085828601611d45565b9150509250929050565b611da381611d24565b82525050565b6000602082019050611dbe6000830184611d9a565b92915050565b60008060408385031215611ddb57611dda611c8f565b5b6000611de985828601611d45565b9250506020611dfa85828601611d45565b9150509250929050565b600081519050919050565b600082825260208201905092915050565b6000819050602082019050919050565b611e3981611d24565b82525050565b611e4881611cb9565b82525050565b600063ffffffff82169050919050565b611e6781611e4e565b82525050565b7f4e487b7100000000000000000000000000000000000000000000000000000000600052602160045260246000fd5b60048110611ead57611eac611e6d565b5b50565b6000819050611ebe82611e9c565b919050565b6000611ece82611eb0565b9050919050565b611ede81611ec3565b82525050565b61012082016000820151611efb6000850182611e30565b506020820151611f0e6020850182611e30565b506040820151611f216040850182611e3f565b506060820151611f346060850182611e3f565b506080820151611f476080850182611e5e565b5060a0820151611f5a60a0850182611e5e565b5060c0820151611f6d60c0850182611e5e565b5060e0820151611f8060e0850182611e5e565b50610100820151611f95610100850182611ed5565b50505050565b600081519050919050565b600082825260208201905092915050565b6000819050602082019050919050565b6000611fd38383611e3f565b60208301905092915050565b6000602082019050919050565b6000611ff782611f9b565b6120018185611fa6565b935061200c83611fb7565b8060005b8381101561203d5781516120248882611fc7565b975061202f83611fdf565b925050600181019050612010565b5085935050505092915050565b600081519050919050565b600082825260208201905092915050565b6000819050602082019050919050565b60006120828383611e30565b60208301905092915050565b6000602082019050919050565b60006120a68261204a565b6120b08185612055565b93506120bb83612066565b8060005b838110156120ec5781516120d38882612076565b97506120de8361208e565b9250506001810190506120bf565b5085935050505092915050565b600081519050919050565b600082825260208201905092915050565b60005b83811015612133578082015181840152602081019050612118565b60008484015250505050565b6000601f19601f8301169050919050565b600061215b826120f9565b6121658185612104565b9350612175818560208601612115565b61217e8161213f565b840191505092915050565b60006fffffffffffffffffffffffffffffffff82169050919050565b6121ae81612189565b82525050565b60008115159050919050565b6121c9816121b4565b82525050565b60006101a08301600083015184820360008601526121ed8282611fec565b91505060208301518482036020860152612207828261209b565b915050604083015161221c6040860182611e3f565b50606083015184820360608601526122348282612150565b9150506080830151848203608086015261224e8282612150565b91505060a083015161226360a08601826121a5565b5060c083015161227660c08601826121a5565b5060e083015161228960e0860182611e5e565b5061010083015161229e610100860182611e5e565b506101208301516122b36101208601826121c0565b506101408301516122c8610140860182611e3f565b506101608301516122dd610160860182611e5e565b506101808301516122f2610180860182611e5e565b508091505092915050565b6003811061230e5761230d611e6d565b5b50565b600081905061231f826122fd565b919050565b600061232f82612311565b9050919050565b61233f81612324565b82525050565b600060a08301600083015161235d6000860182612336565b50602083015184820360208601526123758282612150565b9150506040830151848203604086015261238f8282612150565b915050606083015184820360608601526123a98282612150565b91505060808301516123be60808601826121c0565b508091505092915050565b6000610160830160008301516123e26000860182611ee4565b5060208301518482036101208601526123fb82826121cf565b91505060408301518482036101408601526124168282612345565b9150508091505092915050565b600061242f83836123c9565b905092915050565b6000602082019050919050565b600061244f82611e04565b6124598185611e0f565b93508360208202850161246b85611e20565b8060005b858110156124a757848403895281516124888582612423565b945061249383612437565b925060208a0199505060018101905061246f565b50829750879550505050505092915050565b600060208201905081810360008301526124d38184612444565b905092915050565b6000602082840312156124f1576124f0611c8f565b5b60006124ff84828501611d45565b91505092915050565b61251181611cb9565b82525050565b61252081611e4e565b82525050565b61252f81611ec3565b82525050565b60006101208201905061254b600083018c611d9a565b612558602083018b611d9a565b612565604083018a612508565b6125726060830189612508565b61257f6080830188612517565b61258c60a0830187612517565b61259960c0830186612517565b6125a660e0830185612517565b6125b4610100830184612526565b9a9950505050505050505050565b6125cb81611e4e565b81146125d657600080fd5b50565b6000813590506125e8816125c2565b92915050565b60008060006060848603121561260757612606611c8f565b5b600061261586828701611d45565b9350506020612626868287016125d9565b925050604061263786828701611ce2565b9150509250925092565b610120820160008201516126586000850182611e30565b50602082015161266b6020850182611e30565b50604082015161267e6040850182611e3f565b5060608201516126916060850182611e3f565b5060808201516126a46080850182611e5e565b5060a08201516126b760a0850182611e5e565b5060c08201516126ca60c0850182611e5e565b5060e08201516126dd60e0850182611e5e565b506101008201516126f2610100850182611ed5565b50505050565b60006101208201905061270e6000830184612641565b92915050565b6000806000806080858703121561272e5761272d611c8f565b5b600061273c87828801611d45565b945050602061274d87828801611d45565b935050604061275e87828801611ce2565b925050606061276f878288016125d9565b91505092959194509250565b600082825260208201905092915050565b7f4e6f74206f776e65720000000000000000000000000000000000000000000000600082015250565b60006127c260098361277b565b91506127cd8261278c565b602082019050919050565b600060208201905081810360008301526127f1816127b5565b9050919050565b600060208201905061280d6000830184612508565b92915050565b600080fd5b7f4e487b7100000000000000000000000000000000000000000000000000000000600052604160045260246000fd5b6128508261213f565b810181811067ffffffffffffffff8211171561286f5761286e612818565b5b80604052505050565b6000612882611c85565b905061288e8282612847565b919050565b600080fd5b600381106128a557600080fd5b50565b6000815190506128b781612898565b92915050565b600080fd5b600080fd5b600067ffffffffffffffff8211156128e2576128e1612818565b5b6128eb8261213f565b9050602081019050919050565b600061290b612906846128c7565b612878565b905082815260208101848484011115612927576129266128c2565b5b612932848285612115565b509392505050565b600082601f83011261294f5761294e6128bd565b5b815161295f8482602086016128f8565b91505092915050565b612971816121b4565b811461297c57600080fd5b50565b60008151905061298e81612968565b92915050565b600060a082840312156129aa576129a9612813565b5b6129b460a0612878565b905060006129c4848285016128a8565b600083015250602082015167ffffffffffffffff8111156129e8576129e7612893565b5b6129f48482850161293a565b602083015250604082015167ffffffffffffffff811115612a1857612a17612893565b5b612a248482850161293a565b604083015250606082015167ffffffffffffffff811115612a4857612a47612893565b5b612a548482850161293a565b6060830152506080612a688482850161297f565b60808301525092915050565b600060208284031215612a8a57612a89611c8f565b5b600082015167ffffffffffffffff811115612aa857612aa7611c94565b5b612ab484828501612994565b91505092915050565b7f4f6e6c79204469737472696275746f722063616e2061636b6e6f776c6564676560008201527f2072656365697665642070726f64756374000000000000000000000000000000602082015250565b6000612b1960318361277b565b9150612b2482612abd565b604082019050919050565b60006020820190508181036000830152612b4881612b0c565b9050919050565b6000602082019050612b646000830184612517565b92915050565b7f4e487b7100000000000000000000000000000000000000000000000000000000600052603260045260246000fd5b600067ffffffffffffffff821115612bb457612bb3612818565b5b602082029050602081019050919050565b600080fd5b600081519050612bd981611ccb565b92915050565b6000612bf2612bed84612b99565b612878565b90508083825260208201905060208402830185811115612c1557612c14612bc5565b5b835b81811015612c3e5780612c2a8882612bca565b845260208401935050602081019050612c17565b5050509392505050565b600082601f830112612c5d57612c5c6128bd565b5b8151612c6d848260208601612bdf565b91505092915050565b600067ffffffffffffffff821115612c9157612c90612818565b5b602082029050602081019050919050565b600081519050612cb181611d2e565b92915050565b6000612cca612cc584612c76565b612878565b90508083825260208201905060208402830185811115612ced57612cec612bc5565b5b835b81811015612d165780612d028882612ca2565b845260208401935050602081019050612cef565b5050509392505050565b600082601f830112612d3557612d346128bd565b5b8151612d45848260208601612cb7565b91505092915050565b612d5781612189565b8114612d6257600080fd5b50565b600081519050612d7481612d4e565b92915050565b600081519050612d89816125c2565b92915050565b60006101a08284031215612da657612da5612813565b5b612db16101a0612878565b9050600082015167ffffffffffffffff811115612dd157612dd0612893565b5b612ddd84828501612c48565b600083015250602082015167ffffffffffffffff811115612e0157612e00612893565b5b612e0d84828501612d20565b6020830152506040612e2184828501612bca565b604083015250606082015167ffffffffffffffff811115612e4557612e44612893565b5b612e518482850161293a565b606083015250608082015167ffffffffffffffff811115612e7557612e74612893565b5b612e818482850161293a565b60808301525060a0612e9584828501612d65565b60a08301525060c0612ea984828501612d65565b60c08301525060e0612ebd84828501612d7a565b60e083015250610100612ed284828501612d7a565b61010083015250610120612ee88482850161297f565b61012083015250610140612efe84828501612bca565b61014083015250610160612f1484828501612d7a565b61016083015250610180612f2a84828501612d7a565b6101808301525092915050565b600060208284031215612f4d57612f4c611c8f565b5b600082015167ffffffffffffffff811115612f6b57612f6a611c94565b5b612f7784828501612d8f565b91505092915050565b7f4e487b7100000000000000000000000000000000000000000000000000000000600052601160045260246000fd5b6000612fba82611d24565b91507fffffffffffffffffffffffffffffffffffffffffffffffffffffffffffffffff8203612fec57612feb612f80565b5b600182019050919050565b7f4f6e6c79204469737472696275746f722063616e20526571756573742070726f60008201527f6475637400000000000000000000000000000000000000000000000000000000602082015250565b600061305360248361277b565b915061305e82612ff7565b604082019050919050565b6000602082019050818103600083015261308281613046565b9050919050565b7f4f6e6c79206d616e7566616374757265722063616e205472616e73666572207060008201527f726f647563740000000000000000000000000000000000000000000000000000602082015250565b60006130e560268361277b565b91506130f082613089565b604082019050919050565b60006020820190508181036000830152613114816130d8565b9050919050565b60006040820190506131306000830185611d9a565b61313d6020830184612508565b9392505050565b60006060820190506131596000830186612508565b6131666020830185612508565b6131736040830184612517565b949350505050565b6000819050919050565b60006131a061319b61319684611e4e565b61317b565b612189565b9050919050565b6131b081613185565b82525050565b60006040820190506131cb6000830185611d9a565b6131d860208301846131a7565b939250505056fea2646970667358221220b374d9ea5bd4e6c853ab67abcfadd8fe5d7cfcbfbf442f56f575aef21bc6db4c64736f6c63430008120033",
  "linkReferences": {},
  "deployedLinkReferences": {}
}