{
  "_format": "hh-sol-artifact-1",
  "contractName": "manufacturerDistributor",
  "sourceName": "contracts/manufacturerDistributor.sol",
  "abi": [
    {
      "inputs": [
        {
          "internalType": "address",
          "name": "_udAddress",
          "type": "address"
        }
      ],
      "stateMutability": "nonpayable",
      "type": "constructor"
    },
    {
      "anonymous": false,
      "inputs": [
        {
          "indexed": false,
          "internalType": "uint32",
          "name": "_arrivalTime",
          "type": "uint32"
        }
      ],
      "name": "eventArrivalTime",
      "type": "event"
    },
    {
      "anonymous": false,
      "inputs": [
        {
          "indexed": true,
          "internalType": "uint256",
          "name": "_mdId",
          "type": "uint256"
        },
        {
          "indexed": true,
          "internalType": "uint256",
          "name": "_mpId",
          "type": "uint256"
        },
        {
          "indexed": false,
          "internalType": "address",
          "name": "_manufacturerAddress",
          "type": "address"
        },
        {
          "indexed": false,
          "internalType": "address",
          "name": "_distributorAddress",
          "type": "address"
        },
        {
          "indexed": false,
          "internalType": "uint32",
          "name": "_dispatchTime",
          "type": "uint32"
        }
      ],
      "name": "eventManufacturerDistributorTransfer",
      "type": "event"
    },
    {
      "inputs": [
        {
          "internalType": "address",
          "name": "_mpAddress",
          "type": "address"
        }
      ],
      "name": "changeMpAddress",
      "outputs": [],
      "stateMutability": "nonpayable",
      "type": "function"
    },
    {
      "inputs": [
        {
          "internalType": "address",
          "name": "_ownerAddress",
          "type": "address"
        }
      ],
      "name": "changeOwner",
      "outputs": [],
      "stateMutability": "nonpayable",
      "type": "function"
    },
    {
      "inputs": [
        {
          "internalType": "address",
          "name": "_udAddress",
          "type": "address"
        }
      ],
      "name": "changeUdAddress",
      "outputs": [],
      "stateMutability": "nonpayable",
      "type": "function"
    },
    {
      "inputs": [
        {
          "internalType": "address",
          "name": "",
          "type": "address"
        },
        {
          "internalType": "uint256",
          "name": "",
          "type": "uint256"
        }
      ],
      "name": "distributorTomdIdMapping",
      "outputs": [
        {
          "internalType": "uint256",
          "name": "",
          "type": "uint256"
        }
      ],
      "stateMutability": "view",
      "type": "function"
    },
    {
      "inputs": [
        {
          "internalType": "address",
          "name": "_distributorAddress",
          "type": "address"
        }
      ],
      "name": "getAllmdIdForDistributor",
      "outputs": [
        {
          "components": [
            {
              "internalType": "uint256",
              "name": "mdId",
              "type": "uint256"
            },
            {
              "internalType": "uint256",
              "name": "mpId",
              "type": "uint256"
            },
            {
              "internalType": "address",
              "name": "m_address",
              "type": "address"
            },
            {
              "internalType": "address",
              "name": "d_address",
              "type": "address"
            },
            {
              "internalType": "uint32",
              "name": "dispatchTime",
              "type": "uint32"
            },
            {
              "internalType": "uint32",
              "name": "arrivalTime",
              "type": "uint32"
            },
            {
              "internalType": "uint32",
              "name": "quantity",
              "type": "uint32"
            },
            {
              "internalType": "uint32",
              "name": "currentQuantity",
              "type": "uint32"
            },
            {
              "internalType": "enum IManufacturerDistributor.transferStatus",
              "name": "status",
              "type": "uint8"
            }
          ],
          "internalType": "struct IManufacturerDistributor.manufacturerDistributor[]",
          "name": "",
          "type": "tuple[]"
        }
      ],
      "stateMutability": "view",
      "type": "function"
    },
    {
      "inputs": [
        {
          "internalType": "uint256",
          "name": "_mdid",
          "type": "uint256"
        }
      ],
      "name": "getProduct",
      "outputs": [
        {
          "components": [
            {
              "internalType": "uint256",
              "name": "mdId",
              "type": "uint256"
            },
            {
              "internalType": "uint256",
              "name": "mpId",
              "type": "uint256"
            },
            {
              "internalType": "address",
              "name": "m_address",
              "type": "address"
            },
            {
              "internalType": "address",
              "name": "d_address",
              "type": "address"
            },
            {
              "internalType": "uint32",
              "name": "dispatchTime",
              "type": "uint32"
            },
            {
              "internalType": "uint32",
              "name": "arrivalTime",
              "type": "uint32"
            },
            {
              "internalType": "uint32",
              "name": "quantity",
              "type": "uint32"
            },
            {
              "internalType": "uint32",
              "name": "currentQuantity",
              "type": "uint32"
            },
            {
              "internalType": "enum IManufacturerDistributor.transferStatus",
              "name": "status",
              "type": "uint8"
            }
          ],
          "internalType": "struct IManufacturerDistributor.manufacturerDistributor",
          "name": "",
          "type": "tuple"
        }
      ],
      "stateMutability": "view",
      "type": "function"
    },
    {
      "inputs": [
        {
          "internalType": "address",
          "name": "",
          "type": "address"
        },
        {
          "internalType": "uint256",
          "name": "",
          "type": "uint256"
        }
      ],
      "name": "manufacturerTosmIdMapping",
      "outputs": [
        {
          "internalType": "uint256",
          "name": "",
          "type": "uint256"
        }
      ],
      "stateMutability": "view",
      "type": "function"
    },
    {
      "inputs": [],
      "name": "mdId",
      "outputs": [
        {
          "internalType": "uint256",
          "name": "",
          "type": "uint256"
        }
      ],
      "stateMutability": "view",
      "type": "function"
    },
    {
      "inputs": [
        {
          "internalType": "uint256",
          "name": "",
          "type": "uint256"
        }
      ],
      "name": "mdIdToStructMapping",
      "outputs": [
        {
          "internalType": "uint256",
          "name": "mdId",
          "type": "uint256"
        },
        {
          "internalType": "uint256",
          "name": "mpId",
          "type": "uint256"
        },
        {
          "internalType": "address",
          "name": "m_address",
          "type": "address"
        },
        {
          "internalType": "address",
          "name": "d_address",
          "type": "address"
        },
        {
          "internalType": "uint32",
          "name": "dispatchTime",
          "type": "uint32"
        },
        {
          "internalType": "uint32",
          "name": "arrivalTime",
          "type": "uint32"
        },
        {
          "internalType": "uint32",
          "name": "quantity",
          "type": "uint32"
        },
        {
          "internalType": "uint32",
          "name": "currentQuantity",
          "type": "uint32"
        },
        {
          "internalType": "enum IManufacturerDistributor.transferStatus",
          "name": "status",
          "type": "uint8"
        }
      ],
      "stateMutability": "view",
      "type": "function"
    },
    {
      "inputs": [
        {
          "internalType": "uint256",
          "name": "_smId",
          "type": "uint256"
        }
      ],
      "name": "receiveProduct",
      "outputs": [],
      "stateMutability": "nonpayable",
      "type": "function"
    },
    {
      "inputs": [
        {
          "internalType": "uint256",
          "name": "_mpId",
          "type": "uint256"
        },
        {
          "internalType": "uint32",
          "name": "_quantity",
          "type": "uint32"
        },
        {
          "internalType": "address",
          "name": "_manufacturerAddress",
          "type": "address"
        }
      ],
      "name": "requestProduct",
      "outputs": [],
      "stateMutability": "nonpayable",
      "type": "function"
    },
    {
      "inputs": [
        {
          "internalType": "uint256",
          "name": "_mpId",
          "type": "uint256"
        },
        {
          "internalType": "address",
          "name": "_distributorAddress",
          "type": "address"
        },
        {
          "internalType": "uint32",
          "name": "_quantity",
          "type": "uint32"
        },
        {
          "internalType": "uint32",
          "name": "_currentQuantity",
          "type": "uint32"
        }
      ],
      "name": "transferProduct",
      "outputs": [],
      "stateMutability": "nonpayable",
      "type": "function"
    }
  ],
  "bytecode": "0x608060405260016000553480156200001657600080fd5b50604051620022c8380380620022c883398181016040528101906200003c91906200012f565b33600360006101000a81548173ffffffffffffffffffffffffffffffffffffffff021916908373ffffffffffffffffffffffffffffffffffffffff16021790555080600160006101000a81548173ffffffffffffffffffffffffffffffffffffffff021916908373ffffffffffffffffffffffffffffffffffffffff1602179055505062000161565b600080fd5b600073ffffffffffffffffffffffffffffffffffffffff82169050919050565b6000620000f782620000ca565b9050919050565b6200010981620000ea565b81146200011557600080fd5b50565b6000815190506200012981620000fe565b92915050565b600060208284031215620001485762000147620000c5565b5b6000620001588482850162000118565b91505092915050565b61215780620001716000396000f3fe608060405234801561001057600080fd5b50600436106100b45760003560e01c8063872168971161007157806387216897146101b9578063a4ac44bf146101d5578063a6f9dae1146101f1578063b5dafe831461020d578063b9db15b414610229578063e3eba90414610259576100b4565b80630f65ae38146100b95780631001f30f146100d557806329d78328146101055780634387254d146101215780636793fc85146101515780636e394ff514610181575b600080fd5b6100d360048036038101906100ce91906114c0565b610277565b005b6100ef60048036038101906100ea9190611523565b61034b565b6040516100fc9190611572565b60405180910390f35b61011f600480360381019061011a919061158d565b61037c565b005b61013b600480360381019061013691906114c0565b61052c565b60405161014891906117d5565b60405180910390f35b61016b60048036038101906101669190611523565b61082d565b6040516101789190611572565b60405180910390f35b61019b6004803603810190610196919061158d565b61085e565b6040516101b099989796959493929190611824565b60405180910390f35b6101d360048036038101906101ce91906114c0565b610939565b005b6101ef60048036038101906101ea91906118dd565b610a0d565b005b61020b600480360381019061020691906114c0565b610e1d565b005b61022760048036038101906102229190611930565b610ef1565b005b610243600480360381019061023e919061158d565b6111e5565b6040516102509190611a4e565b60405180910390f35b6102616113a6565b60405161026e9190611572565b60405180910390f35b600360009054906101000a900473ffffffffffffffffffffffffffffffffffffffff1673ffffffffffffffffffffffffffffffffffffffff163373ffffffffffffffffffffffffffffffffffffffff1614610307576040517f08c379a00000000000000000000000000000000000000000000000000000000081526004016102fe90611ac7565b60405180910390fd5b80600160006101000a81548173ffffffffffffffffffffffffffffffffffffffff021916908373ffffffffffffffffffffffffffffffffffffffff16021790555050565b6006602052816000526040600020818154811061036757600080fd5b90600052602060002001600091509150505481565b6000600160009054906101000a900473ffffffffffffffffffffffffffffffffffffffff1673ffffffffffffffffffffffffffffffffffffffff166335852541336040518263ffffffff1660e01b81526004016103d99190611ae7565b600060405180830381865afa1580156103f6573d6000803e3d6000fd5b505050506040513d6000823e3d601f19601f8201168201806040525081019061041f9190611daa565b905060018160000151600281111561043a57610439611623565b5b60ff161461047d576040517f08c379a000000000000000000000000000000000000000000000000000000000815260040161047490611e65565b60405180910390fd5b426004600084815260200190815260200160002060030160186101000a81548163ffffffff021916908363ffffffff16021790555060036004600084815260200190815260200160002060040160046101000a81548160ff021916908360038111156104ec576104eb611623565b5b02179055507f64e64e323422dcfed18a892f84596ccf7cc94b1952625f3cc82e6461b529fff1426040516105209190611e85565b60405180910390a15050565b60606000600560008473ffffffffffffffffffffffffffffffffffffffff1673ffffffffffffffffffffffffffffffffffffffff1681526020019081526020016000208054806020026020016040519081016040528092919081815260200182805480156105b957602002820191906000526020600020905b8154815260200190600101908083116105a5575b505050505090506000815167ffffffffffffffff8111156105dd576105dc611b18565b5b60405190808252806020026020018201604052801561061657816020015b6106036113ac565b8152602001906001900390816105fb5790505b50905060005b8251811015610822576004600084838151811061063c5761063b611ea0565b5b602002602001015181526020019081526020016000206040518061012001604052908160008201548152602001600182015481526020016002820160009054906101000a900473ffffffffffffffffffffffffffffffffffffffff1673ffffffffffffffffffffffffffffffffffffffff1673ffffffffffffffffffffffffffffffffffffffff1681526020016003820160009054906101000a900473ffffffffffffffffffffffffffffffffffffffff1673ffffffffffffffffffffffffffffffffffffffff1673ffffffffffffffffffffffffffffffffffffffff1681526020016003820160149054906101000a900463ffffffff1663ffffffff1663ffffffff1681526020016003820160189054906101000a900463ffffffff1663ffffffff1663ffffffff16815260200160038201601c9054906101000a900463ffffffff1663ffffffff1663ffffffff1681526020016004820160009054906101000a900463ffffffff1663ffffffff1663ffffffff1681526020016004820160049054906101000a900460ff1660038111156107db576107da611623565b5b60038111156107ed576107ec611623565b5b8152505082828151811061080457610803611ea0565b5b6020026020010181905250808061081a90611efe565b91505061061c565b508092505050919050565b6005602052816000526040600020818154811061084957600080fd5b90600052602060002001600091509150505481565b60046020528060005260406000206000915090508060000154908060010154908060020160009054906101000a900473ffffffffffffffffffffffffffffffffffffffff16908060030160009054906101000a900473ffffffffffffffffffffffffffffffffffffffff16908060030160149054906101000a900463ffffffff16908060030160189054906101000a900463ffffffff169080600301601c9054906101000a900463ffffffff16908060040160009054906101000a900463ffffffff16908060040160049054906101000a900460ff16905089565b600360009054906101000a900473ffffffffffffffffffffffffffffffffffffffff1673ffffffffffffffffffffffffffffffffffffffff163373ffffffffffffffffffffffffffffffffffffffff16146109c9576040517f08c379a00000000000000000000000000000000000000000000000000000000081526004016109c090611ac7565b60405180910390fd5b80600260006101000a81548173ffffffffffffffffffffffffffffffffffffffff021916908373ffffffffffffffffffffffffffffffffffffffff16021790555050565b6000600160009054906101000a900473ffffffffffffffffffffffffffffffffffffffff1673ffffffffffffffffffffffffffffffffffffffff166335852541336040518263ffffffff1660e01b8152600401610a6a9190611ae7565b600060405180830381865afa158015610a87573d6000803e3d6000fd5b505050506040513d6000823e3d601f19601f82011682018060405250810190610ab09190611daa565b9050600181600001516002811115610acb57610aca611623565b5b60ff1614610b0e576040517f08c379a0000000000000000000000000000000000000000000000000000000008152600401610b0590611fb8565b60405180910390fd5b60405180610120016040528060005481526020018581526020018373ffffffffffffffffffffffffffffffffffffffff1681526020013373ffffffffffffffffffffffffffffffffffffffff168152602001600063ffffffff168152602001600063ffffffff1681526020018463ffffffff168152602001600063ffffffff16815260200160016003811115610ba757610ba6611623565b5b8152506004600080548152602001908152602001600020600082015181600001556020820151816001015560408201518160020160006101000a81548173ffffffffffffffffffffffffffffffffffffffff021916908373ffffffffffffffffffffffffffffffffffffffff16021790555060608201518160030160006101000a81548173ffffffffffffffffffffffffffffffffffffffff021916908373ffffffffffffffffffffffffffffffffffffffff16021790555060808201518160030160146101000a81548163ffffffff021916908363ffffffff16021790555060a08201518160030160186101000a81548163ffffffff021916908363ffffffff16021790555060c082015181600301601c6101000a81548163ffffffff021916908363ffffffff16021790555060e08201518160040160006101000a81548163ffffffff021916908363ffffffff1602179055506101008201518160040160046101000a81548160ff02191690836003811115610d2857610d27611623565b5b0217905550905050600560003373ffffffffffffffffffffffffffffffffffffffff1673ffffffffffffffffffffffffffffffffffffffff1681526020019081526020016000206000549080600181540180825580915050600190039060005260206000200160009091909190915055600660003373ffffffffffffffffffffffffffffffffffffffff1673ffffffffffffffffffffffffffffffffffffffff1681526020019081526020016000206000549080600181540180825580915050600190039060005260206000200160009091909190915055600080815480929190610e1290611efe565b919050555050505050565b600360009054906101000a900473ffffffffffffffffffffffffffffffffffffffff1673ffffffffffffffffffffffffffffffffffffffff163373ffffffffffffffffffffffffffffffffffffffff1614610ead576040517f08c379a0000000000000000000000000000000000000000000000000000000008152600401610ea490611ac7565b60405180910390fd5b80600360006101000a81548173ffffffffffffffffffffffffffffffffffffffff021916908373ffffffffffffffffffffffffffffffffffffffff16021790555050565b6000600160009054906101000a900473ffffffffffffffffffffffffffffffffffffffff1673ffffffffffffffffffffffffffffffffffffffff166335852541336040518263ffffffff1660e01b8152600401610f4e9190611ae7565b600060405180830381865afa158015610f6b573d6000803e3d6000fd5b505050506040513d6000823e3d601f19601f82011682018060405250810190610f949190611daa565b9050600081600001516002811115610faf57610fae611623565b5b60ff1614610ff2576040517f08c379a0000000000000000000000000000000000000000000000000000000008152600401610fe99061204a565b60405180910390fd5b8460046000805481526020019081526020016000206001018190555033600460008054815260200190815260200160002060020160006101000a81548173ffffffffffffffffffffffffffffffffffffffff021916908373ffffffffffffffffffffffffffffffffffffffff16021790555042600460008054815260200190815260200160002060030160146101000a81548163ffffffff021916908363ffffffff16021790555081600460008054815260200190815260200160002060040160006101000a81548163ffffffff021916908363ffffffff1602179055506002600460008054815260200190815260200160002060040160046101000a81548160ff0219169083600381111561110b5761110a611623565b5b0217905550846000547f3d9c6d7fedf256315259fe8cb6863117af8f4a56f16c0767d72c06359e16e5333387426040516111479392919061206a565b60405180910390a3600260009054906101000a900473ffffffffffffffffffffffffffffffffffffffff1673ffffffffffffffffffffffffffffffffffffffff1663d37889c686856040518363ffffffff1660e01b81526004016111ac9291906120f8565b600060405180830381600087803b1580156111c657600080fd5b505af11580156111da573d6000803e3d6000fd5b505050505050505050565b6111ed6113ac565b600460008381526020019081526020016000206040518061012001604052908160008201548152602001600182015481526020016002820160009054906101000a900473ffffffffffffffffffffffffffffffffffffffff1673ffffffffffffffffffffffffffffffffffffffff1673ffffffffffffffffffffffffffffffffffffffff1681526020016003820160009054906101000a900473ffffffffffffffffffffffffffffffffffffffff1673ffffffffffffffffffffffffffffffffffffffff1673ffffffffffffffffffffffffffffffffffffffff1681526020016003820160149054906101000a900463ffffffff1663ffffffff1663ffffffff1681526020016003820160189054906101000a900463ffffffff1663ffffffff1663ffffffff16815260200160038201601c9054906101000a900463ffffffff1663ffffffff1663ffffffff1681526020016004820160009054906101000a900463ffffffff1663ffffffff1663ffffffff1681526020016004820160049054906101000a900460ff16600381111561138957611388611623565b5b600381111561139b5761139a611623565b5b815250509050919050565b60005481565b6040518061012001604052806000815260200160008152602001600073ffffffffffffffffffffffffffffffffffffffff168152602001600073ffffffffffffffffffffffffffffffffffffffff168152602001600063ffffffff168152602001600063ffffffff168152602001600063ffffffff168152602001600063ffffffff1681526020016000600381111561144857611447611623565b5b81525090565b6000604051905090565b600080fd5b600080fd5b600073ffffffffffffffffffffffffffffffffffffffff82169050919050565b600061148d82611462565b9050919050565b61149d81611482565b81146114a857600080fd5b50565b6000813590506114ba81611494565b92915050565b6000602082840312156114d6576114d5611458565b5b60006114e4848285016114ab565b91505092915050565b6000819050919050565b611500816114ed565b811461150b57600080fd5b50565b60008135905061151d816114f7565b92915050565b6000806040838503121561153a57611539611458565b5b6000611548858286016114ab565b92505060206115598582860161150e565b9150509250929050565b61156c816114ed565b82525050565b60006020820190506115876000830184611563565b92915050565b6000602082840312156115a3576115a2611458565b5b60006115b18482850161150e565b91505092915050565b600081519050919050565b600082825260208201905092915050565b6000819050602082019050919050565b6115ef816114ed565b82525050565b6115fe81611482565b82525050565b600063ffffffff82169050919050565b61161d81611604565b82525050565b7f4e487b7100000000000000000000000000000000000000000000000000000000600052602160045260246000fd5b6004811061166357611662611623565b5b50565b600081905061167482611652565b919050565b600061168482611666565b9050919050565b61169481611679565b82525050565b610120820160008201516116b160008501826115e6565b5060208201516116c460208501826115e6565b5060408201516116d760408501826115f5565b5060608201516116ea60608501826115f5565b5060808201516116fd6080850182611614565b5060a082015161171060a0850182611614565b5060c082015161172360c0850182611614565b5060e082015161173660e0850182611614565b5061010082015161174b61010085018261168b565b50505050565b600061175d838361169a565b6101208301905092915050565b6000602082019050919050565b6000611782826115ba565b61178c81856115c5565b9350611797836115d6565b8060005b838110156117c85781516117af8882611751565b97506117ba8361176a565b92505060018101905061179b565b5085935050505092915050565b600060208201905081810360008301526117ef8184611777565b905092915050565b61180081611482565b82525050565b61180f81611604565b82525050565b61181e81611679565b82525050565b60006101208201905061183a600083018c611563565b611847602083018b611563565b611854604083018a6117f7565b61186160608301896117f7565b61186e6080830188611806565b61187b60a0830187611806565b61188860c0830186611806565b61189560e0830185611806565b6118a3610100830184611815565b9a9950505050505050505050565b6118ba81611604565b81146118c557600080fd5b50565b6000813590506118d7816118b1565b92915050565b6000806000606084860312156118f6576118f5611458565b5b60006119048682870161150e565b9350506020611915868287016118c8565b9250506040611926868287016114ab565b9150509250925092565b6000806000806080858703121561194a57611949611458565b5b60006119588782880161150e565b9450506020611969878288016114ab565b935050604061197a878288016118c8565b925050606061198b878288016118c8565b91505092959194509250565b610120820160008201516119ae60008501826115e6565b5060208201516119c160208501826115e6565b5060408201516119d460408501826115f5565b5060608201516119e760608501826115f5565b5060808201516119fa6080850182611614565b5060a0820151611a0d60a0850182611614565b5060c0820151611a2060c0850182611614565b5060e0820151611a3360e0850182611614565b50610100820151611a4861010085018261168b565b50505050565b600061012082019050611a646000830184611997565b92915050565b600082825260208201905092915050565b7f4e6f74206f776e65720000000000000000000000000000000000000000000000600082015250565b6000611ab1600983611a6a565b9150611abc82611a7b565b602082019050919050565b60006020820190508181036000830152611ae081611aa4565b9050919050565b6000602082019050611afc60008301846117f7565b92915050565b600080fd5b6000601f19601f8301169050919050565b7f4e487b7100000000000000000000000000000000000000000000000000000000600052604160045260246000fd5b611b5082611b07565b810181811067ffffffffffffffff82111715611b6f57611b6e611b18565b5b80604052505050565b6000611b8261144e565b9050611b8e8282611b47565b919050565b600080fd5b60038110611ba557600080fd5b50565b600081519050611bb781611b98565b92915050565b600080fd5b600080fd5b600067ffffffffffffffff821115611be257611be1611b18565b5b611beb82611b07565b9050602081019050919050565b60005b83811015611c16578082015181840152602081019050611bfb565b60008484015250505050565b6000611c35611c3084611bc7565b611b78565b905082815260208101848484011115611c5157611c50611bc2565b5b611c5c848285611bf8565b509392505050565b600082601f830112611c7957611c78611bbd565b5b8151611c89848260208601611c22565b91505092915050565b60008115159050919050565b611ca781611c92565b8114611cb257600080fd5b50565b600081519050611cc481611c9e565b92915050565b600060a08284031215611ce057611cdf611b02565b5b611cea60a0611b78565b90506000611cfa84828501611ba8565b600083015250602082015167ffffffffffffffff811115611d1e57611d1d611b93565b5b611d2a84828501611c64565b602083015250604082015167ffffffffffffffff811115611d4e57611d4d611b93565b5b611d5a84828501611c64565b604083015250606082015167ffffffffffffffff811115611d7e57611d7d611b93565b5b611d8a84828501611c64565b6060830152506080611d9e84828501611cb5565b60808301525092915050565b600060208284031215611dc057611dbf611458565b5b600082015167ffffffffffffffff811115611dde57611ddd61145d565b5b611dea84828501611cca565b91505092915050565b7f4f6e6c79204469737472696275746f722063616e2061636b6e6f776c6564676560008201527f2072656365697665642070726f64756374000000000000000000000000000000602082015250565b6000611e4f603183611a6a565b9150611e5a82611df3565b604082019050919050565b60006020820190508181036000830152611e7e81611e42565b9050919050565b6000602082019050611e9a6000830184611806565b92915050565b7f4e487b7100000000000000000000000000000000000000000000000000000000600052603260045260246000fd5b7f4e487b7100000000000000000000000000000000000000000000000000000000600052601160045260246000fd5b6000611f09826114ed565b91507fffffffffffffffffffffffffffffffffffffffffffffffffffffffffffffffff8203611f3b57611f3a611ecf565b5b600182019050919050565b7f4f6e6c79204d616e7566616374757265722063616e205265717565737420707260008201527f6f64756374000000000000000000000000000000000000000000000000000000602082015250565b6000611fa2602583611a6a565b9150611fad82611f46565b604082019050919050565b60006020820190508181036000830152611fd181611f95565b9050919050565b7f4f6e6c7920537570706c6965722063616e205472616e736665722070726f647560008201527f6374000000000000000000000000000000000000000000000000000000000000602082015250565b6000612034602283611a6a565b915061203f82611fd8565b604082019050919050565b6000602082019050818103600083015261206381612027565b9050919050565b600060608201905061207f60008301866117f7565b61208c60208301856117f7565b6120996040830184611806565b949350505050565b60006fffffffffffffffffffffffffffffffff82169050919050565b6000819050919050565b60006120e26120dd6120d884611604565b6120bd565b6120a1565b9050919050565b6120f2816120c7565b82525050565b600060408201905061210d6000830185611563565b61211a60208301846120e9565b939250505056fea2646970667358221220243341630736248d14847209f728c7ab4cfdf2cea68620cdf66c7d6a52886c8a64736f6c63430008120033",
  "linkReferences": {},
  "deployedLinkReferences": {}
}