{
  "_format": "hh-sol-artifact-1",
  "contractName": "userDetails",
  "sourceName": "contracts/userDetails.sol",
  "abi": [
    {
      "anonymous": false,
      "inputs": [
        {
          "indexed": true,
          "internalType": "address",
          "name": "_address",
          "type": "address"
        }
      ],
      "name": "eventDeleteUser",
      "type": "event"
    },
    {
      "anonymous": false,
      "inputs": [
        {
          "indexed": true,
          "internalType": "address",
          "name": "_address",
          "type": "address"
        },
        {
          "indexed": false,
          "internalType": "enum IUserDetails.userType",
          "name": "_type",
          "type": "uint8"
        },
        {
          "indexed": false,
          "internalType": "bytes",
          "name": "_name",
          "type": "bytes"
        },
        {
          "indexed": false,
          "internalType": "bytes",
          "name": "_physicalAddress",
          "type": "bytes"
        },
        {
          "indexed": false,
          "internalType": "bytes",
          "name": "_image",
          "type": "bytes"
        },
        {
          "indexed": false,
          "internalType": "uint256",
          "name": "_timeUpdated",
          "type": "uint256"
        }
      ],
      "name": "eventUserData",
      "type": "event"
    },
    {
      "inputs": [
        {
          "internalType": "enum IUserDetails.userType",
          "name": "_type",
          "type": "uint8"
        },
        {
          "internalType": "bytes",
          "name": "_name",
          "type": "bytes"
        },
        {
          "internalType": "bytes",
          "name": "_physicalAddress",
          "type": "bytes"
        },
        {
          "internalType": "bytes",
          "name": "_image",
          "type": "bytes"
        }
      ],
      "name": "addUser",
      "outputs": [],
      "stateMutability": "nonpayable",
      "type": "function"
    },
    {
      "inputs": [],
      "name": "deleteUser",
      "outputs": [],
      "stateMutability": "nonpayable",
      "type": "function"
    },
    {
      "inputs": [
        {
          "internalType": "uint256",
          "name": "",
          "type": "uint256"
        }
      ],
      "name": "distributors",
      "outputs": [
        {
          "internalType": "address",
          "name": "",
          "type": "address"
        }
      ],
      "stateMutability": "view",
      "type": "function"
    },
    {
      "inputs": [
        {
          "internalType": "bytes",
          "name": "_image",
          "type": "bytes"
        }
      ],
      "name": "editImage",
      "outputs": [],
      "stateMutability": "nonpayable",
      "type": "function"
    },
    {
      "inputs": [
        {
          "internalType": "bytes",
          "name": "_name",
          "type": "bytes"
        }
      ],
      "name": "editName",
      "outputs": [],
      "stateMutability": "nonpayable",
      "type": "function"
    },
    {
      "inputs": [
        {
          "internalType": "bytes",
          "name": "_physicalAddress",
          "type": "bytes"
        }
      ],
      "name": "editPhysicalAddress",
      "outputs": [],
      "stateMutability": "nonpayable",
      "type": "function"
    },
    {
      "inputs": [],
      "name": "getAllDistributors",
      "outputs": [
        {
          "components": [
            {
              "internalType": "enum IUserDetails.userType",
              "name": "userType",
              "type": "uint8"
            },
            {
              "internalType": "bytes",
              "name": "userName",
              "type": "bytes"
            },
            {
              "internalType": "bytes",
              "name": "userPhysicalAddress",
              "type": "bytes"
            },
            {
              "internalType": "bytes",
              "name": "userImage",
              "type": "bytes"
            },
            {
              "internalType": "bool",
              "name": "userStatus",
              "type": "bool"
            }
          ],
          "internalType": "struct IUserDetails.userDetails[]",
          "name": "",
          "type": "tuple[]"
        }
      ],
      "stateMutability": "view",
      "type": "function"
    },
    {
      "inputs": [],
      "name": "getAllManufacturers",
      "outputs": [
        {
          "components": [
            {
              "internalType": "enum IUserDetails.userType",
              "name": "userType",
              "type": "uint8"
            },
            {
              "internalType": "bytes",
              "name": "userName",
              "type": "bytes"
            },
            {
              "internalType": "bytes",
              "name": "userPhysicalAddress",
              "type": "bytes"
            },
            {
              "internalType": "bytes",
              "name": "userImage",
              "type": "bytes"
            },
            {
              "internalType": "bool",
              "name": "userStatus",
              "type": "bool"
            }
          ],
          "internalType": "struct IUserDetails.userDetails[]",
          "name": "",
          "type": "tuple[]"
        }
      ],
      "stateMutability": "view",
      "type": "function"
    },
    {
      "inputs": [],
      "name": "getAllSuppliers",
      "outputs": [
        {
          "components": [
            {
              "internalType": "enum IUserDetails.userType",
              "name": "userType",
              "type": "uint8"
            },
            {
              "internalType": "bytes",
              "name": "userName",
              "type": "bytes"
            },
            {
              "internalType": "bytes",
              "name": "userPhysicalAddress",
              "type": "bytes"
            },
            {
              "internalType": "bytes",
              "name": "userImage",
              "type": "bytes"
            },
            {
              "internalType": "bool",
              "name": "userStatus",
              "type": "bool"
            }
          ],
          "internalType": "struct IUserDetails.userDetails[]",
          "name": "",
          "type": "tuple[]"
        }
      ],
      "stateMutability": "view",
      "type": "function"
    },
    {
      "inputs": [],
      "name": "getAllUsers",
      "outputs": [
        {
          "components": [
            {
              "internalType": "enum IUserDetails.userType",
              "name": "userType",
              "type": "uint8"
            },
            {
              "internalType": "bytes",
              "name": "userName",
              "type": "bytes"
            },
            {
              "internalType": "bytes",
              "name": "userPhysicalAddress",
              "type": "bytes"
            },
            {
              "internalType": "bytes",
              "name": "userImage",
              "type": "bytes"
            },
            {
              "internalType": "bool",
              "name": "userStatus",
              "type": "bool"
            }
          ],
          "internalType": "struct IUserDetails.userDetails[]",
          "name": "",
          "type": "tuple[]"
        }
      ],
      "stateMutability": "view",
      "type": "function"
    },
    {
      "inputs": [
        {
          "internalType": "address",
          "name": "_address",
          "type": "address"
        }
      ],
      "name": "getSingleUser",
      "outputs": [
        {
          "components": [
            {
              "internalType": "enum IUserDetails.userType",
              "name": "userType",
              "type": "uint8"
            },
            {
              "internalType": "bytes",
              "name": "userName",
              "type": "bytes"
            },
            {
              "internalType": "bytes",
              "name": "userPhysicalAddress",
              "type": "bytes"
            },
            {
              "internalType": "bytes",
              "name": "userImage",
              "type": "bytes"
            },
            {
              "internalType": "bool",
              "name": "userStatus",
              "type": "bool"
            }
          ],
          "internalType": "struct IUserDetails.userDetails",
          "name": "",
          "type": "tuple"
        }
      ],
      "stateMutability": "view",
      "type": "function"
    },
    {
      "inputs": [
        {
          "internalType": "uint256",
          "name": "",
          "type": "uint256"
        }
      ],
      "name": "manufacturers",
      "outputs": [
        {
          "internalType": "address",
          "name": "",
          "type": "address"
        }
      ],
      "stateMutability": "view",
      "type": "function"
    },
    {
      "inputs": [
        {
          "internalType": "uint256",
          "name": "",
          "type": "uint256"
        }
      ],
      "name": "suppliers",
      "outputs": [
        {
          "internalType": "address",
          "name": "",
          "type": "address"
        }
      ],
      "stateMutability": "view",
      "type": "function"
    },
    {
      "inputs": [
        {
          "internalType": "address",
          "name": "",
          "type": "address"
        }
      ],
      "name": "userDetailsMapping",
      "outputs": [
        {
          "internalType": "enum IUserDetails.userType",
          "name": "userType",
          "type": "uint8"
        },
        {
          "internalType": "bytes",
          "name": "userName",
          "type": "bytes"
        },
        {
          "internalType": "bytes",
          "name": "userPhysicalAddress",
          "type": "bytes"
        },
        {
          "internalType": "bytes",
          "name": "userImage",
          "type": "bytes"
        },
        {
          "internalType": "bool",
          "name": "userStatus",
          "type": "bool"
        }
      ],
      "stateMutability": "view",
      "type": "function"
    },
    {
      "inputs": [
        {
          "internalType": "uint256",
          "name": "",
          "type": "uint256"
        }
      ],
      "name": "users",
      "outputs": [
        {
          "internalType": "address",
          "name": "",
          "type": "address"
        }
      ],
      "stateMutability": "view",
      "type": "function"
    }
  ],
  "bytecode": "0x608060405234801561001057600080fd5b50613124806100206000396000f3fe608060405234801561001057600080fd5b50600436106100f55760003560e01c80638e24c34b11610097578063cea2312111610066578063cea2312114610288578063d1bab143146102b8578063ddba07a4146102d4578063e2842d79146102f2576100f5565b80638e24c34b1461020057806390175af11461021e5780639ae7d0081461024e578063b53305dc1461026a576100f5565b8063365b98b2116100d3578063365b98b21461015057806350b492ba146101805780635166608f146101b05780636a26d064146101e4576100f5565b8063026ff05e146100fa5780630c6c92ba146101045780633585254114610120575b600080fd5b610102610310565b005b61011e60048036038101906101199190612545565b6103af565b005b61013a600480360381019061013591906125ec565b6106bd565b60405161014791906127ae565b60405180910390f35b61016a60048036038101906101659190612806565b610921565b6040516101779190612842565b60405180910390f35b61019a60048036038101906101959190612806565b610960565b6040516101a79190612842565b60405180910390f35b6101ca60048036038101906101c591906125ec565b61099f565b6040516101db9594939291906128c5565b60405180910390f35b6101fe60048036038101906101f99190612545565b610b87565b005b610208610e95565b6040516102159190612a73565b60405180910390f35b61023860048036038101906102339190612806565b6111d0565b6040516102459190612842565b60405180910390f35b61026860048036038101906102639190612b1a565b61120f565b005b6102726116aa565b60405161027f9190612a73565b60405180910390f35b6102a2600480360381019061029d9190612806565b6119e5565b6040516102af9190612842565b60405180910390f35b6102d260048036038101906102cd9190612545565b611a24565b005b6102dc611d32565b6040516102e99190612a73565b60405180910390f35b6102fa61206d565b6040516103079190612a73565b60405180910390f35b60008060003373ffffffffffffffffffffffffffffffffffffffff1673ffffffffffffffffffffffffffffffffffffffff16815260200190815260200160002060040160006101000a81548160ff0219169083151502179055503373ffffffffffffffffffffffffffffffffffffffff167f5db32fb34ad07587763cb39a6a4e3e11627af9bb8b3754c2734c1e7c107c0b5b60405160405180910390a2565b806000803373ffffffffffffffffffffffffffffffffffffffff1673ffffffffffffffffffffffffffffffffffffffff16815260200190815260200160002060010190816103fd9190612de9565b5060008060003373ffffffffffffffffffffffffffffffffffffffff1673ffffffffffffffffffffffffffffffffffffffff1681526020019081526020016000206040518060a00160405290816000820160009054906101000a900460ff16600281111561046e5761046d612619565b5b60028111156104805761047f612619565b5b815260200160018201805461049490612c0c565b80601f01602080910402602001604051908101604052809291908181526020018280546104c090612c0c565b801561050d5780601f106104e25761010080835404028352916020019161050d565b820191906000526020600020905b8154815290600101906020018083116104f057829003601f168201915b5050505050815260200160028201805461052690612c0c565b80601f016020809104026020016040519081016040528092919081815260200182805461055290612c0c565b801561059f5780601f106105745761010080835404028352916020019161059f565b820191906000526020600020905b81548152906001019060200180831161058257829003601f168201915b505050505081526020016003820180546105b890612c0c565b80601f01602080910402602001604051908101604052809291908181526020018280546105e490612c0c565b80156106315780601f1061060657610100808354040283529160200191610631565b820191906000526020600020905b81548152906001019060200180831161061457829003601f168201915b505050505081526020016004820160009054906101000a900460ff16151515158152505090503373ffffffffffffffffffffffffffffffffffffffff167fe49f40f57c43bcc0ea51de08718dcc45efb3325fb9d155e76c2a5ab33be2de1682600001518484604001518560600151426040516106b1959493929190612eca565b60405180910390a25050565b6106c56123a8565b6000808373ffffffffffffffffffffffffffffffffffffffff1673ffffffffffffffffffffffffffffffffffffffff1681526020019081526020016000206040518060a00160405290816000820160009054906101000a900460ff16600281111561073357610732612619565b5b600281111561074557610744612619565b5b815260200160018201805461075990612c0c565b80601f016020809104026020016040519081016040528092919081815260200182805461078590612c0c565b80156107d25780601f106107a7576101008083540402835291602001916107d2565b820191906000526020600020905b8154815290600101906020018083116107b557829003601f168201915b505050505081526020016002820180546107eb90612c0c565b80601f016020809104026020016040519081016040528092919081815260200182805461081790612c0c565b80156108645780601f1061083957610100808354040283529160200191610864565b820191906000526020600020905b81548152906001019060200180831161084757829003601f168201915b5050505050815260200160038201805461087d90612c0c565b80601f01602080910402602001604051908101604052809291908181526020018280546108a990612c0c565b80156108f65780601f106108cb576101008083540402835291602001916108f6565b820191906000526020600020905b8154815290600101906020018083116108d957829003601f168201915b505050505081526020016004820160009054906101000a900460ff1615151515815250509050919050565b6001818154811061093157600080fd5b906000526020600020016000915054906101000a900473ffffffffffffffffffffffffffffffffffffffff1681565b6004818154811061097057600080fd5b906000526020600020016000915054906101000a900473ffffffffffffffffffffffffffffffffffffffff1681565b60006020528060005260406000206000915090508060000160009054906101000a900460ff16908060010180546109d590612c0c565b80601f0160208091040260200160405190810160405280929190818152602001828054610a0190612c0c565b8015610a4e5780601f10610a2357610100808354040283529160200191610a4e565b820191906000526020600020905b815481529060010190602001808311610a3157829003601f168201915b505050505090806002018054610a6390612c0c565b80601f0160208091040260200160405190810160405280929190818152602001828054610a8f90612c0c565b8015610adc5780601f10610ab157610100808354040283529160200191610adc565b820191906000526020600020905b815481529060010190602001808311610abf57829003601f168201915b505050505090806003018054610af190612c0c565b80601f0160208091040260200160405190810160405280929190818152602001828054610b1d90612c0c565b8015610b6a5780601f10610b3f57610100808354040283529160200191610b6a565b820191906000526020600020905b815481529060010190602001808311610b4d57829003601f168201915b5050505050908060040160009054906101000a900460ff16905085565b806000803373ffffffffffffffffffffffffffffffffffffffff1673ffffffffffffffffffffffffffffffffffffffff1681526020019081526020016000206002019081610bd59190612de9565b5060008060003373ffffffffffffffffffffffffffffffffffffffff1673ffffffffffffffffffffffffffffffffffffffff1681526020019081526020016000206040518060a00160405290816000820160009054906101000a900460ff166002811115610c4657610c45612619565b5b6002811115610c5857610c57612619565b5b8152602001600182018054610c6c90612c0c565b80601f0160208091040260200160405190810160405280929190818152602001828054610c9890612c0c565b8015610ce55780601f10610cba57610100808354040283529160200191610ce5565b820191906000526020600020905b815481529060010190602001808311610cc857829003601f168201915b50505050508152602001600282018054610cfe90612c0c565b80601f0160208091040260200160405190810160405280929190818152602001828054610d2a90612c0c565b8015610d775780601f10610d4c57610100808354040283529160200191610d77565b820191906000526020600020905b815481529060010190602001808311610d5a57829003601f168201915b50505050508152602001600382018054610d9090612c0c565b80601f0160208091040260200160405190810160405280929190818152602001828054610dbc90612c0c565b8015610e095780601f10610dde57610100808354040283529160200191610e09565b820191906000526020600020905b815481529060010190602001808311610dec57829003601f168201915b505050505081526020016004820160009054906101000a900460ff16151515158152505090503373ffffffffffffffffffffffffffffffffffffffff167fe49f40f57c43bcc0ea51de08718dcc45efb3325fb9d155e76c2a5ab33be2de168260000151836020015185856060015142604051610e89959493929190612eca565b60405180910390a25050565b6060600060048054905067ffffffffffffffff811115610eb857610eb761241a565b5b604051908082528060200260200182016040528015610ef157816020015b610ede6123a8565b815260200190600190039081610ed65790505b50905060005b6004805490508110156111c85760008060048381548110610f1b57610f1a612f32565b5b9060005260206000200160009054906101000a900473ffffffffffffffffffffffffffffffffffffffff1673ffffffffffffffffffffffffffffffffffffffff1673ffffffffffffffffffffffffffffffffffffffff1681526020019081526020016000206040518060a00160405290816000820160009054906101000a900460ff166002811115610fb057610faf612619565b5b6002811115610fc257610fc1612619565b5b8152602001600182018054610fd690612c0c565b80601f016020809104026020016040519081016040528092919081815260200182805461100290612c0c565b801561104f5780601f106110245761010080835404028352916020019161104f565b820191906000526020600020905b81548152906001019060200180831161103257829003601f168201915b5050505050815260200160028201805461106890612c0c565b80601f016020809104026020016040519081016040528092919081815260200182805461109490612c0c565b80156110e15780601f106110b6576101008083540402835291602001916110e1565b820191906000526020600020905b8154815290600101906020018083116110c457829003601f168201915b505050505081526020016003820180546110fa90612c0c565b80601f016020809104026020016040519081016040528092919081815260200182805461112690612c0c565b80156111735780601f1061114857610100808354040283529160200191611173565b820191906000526020600020905b81548152906001019060200180831161115657829003601f168201915b505050505081526020016004820160009054906101000a900460ff1615151515815250508282815181106111aa576111a9612f32565b5b602002602001018190525080806111c090612f90565b915050610ef7565b508091505090565b600381815481106111e057600080fd5b906000526020600020016000915054906101000a900473ffffffffffffffffffffffffffffffffffffffff1681565b60008060003373ffffffffffffffffffffffffffffffffffffffff1673ffffffffffffffffffffffffffffffffffffffff168152602001908152602001600020600101805461125d90612c0c565b90501461129f576040517f08c379a000000000000000000000000000000000000000000000000000000000815260040161129690613035565b60405180910390fd5b6040518060a001604052808760028111156112bd576112bc612619565b5b815260200186868080601f016020809104026020016040519081016040528093929190818152602001838380828437600081840152601f19601f82011690508083019250505050505050815260200184848080601f016020809104026020016040519081016040528093929190818152602001838380828437600081840152601f19601f820116905080830192505050505050508152602001828152602001600115158152506000803373ffffffffffffffffffffffffffffffffffffffff1673ffffffffffffffffffffffffffffffffffffffff16815260200190815260200160002060008201518160000160006101000a81548160ff021916908360028111156113cc576113cb612619565b5b021790555060208201518160010190816113e69190612de9565b5060408201518160020190816113fc9190612de9565b5060608201518160030190816114129190612de9565b5060808201518160040160006101000a81548160ff0219169083151502179055509050506001339080600181540180825580915050600190039060005260206000200160009091909190916101000a81548173ffffffffffffffffffffffffffffffffffffffff021916908373ffffffffffffffffffffffffffffffffffffffff160217905550600060028111156114ad576114ac612619565b5b8660028111156114c0576114bf612619565b5b03611529576002339080600181540180825580915050600190039060005260206000200160009091909190916101000a81548173ffffffffffffffffffffffffffffffffffffffff021916908373ffffffffffffffffffffffffffffffffffffffff1602179055505b6001600281111561153d5761153c612619565b5b8660028111156115505761154f612619565b5b036115b9576003339080600181540180825580915050600190039060005260206000200160009091909190916101000a81548173ffffffffffffffffffffffffffffffffffffffff021916908373ffffffffffffffffffffffffffffffffffffffff1602179055505b6002808111156115cc576115cb612619565b5b8660028111156115df576115de612619565b5b03611648576004339080600181540180825580915050600190039060005260206000200160009091909190916101000a81548173ffffffffffffffffffffffffffffffffffffffff021916908373ffffffffffffffffffffffffffffffffffffffff1602179055505b3373ffffffffffffffffffffffffffffffffffffffff167fe49f40f57c43bcc0ea51de08718dcc45efb3325fb9d155e76c2a5ab33be2de168787878787874260405161169a9796959493929190613082565b60405180910390a2505050505050565b6060600060028054905067ffffffffffffffff8111156116cd576116cc61241a565b5b60405190808252806020026020018201604052801561170657816020015b6116f36123a8565b8152602001906001900390816116eb5790505b50905060005b6002805490508110156119dd57600080600283815481106117305761172f612f32565b5b9060005260206000200160009054906101000a900473ffffffffffffffffffffffffffffffffffffffff1673ffffffffffffffffffffffffffffffffffffffff1673ffffffffffffffffffffffffffffffffffffffff1681526020019081526020016000206040518060a00160405290816000820160009054906101000a900460ff1660028111156117c5576117c4612619565b5b60028111156117d7576117d6612619565b5b81526020016001820180546117eb90612c0c565b80601f016020809104026020016040519081016040528092919081815260200182805461181790612c0c565b80156118645780601f1061183957610100808354040283529160200191611864565b820191906000526020600020905b81548152906001019060200180831161184757829003601f168201915b5050505050815260200160028201805461187d90612c0c565b80601f01602080910402602001604051908101604052809291908181526020018280546118a990612c0c565b80156118f65780601f106118cb576101008083540402835291602001916118f6565b820191906000526020600020905b8154815290600101906020018083116118d957829003601f168201915b5050505050815260200160038201805461190f90612c0c565b80601f016020809104026020016040519081016040528092919081815260200182805461193b90612c0c565b80156119885780601f1061195d57610100808354040283529160200191611988565b820191906000526020600020905b81548152906001019060200180831161196b57829003601f168201915b505050505081526020016004820160009054906101000a900460ff1615151515815250508282815181106119bf576119be612f32565b5b602002602001018190525080806119d590612f90565b91505061170c565b508091505090565b600281815481106119f557600080fd5b906000526020600020016000915054906101000a900473ffffffffffffffffffffffffffffffffffffffff1681565b806000803373ffffffffffffffffffffffffffffffffffffffff1673ffffffffffffffffffffffffffffffffffffffff1681526020019081526020016000206003019081611a729190612de9565b5060008060003373ffffffffffffffffffffffffffffffffffffffff1673ffffffffffffffffffffffffffffffffffffffff1681526020019081526020016000206040518060a00160405290816000820160009054906101000a900460ff166002811115611ae357611ae2612619565b5b6002811115611af557611af4612619565b5b8152602001600182018054611b0990612c0c565b80601f0160208091040260200160405190810160405280929190818152602001828054611b3590612c0c565b8015611b825780601f10611b5757610100808354040283529160200191611b82565b820191906000526020600020905b815481529060010190602001808311611b6557829003601f168201915b50505050508152602001600282018054611b9b90612c0c565b80601f0160208091040260200160405190810160405280929190818152602001828054611bc790612c0c565b8015611c145780601f10611be957610100808354040283529160200191611c14565b820191906000526020600020905b815481529060010190602001808311611bf757829003601f168201915b50505050508152602001600382018054611c2d90612c0c565b80601f0160208091040260200160405190810160405280929190818152602001828054611c5990612c0c565b8015611ca65780601f10611c7b57610100808354040283529160200191611ca6565b820191906000526020600020905b815481529060010190602001808311611c8957829003601f168201915b505050505081526020016004820160009054906101000a900460ff16151515158152505090503373ffffffffffffffffffffffffffffffffffffffff167fe49f40f57c43bcc0ea51de08718dcc45efb3325fb9d155e76c2a5ab33be2de168260000151836020015184606001518642604051611d26959493929190612eca565b60405180910390a25050565b6060600060038054905067ffffffffffffffff811115611d5557611d5461241a565b5b604051908082528060200260200182016040528015611d8e57816020015b611d7b6123a8565b815260200190600190039081611d735790505b50905060005b6003805490508110156120655760008060038381548110611db857611db7612f32565b5b9060005260206000200160009054906101000a900473ffffffffffffffffffffffffffffffffffffffff1673ffffffffffffffffffffffffffffffffffffffff1673ffffffffffffffffffffffffffffffffffffffff1681526020019081526020016000206040518060a00160405290816000820160009054906101000a900460ff166002811115611e4d57611e4c612619565b5b6002811115611e5f57611e5e612619565b5b8152602001600182018054611e7390612c0c565b80601f0160208091040260200160405190810160405280929190818152602001828054611e9f90612c0c565b8015611eec5780601f10611ec157610100808354040283529160200191611eec565b820191906000526020600020905b815481529060010190602001808311611ecf57829003601f168201915b50505050508152602001600282018054611f0590612c0c565b80601f0160208091040260200160405190810160405280929190818152602001828054611f3190612c0c565b8015611f7e5780601f10611f5357610100808354040283529160200191611f7e565b820191906000526020600020905b815481529060010190602001808311611f6157829003601f168201915b50505050508152602001600382018054611f9790612c0c565b80601f0160208091040260200160405190810160405280929190818152602001828054611fc390612c0c565b80156120105780601f10611fe557610100808354040283529160200191612010565b820191906000526020600020905b815481529060010190602001808311611ff357829003601f168201915b505050505081526020016004820160009054906101000a900460ff16151515158152505082828151811061204757612046612f32565b5b6020026020010181905250808061205d90612f90565b915050611d94565b508091505090565b6060600060018054905067ffffffffffffffff8111156120905761208f61241a565b5b6040519080825280602002602001820160405280156120c957816020015b6120b66123a8565b8152602001906001900390816120ae5790505b50905060005b6001805490508110156123a057600080600183815481106120f3576120f2612f32565b5b9060005260206000200160009054906101000a900473ffffffffffffffffffffffffffffffffffffffff1673ffffffffffffffffffffffffffffffffffffffff1673ffffffffffffffffffffffffffffffffffffffff1681526020019081526020016000206040518060a00160405290816000820160009054906101000a900460ff16600281111561218857612187612619565b5b600281111561219a57612199612619565b5b81526020016001820180546121ae90612c0c565b80601f01602080910402602001604051908101604052809291908181526020018280546121da90612c0c565b80156122275780601f106121fc57610100808354040283529160200191612227565b820191906000526020600020905b81548152906001019060200180831161220a57829003601f168201915b5050505050815260200160028201805461224090612c0c565b80601f016020809104026020016040519081016040528092919081815260200182805461226c90612c0c565b80156122b95780601f1061228e576101008083540402835291602001916122b9565b820191906000526020600020905b81548152906001019060200180831161229c57829003601f168201915b505050505081526020016003820180546122d290612c0c565b80601f01602080910402602001604051908101604052809291908181526020018280546122fe90612c0c565b801561234b5780601f106123205761010080835404028352916020019161234b565b820191906000526020600020905b81548152906001019060200180831161232e57829003601f168201915b505050505081526020016004820160009054906101000a900460ff16151515158152505082828151811061238257612381612f32565b5b6020026020010181905250808061239890612f90565b9150506120cf565b508091505090565b6040518060a00160405280600060028111156123c7576123c6612619565b5b81526020016060815260200160608152602001606081526020016000151581525090565b6000604051905090565b600080fd5b600080fd5b600080fd5b600080fd5b6000601f19601f8301169050919050565b7f4e487b7100000000000000000000000000000000000000000000000000000000600052604160045260246000fd5b61245282612409565b810181811067ffffffffffffffff821117156124715761247061241a565b5b80604052505050565b60006124846123eb565b90506124908282612449565b919050565b600067ffffffffffffffff8211156124b0576124af61241a565b5b6124b982612409565b9050602081019050919050565b82818337600083830152505050565b60006124e86124e384612495565b61247a565b90508281526020810184848401111561250457612503612404565b5b61250f8482856124c6565b509392505050565b600082601f83011261252c5761252b6123ff565b5b813561253c8482602086016124d5565b91505092915050565b60006020828403121561255b5761255a6123f5565b5b600082013567ffffffffffffffff811115612579576125786123fa565b5b61258584828501612517565b91505092915050565b600073ffffffffffffffffffffffffffffffffffffffff82169050919050565b60006125b98261258e565b9050919050565b6125c9816125ae565b81146125d457600080fd5b50565b6000813590506125e6816125c0565b92915050565b600060208284031215612602576126016123f5565b5b6000612610848285016125d7565b91505092915050565b7f4e487b7100000000000000000000000000000000000000000000000000000000600052602160045260246000fd5b6003811061265957612658612619565b5b50565b600081905061266a82612648565b919050565b600061267a8261265c565b9050919050565b61268a8161266f565b82525050565b600081519050919050565b600082825260208201905092915050565b60005b838110156126ca5780820151818401526020810190506126af565b60008484015250505050565b60006126e182612690565b6126eb818561269b565b93506126fb8185602086016126ac565b61270481612409565b840191505092915050565b60008115159050919050565b6127248161270f565b82525050565b600060a0830160008301516127426000860182612681565b506020830151848203602086015261275a82826126d6565b9150506040830151848203604086015261277482826126d6565b9150506060830151848203606086015261278e82826126d6565b91505060808301516127a3608086018261271b565b508091505092915050565b600060208201905081810360008301526127c8818461272a565b905092915050565b6000819050919050565b6127e3816127d0565b81146127ee57600080fd5b50565b600081359050612800816127da565b92915050565b60006020828403121561281c5761281b6123f5565b5b600061282a848285016127f1565b91505092915050565b61283c816125ae565b82525050565b60006020820190506128576000830184612833565b92915050565b6128668161266f565b82525050565b600082825260208201905092915050565b600061288882612690565b612892818561286c565b93506128a28185602086016126ac565b6128ab81612409565b840191505092915050565b6128bf8161270f565b82525050565b600060a0820190506128da600083018861285d565b81810360208301526128ec818761287d565b90508181036040830152612900818661287d565b90508181036060830152612914818561287d565b905061292360808301846128b6565b9695505050505050565b600081519050919050565b600082825260208201905092915050565b6000819050602082019050919050565b600060a0830160008301516129716000860182612681565b506020830151848203602086015261298982826126d6565b915050604083015184820360408601526129a382826126d6565b915050606083015184820360608601526129bd82826126d6565b91505060808301516129d2608086018261271b565b508091505092915050565b60006129e98383612959565b905092915050565b6000602082019050919050565b6000612a098261292d565b612a138185612938565b935083602082028501612a2585612949565b8060005b85811015612a615784840389528151612a4285826129dd565b9450612a4d836129f1565b925060208a01995050600181019050612a29565b50829750879550505050505092915050565b60006020820190508181036000830152612a8d81846129fe565b905092915050565b60038110612aa257600080fd5b50565b600081359050612ab481612a95565b92915050565b600080fd5b600080fd5b60008083601f840112612ada57612ad96123ff565b5b8235905067ffffffffffffffff811115612af757612af6612aba565b5b602083019150836001820283011115612b1357612b12612abf565b5b9250929050565b60008060008060008060808789031215612b3757612b366123f5565b5b6000612b4589828a01612aa5565b965050602087013567ffffffffffffffff811115612b6657612b656123fa565b5b612b7289828a01612ac4565b9550955050604087013567ffffffffffffffff811115612b9557612b946123fa565b5b612ba189828a01612ac4565b9350935050606087013567ffffffffffffffff811115612bc457612bc36123fa565b5b612bd089828a01612517565b9150509295509295509295565b7f4e487b7100000000000000000000000000000000000000000000000000000000600052602260045260246000fd5b60006002820490506001821680612c2457607f821691505b602082108103612c3757612c36612bdd565b5b50919050565b60008190508160005260206000209050919050565b60006020601f8301049050919050565b600082821b905092915050565b600060088302612c9f7fffffffffffffffffffffffffffffffffffffffffffffffffffffffffffffffff82612c62565b612ca98683612c62565b95508019841693508086168417925050509392505050565b6000819050919050565b6000612ce6612ce1612cdc846127d0565b612cc1565b6127d0565b9050919050565b6000819050919050565b612d0083612ccb565b612d14612d0c82612ced565b848454612c6f565b825550505050565b600090565b612d29612d1c565b612d34818484612cf7565b505050565b5b81811015612d5857612d4d600082612d21565b600181019050612d3a565b5050565b601f821115612d9d57612d6e81612c3d565b612d7784612c52565b81016020851015612d86578190505b612d9a612d9285612c52565b830182612d39565b50505b505050565b600082821c905092915050565b6000612dc060001984600802612da2565b1980831691505092915050565b6000612dd98383612daf565b9150826002028217905092915050565b612df282612690565b67ffffffffffffffff811115612e0b57612e0a61241a565b5b612e158254612c0c565b612e20828285612d5c565b600060209050601f831160018114612e535760008415612e41578287015190505b612e4b8582612dcd565b865550612eb3565b601f198416612e6186612c3d565b60005b82811015612e8957848901518255600182019150602085019450602081019050612e64565b86831015612ea65784890151612ea2601f891682612daf565b8355505b6001600288020188555050505b505050505050565b612ec4816127d0565b82525050565b600060a082019050612edf600083018861285d565b8181036020830152612ef1818761287d565b90508181036040830152612f05818661287d565b90508181036060830152612f19818561287d565b9050612f286080830184612ebb565b9695505050505050565b7f4e487b7100000000000000000000000000000000000000000000000000000000600052603260045260246000fd5b7f4e487b7100000000000000000000000000000000000000000000000000000000600052601160045260246000fd5b6000612f9b826127d0565b91507fffffffffffffffffffffffffffffffffffffffffffffffffffffffffffffffff8203612fcd57612fcc612f61565b5b600182019050919050565b600082825260208201905092915050565b7f5573657220616c72656164792072656769737465726564000000000000000000600082015250565b600061301f601783612fd8565b915061302a82612fe9565b602082019050919050565b6000602082019050818103600083015261304e81613012565b9050919050565b6000613061838561286c565b935061306e8385846124c6565b61307783612409565b840190509392505050565b600060a082019050613097600083018a61285d565b81810360208301526130aa81888a613055565b905081810360408301526130bf818688613055565b905081810360608301526130d3818561287d565b90506130e26080830184612ebb565b9897505050505050505056fea2646970667358221220c19d2b64975b68ae9d372e28385631610cbe5bb13fb301db3cf07e7996bf147564736f6c63430008120033",
  "linkReferences": {},
  "deployedLinkReferences": {}
}