{
  "_format": "hh-sol-artifact-1",
  "contractName": "userDetails",
  "sourceName": "contracts/userDetails.sol",
  "abi": [
    {
      "anonymous": false,
      "inputs": [
        {
          "indexed": true,
          "internalType": "address",
          "name": "_address",
          "type": "address"
        }
      ],
      "name": "eventDeleteUser",
      "type": "event"
    },
    {
      "anonymous": false,
      "inputs": [
        {
          "indexed": true,
          "internalType": "address",
          "name": "_address",
          "type": "address"
        },
        {
          "indexed": false,
          "internalType": "enum IUserDetails.userType",
          "name": "_type",
          "type": "uint8"
        },
        {
          "indexed": false,
          "internalType": "bytes",
          "name": "_name",
          "type": "bytes"
        },
        {
          "indexed": false,
          "internalType": "bytes",
          "name": "_physicalAddress",
          "type": "bytes"
        },
        {
          "indexed": false,
          "internalType": "bytes",
          "name": "_image",
          "type": "bytes"
        },
        {
          "indexed": false,
          "internalType": "uint256",
          "name": "_timeUpdated",
          "type": "uint256"
        }
      ],
      "name": "eventUserData",
      "type": "event"
    },
    {
      "inputs": [
        {
          "internalType": "enum IUserDetails.userType",
          "name": "_type",
          "type": "uint8"
        },
        {
          "internalType": "bytes",
          "name": "_name",
          "type": "bytes"
        },
        {
          "internalType": "bytes",
          "name": "_physicalAddress",
          "type": "bytes"
        },
        {
          "internalType": "bytes",
          "name": "_image",
          "type": "bytes"
        }
      ],
      "name": "addUser",
      "outputs": [],
      "stateMutability": "nonpayable",
      "type": "function"
    },
    {
      "inputs": [],
      "name": "deleteUser",
      "outputs": [],
      "stateMutability": "nonpayable",
      "type": "function"
    },
    {
      "inputs": [
        {
          "internalType": "uint256",
          "name": "",
          "type": "uint256"
        }
      ],
      "name": "distributors",
      "outputs": [
        {
          "internalType": "address",
          "name": "",
          "type": "address"
        }
      ],
      "stateMutability": "view",
      "type": "function"
    },
    {
      "inputs": [
        {
          "internalType": "bytes",
          "name": "_image",
          "type": "bytes"
        }
      ],
      "name": "editImage",
      "outputs": [],
      "stateMutability": "nonpayable",
      "type": "function"
    },
    {
      "inputs": [
        {
          "internalType": "bytes",
          "name": "_name",
          "type": "bytes"
        }
      ],
      "name": "editName",
      "outputs": [],
      "stateMutability": "nonpayable",
      "type": "function"
    },
    {
      "inputs": [
        {
          "internalType": "bytes",
          "name": "_physicalAddress",
          "type": "bytes"
        }
      ],
      "name": "editPhysicalAddress",
      "outputs": [],
      "stateMutability": "nonpayable",
      "type": "function"
    },
    {
      "inputs": [],
      "name": "getAllDistributors",
      "outputs": [
        {
          "internalType": "address[]",
          "name": "",
          "type": "address[]"
        },
        {
          "components": [
            {
              "internalType": "enum IUserDetails.userType",
              "name": "userType",
              "type": "uint8"
            },
            {
              "internalType": "bytes",
              "name": "userName",
              "type": "bytes"
            },
            {
              "internalType": "bytes",
              "name": "userPhysicalAddress",
              "type": "bytes"
            },
            {
              "internalType": "bytes",
              "name": "userImage",
              "type": "bytes"
            },
            {
              "internalType": "bool",
              "name": "userStatus",
              "type": "bool"
            }
          ],
          "internalType": "struct IUserDetails.userDetails[]",
          "name": "",
          "type": "tuple[]"
        }
      ],
      "stateMutability": "view",
      "type": "function"
    },
    {
      "inputs": [],
      "name": "getAllManufacturers",
      "outputs": [
        {
          "internalType": "address[]",
          "name": "",
          "type": "address[]"
        },
        {
          "components": [
            {
              "internalType": "enum IUserDetails.userType",
              "name": "userType",
              "type": "uint8"
            },
            {
              "internalType": "bytes",
              "name": "userName",
              "type": "bytes"
            },
            {
              "internalType": "bytes",
              "name": "userPhysicalAddress",
              "type": "bytes"
            },
            {
              "internalType": "bytes",
              "name": "userImage",
              "type": "bytes"
            },
            {
              "internalType": "bool",
              "name": "userStatus",
              "type": "bool"
            }
          ],
          "internalType": "struct IUserDetails.userDetails[]",
          "name": "",
          "type": "tuple[]"
        }
      ],
      "stateMutability": "view",
      "type": "function"
    },
    {
      "inputs": [],
      "name": "getAllSupplierAddresses",
      "outputs": [
        {
          "internalType": "address[]",
          "name": "",
          "type": "address[]"
        }
      ],
      "stateMutability": "view",
      "type": "function"
    },
    {
      "inputs": [],
      "name": "getAllSuppliers",
      "outputs": [
        {
          "internalType": "address[]",
          "name": "",
          "type": "address[]"
        },
        {
          "components": [
            {
              "internalType": "enum IUserDetails.userType",
              "name": "userType",
              "type": "uint8"
            },
            {
              "internalType": "bytes",
              "name": "userName",
              "type": "bytes"
            },
            {
              "internalType": "bytes",
              "name": "userPhysicalAddress",
              "type": "bytes"
            },
            {
              "internalType": "bytes",
              "name": "userImage",
              "type": "bytes"
            },
            {
              "internalType": "bool",
              "name": "userStatus",
              "type": "bool"
            }
          ],
          "internalType": "struct IUserDetails.userDetails[]",
          "name": "",
          "type": "tuple[]"
        }
      ],
      "stateMutability": "view",
      "type": "function"
    },
    {
      "inputs": [],
      "name": "getAllUsers",
      "outputs": [
        {
          "components": [
            {
              "internalType": "enum IUserDetails.userType",
              "name": "userType",
              "type": "uint8"
            },
            {
              "internalType": "bytes",
              "name": "userName",
              "type": "bytes"
            },
            {
              "internalType": "bytes",
              "name": "userPhysicalAddress",
              "type": "bytes"
            },
            {
              "internalType": "bytes",
              "name": "userImage",
              "type": "bytes"
            },
            {
              "internalType": "bool",
              "name": "userStatus",
              "type": "bool"
            }
          ],
          "internalType": "struct IUserDetails.userDetails[]",
          "name": "",
          "type": "tuple[]"
        }
      ],
      "stateMutability": "view",
      "type": "function"
    },
    {
      "inputs": [
        {
          "internalType": "address",
          "name": "_address",
          "type": "address"
        }
      ],
      "name": "getSingleUser",
      "outputs": [
        {
          "components": [
            {
              "internalType": "enum IUserDetails.userType",
              "name": "userType",
              "type": "uint8"
            },
            {
              "internalType": "bytes",
              "name": "userName",
              "type": "bytes"
            },
            {
              "internalType": "bytes",
              "name": "userPhysicalAddress",
              "type": "bytes"
            },
            {
              "internalType": "bytes",
              "name": "userImage",
              "type": "bytes"
            },
            {
              "internalType": "bool",
              "name": "userStatus",
              "type": "bool"
            }
          ],
          "internalType": "struct IUserDetails.userDetails",
          "name": "",
          "type": "tuple"
        }
      ],
      "stateMutability": "view",
      "type": "function"
    },
    {
      "inputs": [
        {
          "internalType": "uint256",
          "name": "",
          "type": "uint256"
        }
      ],
      "name": "manufacturers",
      "outputs": [
        {
          "internalType": "address",
          "name": "",
          "type": "address"
        }
      ],
      "stateMutability": "view",
      "type": "function"
    },
    {
      "inputs": [
        {
          "internalType": "uint256",
          "name": "",
          "type": "uint256"
        }
      ],
      "name": "suppliers",
      "outputs": [
        {
          "internalType": "address",
          "name": "",
          "type": "address"
        }
      ],
      "stateMutability": "view",
      "type": "function"
    },
    {
      "inputs": [
        {
          "internalType": "address",
          "name": "",
          "type": "address"
        }
      ],
      "name": "userDetailsMapping",
      "outputs": [
        {
          "internalType": "enum IUserDetails.userType",
          "name": "userType",
          "type": "uint8"
        },
        {
          "internalType": "bytes",
          "name": "userName",
          "type": "bytes"
        },
        {
          "internalType": "bytes",
          "name": "userPhysicalAddress",
          "type": "bytes"
        },
        {
          "internalType": "bytes",
          "name": "userImage",
          "type": "bytes"
        },
        {
          "internalType": "bool",
          "name": "userStatus",
          "type": "bool"
        }
      ],
      "stateMutability": "view",
      "type": "function"
    },
    {
      "inputs": [
        {
          "internalType": "uint256",
          "name": "",
          "type": "uint256"
        }
      ],
      "name": "users",
      "outputs": [
        {
          "internalType": "address",
          "name": "",
          "type": "address"
        }
      ],
      "stateMutability": "view",
      "type": "function"
    }
  ],
  "bytecode": "0x608060405234801561001057600080fd5b5061350b806100206000396000f3fe608060405234801561001057600080fd5b50600436106101005760003560e01c806390175af111610097578063cea2312111610066578063cea23121146102b3578063d1bab143146102e3578063ddba07a4146102ff578063e2842d791461031e57610100565b806390175af11461022a5780639ae7d0081461025a578063b53305dc14610276578063c7bbd67e1461029557610100565b806350b492ba116100d357806350b492ba1461018b5780635166608f146101bb5780636a26d064146101ef5780638e24c34b1461020b57610100565b8063026ff05e146101055780630c6c92ba1461010f578063358525411461012b578063365b98b21461015b575b600080fd5b61010d61033c565b005b61012960048036038101906101249190612815565b6103db565b005b610145600480360381019061014091906128bc565b6106e9565b6040516101529190612a7e565b60405180910390f35b61017560048036038101906101709190612ad6565b61094d565b6040516101829190612b12565b60405180910390f35b6101a560048036038101906101a09190612ad6565b61098c565b6040516101b29190612b12565b60405180910390f35b6101d560048036038101906101d091906128bc565b6109cb565b6040516101e6959493929190612b95565b60405180910390f35b61020960048036038101906102049190612815565b610bb3565b005b610213610ec1565b604051610221929190612e01565b60405180910390f35b610244600480360381019061023f9190612ad6565b6112ae565b6040516102519190612b12565b60405180910390f35b610274600480360381019061026f9190612ebd565b6112ed565b005b61027e611788565b60405161028c929190612e01565b60405180910390f35b61029d611b75565b6040516102aa9190612f80565b60405180910390f35b6102cd60048036038101906102c89190612ad6565b611c03565b6040516102da9190612b12565b60405180910390f35b6102fd60048036038101906102f89190612815565b611c42565b005b610307611f50565b604051610315929190612e01565b60405180910390f35b61032661233d565b6040516103339190612fa2565b60405180910390f35b60008060003373ffffffffffffffffffffffffffffffffffffffff1673ffffffffffffffffffffffffffffffffffffffff16815260200190815260200160002060040160006101000a81548160ff0219169083151502179055503373ffffffffffffffffffffffffffffffffffffffff167f5db32fb34ad07587763cb39a6a4e3e11627af9bb8b3754c2734c1e7c107c0b5b60405160405180910390a2565b806000803373ffffffffffffffffffffffffffffffffffffffff1673ffffffffffffffffffffffffffffffffffffffff168152602001908152602001600020600101908161042991906131d0565b5060008060003373ffffffffffffffffffffffffffffffffffffffff1673ffffffffffffffffffffffffffffffffffffffff1681526020019081526020016000206040518060a00160405290816000820160009054906101000a900460ff16600281111561049a576104996128e9565b5b60028111156104ac576104ab6128e9565b5b81526020016001820180546104c090612ff3565b80601f01602080910402602001604051908101604052809291908181526020018280546104ec90612ff3565b80156105395780601f1061050e57610100808354040283529160200191610539565b820191906000526020600020905b81548152906001019060200180831161051c57829003601f168201915b5050505050815260200160028201805461055290612ff3565b80601f016020809104026020016040519081016040528092919081815260200182805461057e90612ff3565b80156105cb5780601f106105a0576101008083540402835291602001916105cb565b820191906000526020600020905b8154815290600101906020018083116105ae57829003601f168201915b505050505081526020016003820180546105e490612ff3565b80601f016020809104026020016040519081016040528092919081815260200182805461061090612ff3565b801561065d5780601f106106325761010080835404028352916020019161065d565b820191906000526020600020905b81548152906001019060200180831161064057829003601f168201915b505050505081526020016004820160009054906101000a900460ff16151515158152505090503373ffffffffffffffffffffffffffffffffffffffff167fe49f40f57c43bcc0ea51de08718dcc45efb3325fb9d155e76c2a5ab33be2de1682600001518484604001518560600151426040516106dd9594939291906132b1565b60405180910390a25050565b6106f1612678565b6000808373ffffffffffffffffffffffffffffffffffffffff1673ffffffffffffffffffffffffffffffffffffffff1681526020019081526020016000206040518060a00160405290816000820160009054906101000a900460ff16600281111561075f5761075e6128e9565b5b6002811115610771576107706128e9565b5b815260200160018201805461078590612ff3565b80601f01602080910402602001604051908101604052809291908181526020018280546107b190612ff3565b80156107fe5780601f106107d3576101008083540402835291602001916107fe565b820191906000526020600020905b8154815290600101906020018083116107e157829003601f168201915b5050505050815260200160028201805461081790612ff3565b80601f016020809104026020016040519081016040528092919081815260200182805461084390612ff3565b80156108905780601f1061086557610100808354040283529160200191610890565b820191906000526020600020905b81548152906001019060200180831161087357829003601f168201915b505050505081526020016003820180546108a990612ff3565b80601f01602080910402602001604051908101604052809291908181526020018280546108d590612ff3565b80156109225780601f106108f757610100808354040283529160200191610922565b820191906000526020600020905b81548152906001019060200180831161090557829003601f168201915b505050505081526020016004820160009054906101000a900460ff1615151515815250509050919050565b6001818154811061095d57600080fd5b906000526020600020016000915054906101000a900473ffffffffffffffffffffffffffffffffffffffff1681565b6004818154811061099c57600080fd5b906000526020600020016000915054906101000a900473ffffffffffffffffffffffffffffffffffffffff1681565b60006020528060005260406000206000915090508060000160009054906101000a900460ff1690806001018054610a0190612ff3565b80601f0160208091040260200160405190810160405280929190818152602001828054610a2d90612ff3565b8015610a7a5780601f10610a4f57610100808354040283529160200191610a7a565b820191906000526020600020905b815481529060010190602001808311610a5d57829003601f168201915b505050505090806002018054610a8f90612ff3565b80601f0160208091040260200160405190810160405280929190818152602001828054610abb90612ff3565b8015610b085780601f10610add57610100808354040283529160200191610b08565b820191906000526020600020905b815481529060010190602001808311610aeb57829003601f168201915b505050505090806003018054610b1d90612ff3565b80601f0160208091040260200160405190810160405280929190818152602001828054610b4990612ff3565b8015610b965780601f10610b6b57610100808354040283529160200191610b96565b820191906000526020600020905b815481529060010190602001808311610b7957829003601f168201915b5050505050908060040160009054906101000a900460ff16905085565b806000803373ffffffffffffffffffffffffffffffffffffffff1673ffffffffffffffffffffffffffffffffffffffff1681526020019081526020016000206002019081610c0191906131d0565b5060008060003373ffffffffffffffffffffffffffffffffffffffff1673ffffffffffffffffffffffffffffffffffffffff1681526020019081526020016000206040518060a00160405290816000820160009054906101000a900460ff166002811115610c7257610c716128e9565b5b6002811115610c8457610c836128e9565b5b8152602001600182018054610c9890612ff3565b80601f0160208091040260200160405190810160405280929190818152602001828054610cc490612ff3565b8015610d115780601f10610ce657610100808354040283529160200191610d11565b820191906000526020600020905b815481529060010190602001808311610cf457829003601f168201915b50505050508152602001600282018054610d2a90612ff3565b80601f0160208091040260200160405190810160405280929190818152602001828054610d5690612ff3565b8015610da35780601f10610d7857610100808354040283529160200191610da3565b820191906000526020600020905b815481529060010190602001808311610d8657829003601f168201915b50505050508152602001600382018054610dbc90612ff3565b80601f0160208091040260200160405190810160405280929190818152602001828054610de890612ff3565b8015610e355780601f10610e0a57610100808354040283529160200191610e35565b820191906000526020600020905b815481529060010190602001808311610e1857829003601f168201915b505050505081526020016004820160009054906101000a900460ff16151515158152505090503373ffffffffffffffffffffffffffffffffffffffff167fe49f40f57c43bcc0ea51de08718dcc45efb3325fb9d155e76c2a5ab33be2de168260000151836020015185856060015142604051610eb59594939291906132b1565b60405180910390a25050565b606080600060048054905067ffffffffffffffff811115610ee557610ee46126ea565b5b604051908082528060200260200182016040528015610f135781602001602082028036833780820191505090505b509050600060048054905067ffffffffffffffff811115610f3757610f366126ea565b5b604051908082528060200260200182016040528015610f7057816020015b610f5d612678565b815260200190600190039081610f555790505b50905060005b6004805490508110156112a157600060048281548110610f9957610f98613319565b5b9060005260206000200160009054906101000a900473ffffffffffffffffffffffffffffffffffffffff16905060008060008373ffffffffffffffffffffffffffffffffffffffff1673ffffffffffffffffffffffffffffffffffffffff1681526020019081526020016000206040518060a00160405290816000820160009054906101000a900460ff166002811115611036576110356128e9565b5b6002811115611048576110476128e9565b5b815260200160018201805461105c90612ff3565b80601f016020809104026020016040519081016040528092919081815260200182805461108890612ff3565b80156110d55780601f106110aa576101008083540402835291602001916110d5565b820191906000526020600020905b8154815290600101906020018083116110b857829003601f168201915b505050505081526020016002820180546110ee90612ff3565b80601f016020809104026020016040519081016040528092919081815260200182805461111a90612ff3565b80156111675780601f1061113c57610100808354040283529160200191611167565b820191906000526020600020905b81548152906001019060200180831161114a57829003601f168201915b5050505050815260200160038201805461118090612ff3565b80601f01602080910402602001604051908101604052809291908181526020018280546111ac90612ff3565b80156111f95780601f106111ce576101008083540402835291602001916111f9565b820191906000526020600020905b8154815290600101906020018083116111dc57829003601f168201915b505050505081526020016004820160009054906101000a900460ff16151515158152505090508185848151811061123357611232613319565b5b602002602001019073ffffffffffffffffffffffffffffffffffffffff16908173ffffffffffffffffffffffffffffffffffffffff16815250508084848151811061128157611280613319565b5b60200260200101819052505050808061129990613377565b915050610f76565b5081819350935050509091565b600381815481106112be57600080fd5b906000526020600020016000915054906101000a900473ffffffffffffffffffffffffffffffffffffffff1681565b60008060003373ffffffffffffffffffffffffffffffffffffffff1673ffffffffffffffffffffffffffffffffffffffff168152602001908152602001600020600101805461133b90612ff3565b90501461137d576040517f08c379a00000000000000000000000000000000000000000000000000000000081526004016113749061341c565b60405180910390fd5b6040518060a0016040528087600281111561139b5761139a6128e9565b5b815260200186868080601f016020809104026020016040519081016040528093929190818152602001838380828437600081840152601f19601f82011690508083019250505050505050815260200184848080601f016020809104026020016040519081016040528093929190818152602001838380828437600081840152601f19601f820116905080830192505050505050508152602001828152602001600115158152506000803373ffffffffffffffffffffffffffffffffffffffff1673ffffffffffffffffffffffffffffffffffffffff16815260200190815260200160002060008201518160000160006101000a81548160ff021916908360028111156114aa576114a96128e9565b5b021790555060208201518160010190816114c491906131d0565b5060408201518160020190816114da91906131d0565b5060608201518160030190816114f091906131d0565b5060808201518160040160006101000a81548160ff0219169083151502179055509050506001339080600181540180825580915050600190039060005260206000200160009091909190916101000a81548173ffffffffffffffffffffffffffffffffffffffff021916908373ffffffffffffffffffffffffffffffffffffffff1602179055506000600281111561158b5761158a6128e9565b5b86600281111561159e5761159d6128e9565b5b03611607576002339080600181540180825580915050600190039060005260206000200160009091909190916101000a81548173ffffffffffffffffffffffffffffffffffffffff021916908373ffffffffffffffffffffffffffffffffffffffff1602179055505b6001600281111561161b5761161a6128e9565b5b86600281111561162e5761162d6128e9565b5b03611697576003339080600181540180825580915050600190039060005260206000200160009091909190916101000a81548173ffffffffffffffffffffffffffffffffffffffff021916908373ffffffffffffffffffffffffffffffffffffffff1602179055505b6002808111156116aa576116a96128e9565b5b8660028111156116bd576116bc6128e9565b5b03611726576004339080600181540180825580915050600190039060005260206000200160009091909190916101000a81548173ffffffffffffffffffffffffffffffffffffffff021916908373ffffffffffffffffffffffffffffffffffffffff1602179055505b3373ffffffffffffffffffffffffffffffffffffffff167fe49f40f57c43bcc0ea51de08718dcc45efb3325fb9d155e76c2a5ab33be2de16878787878787426040516117789796959493929190613469565b60405180910390a2505050505050565b606080600060028054905067ffffffffffffffff8111156117ac576117ab6126ea565b5b6040519080825280602002602001820160405280156117da5781602001602082028036833780820191505090505b509050600060028054905067ffffffffffffffff8111156117fe576117fd6126ea565b5b60405190808252806020026020018201604052801561183757816020015b611824612678565b81526020019060019003908161181c5790505b50905060005b600280549050811015611b68576000600282815481106118605761185f613319565b5b9060005260206000200160009054906101000a900473ffffffffffffffffffffffffffffffffffffffff16905060008060008373ffffffffffffffffffffffffffffffffffffffff1673ffffffffffffffffffffffffffffffffffffffff1681526020019081526020016000206040518060a00160405290816000820160009054906101000a900460ff1660028111156118fd576118fc6128e9565b5b600281111561190f5761190e6128e9565b5b815260200160018201805461192390612ff3565b80601f016020809104026020016040519081016040528092919081815260200182805461194f90612ff3565b801561199c5780601f106119715761010080835404028352916020019161199c565b820191906000526020600020905b81548152906001019060200180831161197f57829003601f168201915b505050505081526020016002820180546119b590612ff3565b80601f01602080910402602001604051908101604052809291908181526020018280546119e190612ff3565b8015611a2e5780601f10611a0357610100808354040283529160200191611a2e565b820191906000526020600020905b815481529060010190602001808311611a1157829003601f168201915b50505050508152602001600382018054611a4790612ff3565b80601f0160208091040260200160405190810160405280929190818152602001828054611a7390612ff3565b8015611ac05780601f10611a9557610100808354040283529160200191611ac0565b820191906000526020600020905b815481529060010190602001808311611aa357829003601f168201915b505050505081526020016004820160009054906101000a900460ff161515151581525050905081858481518110611afa57611af9613319565b5b602002602001019073ffffffffffffffffffffffffffffffffffffffff16908173ffffffffffffffffffffffffffffffffffffffff168152505080848481518110611b4857611b47613319565b5b602002602001018190525050508080611b6090613377565b91505061183d565b5081819350935050509091565b60606002805480602002602001604051908101604052809291908181526020018280548015611bf957602002820191906000526020600020905b8160009054906101000a900473ffffffffffffffffffffffffffffffffffffffff1673ffffffffffffffffffffffffffffffffffffffff1681526020019060010190808311611baf575b5050505050905090565b60028181548110611c1357600080fd5b906000526020600020016000915054906101000a900473ffffffffffffffffffffffffffffffffffffffff1681565b806000803373ffffffffffffffffffffffffffffffffffffffff1673ffffffffffffffffffffffffffffffffffffffff1681526020019081526020016000206003019081611c9091906131d0565b5060008060003373ffffffffffffffffffffffffffffffffffffffff1673ffffffffffffffffffffffffffffffffffffffff1681526020019081526020016000206040518060a00160405290816000820160009054906101000a900460ff166002811115611d0157611d006128e9565b5b6002811115611d1357611d126128e9565b5b8152602001600182018054611d2790612ff3565b80601f0160208091040260200160405190810160405280929190818152602001828054611d5390612ff3565b8015611da05780601f10611d7557610100808354040283529160200191611da0565b820191906000526020600020905b815481529060010190602001808311611d8357829003601f168201915b50505050508152602001600282018054611db990612ff3565b80601f0160208091040260200160405190810160405280929190818152602001828054611de590612ff3565b8015611e325780601f10611e0757610100808354040283529160200191611e32565b820191906000526020600020905b815481529060010190602001808311611e1557829003601f168201915b50505050508152602001600382018054611e4b90612ff3565b80601f0160208091040260200160405190810160405280929190818152602001828054611e7790612ff3565b8015611ec45780601f10611e9957610100808354040283529160200191611ec4565b820191906000526020600020905b815481529060010190602001808311611ea757829003601f168201915b505050505081526020016004820160009054906101000a900460ff16151515158152505090503373ffffffffffffffffffffffffffffffffffffffff167fe49f40f57c43bcc0ea51de08718dcc45efb3325fb9d155e76c2a5ab33be2de168260000151836020015184606001518642604051611f449594939291906132b1565b60405180910390a25050565b606080600060038054905067ffffffffffffffff811115611f7457611f736126ea565b5b604051908082528060200260200182016040528015611fa25781602001602082028036833780820191505090505b509050600060038054905067ffffffffffffffff811115611fc657611fc56126ea565b5b604051908082528060200260200182016040528015611fff57816020015b611fec612678565b815260200190600190039081611fe45790505b50905060005b6003805490508110156123305760006003828154811061202857612027613319565b5b9060005260206000200160009054906101000a900473ffffffffffffffffffffffffffffffffffffffff16905060008060008373ffffffffffffffffffffffffffffffffffffffff1673ffffffffffffffffffffffffffffffffffffffff1681526020019081526020016000206040518060a00160405290816000820160009054906101000a900460ff1660028111156120c5576120c46128e9565b5b60028111156120d7576120d66128e9565b5b81526020016001820180546120eb90612ff3565b80601f016020809104026020016040519081016040528092919081815260200182805461211790612ff3565b80156121645780601f1061213957610100808354040283529160200191612164565b820191906000526020600020905b81548152906001019060200180831161214757829003601f168201915b5050505050815260200160028201805461217d90612ff3565b80601f01602080910402602001604051908101604052809291908181526020018280546121a990612ff3565b80156121f65780601f106121cb576101008083540402835291602001916121f6565b820191906000526020600020905b8154815290600101906020018083116121d957829003601f168201915b5050505050815260200160038201805461220f90612ff3565b80601f016020809104026020016040519081016040528092919081815260200182805461223b90612ff3565b80156122885780601f1061225d57610100808354040283529160200191612288565b820191906000526020600020905b81548152906001019060200180831161226b57829003601f168201915b505050505081526020016004820160009054906101000a900460ff1615151515815250509050818584815181106122c2576122c1613319565b5b602002602001019073ffffffffffffffffffffffffffffffffffffffff16908173ffffffffffffffffffffffffffffffffffffffff1681525050808484815181106123105761230f613319565b5b60200260200101819052505050808061232890613377565b915050612005565b5081819350935050509091565b6060600060018054905067ffffffffffffffff8111156123605761235f6126ea565b5b60405190808252806020026020018201604052801561239957816020015b612386612678565b81526020019060019003908161237e5790505b50905060005b60018054905081101561267057600080600183815481106123c3576123c2613319565b5b9060005260206000200160009054906101000a900473ffffffffffffffffffffffffffffffffffffffff1673ffffffffffffffffffffffffffffffffffffffff1673ffffffffffffffffffffffffffffffffffffffff1681526020019081526020016000206040518060a00160405290816000820160009054906101000a900460ff166002811115612458576124576128e9565b5b600281111561246a576124696128e9565b5b815260200160018201805461247e90612ff3565b80601f01602080910402602001604051908101604052809291908181526020018280546124aa90612ff3565b80156124f75780601f106124cc576101008083540402835291602001916124f7565b820191906000526020600020905b8154815290600101906020018083116124da57829003601f168201915b5050505050815260200160028201805461251090612ff3565b80601f016020809104026020016040519081016040528092919081815260200182805461253c90612ff3565b80156125895780601f1061255e57610100808354040283529160200191612589565b820191906000526020600020905b81548152906001019060200180831161256c57829003601f168201915b505050505081526020016003820180546125a290612ff3565b80601f01602080910402602001604051908101604052809291908181526020018280546125ce90612ff3565b801561261b5780601f106125f05761010080835404028352916020019161261b565b820191906000526020600020905b8154815290600101906020018083116125fe57829003601f168201915b505050505081526020016004820160009054906101000a900460ff16151515158152505082828151811061265257612651613319565b5b6020026020010181905250808061266890613377565b91505061239f565b508091505090565b6040518060a0016040528060006002811115612697576126966128e9565b5b81526020016060815260200160608152602001606081526020016000151581525090565b6000604051905090565b600080fd5b600080fd5b600080fd5b600080fd5b6000601f19601f8301169050919050565b7f4e487b7100000000000000000000000000000000000000000000000000000000600052604160045260246000fd5b612722826126d9565b810181811067ffffffffffffffff82111715612741576127406126ea565b5b80604052505050565b60006127546126bb565b90506127608282612719565b919050565b600067ffffffffffffffff8211156127805761277f6126ea565b5b612789826126d9565b9050602081019050919050565b82818337600083830152505050565b60006127b86127b384612765565b61274a565b9050828152602081018484840111156127d4576127d36126d4565b5b6127df848285612796565b509392505050565b600082601f8301126127fc576127fb6126cf565b5b813561280c8482602086016127a5565b91505092915050565b60006020828403121561282b5761282a6126c5565b5b600082013567ffffffffffffffff811115612849576128486126ca565b5b612855848285016127e7565b91505092915050565b600073ffffffffffffffffffffffffffffffffffffffff82169050919050565b60006128898261285e565b9050919050565b6128998161287e565b81146128a457600080fd5b50565b6000813590506128b681612890565b92915050565b6000602082840312156128d2576128d16126c5565b5b60006128e0848285016128a7565b91505092915050565b7f4e487b7100000000000000000000000000000000000000000000000000000000600052602160045260246000fd5b60038110612929576129286128e9565b5b50565b600081905061293a82612918565b919050565b600061294a8261292c565b9050919050565b61295a8161293f565b82525050565b600081519050919050565b600082825260208201905092915050565b60005b8381101561299a57808201518184015260208101905061297f565b60008484015250505050565b60006129b182612960565b6129bb818561296b565b93506129cb81856020860161297c565b6129d4816126d9565b840191505092915050565b60008115159050919050565b6129f4816129df565b82525050565b600060a083016000830151612a126000860182612951565b5060208301518482036020860152612a2a82826129a6565b91505060408301518482036040860152612a4482826129a6565b91505060608301518482036060860152612a5e82826129a6565b9150506080830151612a7360808601826129eb565b508091505092915050565b60006020820190508181036000830152612a9881846129fa565b905092915050565b6000819050919050565b612ab381612aa0565b8114612abe57600080fd5b50565b600081359050612ad081612aaa565b92915050565b600060208284031215612aec57612aeb6126c5565b5b6000612afa84828501612ac1565b91505092915050565b612b0c8161287e565b82525050565b6000602082019050612b276000830184612b03565b92915050565b612b368161293f565b82525050565b600082825260208201905092915050565b6000612b5882612960565b612b628185612b3c565b9350612b7281856020860161297c565b612b7b816126d9565b840191505092915050565b612b8f816129df565b82525050565b600060a082019050612baa6000830188612b2d565b8181036020830152612bbc8187612b4d565b90508181036040830152612bd08186612b4d565b90508181036060830152612be48185612b4d565b9050612bf36080830184612b86565b9695505050505050565b600081519050919050565b600082825260208201905092915050565b6000819050602082019050919050565b612c328161287e565b82525050565b6000612c448383612c29565b60208301905092915050565b6000602082019050919050565b6000612c6882612bfd565b612c728185612c08565b9350612c7d83612c19565b8060005b83811015612cae578151612c958882612c38565b9750612ca083612c50565b925050600181019050612c81565b5085935050505092915050565b600081519050919050565b600082825260208201905092915050565b6000819050602082019050919050565b600060a083016000830151612cff6000860182612951565b5060208301518482036020860152612d1782826129a6565b91505060408301518482036040860152612d3182826129a6565b91505060608301518482036060860152612d4b82826129a6565b9150506080830151612d6060808601826129eb565b508091505092915050565b6000612d778383612ce7565b905092915050565b6000602082019050919050565b6000612d9782612cbb565b612da18185612cc6565b935083602082028501612db385612cd7565b8060005b85811015612def5784840389528151612dd08582612d6b565b9450612ddb83612d7f565b925060208a01995050600181019050612db7565b50829750879550505050505092915050565b60006040820190508181036000830152612e1b8185612c5d565b90508181036020830152612e2f8184612d8c565b90509392505050565b60038110612e4557600080fd5b50565b600081359050612e5781612e38565b92915050565b600080fd5b600080fd5b60008083601f840112612e7d57612e7c6126cf565b5b8235905067ffffffffffffffff811115612e9a57612e99612e5d565b5b602083019150836001820283011115612eb657612eb5612e62565b5b9250929050565b60008060008060008060808789031215612eda57612ed96126c5565b5b6000612ee889828a01612e48565b965050602087013567ffffffffffffffff811115612f0957612f086126ca565b5b612f1589828a01612e67565b9550955050604087013567ffffffffffffffff811115612f3857612f376126ca565b5b612f4489828a01612e67565b9350935050606087013567ffffffffffffffff811115612f6757612f666126ca565b5b612f7389828a016127e7565b9150509295509295509295565b60006020820190508181036000830152612f9a8184612c5d565b905092915050565b60006020820190508181036000830152612fbc8184612d8c565b905092915050565b7f4e487b7100000000000000000000000000000000000000000000000000000000600052602260045260246000fd5b6000600282049050600182168061300b57607f821691505b60208210810361301e5761301d612fc4565b5b50919050565b60008190508160005260206000209050919050565b60006020601f8301049050919050565b600082821b905092915050565b6000600883026130867fffffffffffffffffffffffffffffffffffffffffffffffffffffffffffffffff82613049565b6130908683613049565b95508019841693508086168417925050509392505050565b6000819050919050565b60006130cd6130c86130c384612aa0565b6130a8565b612aa0565b9050919050565b6000819050919050565b6130e7836130b2565b6130fb6130f3826130d4565b848454613056565b825550505050565b600090565b613110613103565b61311b8184846130de565b505050565b5b8181101561313f57613134600082613108565b600181019050613121565b5050565b601f8211156131845761315581613024565b61315e84613039565b8101602085101561316d578190505b61318161317985613039565b830182613120565b50505b505050565b600082821c905092915050565b60006131a760001984600802613189565b1980831691505092915050565b60006131c08383613196565b9150826002028217905092915050565b6131d982612960565b67ffffffffffffffff8111156131f2576131f16126ea565b5b6131fc8254612ff3565b613207828285613143565b600060209050601f83116001811461323a5760008415613228578287015190505b61323285826131b4565b86555061329a565b601f19841661324886613024565b60005b828110156132705784890151825560018201915060208501945060208101905061324b565b8683101561328d5784890151613289601f891682613196565b8355505b6001600288020188555050505b505050505050565b6132ab81612aa0565b82525050565b600060a0820190506132c66000830188612b2d565b81810360208301526132d88187612b4d565b905081810360408301526132ec8186612b4d565b905081810360608301526133008185612b4d565b905061330f60808301846132a2565b9695505050505050565b7f4e487b7100000000000000000000000000000000000000000000000000000000600052603260045260246000fd5b7f4e487b7100000000000000000000000000000000000000000000000000000000600052601160045260246000fd5b600061338282612aa0565b91507fffffffffffffffffffffffffffffffffffffffffffffffffffffffffffffffff82036133b4576133b3613348565b5b600182019050919050565b600082825260208201905092915050565b7f5573657220616c72656164792072656769737465726564000000000000000000600082015250565b60006134066017836133bf565b9150613411826133d0565b602082019050919050565b60006020820190508181036000830152613435816133f9565b9050919050565b60006134488385612b3c565b9350613455838584612796565b61345e836126d9565b840190509392505050565b600060a08201905061347e600083018a612b2d565b818103602083015261349181888a61343c565b905081810360408301526134a681868861343c565b905081810360608301526134ba8185612b4d565b90506134c960808301846132a2565b9897505050505050505056fea2646970667358221220b03e08268172c545fa3cfdcaf5c603099b1ab670f23386ed885bb020ffa0ac7c64736f6c63430008120033",
  "linkReferences": {},
  "deployedLinkReferences": {}
}