{
  "_format": "hh-sol-artifact-1",
  "contractName": "userDetails",
  "sourceName": "contracts/userDetails.sol",
  "abi": [
    {
      "anonymous": false,
      "inputs": [
        {
          "indexed": true,
          "internalType": "address",
          "name": "_address",
          "type": "address"
        }
      ],
      "name": "eventDeleteUser",
      "type": "event"
    },
    {
      "anonymous": false,
      "inputs": [
        {
          "indexed": true,
          "internalType": "address",
          "name": "_address",
          "type": "address"
        },
        {
          "indexed": false,
          "internalType": "enum IUserDetails.userType",
          "name": "_type",
          "type": "uint8"
        },
        {
          "indexed": false,
          "internalType": "bytes",
          "name": "_name",
          "type": "bytes"
        },
        {
          "indexed": false,
          "internalType": "bytes",
          "name": "_physicalAddress",
          "type": "bytes"
        },
        {
          "indexed": false,
          "internalType": "bytes",
          "name": "_image",
          "type": "bytes"
        },
        {
          "indexed": false,
          "internalType": "uint256",
          "name": "_timeUpdated",
          "type": "uint256"
        }
      ],
      "name": "eventUserData",
      "type": "event"
    },
    {
      "inputs": [
        {
          "internalType": "enum IUserDetails.userType",
          "name": "_type",
          "type": "uint8"
        },
        {
          "internalType": "bytes",
          "name": "_name",
          "type": "bytes"
        },
        {
          "internalType": "bytes",
          "name": "_physicalAddress",
          "type": "bytes"
        },
        {
          "internalType": "bytes",
          "name": "_image",
          "type": "bytes"
        }
      ],
      "name": "addUser",
      "outputs": [],
      "stateMutability": "nonpayable",
      "type": "function"
    },
    {
      "inputs": [],
      "name": "deleteUser",
      "outputs": [],
      "stateMutability": "nonpayable",
      "type": "function"
    },
    {
      "inputs": [
        {
          "internalType": "uint256",
          "name": "",
          "type": "uint256"
        }
      ],
      "name": "distributors",
      "outputs": [
        {
          "internalType": "address",
          "name": "",
          "type": "address"
        }
      ],
      "stateMutability": "view",
      "type": "function"
    },
    {
      "inputs": [
        {
          "internalType": "bytes",
          "name": "_image",
          "type": "bytes"
        }
      ],
      "name": "editImage",
      "outputs": [],
      "stateMutability": "nonpayable",
      "type": "function"
    },
    {
      "inputs": [
        {
          "internalType": "bytes",
          "name": "_name",
          "type": "bytes"
        }
      ],
      "name": "editName",
      "outputs": [],
      "stateMutability": "nonpayable",
      "type": "function"
    },
    {
      "inputs": [
        {
          "internalType": "bytes",
          "name": "_physicalAddress",
          "type": "bytes"
        }
      ],
      "name": "editPhysicalAddress",
      "outputs": [],
      "stateMutability": "nonpayable",
      "type": "function"
    },
    {
      "inputs": [],
      "name": "getAllDistributorAddresses",
      "outputs": [
        {
          "internalType": "address[]",
          "name": "",
          "type": "address[]"
        }
      ],
      "stateMutability": "view",
      "type": "function"
    },
    {
      "inputs": [],
      "name": "getAllDistributors",
      "outputs": [
        {
          "internalType": "address[]",
          "name": "",
          "type": "address[]"
        },
        {
          "components": [
            {
              "internalType": "enum IUserDetails.userType",
              "name": "userType",
              "type": "uint8"
            },
            {
              "internalType": "bytes",
              "name": "userName",
              "type": "bytes"
            },
            {
              "internalType": "bytes",
              "name": "userPhysicalAddress",
              "type": "bytes"
            },
            {
              "internalType": "bytes",
              "name": "userImage",
              "type": "bytes"
            },
            {
              "internalType": "bool",
              "name": "userStatus",
              "type": "bool"
            }
          ],
          "internalType": "struct IUserDetails.userDetails[]",
          "name": "",
          "type": "tuple[]"
        }
      ],
      "stateMutability": "view",
      "type": "function"
    },
    {
      "inputs": [],
      "name": "getAllManufacturerAddresses",
      "outputs": [
        {
          "internalType": "address[]",
          "name": "",
          "type": "address[]"
        }
      ],
      "stateMutability": "view",
      "type": "function"
    },
    {
      "inputs": [],
      "name": "getAllManufacturers",
      "outputs": [
        {
          "internalType": "address[]",
          "name": "",
          "type": "address[]"
        },
        {
          "components": [
            {
              "internalType": "enum IUserDetails.userType",
              "name": "userType",
              "type": "uint8"
            },
            {
              "internalType": "bytes",
              "name": "userName",
              "type": "bytes"
            },
            {
              "internalType": "bytes",
              "name": "userPhysicalAddress",
              "type": "bytes"
            },
            {
              "internalType": "bytes",
              "name": "userImage",
              "type": "bytes"
            },
            {
              "internalType": "bool",
              "name": "userStatus",
              "type": "bool"
            }
          ],
          "internalType": "struct IUserDetails.userDetails[]",
          "name": "",
          "type": "tuple[]"
        }
      ],
      "stateMutability": "view",
      "type": "function"
    },
    {
      "inputs": [],
      "name": "getAllSupplierAddresses",
      "outputs": [
        {
          "internalType": "address[]",
          "name": "",
          "type": "address[]"
        }
      ],
      "stateMutability": "view",
      "type": "function"
    },
    {
      "inputs": [],
      "name": "getAllSuppliers",
      "outputs": [
        {
          "internalType": "address[]",
          "name": "",
          "type": "address[]"
        },
        {
          "components": [
            {
              "internalType": "enum IUserDetails.userType",
              "name": "userType",
              "type": "uint8"
            },
            {
              "internalType": "bytes",
              "name": "userName",
              "type": "bytes"
            },
            {
              "internalType": "bytes",
              "name": "userPhysicalAddress",
              "type": "bytes"
            },
            {
              "internalType": "bytes",
              "name": "userImage",
              "type": "bytes"
            },
            {
              "internalType": "bool",
              "name": "userStatus",
              "type": "bool"
            }
          ],
          "internalType": "struct IUserDetails.userDetails[]",
          "name": "",
          "type": "tuple[]"
        }
      ],
      "stateMutability": "view",
      "type": "function"
    },
    {
      "inputs": [],
      "name": "getAllUsers",
      "outputs": [
        {
          "components": [
            {
              "internalType": "enum IUserDetails.userType",
              "name": "userType",
              "type": "uint8"
            },
            {
              "internalType": "bytes",
              "name": "userName",
              "type": "bytes"
            },
            {
              "internalType": "bytes",
              "name": "userPhysicalAddress",
              "type": "bytes"
            },
            {
              "internalType": "bytes",
              "name": "userImage",
              "type": "bytes"
            },
            {
              "internalType": "bool",
              "name": "userStatus",
              "type": "bool"
            }
          ],
          "internalType": "struct IUserDetails.userDetails[]",
          "name": "",
          "type": "tuple[]"
        }
      ],
      "stateMutability": "view",
      "type": "function"
    },
    {
      "inputs": [
        {
          "internalType": "address",
          "name": "_address",
          "type": "address"
        }
      ],
      "name": "getSingleUser",
      "outputs": [
        {
          "components": [
            {
              "internalType": "enum IUserDetails.userType",
              "name": "userType",
              "type": "uint8"
            },
            {
              "internalType": "bytes",
              "name": "userName",
              "type": "bytes"
            },
            {
              "internalType": "bytes",
              "name": "userPhysicalAddress",
              "type": "bytes"
            },
            {
              "internalType": "bytes",
              "name": "userImage",
              "type": "bytes"
            },
            {
              "internalType": "bool",
              "name": "userStatus",
              "type": "bool"
            }
          ],
          "internalType": "struct IUserDetails.userDetails",
          "name": "",
          "type": "tuple"
        }
      ],
      "stateMutability": "view",
      "type": "function"
    },
    {
      "inputs": [
        {
          "internalType": "uint256",
          "name": "",
          "type": "uint256"
        }
      ],
      "name": "manufacturers",
      "outputs": [
        {
          "internalType": "address",
          "name": "",
          "type": "address"
        }
      ],
      "stateMutability": "view",
      "type": "function"
    },
    {
      "inputs": [
        {
          "internalType": "uint256",
          "name": "",
          "type": "uint256"
        }
      ],
      "name": "suppliers",
      "outputs": [
        {
          "internalType": "address",
          "name": "",
          "type": "address"
        }
      ],
      "stateMutability": "view",
      "type": "function"
    },
    {
      "inputs": [
        {
          "internalType": "address",
          "name": "",
          "type": "address"
        }
      ],
      "name": "userDetailsMapping",
      "outputs": [
        {
          "internalType": "enum IUserDetails.userType",
          "name": "userType",
          "type": "uint8"
        },
        {
          "internalType": "bytes",
          "name": "userName",
          "type": "bytes"
        },
        {
          "internalType": "bytes",
          "name": "userPhysicalAddress",
          "type": "bytes"
        },
        {
          "internalType": "bytes",
          "name": "userImage",
          "type": "bytes"
        },
        {
          "internalType": "bool",
          "name": "userStatus",
          "type": "bool"
        }
      ],
      "stateMutability": "view",
      "type": "function"
    },
    {
      "inputs": [
        {
          "internalType": "uint256",
          "name": "",
          "type": "uint256"
        }
      ],
      "name": "users",
      "outputs": [
        {
          "internalType": "address",
          "name": "",
          "type": "address"
        }
      ],
      "stateMutability": "view",
      "type": "function"
    }
  ],
  "bytecode": "0x608060405234801561001057600080fd5b50613925806100206000396000f3fe608060405234801561001057600080fd5b50600436106101165760003560e01c806390175af1116100a2578063cea2312111610071578063cea23121146102e7578063d1bab14314610317578063ddba07a414610333578063e23498c314610352578063e2842d791461037057610116565b806390175af11461025e5780639ae7d0081461028e578063b53305dc146102aa578063c7bbd67e146102c957610116565b806350b492ba116100e957806350b492ba146101a15780635166608f146101d15780636a26d064146102055780636f5ffb25146102215780638e24c34b1461023f57610116565b8063026ff05e1461011b5780630c6c92ba146101255780633585254114610141578063365b98b214610171575b600080fd5b61012361038e565b005b61013f600480360381019061013a9190612bc3565b6104bd565b005b61015b60048036038101906101569190612c6a565b61085b565b6040516101689190612e2c565b60405180910390f35b61018b60048036038101906101869190612e84565b610abf565b6040516101989190612ec0565b60405180910390f35b6101bb60048036038101906101b69190612e84565b610afe565b6040516101c89190612ec0565b60405180910390f35b6101eb60048036038101906101e69190612c6a565b610b3d565b6040516101fc959493929190612f43565b60405180910390f35b61021f600480360381019061021a9190612bc3565b610d25565b005b6102296110c3565b6040516102369190613069565b60405180910390f35b610247611151565b6040516102559291906131d1565b60405180910390f35b61027860048036038101906102739190612e84565b61153e565b6040516102859190612ec0565b60405180910390f35b6102a860048036038101906102a3919061328d565b61157d565b005b6102b2611a18565b6040516102c09291906131d1565b60405180910390f35b6102d1611e05565b6040516102de9190613069565b60405180910390f35b61030160048036038101906102fc9190612e84565b611e93565b60405161030e9190612ec0565b60405180910390f35b610331600480360381019061032c9190612bc3565b611ed2565b005b61033b612270565b6040516103499291906131d1565b60405180910390f35b61035a61265d565b6040516103679190613069565b60405180910390f35b6103786126eb565b6040516103859190613350565b60405180910390f35b60008060003373ffffffffffffffffffffffffffffffffffffffff1673ffffffffffffffffffffffffffffffffffffffff16815260200190815260200160002060010180546103dc906133a1565b90500361041e576040517f08c379a00000000000000000000000000000000000000000000000000000000081526004016104159061342f565b60405180910390fd5b60008060003373ffffffffffffffffffffffffffffffffffffffff1673ffffffffffffffffffffffffffffffffffffffff16815260200190815260200160002060040160006101000a81548160ff0219169083151502179055503373ffffffffffffffffffffffffffffffffffffffff167f5db32fb34ad07587763cb39a6a4e3e11627af9bb8b3754c2734c1e7c107c0b5b60405160405180910390a2565b60008060003373ffffffffffffffffffffffffffffffffffffffff1673ffffffffffffffffffffffffffffffffffffffff168152602001908152602001600020600101805461050b906133a1565b90500361054d576040517f08c379a00000000000000000000000000000000000000000000000000000000081526004016105449061342f565b60405180910390fd5b806000803373ffffffffffffffffffffffffffffffffffffffff1673ffffffffffffffffffffffffffffffffffffffff168152602001908152602001600020600101908161059b91906135fb565b5060008060003373ffffffffffffffffffffffffffffffffffffffff1673ffffffffffffffffffffffffffffffffffffffff1681526020019081526020016000206040518060a00160405290816000820160009054906101000a900460ff16600281111561060c5761060b612c97565b5b600281111561061e5761061d612c97565b5b8152602001600182018054610632906133a1565b80601f016020809104026020016040519081016040528092919081815260200182805461065e906133a1565b80156106ab5780601f10610680576101008083540402835291602001916106ab565b820191906000526020600020905b81548152906001019060200180831161068e57829003601f168201915b505050505081526020016002820180546106c4906133a1565b80601f01602080910402602001604051908101604052809291908181526020018280546106f0906133a1565b801561073d5780601f106107125761010080835404028352916020019161073d565b820191906000526020600020905b81548152906001019060200180831161072057829003601f168201915b50505050508152602001600382018054610756906133a1565b80601f0160208091040260200160405190810160405280929190818152602001828054610782906133a1565b80156107cf5780601f106107a4576101008083540402835291602001916107cf565b820191906000526020600020905b8154815290600101906020018083116107b257829003601f168201915b505050505081526020016004820160009054906101000a900460ff16151515158152505090503373ffffffffffffffffffffffffffffffffffffffff167fe49f40f57c43bcc0ea51de08718dcc45efb3325fb9d155e76c2a5ab33be2de16826000015184846040015185606001514260405161084f9594939291906136dc565b60405180910390a25050565b610863612a26565b6000808373ffffffffffffffffffffffffffffffffffffffff1673ffffffffffffffffffffffffffffffffffffffff1681526020019081526020016000206040518060a00160405290816000820160009054906101000a900460ff1660028111156108d1576108d0612c97565b5b60028111156108e3576108e2612c97565b5b81526020016001820180546108f7906133a1565b80601f0160208091040260200160405190810160405280929190818152602001828054610923906133a1565b80156109705780601f1061094557610100808354040283529160200191610970565b820191906000526020600020905b81548152906001019060200180831161095357829003601f168201915b50505050508152602001600282018054610989906133a1565b80601f01602080910402602001604051908101604052809291908181526020018280546109b5906133a1565b8015610a025780601f106109d757610100808354040283529160200191610a02565b820191906000526020600020905b8154815290600101906020018083116109e557829003601f168201915b50505050508152602001600382018054610a1b906133a1565b80601f0160208091040260200160405190810160405280929190818152602001828054610a47906133a1565b8015610a945780601f10610a6957610100808354040283529160200191610a94565b820191906000526020600020905b815481529060010190602001808311610a7757829003601f168201915b505050505081526020016004820160009054906101000a900460ff1615151515815250509050919050565b60018181548110610acf57600080fd5b906000526020600020016000915054906101000a900473ffffffffffffffffffffffffffffffffffffffff1681565b60048181548110610b0e57600080fd5b906000526020600020016000915054906101000a900473ffffffffffffffffffffffffffffffffffffffff1681565b60006020528060005260406000206000915090508060000160009054906101000a900460ff1690806001018054610b73906133a1565b80601f0160208091040260200160405190810160405280929190818152602001828054610b9f906133a1565b8015610bec5780601f10610bc157610100808354040283529160200191610bec565b820191906000526020600020905b815481529060010190602001808311610bcf57829003601f168201915b505050505090806002018054610c01906133a1565b80601f0160208091040260200160405190810160405280929190818152602001828054610c2d906133a1565b8015610c7a5780601f10610c4f57610100808354040283529160200191610c7a565b820191906000526020600020905b815481529060010190602001808311610c5d57829003601f168201915b505050505090806003018054610c8f906133a1565b80601f0160208091040260200160405190810160405280929190818152602001828054610cbb906133a1565b8015610d085780601f10610cdd57610100808354040283529160200191610d08565b820191906000526020600020905b815481529060010190602001808311610ceb57829003601f168201915b5050505050908060040160009054906101000a900460ff16905085565b60008060003373ffffffffffffffffffffffffffffffffffffffff1673ffffffffffffffffffffffffffffffffffffffff1681526020019081526020016000206001018054610d73906133a1565b905003610db5576040517f08c379a0000000000000000000000000000000000000000000000000000000008152600401610dac9061342f565b60405180910390fd5b806000803373ffffffffffffffffffffffffffffffffffffffff1673ffffffffffffffffffffffffffffffffffffffff1681526020019081526020016000206002019081610e0391906135fb565b5060008060003373ffffffffffffffffffffffffffffffffffffffff1673ffffffffffffffffffffffffffffffffffffffff1681526020019081526020016000206040518060a00160405290816000820160009054906101000a900460ff166002811115610e7457610e73612c97565b5b6002811115610e8657610e85612c97565b5b8152602001600182018054610e9a906133a1565b80601f0160208091040260200160405190810160405280929190818152602001828054610ec6906133a1565b8015610f135780601f10610ee857610100808354040283529160200191610f13565b820191906000526020600020905b815481529060010190602001808311610ef657829003601f168201915b50505050508152602001600282018054610f2c906133a1565b80601f0160208091040260200160405190810160405280929190818152602001828054610f58906133a1565b8015610fa55780601f10610f7a57610100808354040283529160200191610fa5565b820191906000526020600020905b815481529060010190602001808311610f8857829003601f168201915b50505050508152602001600382018054610fbe906133a1565b80601f0160208091040260200160405190810160405280929190818152602001828054610fea906133a1565b80156110375780601f1061100c57610100808354040283529160200191611037565b820191906000526020600020905b81548152906001019060200180831161101a57829003601f168201915b505050505081526020016004820160009054906101000a900460ff16151515158152505090503373ffffffffffffffffffffffffffffffffffffffff167fe49f40f57c43bcc0ea51de08718dcc45efb3325fb9d155e76c2a5ab33be2de1682600001518360200151858560600151426040516110b79594939291906136dc565b60405180910390a25050565b6060600480548060200260200160405190810160405280929190818152602001828054801561114757602002820191906000526020600020905b8160009054906101000a900473ffffffffffffffffffffffffffffffffffffffff1673ffffffffffffffffffffffffffffffffffffffff16815260200190600101908083116110fd575b5050505050905090565b606080600060048054905067ffffffffffffffff81111561117557611174612a98565b5b6040519080825280602002602001820160405280156111a35781602001602082028036833780820191505090505b509050600060048054905067ffffffffffffffff8111156111c7576111c6612a98565b5b60405190808252806020026020018201604052801561120057816020015b6111ed612a26565b8152602001906001900390816111e55790505b50905060005b6004805490508110156115315760006004828154811061122957611228613744565b5b9060005260206000200160009054906101000a900473ffffffffffffffffffffffffffffffffffffffff16905060008060008373ffffffffffffffffffffffffffffffffffffffff1673ffffffffffffffffffffffffffffffffffffffff1681526020019081526020016000206040518060a00160405290816000820160009054906101000a900460ff1660028111156112c6576112c5612c97565b5b60028111156112d8576112d7612c97565b5b81526020016001820180546112ec906133a1565b80601f0160208091040260200160405190810160405280929190818152602001828054611318906133a1565b80156113655780601f1061133a57610100808354040283529160200191611365565b820191906000526020600020905b81548152906001019060200180831161134857829003601f168201915b5050505050815260200160028201805461137e906133a1565b80601f01602080910402602001604051908101604052809291908181526020018280546113aa906133a1565b80156113f75780601f106113cc576101008083540402835291602001916113f7565b820191906000526020600020905b8154815290600101906020018083116113da57829003601f168201915b50505050508152602001600382018054611410906133a1565b80601f016020809104026020016040519081016040528092919081815260200182805461143c906133a1565b80156114895780601f1061145e57610100808354040283529160200191611489565b820191906000526020600020905b81548152906001019060200180831161146c57829003601f168201915b505050505081526020016004820160009054906101000a900460ff1615151515815250509050818584815181106114c3576114c2613744565b5b602002602001019073ffffffffffffffffffffffffffffffffffffffff16908173ffffffffffffffffffffffffffffffffffffffff16815250508084848151811061151157611510613744565b5b602002602001018190525050508080611529906137a2565b915050611206565b5081819350935050509091565b6003818154811061154e57600080fd5b906000526020600020016000915054906101000a900473ffffffffffffffffffffffffffffffffffffffff1681565b60008060003373ffffffffffffffffffffffffffffffffffffffff1673ffffffffffffffffffffffffffffffffffffffff16815260200190815260200160002060010180546115cb906133a1565b90501461160d576040517f08c379a000000000000000000000000000000000000000000000000000000000815260040161160490613836565b60405180910390fd5b6040518060a0016040528087600281111561162b5761162a612c97565b5b815260200186868080601f016020809104026020016040519081016040528093929190818152602001838380828437600081840152601f19601f82011690508083019250505050505050815260200184848080601f016020809104026020016040519081016040528093929190818152602001838380828437600081840152601f19601f820116905080830192505050505050508152602001828152602001600115158152506000803373ffffffffffffffffffffffffffffffffffffffff1673ffffffffffffffffffffffffffffffffffffffff16815260200190815260200160002060008201518160000160006101000a81548160ff0219169083600281111561173a57611739612c97565b5b0217905550602082015181600101908161175491906135fb565b50604082015181600201908161176a91906135fb565b50606082015181600301908161178091906135fb565b5060808201518160040160006101000a81548160ff0219169083151502179055509050506001339080600181540180825580915050600190039060005260206000200160009091909190916101000a81548173ffffffffffffffffffffffffffffffffffffffff021916908373ffffffffffffffffffffffffffffffffffffffff1602179055506000600281111561181b5761181a612c97565b5b86600281111561182e5761182d612c97565b5b03611897576002339080600181540180825580915050600190039060005260206000200160009091909190916101000a81548173ffffffffffffffffffffffffffffffffffffffff021916908373ffffffffffffffffffffffffffffffffffffffff1602179055505b600160028111156118ab576118aa612c97565b5b8660028111156118be576118bd612c97565b5b03611927576003339080600181540180825580915050600190039060005260206000200160009091909190916101000a81548173ffffffffffffffffffffffffffffffffffffffff021916908373ffffffffffffffffffffffffffffffffffffffff1602179055505b60028081111561193a57611939612c97565b5b86600281111561194d5761194c612c97565b5b036119b6576004339080600181540180825580915050600190039060005260206000200160009091909190916101000a81548173ffffffffffffffffffffffffffffffffffffffff021916908373ffffffffffffffffffffffffffffffffffffffff1602179055505b3373ffffffffffffffffffffffffffffffffffffffff167fe49f40f57c43bcc0ea51de08718dcc45efb3325fb9d155e76c2a5ab33be2de1687878787878742604051611a089796959493929190613883565b60405180910390a2505050505050565b606080600060028054905067ffffffffffffffff811115611a3c57611a3b612a98565b5b604051908082528060200260200182016040528015611a6a5781602001602082028036833780820191505090505b509050600060028054905067ffffffffffffffff811115611a8e57611a8d612a98565b5b604051908082528060200260200182016040528015611ac757816020015b611ab4612a26565b815260200190600190039081611aac5790505b50905060005b600280549050811015611df857600060028281548110611af057611aef613744565b5b9060005260206000200160009054906101000a900473ffffffffffffffffffffffffffffffffffffffff16905060008060008373ffffffffffffffffffffffffffffffffffffffff1673ffffffffffffffffffffffffffffffffffffffff1681526020019081526020016000206040518060a00160405290816000820160009054906101000a900460ff166002811115611b8d57611b8c612c97565b5b6002811115611b9f57611b9e612c97565b5b8152602001600182018054611bb3906133a1565b80601f0160208091040260200160405190810160405280929190818152602001828054611bdf906133a1565b8015611c2c5780601f10611c0157610100808354040283529160200191611c2c565b820191906000526020600020905b815481529060010190602001808311611c0f57829003601f168201915b50505050508152602001600282018054611c45906133a1565b80601f0160208091040260200160405190810160405280929190818152602001828054611c71906133a1565b8015611cbe5780601f10611c9357610100808354040283529160200191611cbe565b820191906000526020600020905b815481529060010190602001808311611ca157829003601f168201915b50505050508152602001600382018054611cd7906133a1565b80601f0160208091040260200160405190810160405280929190818152602001828054611d03906133a1565b8015611d505780601f10611d2557610100808354040283529160200191611d50565b820191906000526020600020905b815481529060010190602001808311611d3357829003601f168201915b505050505081526020016004820160009054906101000a900460ff161515151581525050905081858481518110611d8a57611d89613744565b5b602002602001019073ffffffffffffffffffffffffffffffffffffffff16908173ffffffffffffffffffffffffffffffffffffffff168152505080848481518110611dd857611dd7613744565b5b602002602001018190525050508080611df0906137a2565b915050611acd565b5081819350935050509091565b60606002805480602002602001604051908101604052809291908181526020018280548015611e8957602002820191906000526020600020905b8160009054906101000a900473ffffffffffffffffffffffffffffffffffffffff1673ffffffffffffffffffffffffffffffffffffffff1681526020019060010190808311611e3f575b5050505050905090565b60028181548110611ea357600080fd5b906000526020600020016000915054906101000a900473ffffffffffffffffffffffffffffffffffffffff1681565b60008060003373ffffffffffffffffffffffffffffffffffffffff1673ffffffffffffffffffffffffffffffffffffffff1681526020019081526020016000206001018054611f20906133a1565b905003611f62576040517f08c379a0000000000000000000000000000000000000000000000000000000008152600401611f599061342f565b60405180910390fd5b806000803373ffffffffffffffffffffffffffffffffffffffff1673ffffffffffffffffffffffffffffffffffffffff1681526020019081526020016000206003019081611fb091906135fb565b5060008060003373ffffffffffffffffffffffffffffffffffffffff1673ffffffffffffffffffffffffffffffffffffffff1681526020019081526020016000206040518060a00160405290816000820160009054906101000a900460ff16600281111561202157612020612c97565b5b600281111561203357612032612c97565b5b8152602001600182018054612047906133a1565b80601f0160208091040260200160405190810160405280929190818152602001828054612073906133a1565b80156120c05780601f10612095576101008083540402835291602001916120c0565b820191906000526020600020905b8154815290600101906020018083116120a357829003601f168201915b505050505081526020016002820180546120d9906133a1565b80601f0160208091040260200160405190810160405280929190818152602001828054612105906133a1565b80156121525780601f1061212757610100808354040283529160200191612152565b820191906000526020600020905b81548152906001019060200180831161213557829003601f168201915b5050505050815260200160038201805461216b906133a1565b80601f0160208091040260200160405190810160405280929190818152602001828054612197906133a1565b80156121e45780601f106121b9576101008083540402835291602001916121e4565b820191906000526020600020905b8154815290600101906020018083116121c757829003601f168201915b505050505081526020016004820160009054906101000a900460ff16151515158152505090503373ffffffffffffffffffffffffffffffffffffffff167fe49f40f57c43bcc0ea51de08718dcc45efb3325fb9d155e76c2a5ab33be2de1682600001518360200151846060015186426040516122649594939291906136dc565b60405180910390a25050565b606080600060038054905067ffffffffffffffff81111561229457612293612a98565b5b6040519080825280602002602001820160405280156122c25781602001602082028036833780820191505090505b509050600060038054905067ffffffffffffffff8111156122e6576122e5612a98565b5b60405190808252806020026020018201604052801561231f57816020015b61230c612a26565b8152602001906001900390816123045790505b50905060005b6003805490508110156126505760006003828154811061234857612347613744565b5b9060005260206000200160009054906101000a900473ffffffffffffffffffffffffffffffffffffffff16905060008060008373ffffffffffffffffffffffffffffffffffffffff1673ffffffffffffffffffffffffffffffffffffffff1681526020019081526020016000206040518060a00160405290816000820160009054906101000a900460ff1660028111156123e5576123e4612c97565b5b60028111156123f7576123f6612c97565b5b815260200160018201805461240b906133a1565b80601f0160208091040260200160405190810160405280929190818152602001828054612437906133a1565b80156124845780601f1061245957610100808354040283529160200191612484565b820191906000526020600020905b81548152906001019060200180831161246757829003601f168201915b5050505050815260200160028201805461249d906133a1565b80601f01602080910402602001604051908101604052809291908181526020018280546124c9906133a1565b80156125165780601f106124eb57610100808354040283529160200191612516565b820191906000526020600020905b8154815290600101906020018083116124f957829003601f168201915b5050505050815260200160038201805461252f906133a1565b80601f016020809104026020016040519081016040528092919081815260200182805461255b906133a1565b80156125a85780601f1061257d576101008083540402835291602001916125a8565b820191906000526020600020905b81548152906001019060200180831161258b57829003601f168201915b505050505081526020016004820160009054906101000a900460ff1615151515815250509050818584815181106125e2576125e1613744565b5b602002602001019073ffffffffffffffffffffffffffffffffffffffff16908173ffffffffffffffffffffffffffffffffffffffff1681525050808484815181106126305761262f613744565b5b602002602001018190525050508080612648906137a2565b915050612325565b5081819350935050509091565b606060038054806020026020016040519081016040528092919081815260200182805480156126e157602002820191906000526020600020905b8160009054906101000a900473ffffffffffffffffffffffffffffffffffffffff1673ffffffffffffffffffffffffffffffffffffffff1681526020019060010190808311612697575b5050505050905090565b6060600060018054905067ffffffffffffffff81111561270e5761270d612a98565b5b60405190808252806020026020018201604052801561274757816020015b612734612a26565b81526020019060019003908161272c5790505b50905060005b600180549050811015612a1e576000806001838154811061277157612770613744565b5b9060005260206000200160009054906101000a900473ffffffffffffffffffffffffffffffffffffffff1673ffffffffffffffffffffffffffffffffffffffff1673ffffffffffffffffffffffffffffffffffffffff1681526020019081526020016000206040518060a00160405290816000820160009054906101000a900460ff16600281111561280657612805612c97565b5b600281111561281857612817612c97565b5b815260200160018201805461282c906133a1565b80601f0160208091040260200160405190810160405280929190818152602001828054612858906133a1565b80156128a55780601f1061287a576101008083540402835291602001916128a5565b820191906000526020600020905b81548152906001019060200180831161288857829003601f168201915b505050505081526020016002820180546128be906133a1565b80601f01602080910402602001604051908101604052809291908181526020018280546128ea906133a1565b80156129375780601f1061290c57610100808354040283529160200191612937565b820191906000526020600020905b81548152906001019060200180831161291a57829003601f168201915b50505050508152602001600382018054612950906133a1565b80601f016020809104026020016040519081016040528092919081815260200182805461297c906133a1565b80156129c95780601f1061299e576101008083540402835291602001916129c9565b820191906000526020600020905b8154815290600101906020018083116129ac57829003601f168201915b505050505081526020016004820160009054906101000a900460ff161515151581525050828281518110612a00576129ff613744565b5b60200260200101819052508080612a16906137a2565b91505061274d565b508091505090565b6040518060a0016040528060006002811115612a4557612a44612c97565b5b81526020016060815260200160608152602001606081526020016000151581525090565b6000604051905090565b600080fd5b600080fd5b600080fd5b600080fd5b6000601f19601f8301169050919050565b7f4e487b7100000000000000000000000000000000000000000000000000000000600052604160045260246000fd5b612ad082612a87565b810181811067ffffffffffffffff82111715612aef57612aee612a98565b5b80604052505050565b6000612b02612a69565b9050612b0e8282612ac7565b919050565b600067ffffffffffffffff821115612b2e57612b2d612a98565b5b612b3782612a87565b9050602081019050919050565b82818337600083830152505050565b6000612b66612b6184612b13565b612af8565b905082815260208101848484011115612b8257612b81612a82565b5b612b8d848285612b44565b509392505050565b600082601f830112612baa57612ba9612a7d565b5b8135612bba848260208601612b53565b91505092915050565b600060208284031215612bd957612bd8612a73565b5b600082013567ffffffffffffffff811115612bf757612bf6612a78565b5b612c0384828501612b95565b91505092915050565b600073ffffffffffffffffffffffffffffffffffffffff82169050919050565b6000612c3782612c0c565b9050919050565b612c4781612c2c565b8114612c5257600080fd5b50565b600081359050612c6481612c3e565b92915050565b600060208284031215612c8057612c7f612a73565b5b6000612c8e84828501612c55565b91505092915050565b7f4e487b7100000000000000000000000000000000000000000000000000000000600052602160045260246000fd5b60038110612cd757612cd6612c97565b5b50565b6000819050612ce882612cc6565b919050565b6000612cf882612cda565b9050919050565b612d0881612ced565b82525050565b600081519050919050565b600082825260208201905092915050565b60005b83811015612d48578082015181840152602081019050612d2d565b60008484015250505050565b6000612d5f82612d0e565b612d698185612d19565b9350612d79818560208601612d2a565b612d8281612a87565b840191505092915050565b60008115159050919050565b612da281612d8d565b82525050565b600060a083016000830151612dc06000860182612cff565b5060208301518482036020860152612dd88282612d54565b91505060408301518482036040860152612df28282612d54565b91505060608301518482036060860152612e0c8282612d54565b9150506080830151612e216080860182612d99565b508091505092915050565b60006020820190508181036000830152612e468184612da8565b905092915050565b6000819050919050565b612e6181612e4e565b8114612e6c57600080fd5b50565b600081359050612e7e81612e58565b92915050565b600060208284031215612e9a57612e99612a73565b5b6000612ea884828501612e6f565b91505092915050565b612eba81612c2c565b82525050565b6000602082019050612ed56000830184612eb1565b92915050565b612ee481612ced565b82525050565b600082825260208201905092915050565b6000612f0682612d0e565b612f108185612eea565b9350612f20818560208601612d2a565b612f2981612a87565b840191505092915050565b612f3d81612d8d565b82525050565b600060a082019050612f586000830188612edb565b8181036020830152612f6a8187612efb565b90508181036040830152612f7e8186612efb565b90508181036060830152612f928185612efb565b9050612fa16080830184612f34565b9695505050505050565b600081519050919050565b600082825260208201905092915050565b6000819050602082019050919050565b612fe081612c2c565b82525050565b6000612ff28383612fd7565b60208301905092915050565b6000602082019050919050565b600061301682612fab565b6130208185612fb6565b935061302b83612fc7565b8060005b8381101561305c5781516130438882612fe6565b975061304e83612ffe565b92505060018101905061302f565b5085935050505092915050565b60006020820190508181036000830152613083818461300b565b905092915050565b600081519050919050565b600082825260208201905092915050565b6000819050602082019050919050565b600060a0830160008301516130cf6000860182612cff565b50602083015184820360208601526130e78282612d54565b915050604083015184820360408601526131018282612d54565b9150506060830151848203606086015261311b8282612d54565b91505060808301516131306080860182612d99565b508091505092915050565b600061314783836130b7565b905092915050565b6000602082019050919050565b60006131678261308b565b6131718185613096565b935083602082028501613183856130a7565b8060005b858110156131bf57848403895281516131a0858261313b565b94506131ab8361314f565b925060208a01995050600181019050613187565b50829750879550505050505092915050565b600060408201905081810360008301526131eb818561300b565b905081810360208301526131ff818461315c565b90509392505050565b6003811061321557600080fd5b50565b60008135905061322781613208565b92915050565b600080fd5b600080fd5b60008083601f84011261324d5761324c612a7d565b5b8235905067ffffffffffffffff81111561326a5761326961322d565b5b60208301915083600182028301111561328657613285613232565b5b9250929050565b600080600080600080608087890312156132aa576132a9612a73565b5b60006132b889828a01613218565b965050602087013567ffffffffffffffff8111156132d9576132d8612a78565b5b6132e589828a01613237565b9550955050604087013567ffffffffffffffff81111561330857613307612a78565b5b61331489828a01613237565b9350935050606087013567ffffffffffffffff81111561333757613336612a78565b5b61334389828a01612b95565b9150509295509295509295565b6000602082019050818103600083015261336a818461315c565b905092915050565b7f4e487b7100000000000000000000000000000000000000000000000000000000600052602260045260246000fd5b600060028204905060018216806133b957607f821691505b6020821081036133cc576133cb613372565b5b50919050565b600082825260208201905092915050565b7f55736572206e6f74207265676973746572656400000000000000000000000000600082015250565b60006134196013836133d2565b9150613424826133e3565b602082019050919050565b600060208201905081810360008301526134488161340c565b9050919050565b60008190508160005260206000209050919050565b60006020601f8301049050919050565b600082821b905092915050565b6000600883026134b17fffffffffffffffffffffffffffffffffffffffffffffffffffffffffffffffff82613474565b6134bb8683613474565b95508019841693508086168417925050509392505050565b6000819050919050565b60006134f86134f36134ee84612e4e565b6134d3565b612e4e565b9050919050565b6000819050919050565b613512836134dd565b61352661351e826134ff565b848454613481565b825550505050565b600090565b61353b61352e565b613546818484613509565b505050565b5b8181101561356a5761355f600082613533565b60018101905061354c565b5050565b601f8211156135af576135808161344f565b61358984613464565b81016020851015613598578190505b6135ac6135a485613464565b83018261354b565b50505b505050565b600082821c905092915050565b60006135d2600019846008026135b4565b1980831691505092915050565b60006135eb83836135c1565b9150826002028217905092915050565b61360482612d0e565b67ffffffffffffffff81111561361d5761361c612a98565b5b61362782546133a1565b61363282828561356e565b600060209050601f8311600181146136655760008415613653578287015190505b61365d85826135df565b8655506136c5565b601f1984166136738661344f565b60005b8281101561369b57848901518255600182019150602085019450602081019050613676565b868310156136b857848901516136b4601f8916826135c1565b8355505b6001600288020188555050505b505050505050565b6136d681612e4e565b82525050565b600060a0820190506136f16000830188612edb565b81810360208301526137038187612efb565b905081810360408301526137178186612efb565b9050818103606083015261372b8185612efb565b905061373a60808301846136cd565b9695505050505050565b7f4e487b7100000000000000000000000000000000000000000000000000000000600052603260045260246000fd5b7f4e487b7100000000000000000000000000000000000000000000000000000000600052601160045260246000fd5b60006137ad82612e4e565b91507fffffffffffffffffffffffffffffffffffffffffffffffffffffffffffffffff82036137df576137de613773565b5b600182019050919050565b7f5573657220616c72656164792072656769737465726564000000000000000000600082015250565b60006138206017836133d2565b915061382b826137ea565b602082019050919050565b6000602082019050818103600083015261384f81613813565b9050919050565b60006138628385612eea565b935061386f838584612b44565b61387883612a87565b840190509392505050565b600060a082019050613898600083018a612edb565b81810360208301526138ab81888a613856565b905081810360408301526138c0818688613856565b905081810360608301526138d48185612efb565b90506138e360808301846136cd565b9897505050505050505056fea2646970667358221220a4e4eff421330b65ef9bcd6b7ae5ebe9e59fcd0a03e176c88626b1969d1e93a664736f6c63430008120033",
  "linkReferences": {},
  "deployedLinkReferences": {}
}