{
  "_format": "hh-sol-artifact-1",
  "contractName": "userDetails",
  "sourceName": "contracts/userDetails.sol",
  "abi": [
    {
      "anonymous": false,
      "inputs": [
        {
          "indexed": true,
          "internalType": "address",
          "name": "_address",
          "type": "address"
        }
      ],
      "name": "eventDeleteUser",
      "type": "event"
    },
    {
      "anonymous": false,
      "inputs": [
        {
          "indexed": true,
          "internalType": "address",
          "name": "_address",
          "type": "address"
        },
        {
          "indexed": false,
          "internalType": "enum IUserDetails.userType",
          "name": "_type",
          "type": "uint8"
        },
        {
          "indexed": false,
          "internalType": "bytes",
          "name": "_name",
          "type": "bytes"
        },
        {
          "indexed": false,
          "internalType": "bytes",
          "name": "_physicalAddress",
          "type": "bytes"
        },
        {
          "indexed": false,
          "internalType": "bytes",
          "name": "_image",
          "type": "bytes"
        },
        {
          "indexed": false,
          "internalType": "uint256",
          "name": "_timeUpdated",
          "type": "uint256"
        }
      ],
      "name": "eventUserData",
      "type": "event"
    },
    {
      "inputs": [
        {
          "internalType": "enum IUserDetails.userType",
          "name": "_type",
          "type": "uint8"
        },
        {
          "internalType": "bytes",
          "name": "_name",
          "type": "bytes"
        },
        {
          "internalType": "bytes",
          "name": "_physicalAddress",
          "type": "bytes"
        },
        {
          "internalType": "bytes",
          "name": "_image",
          "type": "bytes"
        }
      ],
      "name": "addUser",
      "outputs": [],
      "stateMutability": "nonpayable",
      "type": "function"
    },
    {
      "inputs": [],
      "name": "deleteUser",
      "outputs": [],
      "stateMutability": "nonpayable",
      "type": "function"
    },
    {
      "inputs": [
        {
          "internalType": "uint256",
          "name": "",
          "type": "uint256"
        }
      ],
      "name": "distributors",
      "outputs": [
        {
          "internalType": "address",
          "name": "",
          "type": "address"
        }
      ],
      "stateMutability": "view",
      "type": "function"
    },
    {
      "inputs": [
        {
          "internalType": "bytes",
          "name": "_image",
          "type": "bytes"
        }
      ],
      "name": "editImage",
      "outputs": [],
      "stateMutability": "nonpayable",
      "type": "function"
    },
    {
      "inputs": [
        {
          "internalType": "bytes",
          "name": "_name",
          "type": "bytes"
        }
      ],
      "name": "editName",
      "outputs": [],
      "stateMutability": "nonpayable",
      "type": "function"
    },
    {
      "inputs": [
        {
          "internalType": "bytes",
          "name": "_physicalAddress",
          "type": "bytes"
        }
      ],
      "name": "editPhysicalAddress",
      "outputs": [],
      "stateMutability": "nonpayable",
      "type": "function"
    },
    {
      "inputs": [],
      "name": "getAllDistributors",
      "outputs": [
        {
          "components": [
            {
              "internalType": "enum IUserDetails.userType",
              "name": "userType",
              "type": "uint8"
            },
            {
              "internalType": "bytes",
              "name": "userName",
              "type": "bytes"
            },
            {
              "internalType": "bytes",
              "name": "userPhysicalAddress",
              "type": "bytes"
            },
            {
              "internalType": "bytes",
              "name": "userImage",
              "type": "bytes"
            },
            {
              "internalType": "bool",
              "name": "userStatus",
              "type": "bool"
            }
          ],
          "internalType": "struct IUserDetails.userDetails[]",
          "name": "",
          "type": "tuple[]"
        }
      ],
      "stateMutability": "view",
      "type": "function"
    },
    {
      "inputs": [],
      "name": "getAllManufacturers",
      "outputs": [
        {
          "components": [
            {
              "internalType": "enum IUserDetails.userType",
              "name": "userType",
              "type": "uint8"
            },
            {
              "internalType": "bytes",
              "name": "userName",
              "type": "bytes"
            },
            {
              "internalType": "bytes",
              "name": "userPhysicalAddress",
              "type": "bytes"
            },
            {
              "internalType": "bytes",
              "name": "userImage",
              "type": "bytes"
            },
            {
              "internalType": "bool",
              "name": "userStatus",
              "type": "bool"
            }
          ],
          "internalType": "struct IUserDetails.userDetails[]",
          "name": "",
          "type": "tuple[]"
        }
      ],
      "stateMutability": "view",
      "type": "function"
    },
    {
      "inputs": [],
      "name": "getAllSupplierAddresses",
      "outputs": [
        {
          "internalType": "address[]",
          "name": "",
          "type": "address[]"
        }
      ],
      "stateMutability": "view",
      "type": "function"
    },
    {
      "inputs": [],
      "name": "getAllSuppliers",
      "outputs": [
        {
          "internalType": "address[]",
          "name": "",
          "type": "address[]"
        },
        {
          "components": [
            {
              "internalType": "enum IUserDetails.userType",
              "name": "userType",
              "type": "uint8"
            },
            {
              "internalType": "bytes",
              "name": "userName",
              "type": "bytes"
            },
            {
              "internalType": "bytes",
              "name": "userPhysicalAddress",
              "type": "bytes"
            },
            {
              "internalType": "bytes",
              "name": "userImage",
              "type": "bytes"
            },
            {
              "internalType": "bool",
              "name": "userStatus",
              "type": "bool"
            }
          ],
          "internalType": "struct IUserDetails.userDetails[]",
          "name": "",
          "type": "tuple[]"
        }
      ],
      "stateMutability": "view",
      "type": "function"
    },
    {
      "inputs": [],
      "name": "getAllUsers",
      "outputs": [
        {
          "components": [
            {
              "internalType": "enum IUserDetails.userType",
              "name": "userType",
              "type": "uint8"
            },
            {
              "internalType": "bytes",
              "name": "userName",
              "type": "bytes"
            },
            {
              "internalType": "bytes",
              "name": "userPhysicalAddress",
              "type": "bytes"
            },
            {
              "internalType": "bytes",
              "name": "userImage",
              "type": "bytes"
            },
            {
              "internalType": "bool",
              "name": "userStatus",
              "type": "bool"
            }
          ],
          "internalType": "struct IUserDetails.userDetails[]",
          "name": "",
          "type": "tuple[]"
        }
      ],
      "stateMutability": "view",
      "type": "function"
    },
    {
      "inputs": [
        {
          "internalType": "address",
          "name": "_address",
          "type": "address"
        }
      ],
      "name": "getSingleUser",
      "outputs": [
        {
          "components": [
            {
              "internalType": "enum IUserDetails.userType",
              "name": "userType",
              "type": "uint8"
            },
            {
              "internalType": "bytes",
              "name": "userName",
              "type": "bytes"
            },
            {
              "internalType": "bytes",
              "name": "userPhysicalAddress",
              "type": "bytes"
            },
            {
              "internalType": "bytes",
              "name": "userImage",
              "type": "bytes"
            },
            {
              "internalType": "bool",
              "name": "userStatus",
              "type": "bool"
            }
          ],
          "internalType": "struct IUserDetails.userDetails",
          "name": "",
          "type": "tuple"
        }
      ],
      "stateMutability": "view",
      "type": "function"
    },
    {
      "inputs": [
        {
          "internalType": "uint256",
          "name": "",
          "type": "uint256"
        }
      ],
      "name": "manufacturers",
      "outputs": [
        {
          "internalType": "address",
          "name": "",
          "type": "address"
        }
      ],
      "stateMutability": "view",
      "type": "function"
    },
    {
      "inputs": [
        {
          "internalType": "uint256",
          "name": "",
          "type": "uint256"
        }
      ],
      "name": "suppliers",
      "outputs": [
        {
          "internalType": "address",
          "name": "",
          "type": "address"
        }
      ],
      "stateMutability": "view",
      "type": "function"
    },
    {
      "inputs": [
        {
          "internalType": "address",
          "name": "",
          "type": "address"
        }
      ],
      "name": "userDetailsMapping",
      "outputs": [
        {
          "internalType": "enum IUserDetails.userType",
          "name": "userType",
          "type": "uint8"
        },
        {
          "internalType": "bytes",
          "name": "userName",
          "type": "bytes"
        },
        {
          "internalType": "bytes",
          "name": "userPhysicalAddress",
          "type": "bytes"
        },
        {
          "internalType": "bytes",
          "name": "userImage",
          "type": "bytes"
        },
        {
          "internalType": "bool",
          "name": "userStatus",
          "type": "bool"
        }
      ],
      "stateMutability": "view",
      "type": "function"
    },
    {
      "inputs": [
        {
          "internalType": "uint256",
          "name": "",
          "type": "uint256"
        }
      ],
      "name": "users",
      "outputs": [
        {
          "internalType": "address",
          "name": "",
          "type": "address"
        }
      ],
      "stateMutability": "view",
      "type": "function"
    }
  ],
  "bytecode": "0x608060405234801561001057600080fd5b506133a5806100206000396000f3fe608060405234801561001057600080fd5b50600436106101005760003560e01c806390175af111610097578063cea2312111610066578063cea23121146102b2578063d1bab143146102e2578063ddba07a4146102fe578063e2842d791461031c57610100565b806390175af1146102295780639ae7d00814610259578063b53305dc14610275578063c7bbd67e1461029457610100565b806350b492ba116100d357806350b492ba1461018b5780635166608f146101bb5780636a26d064146101ef5780638e24c34b1461020b57610100565b8063026ff05e146101055780630c6c92ba1461010f578063358525411461012b578063365b98b21461015b575b600080fd5b61010d61033a565b005b610129600480360381019061012491906126af565b6103d9565b005b61014560048036038101906101409190612756565b6106e7565b6040516101529190612918565b60405180910390f35b61017560048036038101906101709190612970565b61094b565b60405161018291906129ac565b60405180910390f35b6101a560048036038101906101a09190612970565b61098a565b6040516101b291906129ac565b60405180910390f35b6101d560048036038101906101d09190612756565b6109c9565b6040516101e6959493929190612a2f565b60405180910390f35b610209600480360381019061020491906126af565b610bb1565b005b610213610ebf565b6040516102209190612bdd565b60405180910390f35b610243600480360381019061023e9190612970565b6111fa565b60405161025091906129ac565b60405180910390f35b610273600480360381019061026e9190612c84565b611239565b005b61027d6116d4565b60405161028b929190612e05565b60405180910390f35b61029c611ac1565b6040516102a99190612e3c565b60405180910390f35b6102cc60048036038101906102c79190612970565b611b4f565b6040516102d991906129ac565b60405180910390f35b6102fc60048036038101906102f791906126af565b611b8e565b005b610306611e9c565b6040516103139190612bdd565b60405180910390f35b6103246121d7565b6040516103319190612bdd565b60405180910390f35b60008060003373ffffffffffffffffffffffffffffffffffffffff1673ffffffffffffffffffffffffffffffffffffffff16815260200190815260200160002060040160006101000a81548160ff0219169083151502179055503373ffffffffffffffffffffffffffffffffffffffff167f5db32fb34ad07587763cb39a6a4e3e11627af9bb8b3754c2734c1e7c107c0b5b60405160405180910390a2565b806000803373ffffffffffffffffffffffffffffffffffffffff1673ffffffffffffffffffffffffffffffffffffffff1681526020019081526020016000206001019081610427919061306a565b5060008060003373ffffffffffffffffffffffffffffffffffffffff1673ffffffffffffffffffffffffffffffffffffffff1681526020019081526020016000206040518060a00160405290816000820160009054906101000a900460ff16600281111561049857610497612783565b5b60028111156104aa576104a9612783565b5b81526020016001820180546104be90612e8d565b80601f01602080910402602001604051908101604052809291908181526020018280546104ea90612e8d565b80156105375780601f1061050c57610100808354040283529160200191610537565b820191906000526020600020905b81548152906001019060200180831161051a57829003601f168201915b5050505050815260200160028201805461055090612e8d565b80601f016020809104026020016040519081016040528092919081815260200182805461057c90612e8d565b80156105c95780601f1061059e576101008083540402835291602001916105c9565b820191906000526020600020905b8154815290600101906020018083116105ac57829003601f168201915b505050505081526020016003820180546105e290612e8d565b80601f016020809104026020016040519081016040528092919081815260200182805461060e90612e8d565b801561065b5780601f106106305761010080835404028352916020019161065b565b820191906000526020600020905b81548152906001019060200180831161063e57829003601f168201915b505050505081526020016004820160009054906101000a900460ff16151515158152505090503373ffffffffffffffffffffffffffffffffffffffff167fe49f40f57c43bcc0ea51de08718dcc45efb3325fb9d155e76c2a5ab33be2de1682600001518484604001518560600151426040516106db95949392919061314b565b60405180910390a25050565b6106ef612512565b6000808373ffffffffffffffffffffffffffffffffffffffff1673ffffffffffffffffffffffffffffffffffffffff1681526020019081526020016000206040518060a00160405290816000820160009054906101000a900460ff16600281111561075d5761075c612783565b5b600281111561076f5761076e612783565b5b815260200160018201805461078390612e8d565b80601f01602080910402602001604051908101604052809291908181526020018280546107af90612e8d565b80156107fc5780601f106107d1576101008083540402835291602001916107fc565b820191906000526020600020905b8154815290600101906020018083116107df57829003601f168201915b5050505050815260200160028201805461081590612e8d565b80601f016020809104026020016040519081016040528092919081815260200182805461084190612e8d565b801561088e5780601f106108635761010080835404028352916020019161088e565b820191906000526020600020905b81548152906001019060200180831161087157829003601f168201915b505050505081526020016003820180546108a790612e8d565b80601f01602080910402602001604051908101604052809291908181526020018280546108d390612e8d565b80156109205780601f106108f557610100808354040283529160200191610920565b820191906000526020600020905b81548152906001019060200180831161090357829003601f168201915b505050505081526020016004820160009054906101000a900460ff1615151515815250509050919050565b6001818154811061095b57600080fd5b906000526020600020016000915054906101000a900473ffffffffffffffffffffffffffffffffffffffff1681565b6004818154811061099a57600080fd5b906000526020600020016000915054906101000a900473ffffffffffffffffffffffffffffffffffffffff1681565b60006020528060005260406000206000915090508060000160009054906101000a900460ff16908060010180546109ff90612e8d565b80601f0160208091040260200160405190810160405280929190818152602001828054610a2b90612e8d565b8015610a785780601f10610a4d57610100808354040283529160200191610a78565b820191906000526020600020905b815481529060010190602001808311610a5b57829003601f168201915b505050505090806002018054610a8d90612e8d565b80601f0160208091040260200160405190810160405280929190818152602001828054610ab990612e8d565b8015610b065780601f10610adb57610100808354040283529160200191610b06565b820191906000526020600020905b815481529060010190602001808311610ae957829003601f168201915b505050505090806003018054610b1b90612e8d565b80601f0160208091040260200160405190810160405280929190818152602001828054610b4790612e8d565b8015610b945780601f10610b6957610100808354040283529160200191610b94565b820191906000526020600020905b815481529060010190602001808311610b7757829003601f168201915b5050505050908060040160009054906101000a900460ff16905085565b806000803373ffffffffffffffffffffffffffffffffffffffff1673ffffffffffffffffffffffffffffffffffffffff1681526020019081526020016000206002019081610bff919061306a565b5060008060003373ffffffffffffffffffffffffffffffffffffffff1673ffffffffffffffffffffffffffffffffffffffff1681526020019081526020016000206040518060a00160405290816000820160009054906101000a900460ff166002811115610c7057610c6f612783565b5b6002811115610c8257610c81612783565b5b8152602001600182018054610c9690612e8d565b80601f0160208091040260200160405190810160405280929190818152602001828054610cc290612e8d565b8015610d0f5780601f10610ce457610100808354040283529160200191610d0f565b820191906000526020600020905b815481529060010190602001808311610cf257829003601f168201915b50505050508152602001600282018054610d2890612e8d565b80601f0160208091040260200160405190810160405280929190818152602001828054610d5490612e8d565b8015610da15780601f10610d7657610100808354040283529160200191610da1565b820191906000526020600020905b815481529060010190602001808311610d8457829003601f168201915b50505050508152602001600382018054610dba90612e8d565b80601f0160208091040260200160405190810160405280929190818152602001828054610de690612e8d565b8015610e335780601f10610e0857610100808354040283529160200191610e33565b820191906000526020600020905b815481529060010190602001808311610e1657829003601f168201915b505050505081526020016004820160009054906101000a900460ff16151515158152505090503373ffffffffffffffffffffffffffffffffffffffff167fe49f40f57c43bcc0ea51de08718dcc45efb3325fb9d155e76c2a5ab33be2de168260000151836020015185856060015142604051610eb395949392919061314b565b60405180910390a25050565b6060600060048054905067ffffffffffffffff811115610ee257610ee1612584565b5b604051908082528060200260200182016040528015610f1b57816020015b610f08612512565b815260200190600190039081610f005790505b50905060005b6004805490508110156111f25760008060048381548110610f4557610f446131b3565b5b9060005260206000200160009054906101000a900473ffffffffffffffffffffffffffffffffffffffff1673ffffffffffffffffffffffffffffffffffffffff1673ffffffffffffffffffffffffffffffffffffffff1681526020019081526020016000206040518060a00160405290816000820160009054906101000a900460ff166002811115610fda57610fd9612783565b5b6002811115610fec57610feb612783565b5b815260200160018201805461100090612e8d565b80601f016020809104026020016040519081016040528092919081815260200182805461102c90612e8d565b80156110795780601f1061104e57610100808354040283529160200191611079565b820191906000526020600020905b81548152906001019060200180831161105c57829003601f168201915b5050505050815260200160028201805461109290612e8d565b80601f01602080910402602001604051908101604052809291908181526020018280546110be90612e8d565b801561110b5780601f106110e05761010080835404028352916020019161110b565b820191906000526020600020905b8154815290600101906020018083116110ee57829003601f168201915b5050505050815260200160038201805461112490612e8d565b80601f016020809104026020016040519081016040528092919081815260200182805461115090612e8d565b801561119d5780601f106111725761010080835404028352916020019161119d565b820191906000526020600020905b81548152906001019060200180831161118057829003601f168201915b505050505081526020016004820160009054906101000a900460ff1615151515815250508282815181106111d4576111d36131b3565b5b602002602001018190525080806111ea90613211565b915050610f21565b508091505090565b6003818154811061120a57600080fd5b906000526020600020016000915054906101000a900473ffffffffffffffffffffffffffffffffffffffff1681565b60008060003373ffffffffffffffffffffffffffffffffffffffff1673ffffffffffffffffffffffffffffffffffffffff168152602001908152602001600020600101805461128790612e8d565b9050146112c9576040517f08c379a00000000000000000000000000000000000000000000000000000000081526004016112c0906132b6565b60405180910390fd5b6040518060a001604052808760028111156112e7576112e6612783565b5b815260200186868080601f016020809104026020016040519081016040528093929190818152602001838380828437600081840152601f19601f82011690508083019250505050505050815260200184848080601f016020809104026020016040519081016040528093929190818152602001838380828437600081840152601f19601f820116905080830192505050505050508152602001828152602001600115158152506000803373ffffffffffffffffffffffffffffffffffffffff1673ffffffffffffffffffffffffffffffffffffffff16815260200190815260200160002060008201518160000160006101000a81548160ff021916908360028111156113f6576113f5612783565b5b02179055506020820151816001019081611410919061306a565b506040820151816002019081611426919061306a565b50606082015181600301908161143c919061306a565b5060808201518160040160006101000a81548160ff0219169083151502179055509050506001339080600181540180825580915050600190039060005260206000200160009091909190916101000a81548173ffffffffffffffffffffffffffffffffffffffff021916908373ffffffffffffffffffffffffffffffffffffffff160217905550600060028111156114d7576114d6612783565b5b8660028111156114ea576114e9612783565b5b03611553576002339080600181540180825580915050600190039060005260206000200160009091909190916101000a81548173ffffffffffffffffffffffffffffffffffffffff021916908373ffffffffffffffffffffffffffffffffffffffff1602179055505b6001600281111561156757611566612783565b5b86600281111561157a57611579612783565b5b036115e3576003339080600181540180825580915050600190039060005260206000200160009091909190916101000a81548173ffffffffffffffffffffffffffffffffffffffff021916908373ffffffffffffffffffffffffffffffffffffffff1602179055505b6002808111156115f6576115f5612783565b5b86600281111561160957611608612783565b5b03611672576004339080600181540180825580915050600190039060005260206000200160009091909190916101000a81548173ffffffffffffffffffffffffffffffffffffffff021916908373ffffffffffffffffffffffffffffffffffffffff1602179055505b3373ffffffffffffffffffffffffffffffffffffffff167fe49f40f57c43bcc0ea51de08718dcc45efb3325fb9d155e76c2a5ab33be2de16878787878787426040516116c49796959493929190613303565b60405180910390a2505050505050565b606080600060028054905067ffffffffffffffff8111156116f8576116f7612584565b5b6040519080825280602002602001820160405280156117265781602001602082028036833780820191505090505b509050600060028054905067ffffffffffffffff81111561174a57611749612584565b5b60405190808252806020026020018201604052801561178357816020015b611770612512565b8152602001906001900390816117685790505b50905060005b600280549050811015611ab4576000600282815481106117ac576117ab6131b3565b5b9060005260206000200160009054906101000a900473ffffffffffffffffffffffffffffffffffffffff16905060008060008373ffffffffffffffffffffffffffffffffffffffff1673ffffffffffffffffffffffffffffffffffffffff1681526020019081526020016000206040518060a00160405290816000820160009054906101000a900460ff16600281111561184957611848612783565b5b600281111561185b5761185a612783565b5b815260200160018201805461186f90612e8d565b80601f016020809104026020016040519081016040528092919081815260200182805461189b90612e8d565b80156118e85780601f106118bd576101008083540402835291602001916118e8565b820191906000526020600020905b8154815290600101906020018083116118cb57829003601f168201915b5050505050815260200160028201805461190190612e8d565b80601f016020809104026020016040519081016040528092919081815260200182805461192d90612e8d565b801561197a5780601f1061194f5761010080835404028352916020019161197a565b820191906000526020600020905b81548152906001019060200180831161195d57829003601f168201915b5050505050815260200160038201805461199390612e8d565b80601f01602080910402602001604051908101604052809291908181526020018280546119bf90612e8d565b8015611a0c5780601f106119e157610100808354040283529160200191611a0c565b820191906000526020600020905b8154815290600101906020018083116119ef57829003601f168201915b505050505081526020016004820160009054906101000a900460ff161515151581525050905081858481518110611a4657611a456131b3565b5b602002602001019073ffffffffffffffffffffffffffffffffffffffff16908173ffffffffffffffffffffffffffffffffffffffff168152505080848481518110611a9457611a936131b3565b5b602002602001018190525050508080611aac90613211565b915050611789565b5081819350935050509091565b60606002805480602002602001604051908101604052809291908181526020018280548015611b4557602002820191906000526020600020905b8160009054906101000a900473ffffffffffffffffffffffffffffffffffffffff1673ffffffffffffffffffffffffffffffffffffffff1681526020019060010190808311611afb575b5050505050905090565b60028181548110611b5f57600080fd5b906000526020600020016000915054906101000a900473ffffffffffffffffffffffffffffffffffffffff1681565b806000803373ffffffffffffffffffffffffffffffffffffffff1673ffffffffffffffffffffffffffffffffffffffff1681526020019081526020016000206003019081611bdc919061306a565b5060008060003373ffffffffffffffffffffffffffffffffffffffff1673ffffffffffffffffffffffffffffffffffffffff1681526020019081526020016000206040518060a00160405290816000820160009054906101000a900460ff166002811115611c4d57611c4c612783565b5b6002811115611c5f57611c5e612783565b5b8152602001600182018054611c7390612e8d565b80601f0160208091040260200160405190810160405280929190818152602001828054611c9f90612e8d565b8015611cec5780601f10611cc157610100808354040283529160200191611cec565b820191906000526020600020905b815481529060010190602001808311611ccf57829003601f168201915b50505050508152602001600282018054611d0590612e8d565b80601f0160208091040260200160405190810160405280929190818152602001828054611d3190612e8d565b8015611d7e5780601f10611d5357610100808354040283529160200191611d7e565b820191906000526020600020905b815481529060010190602001808311611d6157829003601f168201915b50505050508152602001600382018054611d9790612e8d565b80601f0160208091040260200160405190810160405280929190818152602001828054611dc390612e8d565b8015611e105780601f10611de557610100808354040283529160200191611e10565b820191906000526020600020905b815481529060010190602001808311611df357829003601f168201915b505050505081526020016004820160009054906101000a900460ff16151515158152505090503373ffffffffffffffffffffffffffffffffffffffff167fe49f40f57c43bcc0ea51de08718dcc45efb3325fb9d155e76c2a5ab33be2de168260000151836020015184606001518642604051611e9095949392919061314b565b60405180910390a25050565b6060600060038054905067ffffffffffffffff811115611ebf57611ebe612584565b5b604051908082528060200260200182016040528015611ef857816020015b611ee5612512565b815260200190600190039081611edd5790505b50905060005b6003805490508110156121cf5760008060038381548110611f2257611f216131b3565b5b9060005260206000200160009054906101000a900473ffffffffffffffffffffffffffffffffffffffff1673ffffffffffffffffffffffffffffffffffffffff1673ffffffffffffffffffffffffffffffffffffffff1681526020019081526020016000206040518060a00160405290816000820160009054906101000a900460ff166002811115611fb757611fb6612783565b5b6002811115611fc957611fc8612783565b5b8152602001600182018054611fdd90612e8d565b80601f016020809104026020016040519081016040528092919081815260200182805461200990612e8d565b80156120565780601f1061202b57610100808354040283529160200191612056565b820191906000526020600020905b81548152906001019060200180831161203957829003601f168201915b5050505050815260200160028201805461206f90612e8d565b80601f016020809104026020016040519081016040528092919081815260200182805461209b90612e8d565b80156120e85780601f106120bd576101008083540402835291602001916120e8565b820191906000526020600020905b8154815290600101906020018083116120cb57829003601f168201915b5050505050815260200160038201805461210190612e8d565b80601f016020809104026020016040519081016040528092919081815260200182805461212d90612e8d565b801561217a5780601f1061214f5761010080835404028352916020019161217a565b820191906000526020600020905b81548152906001019060200180831161215d57829003601f168201915b505050505081526020016004820160009054906101000a900460ff1615151515815250508282815181106121b1576121b06131b3565b5b602002602001018190525080806121c790613211565b915050611efe565b508091505090565b6060600060018054905067ffffffffffffffff8111156121fa576121f9612584565b5b60405190808252806020026020018201604052801561223357816020015b612220612512565b8152602001906001900390816122185790505b50905060005b60018054905081101561250a576000806001838154811061225d5761225c6131b3565b5b9060005260206000200160009054906101000a900473ffffffffffffffffffffffffffffffffffffffff1673ffffffffffffffffffffffffffffffffffffffff1673ffffffffffffffffffffffffffffffffffffffff1681526020019081526020016000206040518060a00160405290816000820160009054906101000a900460ff1660028111156122f2576122f1612783565b5b600281111561230457612303612783565b5b815260200160018201805461231890612e8d565b80601f016020809104026020016040519081016040528092919081815260200182805461234490612e8d565b80156123915780601f1061236657610100808354040283529160200191612391565b820191906000526020600020905b81548152906001019060200180831161237457829003601f168201915b505050505081526020016002820180546123aa90612e8d565b80601f01602080910402602001604051908101604052809291908181526020018280546123d690612e8d565b80156124235780601f106123f857610100808354040283529160200191612423565b820191906000526020600020905b81548152906001019060200180831161240657829003601f168201915b5050505050815260200160038201805461243c90612e8d565b80601f016020809104026020016040519081016040528092919081815260200182805461246890612e8d565b80156124b55780601f1061248a576101008083540402835291602001916124b5565b820191906000526020600020905b81548152906001019060200180831161249857829003601f168201915b505050505081526020016004820160009054906101000a900460ff1615151515815250508282815181106124ec576124eb6131b3565b5b6020026020010181905250808061250290613211565b915050612239565b508091505090565b6040518060a001604052806000600281111561253157612530612783565b5b81526020016060815260200160608152602001606081526020016000151581525090565b6000604051905090565b600080fd5b600080fd5b600080fd5b600080fd5b6000601f19601f8301169050919050565b7f4e487b7100000000000000000000000000000000000000000000000000000000600052604160045260246000fd5b6125bc82612573565b810181811067ffffffffffffffff821117156125db576125da612584565b5b80604052505050565b60006125ee612555565b90506125fa82826125b3565b919050565b600067ffffffffffffffff82111561261a57612619612584565b5b61262382612573565b9050602081019050919050565b82818337600083830152505050565b600061265261264d846125ff565b6125e4565b90508281526020810184848401111561266e5761266d61256e565b5b612679848285612630565b509392505050565b600082601f83011261269657612695612569565b5b81356126a684826020860161263f565b91505092915050565b6000602082840312156126c5576126c461255f565b5b600082013567ffffffffffffffff8111156126e3576126e2612564565b5b6126ef84828501612681565b91505092915050565b600073ffffffffffffffffffffffffffffffffffffffff82169050919050565b6000612723826126f8565b9050919050565b61273381612718565b811461273e57600080fd5b50565b6000813590506127508161272a565b92915050565b60006020828403121561276c5761276b61255f565b5b600061277a84828501612741565b91505092915050565b7f4e487b7100000000000000000000000000000000000000000000000000000000600052602160045260246000fd5b600381106127c3576127c2612783565b5b50565b60008190506127d4826127b2565b919050565b60006127e4826127c6565b9050919050565b6127f4816127d9565b82525050565b600081519050919050565b600082825260208201905092915050565b60005b83811015612834578082015181840152602081019050612819565b60008484015250505050565b600061284b826127fa565b6128558185612805565b9350612865818560208601612816565b61286e81612573565b840191505092915050565b60008115159050919050565b61288e81612879565b82525050565b600060a0830160008301516128ac60008601826127eb565b50602083015184820360208601526128c48282612840565b915050604083015184820360408601526128de8282612840565b915050606083015184820360608601526128f88282612840565b915050608083015161290d6080860182612885565b508091505092915050565b600060208201905081810360008301526129328184612894565b905092915050565b6000819050919050565b61294d8161293a565b811461295857600080fd5b50565b60008135905061296a81612944565b92915050565b6000602082840312156129865761298561255f565b5b60006129948482850161295b565b91505092915050565b6129a681612718565b82525050565b60006020820190506129c1600083018461299d565b92915050565b6129d0816127d9565b82525050565b600082825260208201905092915050565b60006129f2826127fa565b6129fc81856129d6565b9350612a0c818560208601612816565b612a1581612573565b840191505092915050565b612a2981612879565b82525050565b600060a082019050612a4460008301886129c7565b8181036020830152612a5681876129e7565b90508181036040830152612a6a81866129e7565b90508181036060830152612a7e81856129e7565b9050612a8d6080830184612a20565b9695505050505050565b600081519050919050565b600082825260208201905092915050565b6000819050602082019050919050565b600060a083016000830151612adb60008601826127eb565b5060208301518482036020860152612af38282612840565b91505060408301518482036040860152612b0d8282612840565b91505060608301518482036060860152612b278282612840565b9150506080830151612b3c6080860182612885565b508091505092915050565b6000612b538383612ac3565b905092915050565b6000602082019050919050565b6000612b7382612a97565b612b7d8185612aa2565b935083602082028501612b8f85612ab3565b8060005b85811015612bcb5784840389528151612bac8582612b47565b9450612bb783612b5b565b925060208a01995050600181019050612b93565b50829750879550505050505092915050565b60006020820190508181036000830152612bf78184612b68565b905092915050565b60038110612c0c57600080fd5b50565b600081359050612c1e81612bff565b92915050565b600080fd5b600080fd5b60008083601f840112612c4457612c43612569565b5b8235905067ffffffffffffffff811115612c6157612c60612c24565b5b602083019150836001820283011115612c7d57612c7c612c29565b5b9250929050565b60008060008060008060808789031215612ca157612ca061255f565b5b6000612caf89828a01612c0f565b965050602087013567ffffffffffffffff811115612cd057612ccf612564565b5b612cdc89828a01612c2e565b9550955050604087013567ffffffffffffffff811115612cff57612cfe612564565b5b612d0b89828a01612c2e565b9350935050606087013567ffffffffffffffff811115612d2e57612d2d612564565b5b612d3a89828a01612681565b9150509295509295509295565b600081519050919050565b600082825260208201905092915050565b6000819050602082019050919050565b612d7c81612718565b82525050565b6000612d8e8383612d73565b60208301905092915050565b6000602082019050919050565b6000612db282612d47565b612dbc8185612d52565b9350612dc783612d63565b8060005b83811015612df8578151612ddf8882612d82565b9750612dea83612d9a565b925050600181019050612dcb565b5085935050505092915050565b60006040820190508181036000830152612e1f8185612da7565b90508181036020830152612e338184612b68565b90509392505050565b60006020820190508181036000830152612e568184612da7565b905092915050565b7f4e487b7100000000000000000000000000000000000000000000000000000000600052602260045260246000fd5b60006002820490506001821680612ea557607f821691505b602082108103612eb857612eb7612e5e565b5b50919050565b60008190508160005260206000209050919050565b60006020601f8301049050919050565b600082821b905092915050565b600060088302612f207fffffffffffffffffffffffffffffffffffffffffffffffffffffffffffffffff82612ee3565b612f2a8683612ee3565b95508019841693508086168417925050509392505050565b6000819050919050565b6000612f67612f62612f5d8461293a565b612f42565b61293a565b9050919050565b6000819050919050565b612f8183612f4c565b612f95612f8d82612f6e565b848454612ef0565b825550505050565b600090565b612faa612f9d565b612fb5818484612f78565b505050565b5b81811015612fd957612fce600082612fa2565b600181019050612fbb565b5050565b601f82111561301e57612fef81612ebe565b612ff884612ed3565b81016020851015613007578190505b61301b61301385612ed3565b830182612fba565b50505b505050565b600082821c905092915050565b600061304160001984600802613023565b1980831691505092915050565b600061305a8383613030565b9150826002028217905092915050565b613073826127fa565b67ffffffffffffffff81111561308c5761308b612584565b5b6130968254612e8d565b6130a1828285612fdd565b600060209050601f8311600181146130d457600084156130c2578287015190505b6130cc858261304e565b865550613134565b601f1984166130e286612ebe565b60005b8281101561310a578489015182556001820191506020850194506020810190506130e5565b868310156131275784890151613123601f891682613030565b8355505b6001600288020188555050505b505050505050565b6131458161293a565b82525050565b600060a08201905061316060008301886129c7565b818103602083015261317281876129e7565b9050818103604083015261318681866129e7565b9050818103606083015261319a81856129e7565b90506131a9608083018461313c565b9695505050505050565b7f4e487b7100000000000000000000000000000000000000000000000000000000600052603260045260246000fd5b7f4e487b7100000000000000000000000000000000000000000000000000000000600052601160045260246000fd5b600061321c8261293a565b91507fffffffffffffffffffffffffffffffffffffffffffffffffffffffffffffffff820361324e5761324d6131e2565b5b600182019050919050565b600082825260208201905092915050565b7f5573657220616c72656164792072656769737465726564000000000000000000600082015250565b60006132a0601783613259565b91506132ab8261326a565b602082019050919050565b600060208201905081810360008301526132cf81613293565b9050919050565b60006132e283856129d6565b93506132ef838584612630565b6132f883612573565b840190509392505050565b600060a082019050613318600083018a6129c7565b818103602083015261332b81888a6132d6565b905081810360408301526133408186886132d6565b9050818103606083015261335481856129e7565b9050613363608083018461313c565b9897505050505050505056fea264697066735822122017f88e6fd45376f12ae9af69bcaed9818247313ba4ae57dfb0ea8e1744e7136364736f6c63430008120033",
  "linkReferences": {},
  "deployedLinkReferences": {}
}